{
	"data": {
		"bytecode": {
			"linkReferences": {},
			"object": "608060405234801561001057600080fd5b506112ac806100206000396000f3fe608060405234801561001057600080fd5b50600436106100935760003560e01c8063497d483b11610066578063497d483b14610144578063a693a3c614610162578063b4956c6714610192578063e72ea452146101c2578063ea363d99146101f257610093565b8063147f6b75146100985780631796eee1146100b4578063285aee08146100e45780634834675c14610114575b600080fd5b6100b260048036038101906100ad9190610ac0565b61020e565b005b6100ce60048036038101906100c99190610b6e565b610274565b6040516100db9190610cdc565b60405180910390f35b6100fe60048036038101906100f99190610cfe565b6103c0565b60405161010b9190610d88565b60405180910390f35b61012e60048036038101906101299190610b6e565b610479565b60405161013b9190610dc5565b60405180910390f35b61014c610499565b6040516101599190610e9e565b60405180910390f35b61017c60048036038101906101779190610b6e565b6104f1565b6040516101899190610cdc565b60405180910390f35b6101ac60048036038101906101a79190610b6e565b61063c565b6040516101b99190610dc5565b60405180910390f35b6101dc60048036038101906101d79190610cfe565b61065c565b6040516101e99190610d88565b60405180910390f35b61020c60048036038101906102079190610ac0565b610715565b005b6000828051906020012060001c90508160008083815260200190815260200160002090805190602001906102439291906107a6565b50600180600083815260200190815260200160002060006101000a81548160ff021916908315150217905550505050565b60606003600083815260200190815260200160002060009054906101000a900460ff166102d6576040517f08c379a00000000000000000000000000000000000000000000000000000000081526004016102cd90610f0c565b60405180910390fd5b60026000838152602001908152602001600020805480602002602001604051908101604052809291908181526020016000905b828210156103b557838290600052602060002001805461032890610f5b565b80601f016020809104026020016040519081016040528092919081815260200182805461035490610f5b565b80156103a15780601f10610376576101008083540402835291602001916103a1565b820191906000526020600020905b81548152906001019060200180831161038457829003601f168201915b505050505081526020019060010190610309565b505050509050919050565b600060205281600052604060002081815481106103dc57600080fd5b906000526020600020016000915091505080546103f890610f5b565b80601f016020809104026020016040519081016040528092919081815260200182805461042490610f5b565b80156104715780601f1061044657610100808354040283529160200191610471565b820191906000526020600020905b81548152906001019060200180831161045457829003601f168201915b505050505081565b60016020528060005260406000206000915054906101000a900460ff1681565b606060048054806020026020016040519081016040528092919081815260200182805480156104e757602002820191906000526020600020905b8154815260200190600101908083116104d3575b5050505050905090565b60606001600083815260200190815260200160002060009054906101000a900460ff16610553576040517f08c379a000000000000000000000000000000000000000000000000000000000815260040161054a90610fd8565b60405180910390fd5b600080838152602001908152602001600020805480602002602001604051908101604052809291908181526020016000905b828210156106315783829060005260206000200180546105a490610f5b565b80601f01602080910402602001604051908101604052809291908181526020018280546105d090610f5b565b801561061d5780601f106105f25761010080835404028352916020019161061d565b820191906000526020600020905b81548152906001019060200180831161060057829003601f168201915b505050505081526020019060010190610585565b505050509050919050565b60036020528060005260406000206000915054906101000a900460ff1681565b6002602052816000526040600020818154811061067857600080fd5b9060005260206000200160009150915050805461069490610f5b565b80601f01602080910402602001604051908101604052809291908181526020018280546106c090610f5b565b801561070d5780601f106106e25761010080835404028352916020019161070d565b820191906000526020600020905b8154815290600101906020018083116106f057829003601f168201915b505050505081565b6000828051906020012060001c90508160026000838152602001908152602001600020908051906020019061074b9291906107a6565b5060016003600083815260200190815260200160002060006101000a81548160ff0219169083151502179055506004819080600181540180825580915050600190039060005260206000200160009091909190915055505050565b8280548282559060005260206000209081019282156107ee579160200282015b828111156107ed5782518290816107dd91906111a4565b50916020019190600101906107c6565b5b5090506107fb91906107ff565b5090565b5b8082111561081f57600081816108169190610823565b50600101610800565b5090565b50805461082f90610f5b565b6000825580601f106108415750610860565b601f01602090049060005260206000209081019061085f9190610863565b5b50565b5b8082111561087c576000816000905550600101610864565b5090565b6000604051905090565b600080fd5b600080fd5b600080fd5b600080fd5b6000601f19601f8301169050919050565b7f4e487b7100000000000000000000000000000000000000000000000000000000600052604160045260246000fd5b6108e78261089e565b810181811067ffffffffffffffff82111715610906576109056108af565b5b80604052505050565b6000610919610880565b905061092582826108de565b919050565b600067ffffffffffffffff821115610945576109446108af565b5b61094e8261089e565b9050602081019050919050565b82818337600083830152505050565b600061097d6109788461092a565b61090f565b90508281526020810184848401111561099957610998610899565b5b6109a484828561095b565b509392505050565b600082601f8301126109c1576109c0610894565b5b81356109d184826020860161096a565b91505092915050565b600067ffffffffffffffff8211156109f5576109f46108af565b5b602082029050602081019050919050565b600080fd5b6000610a1e610a19846109da565b61090f565b90508083825260208201905060208402830185811115610a4157610a40610a06565b5b835b81811015610a8857803567ffffffffffffffff811115610a6657610a65610894565b5b808601610a7389826109ac565b85526020850194505050602081019050610a43565b5050509392505050565b600082601f830112610aa757610aa6610894565b5b8135610ab7848260208601610a0b565b91505092915050565b60008060408385031215610ad757610ad661088a565b5b600083013567ffffffffffffffff811115610af557610af461088f565b5b610b01858286016109ac565b925050602083013567ffffffffffffffff811115610b2257610b2161088f565b5b610b2e85828601610a92565b9150509250929050565b6000819050919050565b610b4b81610b38565b8114610b5657600080fd5b50565b600081359050610b6881610b42565b92915050565b600060208284031215610b8457610b8361088a565b5b6000610b9284828501610b59565b91505092915050565b600081519050919050565b600082825260208201905092915050565b6000819050602082019050919050565b600081519050919050565b600082825260208201905092915050565b60005b83811015610c01578082015181840152602081019050610be6565b60008484015250505050565b6000610c1882610bc7565b610c228185610bd2565b9350610c32818560208601610be3565b610c3b8161089e565b840191505092915050565b6000610c528383610c0d565b905092915050565b6000602082019050919050565b6000610c7282610b9b565b610c7c8185610ba6565b935083602082028501610c8e85610bb7565b8060005b85811015610cca5784840389528151610cab8582610c46565b9450610cb683610c5a565b925060208a01995050600181019050610c92565b50829750879550505050505092915050565b60006020820190508181036000830152610cf68184610c67565b905092915050565b60008060408385031215610d1557610d1461088a565b5b6000610d2385828601610b59565b9250506020610d3485828601610b59565b9150509250929050565b600082825260208201905092915050565b6000610d5a82610bc7565b610d648185610d3e565b9350610d74818560208601610be3565b610d7d8161089e565b840191505092915050565b60006020820190508181036000830152610da28184610d4f565b905092915050565b60008115159050919050565b610dbf81610daa565b82525050565b6000602082019050610dda6000830184610db6565b92915050565b600081519050919050565b600082825260208201905092915050565b6000819050602082019050919050565b610e1581610b38565b82525050565b6000610e278383610e0c565b60208301905092915050565b6000602082019050919050565b6000610e4b82610de0565b610e558185610deb565b9350610e6083610dfc565b8060005b83811015610e91578151610e788882610e1b565b9750610e8383610e33565b925050600181019050610e64565b5085935050505092915050565b60006020820190508181036000830152610eb88184610e40565b905092915050565b7f6d61737465724c6f636b206e6f74206164640000000000000000000000000000600082015250565b6000610ef6601283610d3e565b9150610f0182610ec0565b602082019050919050565b60006020820190508181036000830152610f2581610ee9565b9050919050565b7f4e487b7100000000000000000000000000000000000000000000000000000000600052602260045260246000fd5b60006002820490506001821680610f7357607f821691505b602082108103610f8657610f85610f2c565b5b50919050565b7f747970654e616d65206e6f742061646400000000000000000000000000000000600082015250565b6000610fc2601083610d3e565b9150610fcd82610f8c565b602082019050919050565b60006020820190508181036000830152610ff181610fb5565b9050919050565b60008190508160005260206000209050919050565b60006020601f8301049050919050565b600082821b905092915050565b60006008830261105a7fffffffffffffffffffffffffffffffffffffffffffffffffffffffffffffffff8261101d565b611064868361101d565b95508019841693508086168417925050509392505050565b6000819050919050565b60006110a161109c61109784610b38565b61107c565b610b38565b9050919050565b6000819050919050565b6110bb83611086565b6110cf6110c7826110a8565b84845461102a565b825550505050565b600090565b6110e46110d7565b6110ef8184846110b2565b505050565b5b81811015611113576111086000826110dc565b6001810190506110f5565b5050565b601f8211156111585761112981610ff8565b6111328461100d565b81016020851015611141578190505b61115561114d8561100d565b8301826110f4565b50505b505050565b600082821c905092915050565b600061117b6000198460080261115d565b1980831691505092915050565b6000611194838361116a565b9150826002028217905092915050565b6111ad82610bc7565b67ffffffffffffffff8111156111c6576111c56108af565b5b6111d08254610f5b565b6111db828285611117565b600060209050601f83116001811461120e57600084156111fc578287015190505b6112068582611188565b86555061126e565b601f19841661121c86610ff8565b60005b828110156112445784890151825560018201915060208501945060208101905061121f565b86831015611261578489015161125d601f89168261116a565b8355505b6001600288020188555050505b50505050505056fea2646970667358221220c474b37f3817884ab0272ba8aad4cd74ca0bc9ea6be0429a1f9537571468b51464736f6c63430008120033",
			"opcodes": "PUSH1 0x80 PUSH1 0x40 MSTORE CALLVALUE DUP1 ISZERO PUSH2 0x10 JUMPI PUSH1 0x0 DUP1 REVERT JUMPDEST POP PUSH2 0x12AC DUP1 PUSH2 0x20 PUSH1 0x0 CODECOPY PUSH1 0x0 RETURN INVALID PUSH1 0x80 PUSH1 0x40 MSTORE CALLVALUE DUP1 ISZERO PUSH2 0x10 JUMPI PUSH1 0x0 DUP1 REVERT JUMPDEST POP PUSH1 0x4 CALLDATASIZE LT PUSH2 0x93 JUMPI PUSH1 0x0 CALLDATALOAD PUSH1 0xE0 SHR DUP1 PUSH4 0x497D483B GT PUSH2 0x66 JUMPI DUP1 PUSH4 0x497D483B EQ PUSH2 0x144 JUMPI DUP1 PUSH4 0xA693A3C6 EQ PUSH2 0x162 JUMPI DUP1 PUSH4 0xB4956C67 EQ PUSH2 0x192 JUMPI DUP1 PUSH4 0xE72EA452 EQ PUSH2 0x1C2 JUMPI DUP1 PUSH4 0xEA363D99 EQ PUSH2 0x1F2 JUMPI PUSH2 0x93 JUMP JUMPDEST DUP1 PUSH4 0x147F6B75 EQ PUSH2 0x98 JUMPI DUP1 PUSH4 0x1796EEE1 EQ PUSH2 0xB4 JUMPI DUP1 PUSH4 0x285AEE08 EQ PUSH2 0xE4 JUMPI DUP1 PUSH4 0x4834675C EQ PUSH2 0x114 JUMPI JUMPDEST PUSH1 0x0 DUP1 REVERT JUMPDEST PUSH2 0xB2 PUSH1 0x4 DUP1 CALLDATASIZE SUB DUP2 ADD SWAP1 PUSH2 0xAD SWAP2 SWAP1 PUSH2 0xAC0 JUMP JUMPDEST PUSH2 0x20E JUMP JUMPDEST STOP JUMPDEST PUSH2 0xCE PUSH1 0x4 DUP1 CALLDATASIZE SUB DUP2 ADD SWAP1 PUSH2 0xC9 SWAP2 SWAP1 PUSH2 0xB6E JUMP JUMPDEST PUSH2 0x274 JUMP JUMPDEST PUSH1 0x40 MLOAD PUSH2 0xDB SWAP2 SWAP1 PUSH2 0xCDC JUMP JUMPDEST PUSH1 0x40 MLOAD DUP1 SWAP2 SUB SWAP1 RETURN JUMPDEST PUSH2 0xFE PUSH1 0x4 DUP1 CALLDATASIZE SUB DUP2 ADD SWAP1 PUSH2 0xF9 SWAP2 SWAP1 PUSH2 0xCFE JUMP JUMPDEST PUSH2 0x3C0 JUMP JUMPDEST PUSH1 0x40 MLOAD PUSH2 0x10B SWAP2 SWAP1 PUSH2 0xD88 JUMP JUMPDEST PUSH1 0x40 MLOAD DUP1 SWAP2 SUB SWAP1 RETURN JUMPDEST PUSH2 0x12E PUSH1 0x4 DUP1 CALLDATASIZE SUB DUP2 ADD SWAP1 PUSH2 0x129 SWAP2 SWAP1 PUSH2 0xB6E JUMP JUMPDEST PUSH2 0x479 JUMP JUMPDEST PUSH1 0x40 MLOAD PUSH2 0x13B SWAP2 SWAP1 PUSH2 0xDC5 JUMP JUMPDEST PUSH1 0x40 MLOAD DUP1 SWAP2 SUB SWAP1 RETURN JUMPDEST PUSH2 0x14C PUSH2 0x499 JUMP JUMPDEST PUSH1 0x40 MLOAD PUSH2 0x159 SWAP2 SWAP1 PUSH2 0xE9E JUMP JUMPDEST PUSH1 0x40 MLOAD DUP1 SWAP2 SUB SWAP1 RETURN JUMPDEST PUSH2 0x17C PUSH1 0x4 DUP1 CALLDATASIZE SUB DUP2 ADD SWAP1 PUSH2 0x177 SWAP2 SWAP1 PUSH2 0xB6E JUMP JUMPDEST PUSH2 0x4F1 JUMP JUMPDEST PUSH1 0x40 MLOAD PUSH2 0x189 SWAP2 SWAP1 PUSH2 0xCDC JUMP JUMPDEST PUSH1 0x40 MLOAD DUP1 SWAP2 SUB SWAP1 RETURN JUMPDEST PUSH2 0x1AC PUSH1 0x4 DUP1 CALLDATASIZE SUB DUP2 ADD SWAP1 PUSH2 0x1A7 SWAP2 SWAP1 PUSH2 0xB6E JUMP JUMPDEST PUSH2 0x63C JUMP JUMPDEST PUSH1 0x40 MLOAD PUSH2 0x1B9 SWAP2 SWAP1 PUSH2 0xDC5 JUMP JUMPDEST PUSH1 0x40 MLOAD DUP1 SWAP2 SUB SWAP1 RETURN JUMPDEST PUSH2 0x1DC PUSH1 0x4 DUP1 CALLDATASIZE SUB DUP2 ADD SWAP1 PUSH2 0x1D7 SWAP2 SWAP1 PUSH2 0xCFE JUMP JUMPDEST PUSH2 0x65C JUMP JUMPDEST PUSH1 0x40 MLOAD PUSH2 0x1E9 SWAP2 SWAP1 PUSH2 0xD88 JUMP JUMPDEST PUSH1 0x40 MLOAD DUP1 SWAP2 SUB SWAP1 RETURN JUMPDEST PUSH2 0x20C PUSH1 0x4 DUP1 CALLDATASIZE SUB DUP2 ADD SWAP1 PUSH2 0x207 SWAP2 SWAP1 PUSH2 0xAC0 JUMP JUMPDEST PUSH2 0x715 JUMP JUMPDEST STOP JUMPDEST PUSH1 0x0 DUP3 DUP1 MLOAD SWAP1 PUSH1 0x20 ADD KECCAK256 PUSH1 0x0 SHR SWAP1 POP DUP2 PUSH1 0x0 DUP1 DUP4 DUP2 MSTORE PUSH1 0x20 ADD SWAP1 DUP2 MSTORE PUSH1 0x20 ADD PUSH1 0x0 KECCAK256 SWAP1 DUP1 MLOAD SWAP1 PUSH1 0x20 ADD SWAP1 PUSH2 0x243 SWAP3 SWAP2 SWAP1 PUSH2 0x7A6 JUMP JUMPDEST POP PUSH1 0x1 DUP1 PUSH1 0x0 DUP4 DUP2 MSTORE PUSH1 0x20 ADD SWAP1 DUP2 MSTORE PUSH1 0x20 ADD PUSH1 0x0 KECCAK256 PUSH1 0x0 PUSH2 0x100 EXP DUP2 SLOAD DUP2 PUSH1 0xFF MUL NOT AND SWAP1 DUP4 ISZERO ISZERO MUL OR SWAP1 SSTORE POP POP POP POP JUMP JUMPDEST PUSH1 0x60 PUSH1 0x3 PUSH1 0x0 DUP4 DUP2 MSTORE PUSH1 0x20 ADD SWAP1 DUP2 MSTORE PUSH1 0x20 ADD PUSH1 0x0 KECCAK256 PUSH1 0x0 SWAP1 SLOAD SWAP1 PUSH2 0x100 EXP SWAP1 DIV PUSH1 0xFF AND PUSH2 0x2D6 JUMPI PUSH1 0x40 MLOAD PUSH32 0x8C379A000000000000000000000000000000000000000000000000000000000 DUP2 MSTORE PUSH1 0x4 ADD PUSH2 0x2CD SWAP1 PUSH2 0xF0C JUMP JUMPDEST PUSH1 0x40 MLOAD DUP1 SWAP2 SUB SWAP1 REVERT JUMPDEST PUSH1 0x2 PUSH1 0x0 DUP4 DUP2 MSTORE PUSH1 0x20 ADD SWAP1 DUP2 MSTORE PUSH1 0x20 ADD PUSH1 0x0 KECCAK256 DUP1 SLOAD DUP1 PUSH1 0x20 MUL PUSH1 0x20 ADD PUSH1 0x40 MLOAD SWAP1 DUP2 ADD PUSH1 0x40 MSTORE DUP1 SWAP3 SWAP2 SWAP1 DUP2 DUP2 MSTORE PUSH1 0x20 ADD PUSH1 0x0 SWAP1 JUMPDEST DUP3 DUP3 LT ISZERO PUSH2 0x3B5 JUMPI DUP4 DUP3 SWAP1 PUSH1 0x0 MSTORE PUSH1 0x20 PUSH1 0x0 KECCAK256 ADD DUP1 SLOAD PUSH2 0x328 SWAP1 PUSH2 0xF5B JUMP JUMPDEST DUP1 PUSH1 0x1F ADD PUSH1 0x20 DUP1 SWAP2 DIV MUL PUSH1 0x20 ADD PUSH1 0x40 MLOAD SWAP1 DUP2 ADD PUSH1 0x40 MSTORE DUP1 SWAP3 SWAP2 SWAP1 DUP2 DUP2 MSTORE PUSH1 0x20 ADD DUP3 DUP1 SLOAD PUSH2 0x354 SWAP1 PUSH2 0xF5B JUMP JUMPDEST DUP1 ISZERO PUSH2 0x3A1 JUMPI DUP1 PUSH1 0x1F LT PUSH2 0x376 JUMPI PUSH2 0x100 DUP1 DUP4 SLOAD DIV MUL DUP4 MSTORE SWAP2 PUSH1 0x20 ADD SWAP2 PUSH2 0x3A1 JUMP JUMPDEST DUP3 ADD SWAP2 SWAP1 PUSH1 0x0 MSTORE PUSH1 0x20 PUSH1 0x0 KECCAK256 SWAP1 JUMPDEST DUP2 SLOAD DUP2 MSTORE SWAP1 PUSH1 0x1 ADD SWAP1 PUSH1 0x20 ADD DUP1 DUP4 GT PUSH2 0x384 JUMPI DUP3 SWAP1 SUB PUSH1 0x1F AND DUP3 ADD SWAP2 JUMPDEST POP POP POP POP POP DUP2 MSTORE PUSH1 0x20 ADD SWAP1 PUSH1 0x1 ADD SWAP1 PUSH2 0x309 JUMP JUMPDEST POP POP POP POP SWAP1 POP SWAP2 SWAP1 POP JUMP JUMPDEST PUSH1 0x0 PUSH1 0x20 MSTORE DUP2 PUSH1 0x0 MSTORE PUSH1 0x40 PUSH1 0x0 KECCAK256 DUP2 DUP2 SLOAD DUP2 LT PUSH2 0x3DC JUMPI PUSH1 0x0 DUP1 REVERT JUMPDEST SWAP1 PUSH1 0x0 MSTORE PUSH1 0x20 PUSH1 0x0 KECCAK256 ADD PUSH1 0x0 SWAP2 POP SWAP2 POP POP DUP1 SLOAD PUSH2 0x3F8 SWAP1 PUSH2 0xF5B JUMP JUMPDEST DUP1 PUSH1 0x1F ADD PUSH1 0x20 DUP1 SWAP2 DIV MUL PUSH1 0x20 ADD PUSH1 0x40 MLOAD SWAP1 DUP2 ADD PUSH1 0x40 MSTORE DUP1 SWAP3 SWAP2 SWAP1 DUP2 DUP2 MSTORE PUSH1 0x20 ADD DUP3 DUP1 SLOAD PUSH2 0x424 SWAP1 PUSH2 0xF5B JUMP JUMPDEST DUP1 ISZERO PUSH2 0x471 JUMPI DUP1 PUSH1 0x1F LT PUSH2 0x446 JUMPI PUSH2 0x100 DUP1 DUP4 SLOAD DIV MUL DUP4 MSTORE SWAP2 PUSH1 0x20 ADD SWAP2 PUSH2 0x471 JUMP JUMPDEST DUP3 ADD SWAP2 SWAP1 PUSH1 0x0 MSTORE PUSH1 0x20 PUSH1 0x0 KECCAK256 SWAP1 JUMPDEST DUP2 SLOAD DUP2 MSTORE SWAP1 PUSH1 0x1 ADD SWAP1 PUSH1 0x20 ADD DUP1 DUP4 GT PUSH2 0x454 JUMPI DUP3 SWAP1 SUB PUSH1 0x1F AND DUP3 ADD SWAP2 JUMPDEST POP POP POP POP POP DUP2 JUMP JUMPDEST PUSH1 0x1 PUSH1 0x20 MSTORE DUP1 PUSH1 0x0 MSTORE PUSH1 0x40 PUSH1 0x0 KECCAK256 PUSH1 0x0 SWAP2 POP SLOAD SWAP1 PUSH2 0x100 EXP SWAP1 DIV PUSH1 0xFF AND DUP2 JUMP JUMPDEST PUSH1 0x60 PUSH1 0x4 DUP1 SLOAD DUP1 PUSH1 0x20 MUL PUSH1 0x20 ADD PUSH1 0x40 MLOAD SWAP1 DUP2 ADD PUSH1 0x40 MSTORE DUP1 SWAP3 SWAP2 SWAP1 DUP2 DUP2 MSTORE PUSH1 0x20 ADD DUP3 DUP1 SLOAD DUP1 ISZERO PUSH2 0x4E7 JUMPI PUSH1 0x20 MUL DUP3 ADD SWAP2 SWAP1 PUSH1 0x0 MSTORE PUSH1 0x20 PUSH1 0x0 KECCAK256 SWAP1 JUMPDEST DUP2 SLOAD DUP2 MSTORE PUSH1 0x20 ADD SWAP1 PUSH1 0x1 ADD SWAP1 DUP1 DUP4 GT PUSH2 0x4D3 JUMPI JUMPDEST POP POP POP POP POP SWAP1 POP SWAP1 JUMP JUMPDEST PUSH1 0x60 PUSH1 0x1 PUSH1 0x0 DUP4 DUP2 MSTORE PUSH1 0x20 ADD SWAP1 DUP2 MSTORE PUSH1 0x20 ADD PUSH1 0x0 KECCAK256 PUSH1 0x0 SWAP1 SLOAD SWAP1 PUSH2 0x100 EXP SWAP1 DIV PUSH1 0xFF AND PUSH2 0x553 JUMPI PUSH1 0x40 MLOAD PUSH32 0x8C379A000000000000000000000000000000000000000000000000000000000 DUP2 MSTORE PUSH1 0x4 ADD PUSH2 0x54A SWAP1 PUSH2 0xFD8 JUMP JUMPDEST PUSH1 0x40 MLOAD DUP1 SWAP2 SUB SWAP1 REVERT JUMPDEST PUSH1 0x0 DUP1 DUP4 DUP2 MSTORE PUSH1 0x20 ADD SWAP1 DUP2 MSTORE PUSH1 0x20 ADD PUSH1 0x0 KECCAK256 DUP1 SLOAD DUP1 PUSH1 0x20 MUL PUSH1 0x20 ADD PUSH1 0x40 MLOAD SWAP1 DUP2 ADD PUSH1 0x40 MSTORE DUP1 SWAP3 SWAP2 SWAP1 DUP2 DUP2 MSTORE PUSH1 0x20 ADD PUSH1 0x0 SWAP1 JUMPDEST DUP3 DUP3 LT ISZERO PUSH2 0x631 JUMPI DUP4 DUP3 SWAP1 PUSH1 0x0 MSTORE PUSH1 0x20 PUSH1 0x0 KECCAK256 ADD DUP1 SLOAD PUSH2 0x5A4 SWAP1 PUSH2 0xF5B JUMP JUMPDEST DUP1 PUSH1 0x1F ADD PUSH1 0x20 DUP1 SWAP2 DIV MUL PUSH1 0x20 ADD PUSH1 0x40 MLOAD SWAP1 DUP2 ADD PUSH1 0x40 MSTORE DUP1 SWAP3 SWAP2 SWAP1 DUP2 DUP2 MSTORE PUSH1 0x20 ADD DUP3 DUP1 SLOAD PUSH2 0x5D0 SWAP1 PUSH2 0xF5B JUMP JUMPDEST DUP1 ISZERO PUSH2 0x61D JUMPI DUP1 PUSH1 0x1F LT PUSH2 0x5F2 JUMPI PUSH2 0x100 DUP1 DUP4 SLOAD DIV MUL DUP4 MSTORE SWAP2 PUSH1 0x20 ADD SWAP2 PUSH2 0x61D JUMP JUMPDEST DUP3 ADD SWAP2 SWAP1 PUSH1 0x0 MSTORE PUSH1 0x20 PUSH1 0x0 KECCAK256 SWAP1 JUMPDEST DUP2 SLOAD DUP2 MSTORE SWAP1 PUSH1 0x1 ADD SWAP1 PUSH1 0x20 ADD DUP1 DUP4 GT PUSH2 0x600 JUMPI DUP3 SWAP1 SUB PUSH1 0x1F AND DUP3 ADD SWAP2 JUMPDEST POP POP POP POP POP DUP2 MSTORE PUSH1 0x20 ADD SWAP1 PUSH1 0x1 ADD SWAP1 PUSH2 0x585 JUMP JUMPDEST POP POP POP POP SWAP1 POP SWAP2 SWAP1 POP JUMP JUMPDEST PUSH1 0x3 PUSH1 0x20 MSTORE DUP1 PUSH1 0x0 MSTORE PUSH1 0x40 PUSH1 0x0 KECCAK256 PUSH1 0x0 SWAP2 POP SLOAD SWAP1 PUSH2 0x100 EXP SWAP1 DIV PUSH1 0xFF AND DUP2 JUMP JUMPDEST PUSH1 0x2 PUSH1 0x20 MSTORE DUP2 PUSH1 0x0 MSTORE PUSH1 0x40 PUSH1 0x0 KECCAK256 DUP2 DUP2 SLOAD DUP2 LT PUSH2 0x678 JUMPI PUSH1 0x0 DUP1 REVERT JUMPDEST SWAP1 PUSH1 0x0 MSTORE PUSH1 0x20 PUSH1 0x0 KECCAK256 ADD PUSH1 0x0 SWAP2 POP SWAP2 POP POP DUP1 SLOAD PUSH2 0x694 SWAP1 PUSH2 0xF5B JUMP JUMPDEST DUP1 PUSH1 0x1F ADD PUSH1 0x20 DUP1 SWAP2 DIV MUL PUSH1 0x20 ADD PUSH1 0x40 MLOAD SWAP1 DUP2 ADD PUSH1 0x40 MSTORE DUP1 SWAP3 SWAP2 SWAP1 DUP2 DUP2 MSTORE PUSH1 0x20 ADD DUP3 DUP1 SLOAD PUSH2 0x6C0 SWAP1 PUSH2 0xF5B JUMP JUMPDEST DUP1 ISZERO PUSH2 0x70D JUMPI DUP1 PUSH1 0x1F LT PUSH2 0x6E2 JUMPI PUSH2 0x100 DUP1 DUP4 SLOAD DIV MUL DUP4 MSTORE SWAP2 PUSH1 0x20 ADD SWAP2 PUSH2 0x70D JUMP JUMPDEST DUP3 ADD SWAP2 SWAP1 PUSH1 0x0 MSTORE PUSH1 0x20 PUSH1 0x0 KECCAK256 SWAP1 JUMPDEST DUP2 SLOAD DUP2 MSTORE SWAP1 PUSH1 0x1 ADD SWAP1 PUSH1 0x20 ADD DUP1 DUP4 GT PUSH2 0x6F0 JUMPI DUP3 SWAP1 SUB PUSH1 0x1F AND DUP3 ADD SWAP2 JUMPDEST POP POP POP POP POP DUP2 JUMP JUMPDEST PUSH1 0x0 DUP3 DUP1 MLOAD SWAP1 PUSH1 0x20 ADD KECCAK256 PUSH1 0x0 SHR SWAP1 POP DUP2 PUSH1 0x2 PUSH1 0x0 DUP4 DUP2 MSTORE PUSH1 0x20 ADD SWAP1 DUP2 MSTORE PUSH1 0x20 ADD PUSH1 0x0 KECCAK256 SWAP1 DUP1 MLOAD SWAP1 PUSH1 0x20 ADD SWAP1 PUSH2 0x74B SWAP3 SWAP2 SWAP1 PUSH2 0x7A6 JUMP JUMPDEST POP PUSH1 0x1 PUSH1 0x3 PUSH1 0x0 DUP4 DUP2 MSTORE PUSH1 0x20 ADD SWAP1 DUP2 MSTORE PUSH1 0x20 ADD PUSH1 0x0 KECCAK256 PUSH1 0x0 PUSH2 0x100 EXP DUP2 SLOAD DUP2 PUSH1 0xFF MUL NOT AND SWAP1 DUP4 ISZERO ISZERO MUL OR SWAP1 SSTORE POP PUSH1 0x4 DUP2 SWAP1 DUP1 PUSH1 0x1 DUP2 SLOAD ADD DUP1 DUP3 SSTORE DUP1 SWAP2 POP POP PUSH1 0x1 SWAP1 SUB SWAP1 PUSH1 0x0 MSTORE PUSH1 0x20 PUSH1 0x0 KECCAK256 ADD PUSH1 0x0 SWAP1 SWAP2 SWAP1 SWAP2 SWAP1 SWAP2 POP SSTORE POP POP POP JUMP JUMPDEST DUP3 DUP1 SLOAD DUP3 DUP3 SSTORE SWAP1 PUSH1 0x0 MSTORE PUSH1 0x20 PUSH1 0x0 KECCAK256 SWAP1 DUP2 ADD SWAP3 DUP3 ISZERO PUSH2 0x7EE JUMPI SWAP2 PUSH1 0x20 MUL DUP3 ADD JUMPDEST DUP3 DUP2 GT ISZERO PUSH2 0x7ED JUMPI DUP3 MLOAD DUP3 SWAP1 DUP2 PUSH2 0x7DD SWAP2 SWAP1 PUSH2 0x11A4 JUMP JUMPDEST POP SWAP2 PUSH1 0x20 ADD SWAP2 SWAP1 PUSH1 0x1 ADD SWAP1 PUSH2 0x7C6 JUMP JUMPDEST JUMPDEST POP SWAP1 POP PUSH2 0x7FB SWAP2 SWAP1 PUSH2 0x7FF JUMP JUMPDEST POP SWAP1 JUMP JUMPDEST JUMPDEST DUP1 DUP3 GT ISZERO PUSH2 0x81F JUMPI PUSH1 0x0 DUP2 DUP2 PUSH2 0x816 SWAP2 SWAP1 PUSH2 0x823 JUMP JUMPDEST POP PUSH1 0x1 ADD PUSH2 0x800 JUMP JUMPDEST POP SWAP1 JUMP JUMPDEST POP DUP1 SLOAD PUSH2 0x82F SWAP1 PUSH2 0xF5B JUMP JUMPDEST PUSH1 0x0 DUP3 SSTORE DUP1 PUSH1 0x1F LT PUSH2 0x841 JUMPI POP PUSH2 0x860 JUMP JUMPDEST PUSH1 0x1F ADD PUSH1 0x20 SWAP1 DIV SWAP1 PUSH1 0x0 MSTORE PUSH1 0x20 PUSH1 0x0 KECCAK256 SWAP1 DUP2 ADD SWAP1 PUSH2 0x85F SWAP2 SWAP1 PUSH2 0x863 JUMP JUMPDEST JUMPDEST POP JUMP JUMPDEST JUMPDEST DUP1 DUP3 GT ISZERO PUSH2 0x87C JUMPI PUSH1 0x0 DUP2 PUSH1 0x0 SWAP1 SSTORE POP PUSH1 0x1 ADD PUSH2 0x864 JUMP JUMPDEST POP SWAP1 JUMP JUMPDEST PUSH1 0x0 PUSH1 0x40 MLOAD SWAP1 POP SWAP1 JUMP JUMPDEST PUSH1 0x0 DUP1 REVERT JUMPDEST PUSH1 0x0 DUP1 REVERT JUMPDEST PUSH1 0x0 DUP1 REVERT JUMPDEST PUSH1 0x0 DUP1 REVERT JUMPDEST PUSH1 0x0 PUSH1 0x1F NOT PUSH1 0x1F DUP4 ADD AND SWAP1 POP SWAP2 SWAP1 POP JUMP JUMPDEST PUSH32 0x4E487B7100000000000000000000000000000000000000000000000000000000 PUSH1 0x0 MSTORE PUSH1 0x41 PUSH1 0x4 MSTORE PUSH1 0x24 PUSH1 0x0 REVERT JUMPDEST PUSH2 0x8E7 DUP3 PUSH2 0x89E JUMP JUMPDEST DUP2 ADD DUP2 DUP2 LT PUSH8 0xFFFFFFFFFFFFFFFF DUP3 GT OR ISZERO PUSH2 0x906 JUMPI PUSH2 0x905 PUSH2 0x8AF JUMP JUMPDEST JUMPDEST DUP1 PUSH1 0x40 MSTORE POP POP POP JUMP JUMPDEST PUSH1 0x0 PUSH2 0x919 PUSH2 0x880 JUMP JUMPDEST SWAP1 POP PUSH2 0x925 DUP3 DUP3 PUSH2 0x8DE JUMP JUMPDEST SWAP2 SWAP1 POP JUMP JUMPDEST PUSH1 0x0 PUSH8 0xFFFFFFFFFFFFFFFF DUP3 GT ISZERO PUSH2 0x945 JUMPI PUSH2 0x944 PUSH2 0x8AF JUMP JUMPDEST JUMPDEST PUSH2 0x94E DUP3 PUSH2 0x89E JUMP JUMPDEST SWAP1 POP PUSH1 0x20 DUP2 ADD SWAP1 POP SWAP2 SWAP1 POP JUMP JUMPDEST DUP3 DUP2 DUP4 CALLDATACOPY PUSH1 0x0 DUP4 DUP4 ADD MSTORE POP POP POP JUMP JUMPDEST PUSH1 0x0 PUSH2 0x97D PUSH2 0x978 DUP5 PUSH2 0x92A JUMP JUMPDEST PUSH2 0x90F JUMP JUMPDEST SWAP1 POP DUP3 DUP2 MSTORE PUSH1 0x20 DUP2 ADD DUP5 DUP5 DUP5 ADD GT ISZERO PUSH2 0x999 JUMPI PUSH2 0x998 PUSH2 0x899 JUMP JUMPDEST JUMPDEST PUSH2 0x9A4 DUP5 DUP3 DUP6 PUSH2 0x95B JUMP JUMPDEST POP SWAP4 SWAP3 POP POP POP JUMP JUMPDEST PUSH1 0x0 DUP3 PUSH1 0x1F DUP4 ADD SLT PUSH2 0x9C1 JUMPI PUSH2 0x9C0 PUSH2 0x894 JUMP JUMPDEST JUMPDEST DUP2 CALLDATALOAD PUSH2 0x9D1 DUP5 DUP3 PUSH1 0x20 DUP7 ADD PUSH2 0x96A JUMP JUMPDEST SWAP2 POP POP SWAP3 SWAP2 POP POP JUMP JUMPDEST PUSH1 0x0 PUSH8 0xFFFFFFFFFFFFFFFF DUP3 GT ISZERO PUSH2 0x9F5 JUMPI PUSH2 0x9F4 PUSH2 0x8AF JUMP JUMPDEST JUMPDEST PUSH1 0x20 DUP3 MUL SWAP1 POP PUSH1 0x20 DUP2 ADD SWAP1 POP SWAP2 SWAP1 POP JUMP JUMPDEST PUSH1 0x0 DUP1 REVERT JUMPDEST PUSH1 0x0 PUSH2 0xA1E PUSH2 0xA19 DUP5 PUSH2 0x9DA JUMP JUMPDEST PUSH2 0x90F JUMP JUMPDEST SWAP1 POP DUP1 DUP4 DUP3 MSTORE PUSH1 0x20 DUP3 ADD SWAP1 POP PUSH1 0x20 DUP5 MUL DUP4 ADD DUP6 DUP2 GT ISZERO PUSH2 0xA41 JUMPI PUSH2 0xA40 PUSH2 0xA06 JUMP JUMPDEST JUMPDEST DUP4 JUMPDEST DUP2 DUP2 LT ISZERO PUSH2 0xA88 JUMPI DUP1 CALLDATALOAD PUSH8 0xFFFFFFFFFFFFFFFF DUP2 GT ISZERO PUSH2 0xA66 JUMPI PUSH2 0xA65 PUSH2 0x894 JUMP JUMPDEST JUMPDEST DUP1 DUP7 ADD PUSH2 0xA73 DUP10 DUP3 PUSH2 0x9AC JUMP JUMPDEST DUP6 MSTORE PUSH1 0x20 DUP6 ADD SWAP5 POP POP POP PUSH1 0x20 DUP2 ADD SWAP1 POP PUSH2 0xA43 JUMP JUMPDEST POP POP POP SWAP4 SWAP3 POP POP POP JUMP JUMPDEST PUSH1 0x0 DUP3 PUSH1 0x1F DUP4 ADD SLT PUSH2 0xAA7 JUMPI PUSH2 0xAA6 PUSH2 0x894 JUMP JUMPDEST JUMPDEST DUP2 CALLDATALOAD PUSH2 0xAB7 DUP5 DUP3 PUSH1 0x20 DUP7 ADD PUSH2 0xA0B JUMP JUMPDEST SWAP2 POP POP SWAP3 SWAP2 POP POP JUMP JUMPDEST PUSH1 0x0 DUP1 PUSH1 0x40 DUP4 DUP6 SUB SLT ISZERO PUSH2 0xAD7 JUMPI PUSH2 0xAD6 PUSH2 0x88A JUMP JUMPDEST JUMPDEST PUSH1 0x0 DUP4 ADD CALLDATALOAD PUSH8 0xFFFFFFFFFFFFFFFF DUP2 GT ISZERO PUSH2 0xAF5 JUMPI PUSH2 0xAF4 PUSH2 0x88F JUMP JUMPDEST JUMPDEST PUSH2 0xB01 DUP6 DUP3 DUP7 ADD PUSH2 0x9AC JUMP JUMPDEST SWAP3 POP POP PUSH1 0x20 DUP4 ADD CALLDATALOAD PUSH8 0xFFFFFFFFFFFFFFFF DUP2 GT ISZERO PUSH2 0xB22 JUMPI PUSH2 0xB21 PUSH2 0x88F JUMP JUMPDEST JUMPDEST PUSH2 0xB2E DUP6 DUP3 DUP7 ADD PUSH2 0xA92 JUMP JUMPDEST SWAP2 POP POP SWAP3 POP SWAP3 SWAP1 POP JUMP JUMPDEST PUSH1 0x0 DUP2 SWAP1 POP SWAP2 SWAP1 POP JUMP JUMPDEST PUSH2 0xB4B DUP2 PUSH2 0xB38 JUMP JUMPDEST DUP2 EQ PUSH2 0xB56 JUMPI PUSH1 0x0 DUP1 REVERT JUMPDEST POP JUMP JUMPDEST PUSH1 0x0 DUP2 CALLDATALOAD SWAP1 POP PUSH2 0xB68 DUP2 PUSH2 0xB42 JUMP JUMPDEST SWAP3 SWAP2 POP POP JUMP JUMPDEST PUSH1 0x0 PUSH1 0x20 DUP3 DUP5 SUB SLT ISZERO PUSH2 0xB84 JUMPI PUSH2 0xB83 PUSH2 0x88A JUMP JUMPDEST JUMPDEST PUSH1 0x0 PUSH2 0xB92 DUP5 DUP3 DUP6 ADD PUSH2 0xB59 JUMP JUMPDEST SWAP2 POP POP SWAP3 SWAP2 POP POP JUMP JUMPDEST PUSH1 0x0 DUP2 MLOAD SWAP1 POP SWAP2 SWAP1 POP JUMP JUMPDEST PUSH1 0x0 DUP3 DUP3 MSTORE PUSH1 0x20 DUP3 ADD SWAP1 POP SWAP3 SWAP2 POP POP JUMP JUMPDEST PUSH1 0x0 DUP2 SWAP1 POP PUSH1 0x20 DUP3 ADD SWAP1 POP SWAP2 SWAP1 POP JUMP JUMPDEST PUSH1 0x0 DUP2 MLOAD SWAP1 POP SWAP2 SWAP1 POP JUMP JUMPDEST PUSH1 0x0 DUP3 DUP3 MSTORE PUSH1 0x20 DUP3 ADD SWAP1 POP SWAP3 SWAP2 POP POP JUMP JUMPDEST PUSH1 0x0 JUMPDEST DUP4 DUP2 LT ISZERO PUSH2 0xC01 JUMPI DUP1 DUP3 ADD MLOAD DUP2 DUP5 ADD MSTORE PUSH1 0x20 DUP2 ADD SWAP1 POP PUSH2 0xBE6 JUMP JUMPDEST PUSH1 0x0 DUP5 DUP5 ADD MSTORE POP POP POP POP JUMP JUMPDEST PUSH1 0x0 PUSH2 0xC18 DUP3 PUSH2 0xBC7 JUMP JUMPDEST PUSH2 0xC22 DUP2 DUP6 PUSH2 0xBD2 JUMP JUMPDEST SWAP4 POP PUSH2 0xC32 DUP2 DUP6 PUSH1 0x20 DUP7 ADD PUSH2 0xBE3 JUMP JUMPDEST PUSH2 0xC3B DUP2 PUSH2 0x89E JUMP JUMPDEST DUP5 ADD SWAP2 POP POP SWAP3 SWAP2 POP POP JUMP JUMPDEST PUSH1 0x0 PUSH2 0xC52 DUP4 DUP4 PUSH2 0xC0D JUMP JUMPDEST SWAP1 POP SWAP3 SWAP2 POP POP JUMP JUMPDEST PUSH1 0x0 PUSH1 0x20 DUP3 ADD SWAP1 POP SWAP2 SWAP1 POP JUMP JUMPDEST PUSH1 0x0 PUSH2 0xC72 DUP3 PUSH2 0xB9B JUMP JUMPDEST PUSH2 0xC7C DUP2 DUP6 PUSH2 0xBA6 JUMP JUMPDEST SWAP4 POP DUP4 PUSH1 0x20 DUP3 MUL DUP6 ADD PUSH2 0xC8E DUP6 PUSH2 0xBB7 JUMP JUMPDEST DUP1 PUSH1 0x0 JUMPDEST DUP6 DUP2 LT ISZERO PUSH2 0xCCA JUMPI DUP5 DUP5 SUB DUP10 MSTORE DUP2 MLOAD PUSH2 0xCAB DUP6 DUP3 PUSH2 0xC46 JUMP JUMPDEST SWAP5 POP PUSH2 0xCB6 DUP4 PUSH2 0xC5A JUMP JUMPDEST SWAP3 POP PUSH1 0x20 DUP11 ADD SWAP10 POP POP PUSH1 0x1 DUP2 ADD SWAP1 POP PUSH2 0xC92 JUMP JUMPDEST POP DUP3 SWAP8 POP DUP8 SWAP6 POP POP POP POP POP POP SWAP3 SWAP2 POP POP JUMP JUMPDEST PUSH1 0x0 PUSH1 0x20 DUP3 ADD SWAP1 POP DUP2 DUP2 SUB PUSH1 0x0 DUP4 ADD MSTORE PUSH2 0xCF6 DUP2 DUP5 PUSH2 0xC67 JUMP JUMPDEST SWAP1 POP SWAP3 SWAP2 POP POP JUMP JUMPDEST PUSH1 0x0 DUP1 PUSH1 0x40 DUP4 DUP6 SUB SLT ISZERO PUSH2 0xD15 JUMPI PUSH2 0xD14 PUSH2 0x88A JUMP JUMPDEST JUMPDEST PUSH1 0x0 PUSH2 0xD23 DUP6 DUP3 DUP7 ADD PUSH2 0xB59 JUMP JUMPDEST SWAP3 POP POP PUSH1 0x20 PUSH2 0xD34 DUP6 DUP3 DUP7 ADD PUSH2 0xB59 JUMP JUMPDEST SWAP2 POP POP SWAP3 POP SWAP3 SWAP1 POP JUMP JUMPDEST PUSH1 0x0 DUP3 DUP3 MSTORE PUSH1 0x20 DUP3 ADD SWAP1 POP SWAP3 SWAP2 POP POP JUMP JUMPDEST PUSH1 0x0 PUSH2 0xD5A DUP3 PUSH2 0xBC7 JUMP JUMPDEST PUSH2 0xD64 DUP2 DUP6 PUSH2 0xD3E JUMP JUMPDEST SWAP4 POP PUSH2 0xD74 DUP2 DUP6 PUSH1 0x20 DUP7 ADD PUSH2 0xBE3 JUMP JUMPDEST PUSH2 0xD7D DUP2 PUSH2 0x89E JUMP JUMPDEST DUP5 ADD SWAP2 POP POP SWAP3 SWAP2 POP POP JUMP JUMPDEST PUSH1 0x0 PUSH1 0x20 DUP3 ADD SWAP1 POP DUP2 DUP2 SUB PUSH1 0x0 DUP4 ADD MSTORE PUSH2 0xDA2 DUP2 DUP5 PUSH2 0xD4F JUMP JUMPDEST SWAP1 POP SWAP3 SWAP2 POP POP JUMP JUMPDEST PUSH1 0x0 DUP2 ISZERO ISZERO SWAP1 POP SWAP2 SWAP1 POP JUMP JUMPDEST PUSH2 0xDBF DUP2 PUSH2 0xDAA JUMP JUMPDEST DUP3 MSTORE POP POP JUMP JUMPDEST PUSH1 0x0 PUSH1 0x20 DUP3 ADD SWAP1 POP PUSH2 0xDDA PUSH1 0x0 DUP4 ADD DUP5 PUSH2 0xDB6 JUMP JUMPDEST SWAP3 SWAP2 POP POP JUMP JUMPDEST PUSH1 0x0 DUP2 MLOAD SWAP1 POP SWAP2 SWAP1 POP JUMP JUMPDEST PUSH1 0x0 DUP3 DUP3 MSTORE PUSH1 0x20 DUP3 ADD SWAP1 POP SWAP3 SWAP2 POP POP JUMP JUMPDEST PUSH1 0x0 DUP2 SWAP1 POP PUSH1 0x20 DUP3 ADD SWAP1 POP SWAP2 SWAP1 POP JUMP JUMPDEST PUSH2 0xE15 DUP2 PUSH2 0xB38 JUMP JUMPDEST DUP3 MSTORE POP POP JUMP JUMPDEST PUSH1 0x0 PUSH2 0xE27 DUP4 DUP4 PUSH2 0xE0C JUMP JUMPDEST PUSH1 0x20 DUP4 ADD SWAP1 POP SWAP3 SWAP2 POP POP JUMP JUMPDEST PUSH1 0x0 PUSH1 0x20 DUP3 ADD SWAP1 POP SWAP2 SWAP1 POP JUMP JUMPDEST PUSH1 0x0 PUSH2 0xE4B DUP3 PUSH2 0xDE0 JUMP JUMPDEST PUSH2 0xE55 DUP2 DUP6 PUSH2 0xDEB JUMP JUMPDEST SWAP4 POP PUSH2 0xE60 DUP4 PUSH2 0xDFC JUMP JUMPDEST DUP1 PUSH1 0x0 JUMPDEST DUP4 DUP2 LT ISZERO PUSH2 0xE91 JUMPI DUP2 MLOAD PUSH2 0xE78 DUP9 DUP3 PUSH2 0xE1B JUMP JUMPDEST SWAP8 POP PUSH2 0xE83 DUP4 PUSH2 0xE33 JUMP JUMPDEST SWAP3 POP POP PUSH1 0x1 DUP2 ADD SWAP1 POP PUSH2 0xE64 JUMP JUMPDEST POP DUP6 SWAP4 POP POP POP POP SWAP3 SWAP2 POP POP JUMP JUMPDEST PUSH1 0x0 PUSH1 0x20 DUP3 ADD SWAP1 POP DUP2 DUP2 SUB PUSH1 0x0 DUP4 ADD MSTORE PUSH2 0xEB8 DUP2 DUP5 PUSH2 0xE40 JUMP JUMPDEST SWAP1 POP SWAP3 SWAP2 POP POP JUMP JUMPDEST PUSH32 0x6D61737465724C6F636B206E6F74206164640000000000000000000000000000 PUSH1 0x0 DUP3 ADD MSTORE POP JUMP JUMPDEST PUSH1 0x0 PUSH2 0xEF6 PUSH1 0x12 DUP4 PUSH2 0xD3E JUMP JUMPDEST SWAP2 POP PUSH2 0xF01 DUP3 PUSH2 0xEC0 JUMP JUMPDEST PUSH1 0x20 DUP3 ADD SWAP1 POP SWAP2 SWAP1 POP JUMP JUMPDEST PUSH1 0x0 PUSH1 0x20 DUP3 ADD SWAP1 POP DUP2 DUP2 SUB PUSH1 0x0 DUP4 ADD MSTORE PUSH2 0xF25 DUP2 PUSH2 0xEE9 JUMP JUMPDEST SWAP1 POP SWAP2 SWAP1 POP JUMP JUMPDEST PUSH32 0x4E487B7100000000000000000000000000000000000000000000000000000000 PUSH1 0x0 MSTORE PUSH1 0x22 PUSH1 0x4 MSTORE PUSH1 0x24 PUSH1 0x0 REVERT JUMPDEST PUSH1 0x0 PUSH1 0x2 DUP3 DIV SWAP1 POP PUSH1 0x1 DUP3 AND DUP1 PUSH2 0xF73 JUMPI PUSH1 0x7F DUP3 AND SWAP2 POP JUMPDEST PUSH1 0x20 DUP3 LT DUP2 SUB PUSH2 0xF86 JUMPI PUSH2 0xF85 PUSH2 0xF2C JUMP JUMPDEST JUMPDEST POP SWAP2 SWAP1 POP JUMP JUMPDEST PUSH32 0x747970654E616D65206E6F742061646400000000000000000000000000000000 PUSH1 0x0 DUP3 ADD MSTORE POP JUMP JUMPDEST PUSH1 0x0 PUSH2 0xFC2 PUSH1 0x10 DUP4 PUSH2 0xD3E JUMP JUMPDEST SWAP2 POP PUSH2 0xFCD DUP3 PUSH2 0xF8C JUMP JUMPDEST PUSH1 0x20 DUP3 ADD SWAP1 POP SWAP2 SWAP1 POP JUMP JUMPDEST PUSH1 0x0 PUSH1 0x20 DUP3 ADD SWAP1 POP DUP2 DUP2 SUB PUSH1 0x0 DUP4 ADD MSTORE PUSH2 0xFF1 DUP2 PUSH2 0xFB5 JUMP JUMPDEST SWAP1 POP SWAP2 SWAP1 POP JUMP JUMPDEST PUSH1 0x0 DUP2 SWAP1 POP DUP2 PUSH1 0x0 MSTORE PUSH1 0x20 PUSH1 0x0 KECCAK256 SWAP1 POP SWAP2 SWAP1 POP JUMP JUMPDEST PUSH1 0x0 PUSH1 0x20 PUSH1 0x1F DUP4 ADD DIV SWAP1 POP SWAP2 SWAP1 POP JUMP JUMPDEST PUSH1 0x0 DUP3 DUP3 SHL SWAP1 POP SWAP3 SWAP2 POP POP JUMP JUMPDEST PUSH1 0x0 PUSH1 0x8 DUP4 MUL PUSH2 0x105A PUSH32 0xFFFFFFFFFFFFFFFFFFFFFFFFFFFFFFFFFFFFFFFFFFFFFFFFFFFFFFFFFFFFFFFF DUP3 PUSH2 0x101D JUMP JUMPDEST PUSH2 0x1064 DUP7 DUP4 PUSH2 0x101D JUMP JUMPDEST SWAP6 POP DUP1 NOT DUP5 AND SWAP4 POP DUP1 DUP7 AND DUP5 OR SWAP3 POP POP POP SWAP4 SWAP3 POP POP POP JUMP JUMPDEST PUSH1 0x0 DUP2 SWAP1 POP SWAP2 SWAP1 POP JUMP JUMPDEST PUSH1 0x0 PUSH2 0x10A1 PUSH2 0x109C PUSH2 0x1097 DUP5 PUSH2 0xB38 JUMP JUMPDEST PUSH2 0x107C JUMP JUMPDEST PUSH2 0xB38 JUMP JUMPDEST SWAP1 POP SWAP2 SWAP1 POP JUMP JUMPDEST PUSH1 0x0 DUP2 SWAP1 POP SWAP2 SWAP1 POP JUMP JUMPDEST PUSH2 0x10BB DUP4 PUSH2 0x1086 JUMP JUMPDEST PUSH2 0x10CF PUSH2 0x10C7 DUP3 PUSH2 0x10A8 JUMP JUMPDEST DUP5 DUP5 SLOAD PUSH2 0x102A JUMP JUMPDEST DUP3 SSTORE POP POP POP POP JUMP JUMPDEST PUSH1 0x0 SWAP1 JUMP JUMPDEST PUSH2 0x10E4 PUSH2 0x10D7 JUMP JUMPDEST PUSH2 0x10EF DUP2 DUP5 DUP5 PUSH2 0x10B2 JUMP JUMPDEST POP POP POP JUMP JUMPDEST JUMPDEST DUP2 DUP2 LT ISZERO PUSH2 0x1113 JUMPI PUSH2 0x1108 PUSH1 0x0 DUP3 PUSH2 0x10DC JUMP JUMPDEST PUSH1 0x1 DUP2 ADD SWAP1 POP PUSH2 0x10F5 JUMP JUMPDEST POP POP JUMP JUMPDEST PUSH1 0x1F DUP3 GT ISZERO PUSH2 0x1158 JUMPI PUSH2 0x1129 DUP2 PUSH2 0xFF8 JUMP JUMPDEST PUSH2 0x1132 DUP5 PUSH2 0x100D JUMP JUMPDEST DUP2 ADD PUSH1 0x20 DUP6 LT ISZERO PUSH2 0x1141 JUMPI DUP2 SWAP1 POP JUMPDEST PUSH2 0x1155 PUSH2 0x114D DUP6 PUSH2 0x100D JUMP JUMPDEST DUP4 ADD DUP3 PUSH2 0x10F4 JUMP JUMPDEST POP POP JUMPDEST POP POP POP JUMP JUMPDEST PUSH1 0x0 DUP3 DUP3 SHR SWAP1 POP SWAP3 SWAP2 POP POP JUMP JUMPDEST PUSH1 0x0 PUSH2 0x117B PUSH1 0x0 NOT DUP5 PUSH1 0x8 MUL PUSH2 0x115D JUMP JUMPDEST NOT DUP1 DUP4 AND SWAP2 POP POP SWAP3 SWAP2 POP POP JUMP JUMPDEST PUSH1 0x0 PUSH2 0x1194 DUP4 DUP4 PUSH2 0x116A JUMP JUMPDEST SWAP2 POP DUP3 PUSH1 0x2 MUL DUP3 OR SWAP1 POP SWAP3 SWAP2 POP POP JUMP JUMPDEST PUSH2 0x11AD DUP3 PUSH2 0xBC7 JUMP JUMPDEST PUSH8 0xFFFFFFFFFFFFFFFF DUP2 GT ISZERO PUSH2 0x11C6 JUMPI PUSH2 0x11C5 PUSH2 0x8AF JUMP JUMPDEST JUMPDEST PUSH2 0x11D0 DUP3 SLOAD PUSH2 0xF5B JUMP JUMPDEST PUSH2 0x11DB DUP3 DUP3 DUP6 PUSH2 0x1117 JUMP JUMPDEST PUSH1 0x0 PUSH1 0x20 SWAP1 POP PUSH1 0x1F DUP4 GT PUSH1 0x1 DUP2 EQ PUSH2 0x120E JUMPI PUSH1 0x0 DUP5 ISZERO PUSH2 0x11FC JUMPI DUP3 DUP8 ADD MLOAD SWAP1 POP JUMPDEST PUSH2 0x1206 DUP6 DUP3 PUSH2 0x1188 JUMP JUMPDEST DUP7 SSTORE POP PUSH2 0x126E JUMP JUMPDEST PUSH1 0x1F NOT DUP5 AND PUSH2 0x121C DUP7 PUSH2 0xFF8 JUMP JUMPDEST PUSH1 0x0 JUMPDEST DUP3 DUP2 LT ISZERO PUSH2 0x1244 JUMPI DUP5 DUP10 ADD MLOAD DUP3 SSTORE PUSH1 0x1 DUP3 ADD SWAP2 POP PUSH1 0x20 DUP6 ADD SWAP5 POP PUSH1 0x20 DUP2 ADD SWAP1 POP PUSH2 0x121F JUMP JUMPDEST DUP7 DUP4 LT ISZERO PUSH2 0x1261 JUMPI DUP5 DUP10 ADD MLOAD PUSH2 0x125D PUSH1 0x1F DUP10 AND DUP3 PUSH2 0x116A JUMP JUMPDEST DUP4 SSTORE POP JUMPDEST PUSH1 0x1 PUSH1 0x2 DUP9 MUL ADD DUP9 SSTORE POP POP POP JUMPDEST POP POP POP POP POP POP JUMP INVALID LOG2 PUSH5 0x6970667358 0x22 SLT KECCAK256 0xC4 PUSH21 0xB37F3817884AB0272BA8AAD4CD74CA0BC9EA6BE042 SWAP11 0x1F SWAP6 CALLDATACOPY JUMPI EQ PUSH9 0xB51464736F6C634300 ADDMOD SLT STOP CALLER "
		},
		"gasEstimates": {
			"creation": {
				"codeDepositCost": "956000",
				"executionCost": "994",
				"totalCost": "956994"
			},
			"external": {
				"getGlobalDomainType(uint256)": "infinite",
				"getGlobalMasterLock(uint256)": "infinite",
				"getGlobalMasterLockArray()": "infinite",
				"globalDomainType(uint256,uint256)": "infinite",
				"globalDomainTypeStatus(uint256)": "2863",
				"globalMasterLock(uint256,uint256)": "infinite",
				"globalMasterLockStatus(uint256)": "2840",
				"setGlobalDomainType(string,string[])": "infinite",
				"setGlobalMasterLock(string,string[])": "infinite"
			}
		},
		"methodIdentifiers": {
			"getGlobalDomainType(uint256)": "a693a3c6",
			"getGlobalMasterLock(uint256)": "1796eee1",
			"getGlobalMasterLockArray()": "497d483b",
			"globalDomainType(uint256,uint256)": "285aee08",
			"globalDomainTypeStatus(uint256)": "4834675c",
			"globalMasterLock(uint256,uint256)": "e72ea452",
			"globalMasterLockStatus(uint256)": "b4956c67",
			"setGlobalDomainType(string,string[])": "147f6b75",
			"setGlobalMasterLock(string,string[])": "ea363d99"
		}
	},
	"abi": [
		{
			"inputs": [],
			"stateMutability": "nonpayable",
			"type": "constructor"
		},
		{
			"inputs": [
				{
					"internalType": "uint256",
					"name": "label",
					"type": "uint256"
				}
			],
			"name": "getGlobalDomainType",
			"outputs": [
				{
					"internalType": "string[]",
					"name": "",
					"type": "string[]"
				}
			],
			"stateMutability": "view",
			"type": "function"
		},
		{
			"inputs": [
				{
					"internalType": "uint256",
					"name": "label",
					"type": "uint256"
				}
			],
			"name": "getGlobalMasterLock",
			"outputs": [
				{
					"internalType": "string[]",
					"name": "",
					"type": "string[]"
				}
			],
			"stateMutability": "view",
			"type": "function"
		},
		{
			"inputs": [],
			"name": "getGlobalMasterLockArray",
			"outputs": [
				{
					"internalType": "uint256[]",
					"name": "",
					"type": "uint256[]"
				}
			],
			"stateMutability": "view",
			"type": "function"
		},
		{
			"inputs": [
				{
					"internalType": "uint256",
					"name": "",
					"type": "uint256"
				},
				{
					"internalType": "uint256",
					"name": "",
					"type": "uint256"
				}
			],
			"name": "globalDomainType",
			"outputs": [
				{
					"internalType": "string",
					"name": "",
					"type": "string"
				}
			],
			"stateMutability": "view",
			"type": "function"
		},
		{
			"inputs": [
				{
					"internalType": "uint256",
					"name": "",
					"type": "uint256"
				}
			],
			"name": "globalDomainTypeStatus",
			"outputs": [
				{
					"internalType": "bool",
					"name": "",
					"type": "bool"
				}
			],
			"stateMutability": "view",
			"type": "function"
		},
		{
			"inputs": [
				{
					"internalType": "uint256",
					"name": "",
					"type": "uint256"
				},
				{
					"internalType": "uint256",
					"name": "",
					"type": "uint256"
				}
			],
			"name": "globalMasterLock",
			"outputs": [
				{
					"internalType": "string",
					"name": "",
					"type": "string"
				}
			],
			"stateMutability": "view",
			"type": "function"
		},
		{
			"inputs": [
				{
					"internalType": "uint256",
					"name": "",
					"type": "uint256"
				}
			],
			"name": "globalMasterLockStatus",
			"outputs": [
				{
					"internalType": "bool",
					"name": "",
					"type": "bool"
				}
			],
			"stateMutability": "view",
			"type": "function"
		},
		{
			"inputs": [
				{
					"internalType": "string",
					"name": "typeName",
					"type": "string"
				},
				{
					"internalType": "string[]",
					"name": "name",
					"type": "string[]"
				}
			],
			"name": "setGlobalDomainType",
			"outputs": [],
			"stateMutability": "nonpayable",
			"type": "function"
		},
		{
			"inputs": [
				{
					"internalType": "string",
					"name": "typeName",
					"type": "string"
				},
				{
					"internalType": "string[]",
					"name": "name",
					"type": "string[]"
				}
			],
			"name": "setGlobalMasterLock",
			"outputs": [],
			"stateMutability": "nonpayable",
			"type": "function"
		}
	]
}