{
	"data": {
		"bytecode": {
			"linkReferences": {},
			"object": "60806040526032601360006101000a81548161ffff021916908361ffff1602179055506001601360026101000a81548161ffff021916908361ffff1602179055506064601360046101000a81548161ffff021916908361ffff1602179055506000601360066101000a81548160ff0219169083151502179055506000601360076101000a81548160ff021916908315150217905550348015620000a157600080fd5b506040516200b7053803806200b7058339818101604052810190620000c7919062000c08565b84848460405180602001604052806000815250604051806020016040528060008152508160009081620000fb919062000f19565b5080600190816200010d919062000f19565b50505062000130620001246200023a60201b60201c565b6200024260201b60201c565b82600760006101000a81548173ffffffffffffffffffffffffffffffffffffffff021916908373ffffffffffffffffffffffffffffffffffffffff16021790555081600860006101000a81548173ffffffffffffffffffffffffffffffffffffffff021916908373ffffffffffffffffffffffffffffffffffffffff16021790555080600981905550505050620001cd816200030860201b60201c565b81604051620001dd919062001042565b60405180910390207fa84e0c64e700ca2a3b5fc394d97b9994727da06d4ceb8139dd141417e21f98d8620002166200071860201b60201c565b30604051620002279291906200106c565b60405180910390a2505050505062001502565b600033905090565b6000600660009054906101000a900473ffffffffffffffffffffffffffffffffffffffff16905081600660006101000a81548173ffffffffffffffffffffffffffffffffffffffff021916908373ffffffffffffffffffffffffffffffffffffffff1602179055508173ffffffffffffffffffffffffffffffffffffffff168173ffffffffffffffffffffffffffffffffffffffff167f8be0079c531659141344cd1fd0a4f28419497f9722a3daafe3b4186f6b6457e060405160405180910390a35050565b620003186200074260201b60201c565b600081511180156200033f5750601360009054906101000a900461ffff1661ffff16815111155b62000381576040517f08c379a00000000000000000000000000000000000000000000000000000000081526004016200037890620010fa565b60405180910390fd5b601360069054906101000a900460ff1615620003d4576040517f08c379a0000000000000000000000000000000000000000000000000000000008152600401620003cb906200116c565b60405180910390fd5b6001601360066101000a81548160ff0219169083151502179055506000805b82518110156200067d57601360029054906101000a900461ffff1661ffff168382815181106200042857620004276200118e565b5b60200260200101516020015161ffff1610156200047c576040517f08c379a000000000000000000000000000000000000000000000000000000000815260040162000473906200120d565b60405180910390fd5b8281815181106200049257620004916200118e565b5b60200260200101516020015182620004ab91906200125e565b9150600060116000858481518110620004c957620004c86200118e565b5b60200260200101516000015173ffffffffffffffffffffffffffffffffffffffff1673ffffffffffffffffffffffffffffffffffffffff16815260200190815260200160002060009054906101000a900461ffff1661ffff1603620005ad57601283828151811062000540576200053f6200118e565b5b6020026020010151600001519080600181540180825580915050600190039060005260206000200160009091909190916101000a81548173ffffffffffffffffffffffffffffffffffffffff021916908373ffffffffffffffffffffffffffffffffffffffff1602179055505b828181518110620005c357620005c26200118e565b5b60200260200101516020015160116000858481518110620005e957620005e86200118e565b5b60200260200101516000015173ffffffffffffffffffffffffffffffffffffffff1673ffffffffffffffffffffffffffffffffffffffff16815260200190815260200160002060008282829054906101000a900461ffff166200064d91906200125e565b92506101000a81548161ffff021916908361ffff160217905550808062000674906200129b565b915050620003f3565b50601360049054906101000a900461ffff1661ffff168161ffff1614620006db576040517f08c379a0000000000000000000000000000000000000000000000000000000008152600401620006d29062001338565b60405180910390fd5b7fb4401f7ff72a1ee5d63da4a8cc041af040ad9f24e50beca9bc095652591f1991826040516200070c91906200146c565b60405180910390a15050565b6000600660009054906101000a900473ffffffffffffffffffffffffffffffffffffffff16905090565b620007526200023a60201b60201c565b73ffffffffffffffffffffffffffffffffffffffff16620007786200071860201b60201c565b73ffffffffffffffffffffffffffffffffffffffff1614620007d1576040517f08c379a0000000000000000000000000000000000000000000000000000000008152600401620007c890620014e0565b60405180910390fd5b565b6000604051905090565b600080fd5b600080fd5b600073ffffffffffffffffffffffffffffffffffffffff82169050919050565b60006200081482620007e7565b9050919050565b6000620008288262000807565b9050919050565b6200083a816200081b565b81146200084657600080fd5b50565b6000815190506200085a816200082f565b92915050565b60006200086d8262000807565b9050919050565b6200087f8162000860565b81146200088b57600080fd5b50565b6000815190506200089f8162000874565b92915050565b6000819050919050565b620008ba81620008a5565b8114620008c657600080fd5b50565b600081519050620008da81620008af565b92915050565b600080fd5b600080fd5b6000601f19601f8301169050919050565b7f4e487b7100000000000000000000000000000000000000000000000000000000600052604160045260246000fd5b6200093582620008ea565b810181811067ffffffffffffffff82111715620009575762000956620008fb565b5b80604052505050565b60006200096c620007d3565b90506200097a82826200092a565b919050565b600067ffffffffffffffff8211156200099d576200099c620008fb565b5b620009a882620008ea565b9050602081019050919050565b60005b83811015620009d5578082015181840152602081019050620009b8565b60008484015250505050565b6000620009f8620009f2846200097f565b62000960565b90508281526020810184848401111562000a175762000a16620008e5565b5b62000a24848285620009b5565b509392505050565b600082601f83011262000a445762000a43620008e0565b5b815162000a56848260208601620009e1565b91505092915050565b600067ffffffffffffffff82111562000a7d5762000a7c620008fb565b5b602082029050602081019050919050565b600080fd5b600080fd5b62000aa38162000807565b811462000aaf57600080fd5b50565b60008151905062000ac38162000a98565b92915050565b600061ffff82169050919050565b62000ae28162000ac9565b811462000aee57600080fd5b50565b60008151905062000b028162000ad7565b92915050565b60006040828403121562000b215762000b2062000a93565b5b62000b2d604062000960565b9050600062000b3f8482850162000ab2565b600083015250602062000b558482850162000af1565b60208301525092915050565b600062000b7862000b728462000a5f565b62000960565b9050808382526020820190506040840283018581111562000b9e5762000b9d62000a8e565b5b835b8181101562000bcb578062000bb6888262000b08565b84526020840193505060408101905062000ba0565b5050509392505050565b600082601f83011262000bed5762000bec620008e0565b5b815162000bff84826020860162000b61565b91505092915050565b600080600080600060a0868803121562000c275762000c26620007dd565b5b600062000c378882890162000849565b955050602062000c4a888289016200088e565b945050604062000c5d88828901620008c9565b935050606086015167ffffffffffffffff81111562000c815762000c80620007e2565b5b62000c8f8882890162000a2c565b925050608086015167ffffffffffffffff81111562000cb35762000cb2620007e2565b5b62000cc18882890162000bd5565b9150509295509295909350565b600081519050919050565b7f4e487b7100000000000000000000000000000000000000000000000000000000600052602260045260246000fd5b6000600282049050600182168062000d2157607f821691505b60208210810362000d375762000d3662000cd9565b5b50919050565b60008190508160005260206000209050919050565b60006020601f8301049050919050565b600082821b905092915050565b60006008830262000da17fffffffffffffffffffffffffffffffffffffffffffffffffffffffffffffffff8262000d62565b62000dad868362000d62565b95508019841693508086168417925050509392505050565b6000819050919050565b6000819050919050565b600062000dfa62000df462000dee8462000dc5565b62000dcf565b62000dc5565b9050919050565b6000819050919050565b62000e168362000dd9565b62000e2e62000e258262000e01565b84845462000d6f565b825550505050565b600090565b62000e4562000e36565b62000e5281848462000e0b565b505050565b5b8181101562000e7a5762000e6e60008262000e3b565b60018101905062000e58565b5050565b601f82111562000ec95762000e938162000d3d565b62000e9e8462000d52565b8101602085101562000eae578190505b62000ec662000ebd8562000d52565b83018262000e57565b50505b505050565b600082821c905092915050565b600062000eee6000198460080262000ece565b1980831691505092915050565b600062000f09838362000edb565b9150826002028217905092915050565b62000f248262000cce565b67ffffffffffffffff81111562000f405762000f3f620008fb565b5b62000f4c825462000d08565b62000f5982828562000e7e565b600060209050601f83116001811462000f91576000841562000f7c578287015190505b62000f88858262000efb565b86555062000ff8565b601f19841662000fa18662000d3d565b60005b8281101562000fcb5784890151825560018201915060208501945060208101905062000fa4565b8683101562000feb578489015162000fe7601f89168262000edb565b8355505b6001600288020188555050505b505050505050565b600081905092915050565b6000620010188262000cce565b62001024818562001000565b935062001036818560208601620009b5565b80840191505092915050565b60006200105082846200100b565b915081905092915050565b620010668162000807565b82525050565b60006040820190506200108360008301856200105b565b6200109260208301846200105b565b9392505050565b600082825260208201905092915050565b7f73746f636b7320696e697420697320696e76616c696400000000000000000000600082015250565b6000620010e260168362001099565b9150620010ef82620010aa565b602082019050919050565b600060208201905081810360008301526200111581620010d3565b9050919050565b7f6f776e6572277320726174696f20616c72656164792073657400000000000000600082015250565b60006200115460198362001099565b915062001161826200111c565b602082019050919050565b60006020820190508181036000830152620011878162001145565b9050919050565b7f4e487b7100000000000000000000000000000000000000000000000000000000600052603260045260246000fd5b7f726174696f20697320746f6f206c6f7700000000000000000000000000000000600082015250565b6000620011f560108362001099565b91506200120282620011bd565b602082019050919050565b600060208201905081810360008301526200122881620011e6565b9050919050565b7f4e487b7100000000000000000000000000000000000000000000000000000000600052601160045260246000fd5b60006200126b8262000ac9565b9150620012788362000ac9565b9250828201905061ffff8111156200129557620012946200122f565b5b92915050565b6000620012a88262000dc5565b91507fffffffffffffffffffffffffffffffffffffffffffffffffffffffffffffffff8203620012dd57620012dc6200122f565b5b600182019050919050565b7f726174696f20746f74616c20697320696e76616c696400000000000000000000600082015250565b60006200132060168362001099565b91506200132d82620012e8565b602082019050919050565b60006020820190508181036000830152620013538162001311565b9050919050565b600081519050919050565b600082825260208201905092915050565b6000819050602082019050919050565b620013918162000807565b82525050565b620013a28162000ac9565b82525050565b604082016000820151620013c0600085018262001386565b506020820151620013d5602085018262001397565b50505050565b6000620013e98383620013a8565b60408301905092915050565b6000602082019050919050565b60006200140f826200135a565b6200141b818562001365565b9350620014288362001376565b8060005b838110156200145f578151620014438882620013db565b97506200145083620013f5565b9250506001810190506200142c565b5085935050505092915050565b6000602082019050818103600083015262001488818462001402565b905092915050565b7f4f776e61626c653a2063616c6c6572206973206e6f7420746865206f776e6572600082015250565b6000620014c860208362001099565b9150620014d58262001490565b602082019050919050565b60006020820190508181036000830152620014fb81620014b9565b9050919050565b61a1f380620015126000396000f3fe6080604052600436106103a25760003560e01c806378f97d90116101e7578063c1a287e21161010d578063d99942cf116100a0578063e985e9c51161006f578063e985e9c514610e4a578063f2fde38b14610e87578063f4624aff14610eb0578063f6a74ed714610ed9576103a2565b8063d99942cf14610d8c578063da8c229e14610db7578063dd6627c314610df4578063ddf7fcb014610e1f576103a2565b8063d393c871116100dc578063d393c87114610ccd578063d58a811714610cfd578063d6e4fa8614610d26578063d85267f114610d63576103a2565b8063c1a287e214610bff578063c87b56dd14610c2a578063ca7eacd714610c67578063d26f74f814610c90576103a2565b80639bf32bf511610185578063a8b4a67b11610154578063a8b4a67b14610b3e578063acf1a84114610b67578063b86cffbb14610b97578063b88d4fde14610bd6576103a2565b80639bf32bf514610a84578063a22cb46514610ac3578063a4a9bb3a14610aec578063a7fc7a0714610b15576103a2565b80638ddbeb07116101c15780638ddbeb07146109a257806395d89b41146109df578063969e93da14610a0a57806396e494e814610a47576103a2565b806378f97d90146109115780638d8785d71461093a5780638da5cb5b14610977576103a2565b80634d3fb0cb116102cc5780636dc8fcee1161026a57806372ae60341161023957806372ae603414610845578063754b27071461086e57806375b83187146108ab578063772a3afa146108e8576103a2565b80636dc8fcee1461078b57806370a08231146107b4578063715018a6146107f15780637274c55914610808576103a2565b806356c7ae41116102a657806356c7ae41146106e357806359e5ff2a1461070e5780636352211e146107375780636b59084d14610774576103a2565b80634d3fb0cb146106545780634e14eb281461067d5780634e543b26146106ba576103a2565b806312abbb6c116103445780632ddbd13a116103135780632ddbd13a146105be5780633ccfd60b146105e95780633f15457f1461060057806342842e0e1461062b576103a2565b806312abbb6c1461050657806323b872dd1461052f57806325e8660a1461055857806328ed4f6c14610595576103a2565b8063081812fc11610380578063081812fc14610438578063095ea7b3146104755780630a7d4f1e1461049e57806310152b66146104dd576103a2565b806301ffc9a7146103a757806305ef9e52146103e457806306fdde031461040d575b600080fd5b3480156103b357600080fd5b506103ce60048036038101906103c9919061722f565b610f02565b6040516103db9190617277565b60405180910390f35b3480156103f057600080fd5b5061040b600480360381019061040691906172c8565b61114c565b005b34801561041957600080fd5b50610422611304565b60405161042f91906173d3565b60405180910390f35b34801561044457600080fd5b5061045f600480360381019061045a91906173f5565b611396565b60405161046c9190617463565b60405180910390f35b34801561048157600080fd5b5061049c600480360381019061049791906174aa565b6113dc565b005b3480156104aa57600080fd5b506104c560048036038101906104c0919061761f565b6114f3565b6040516104d493929190617677565b60405180910390f35b3480156104e957600080fd5b5061050460048036038101906104ff9190617794565b6116f9565b005b34801561051257600080fd5b5061052d600480360381019061052891906173f5565b61181e565b005b34801561053b57600080fd5b50610556600480360381019061055191906177dd565b6118fb565b005b34801561056457600080fd5b5061057f600480360381019061057a9190617830565b61195b565b60405161058c9190617870565b60405180910390f35b3480156105a157600080fd5b506105bc60048036038101906105b7919061788b565b611977565b005b3480156105ca57600080fd5b506105d3611a87565b6040516105e09190617870565b60405180910390f35b3480156105f557600080fd5b506105fe611a8d565b005b34801561060c57600080fd5b50610615611e43565b604051610622919061792a565b60405180910390f35b34801561063757600080fd5b50610652600480360381019061064d91906177dd565b611e69565b005b34801561066057600080fd5b5061067b6004803603810190610676919061761f565b611e89565b005b34801561068957600080fd5b506106a4600480360381019061069f9190617945565b611fd1565b6040516106b19190617870565b60405180910390f35b3480156106c657600080fd5b506106e160048036038101906106dc9190617945565b611fe9565b005b3480156106ef57600080fd5b506106f8612085565b6040516107059190617870565b60405180910390f35b34801561071a57600080fd5b5061073560048036038101906107309190617ac9565b6120bc565b005b34801561074357600080fd5b5061075e600480360381019061075991906173f5565b612731565b60405161076b9190617463565b60405180910390f35b34801561078057600080fd5b50610789612762565b005b34801561079757600080fd5b506107b260048036038101906107ad9190617b12565b612778565b005b3480156107c057600080fd5b506107db60048036038101906107d69190617945565b61294f565b6040516107e89190617870565b60405180910390f35b3480156107fd57600080fd5b50610806612a06565b005b34801561081457600080fd5b5061082f600480360381019061082a919061761f565b612a1a565b60405161083c9190617277565b60405180910390f35b34801561085157600080fd5b5061086c60048036038101906108679190617794565b612c96565b005b34801561087a57600080fd5b5061089560048036038101906108909190617945565b612dbb565b6040516108a29190617bb8565b60405180910390f35b3480156108b757600080fd5b506108d260048036038101906108cd9190617bd3565b612ef1565b6040516108df9190617277565b60405180910390f35b3480156108f457600080fd5b5061090f600480360381019061090a9190617b12565b612fce565b005b34801561091d57600080fd5b5061093860048036038101906109339190617794565b6131d4565b005b34801561094657600080fd5b50610961600480360381019061095c91906173f5565b613318565b60405161096e9190617277565b60405180910390f35b34801561098357600080fd5b5061098c613338565b6040516109999190617463565b60405180910390f35b3480156109ae57600080fd5b506109c960048036038101906109c49190617bd3565b613362565b6040516109d69190617277565b60405180910390f35b3480156109eb57600080fd5b506109f4613430565b604051610a0191906173d3565b60405180910390f35b348015610a1657600080fd5b50610a316004803603810190610a2c919061761f565b6134c2565b604051610a3e9190617277565b60405180910390f35b348015610a5357600080fd5b50610a6e6004803603810190610a6991906173f5565b61369c565b604051610a7b9190617277565b60405180910390f35b348015610a9057600080fd5b50610aab6004803603810190610aa6919061761f565b6136c7565b604051610aba93929190617677565b60405180910390f35b348015610acf57600080fd5b50610aea6004803603810190610ae59190617c77565b613859565b005b348015610af857600080fd5b50610b136004803603810190610b0e9190617e20565b61386f565b005b348015610b2157600080fd5b50610b3c6004803603810190610b379190617945565b6139ef565b005b348015610b4a57600080fd5b50610b656004803603810190610b609190617e69565b613a95565b005b610b816004803603810190610b7c9190617ec5565b613d0e565b604051610b8e9190617870565b60405180910390f35b348015610ba357600080fd5b50610bbe6004803603810190610bb9919061761f565b613ecc565b604051610bcd93929190617677565b60405180910390f35b348015610be257600080fd5b50610bfd6004803603810190610bf89190617fc2565b6140a5565b005b348015610c0b57600080fd5b50610c14614107565b604051610c219190617870565b60405180910390f35b348015610c3657600080fd5b50610c516004803603810190610c4c91906173f5565b61410c565b604051610c5e91906173d3565b60405180910390f35b348015610c7357600080fd5b50610c8e6004803603810190610c899190617b12565b614174565b005b348015610c9c57600080fd5b50610cb76004803603810190610cb2919061761f565b6143a3565b604051610cc49190618149565b60405180910390f35b610ce76004803603810190610ce2919061816b565b6144d0565b604051610cf49190617870565b60405180910390f35b348015610d0957600080fd5b50610d246004803603810190610d1f91906172c8565b6144f3565b005b348015610d3257600080fd5b50610d4d6004803603810190610d4891906173f5565b614677565b604051610d5a9190617870565b60405180910390f35b348015610d6f57600080fd5b50610d8a6004803603810190610d85919061761f565b614694565b005b348015610d9857600080fd5b50610da1614796565b604051610dae91906181fb565b60405180910390f35b348015610dc357600080fd5b50610dde6004803603810190610dd99190617945565b6147bc565b604051610deb9190617277565b60405180910390f35b348015610e0057600080fd5b50610e096147dc565b604051610e169190617870565b60405180910390f35b348015610e2b57600080fd5b50610e34614819565b604051610e41919061822f565b60405180910390f35b348015610e5657600080fd5b50610e716004803603810190610e6c919061824a565b61481f565b604051610e7e9190617277565b60405180910390f35b348015610e9357600080fd5b50610eae6004803603810190610ea99190617945565b6148b3565b005b348015610ebc57600080fd5b50610ed76004803603810190610ed29190617b12565b614936565b005b348015610ee557600080fd5b50610f006004803603810190610efb9190617945565b614bb6565b005b60007f01ffc9a7a5cef8baa21ed3c5c0d7e23accb804b619e9333b597f47a0d84076e27bffffffffffffffffffffffffffffffffffffffffffffffffffffffff1916827bffffffffffffffffffffffffffffffffffffffffffffffffffffffff191614806110dd57507fb88d4fde60196325a28bb7f99a2582e0b46de55b18761e960c14ad7a320994657f42842e0eb38857a7775b4e7364b2775df7325074d088e7fb39590cd6281184ed7f23b872dd7302113369cda2901243429419bec145408fa8b352b3dd92b66c680b7fe985e9c5c6636c6879256001057b28ccac7718ef0ac56553ff9b926452cab8a37fa22cb4651ab9570f89bb516380c40ce76762284fb1f21337ceaf6adab99e7d4a7f081812fc55e34fdc7cf5d8b5cf4e3621fa6423fde952ec6ab24afdc0d85c0b2e7f095ea7b334ae44009aa867bfb386f5c3b4b443ac6f0ee573fa91c4608fbadfba7f6352211e6566aa027e75ac9dbf2423197fbd9b82b9d981a3ab367d355866aa1c7f70a08231b98ef4ca268c9cc3f6b4590e4bfec28280db06bb5d45e689f2a360be18181818181818187bffffffffffffffffffffffffffffffffffffffffffffffffffffffff1916827bffffffffffffffffffffffffffffffffffffffffffffffffffffffff1916145b8061114557507f28ed4f6c74b219a5819055dfbcd2f1837c046c364cf01fabb6799e4f440d6f137bffffffffffffffffffffffffffffffffffffffffffffffffffffffff1916827bffffffffffffffffffffffffffffffffffffffffffffffffffffffff1916145b9050919050565b611154614c5c565b838260008211806111655750600081115b6111a4576040517f08c379a000000000000000000000000000000000000000000000000000000000815260040161119b906182d6565b60405180910390fd5b600d600088815260200190815260200160002060050160009054906101000a900460ff16611207576040517f08c379a00000000000000000000000000000000000000000000000000000000081526004016111fe90618342565b60405180910390fd5b86600d60008981526020019081526020016000206000018190555085600d60008981526020019081526020016000206001018190555084600d6000898152602001908152602001600020600201819055506001600d600089815260200190815260200160002060050160006101000a81548160ff02191690831515021790555083600d60008981526020019081526020016000206003018190555082600d600089815260200190815260200160002060040181905550867f2d5be7b52d85cb6dd0e0011707fa73a2e4ddf68ee282dbf72431a6fc482b4289878787876040516112f394939291906183ae565b60405180910390a250505050505050565b60606000805461131390618435565b80601f016020809104026020016040519081016040528092919081815260200182805461133f90618435565b801561138c5780601f106113615761010080835404028352916020019161138c565b820191906000526020600020905b81548152906001019060200180831161136f57829003601f168201915b5050505050905090565b60006113a182614cda565b6004600083815260200190815260200160002060009054906101000a900473ffffffffffffffffffffffffffffffffffffffff169050919050565b60006113e782614d25565b90508073ffffffffffffffffffffffffffffffffffffffff168373ffffffffffffffffffffffffffffffffffffffff1603611457576040517f08c379a000000000000000000000000000000000000000000000000000000000815260040161144e906184d8565b60405180910390fd5b8073ffffffffffffffffffffffffffffffffffffffff16611476614dab565b73ffffffffffffffffffffffffffffffffffffffff1614806114a557506114a48161149f614dab565b61481f565b5b6114e4576040517f08c379a00000000000000000000000000000000000000000000000000000000081526004016114db9061856a565b60405180910390fd5b6114ee8383614db3565b505050565b600080600080600090506000806000806000808a8051906020012060001c90506000600860009054906101000a900473ffffffffffffffffffffffffffffffffffffffff1673ffffffffffffffffffffffffffffffffffffffff1663e378add6836040518263ffffffff1660e01b81526004016115709190617870565b6000604051808303816000875af115801561158f573d6000803e3d6000fd5b505050506040513d6000823e3d601f19601f820116820180604052508101906115b89190618662565b905060005b81518110156116e05760008282815181106115db576115da6186ab565b5b60200260200101519050600f600082815260200190815260200160002060050160019054906101000a900460ff161580156116365750600f600082815260200190815260200160002060050160009054906101000a900460ff165b8015611657575042600f600083815260200190815260200160002060020154105b156116cc57600f600082815260200190815260200160002060010154965061167f8a8861195b565b9950600f60008281526020019081526020016000206003015495506116a4868a61195b565b9850600f60008281526020019081526020016000206004015494506116c9858961195b565b97505b5080806116d890618709565b9150506115bd565b508787879a509a509a5050505050505050509193909250565b611701614c5c565b60005b815181101561181a576000828281518110611722576117216186ab565b5b60200260200101518051906020012060001c9050600860009054906101000a900473ffffffffffffffffffffffffffffffffffffffff1673ffffffffffffffffffffffffffffffffffffffff16635aa7a868826040518263ffffffff1660e01b81526004016117919190617870565b6020604051808303816000875af11580156117b0573d6000803e3d6000fd5b505050506040513d601f19601f820116820180604052508101906117d49190618766565b15611806576001600c600083815260200190815260200160002060006101000a81548160ff0219169083151502179055505b50808061181290618709565b915050611704565b5050565b611826614c5c565b600d600082815260200190815260200160002060050160009054906101000a900460ff16611889576040517f08c379a000000000000000000000000000000000000000000000000000000000815260040161188090618342565b60405180910390fd5b6001600d600083815260200190815260200160002060050160016101000a81548160ff021916908315150217905550807f2d5be7b52d85cb6dd0e0011707fa73a2e4ddf68ee282dbf72431a6fc482b42896000806000806040516118f0949392919061881a565b60405180910390a250565b61190c611906614dab565b82614e6c565b61194b576040517f08c379a0000000000000000000000000000000000000000000000000000000008152600401611942906188e4565b60405180910390fd5b611956838383614f01565b505050565b60008183111561196d57829050611971565b8190505b92915050565b3073ffffffffffffffffffffffffffffffffffffffff16600760009054906101000a900473ffffffffffffffffffffffffffffffffffffffff1673ffffffffffffffffffffffffffffffffffffffff166302571be36009546040518263ffffffff1660e01b81526004016119eb919061822f565b602060405180830381865afa158015611a08573d6000803e3d6000fd5b505050506040513d601f19601f82011682018060405250810190611a2c9190618919565b73ffffffffffffffffffffffffffffffffffffffff1614611a4c57600080fd5b6040517f08c379a0000000000000000000000000000000000000000000000000000000008152600401611a7e90618992565b60405180910390fd5b60145481565b600060116000611a9b614dab565b73ffffffffffffffffffffffffffffffffffffffff1673ffffffffffffffffffffffffffffffffffffffff16815260200190815260200160002060009054906101000a900461ffff1661ffff1611611b28576040517f08c379a0000000000000000000000000000000000000000000000000000000008152600401611b1f90618a24565b60405180910390fd5b601360079054906101000a900460ff1615611b4257600080fd5b6001601360076101000a81548160ff0219169083151502179055506000479050601360049054906101000a900461ffff1661ffff168110611e1d5760005b601280549050811015611e1b5760006011600060128481548110611ba757611ba66186ab565b5b9060005260206000200160009054906101000a900473ffffffffffffffffffffffffffffffffffffffff1673ffffffffffffffffffffffffffffffffffffffff1673ffffffffffffffffffffffffffffffffffffffff16815260200190815260200160002060009054906101000a900461ffff1661ffff16601360049054906101000a900461ffff1661ffff1684611c3f9190618a73565b611c499190618aa4565b905060128281548110611c5f57611c5e6186ab565b5b9060005260206000200160009054906101000a900473ffffffffffffffffffffffffffffffffffffffff1673ffffffffffffffffffffffffffffffffffffffff166108fc829081150290604051600060405180830381858888f19350505050158015611ccf573d6000803e3d6000fd5b50806015600060128581548110611ce957611ce86186ab565b5b9060005260206000200160009054906101000a900473ffffffffffffffffffffffffffffffffffffffff1673ffffffffffffffffffffffffffffffffffffffff1673ffffffffffffffffffffffffffffffffffffffff1681526020019081526020016000206000828254611d5d9190618ae6565b9250508190555060128281548110611d7857611d776186ab565b5b9060005260206000200160009054906101000a900473ffffffffffffffffffffffffffffffffffffffff1673ffffffffffffffffffffffffffffffffffffffff163073ffffffffffffffffffffffffffffffffffffffff167f9b1bfa7fa9ee420a16e124f794c35ac9f90472acc99140eb2f6447c714cad8eb83604051611dff9190617870565b60405180910390a3508080611e1390618709565b915050611b80565b505b611e256151fa565b506000601360076101000a81548160ff021916908315150217905550565b600760009054906101000a900473ffffffffffffffffffffffffffffffffffffffff1681565b611e84838383604051806020016040528060008152506140a5565b505050565b611e91614c5c565b6000818051906020012060001c9050600f600082815260200190815260200160002060050160009054906101000a900460ff16611f03576040517f08c379a0000000000000000000000000000000000000000000000000000000008152600401611efa90618b66565b60405180910390fd5b600f600082815260200190815260200160002060050160019054906101000a900460ff1615611f67576040517f08c379a0000000000000000000000000000000000000000000000000000000008152600401611f5e90618bd2565b60405180910390fd5b6001600f600083815260200190815260200160002060050160016101000a81548160ff0219169083151502179055507f363c4e9dc3fe783b52d85ad02045d37cbcc27ded5aa54126ffbb46265ee325f782604051611fc59190618c3e565b60405180910390a15050565b60156020528060005260406000206000915090505481565b611ff1614c5c565b600760009054906101000a900473ffffffffffffffffffffffffffffffffffffffff1673ffffffffffffffffffffffffffffffffffffffff16631896f70a600954836040518363ffffffff1660e01b8152600401612050929190618c73565b600060405180830381600087803b15801561206a57600080fd5b505af115801561207e573d6000803e3d6000fd5b5050505050565b6000806000905060005b60148110156120b4576120a06147dc565b5080806120ac90618709565b91505061208f565b508091505090565b6000601160006120ca614dab565b73ffffffffffffffffffffffffffffffffffffffff1673ffffffffffffffffffffffffffffffffffffffff16815260200190815260200160002060009054906101000a900461ffff1661ffff1611612157576040517f08c379a000000000000000000000000000000000000000000000000000000000815260040161214e90618a24565b60405180910390fd5b601360049054906101000a900461ffff1661ffff1647106121ad576040517f08c379a00000000000000000000000000000000000000000000000000000000081526004016121a490618ce8565b60405180910390fd5b60005b815181101561251757601360029054906101000a900461ffff1661ffff168282815181106121e1576121e06186ab565b5b60200260200101516020015161ffff1610158015612279575060116000612206614dab565b73ffffffffffffffffffffffffffffffffffffffff1673ffffffffffffffffffffffffffffffffffffffff16815260200190815260200160002060009054906101000a900461ffff1661ffff16828281518110612266576122656186ab565b5b60200260200101516020015161ffff1611155b6122b8576040517f08c379a00000000000000000000000000000000000000000000000000000000081526004016122af90618d54565b60405180910390fd5b6000601160008484815181106122d1576122d06186ab565b5b60200260200101516000015173ffffffffffffffffffffffffffffffffffffffff1673ffffffffffffffffffffffffffffffffffffffff16815260200190815260200160002060009054906101000a900461ffff1661ffff16905082828151811061233f5761233e6186ab565b5b60200260200101516020015160116000612357614dab565b73ffffffffffffffffffffffffffffffffffffffff1673ffffffffffffffffffffffffffffffffffffffff16815260200190815260200160002060008282829054906101000a900461ffff166123ad9190618d74565b92506101000a81548161ffff021916908361ffff160217905550600081036124515760128383815181106123e4576123e36186ab565b5b6020026020010151600001519080600181540180825580915050600190039060005260206000200160009091909190916101000a81548173ffffffffffffffffffffffffffffffffffffffff021916908373ffffffffffffffffffffffffffffffffffffffff1602179055505b828281518110612464576124636186ab565b5b60200260200101516020015160116000858581518110612487576124866186ab565b5b60200260200101516000015173ffffffffffffffffffffffffffffffffffffffff1673ffffffffffffffffffffffffffffffffffffffff16815260200190815260200160002060008282829054906101000a900461ffff166124e99190618daa565b92506101000a81548161ffff021916908361ffff16021790555050808061250f90618709565b9150506121b0565b50600060116000612526614dab565b73ffffffffffffffffffffffffffffffffffffffff1673ffffffffffffffffffffffffffffffffffffffff16815260200190815260200160002060009054906101000a900461ffff1661ffff1614806125eb5750601360029054906101000a900461ffff1661ffff166011600061259b614dab565b73ffffffffffffffffffffffffffffffffffffffff1673ffffffffffffffffffffffffffffffffffffffff16815260200190815260200160002060009054906101000a900461ffff1661ffff1610155b61262a576040517f08c379a000000000000000000000000000000000000000000000000000000000815260040161262190618e2c565b60405180910390fd5b600060116000612638614dab565b73ffffffffffffffffffffffffffffffffffffffff1673ffffffffffffffffffffffffffffffffffffffff16815260200190815260200160002060009054906101000a900461ffff1661ffff160361269b5761269a612695614dab565b615342565b5b601360009054906101000a900461ffff1661ffff1660128054905011156126f7576040517f08c379a00000000000000000000000000000000000000000000000000000000081526004016126ee90618e98565b60405180910390fd5b7fb4401f7ff72a1ee5d63da4a8cc041af040ad9f24e50beca9bc095652591f1991816040516127269190618fb4565b60405180910390a150565b60004260166000848152602001908152602001600020541161275257600080fd5b61275b82614d25565b9050919050565b6000806010805490500361277557600990505b50565b612780614c5c565b838260008211806127915750600081115b6127d0576040517f08c379a00000000000000000000000000000000000000000000000000000000081526004016127c7906182d6565b60405180910390fd5b6000878051906020012060001c9050600f600082815260200190815260200160002060050160009054906101000a900460ff16612842576040517f08c379a000000000000000000000000000000000000000000000000000000000815260040161283990618b66565b60405180910390fd5b86600f60008381526020019081526020016000206001018190555085600f6000838152602001908152602001600020600201819055506001600f600083815260200190815260200160002060050160006101000a81548160ff02191690831515021790555084600f60008381526020019081526020016000206003018190555083600f60008381526020019081526020016000206004018190555060108190806001815401808255809150506001900390600052602060002001600090919091909150557f99e276693a0830687191493f52e13b0a2ff7e6b723e54757dd5ebdbf45cd1f5c888888888860405161293d959493929190619022565b60405180910390a15050505050505050565b60008073ffffffffffffffffffffffffffffffffffffffff168273ffffffffffffffffffffffffffffffffffffffff16036129bf576040517f08c379a00000000000000000000000000000000000000000000000000000000081526004016129b690619101565b60405180910390fd5b600360008373ffffffffffffffffffffffffffffffffffffffff1673ffffffffffffffffffffffffffffffffffffffff168152602001908152602001600020549050919050565b612a0e614c5c565b612a1860006155bf565b565b60008060108054905003612a315760009050612c91565b600080838051906020012060001c9050600860009054906101000a900473ffffffffffffffffffffffffffffffffffffffff1673ffffffffffffffffffffffffffffffffffffffff166333cb2e33826040518263ffffffff1660e01b8152600401612a9c9190617870565b6020604051808303816000875af1158015612abb573d6000803e3d6000fd5b505050506040513d601f19601f82011682018060405250810190612adf9190618766565b612aee57600092505050612c91565b6000600860009054906101000a900473ffffffffffffffffffffffffffffffffffffffff1673ffffffffffffffffffffffffffffffffffffffff1663e378add6836040518263ffffffff1660e01b8152600401612b4b9190617870565b6000604051808303816000875af1158015612b6a573d6000803e3d6000fd5b505050506040513d6000823e3d601f19601f82011682018060405250810190612b939190618662565b905060005b8151811015612c8957600f6000838381518110612bb857612bb76186ab565b5b6020026020010151815260200190815260200160002060050160019054906101000a900460ff1680612c605750600f6000838381518110612bfc57612bfb6186ab565b5b6020026020010151815260200190815260200160002060050160009054906101000a900460ff16158015612c5f575042600f6000848481518110612c4357612c426186ab565b5b6020026020010151815260200190815260200160002060020154115b5b15612c72576000945050505050612c91565b600193508080612c8190618709565b915050612b98565b508293505050505b919050565b612c9e614c5c565b60005b8151811015612db7576000828281518110612cbf57612cbe6186ab565b5b60200260200101518051906020012060001c9050600860009054906101000a900473ffffffffffffffffffffffffffffffffffffffff1673ffffffffffffffffffffffffffffffffffffffff16635aa7a868826040518263ffffffff1660e01b8152600401612d2e9190617870565b6020604051808303816000875af1158015612d4d573d6000803e3d6000fd5b505050506040513d601f19601f82011682018060405250810190612d719190618766565b15612da3576000600c600083815260200190815260200160002060006101000a81548160ff0219169083151502179055505b508080612daf90618709565b915050612ca1565b5050565b6000612dc5614dab565b73ffffffffffffffffffffffffffffffffffffffff16612de3613338565b73ffffffffffffffffffffffffffffffffffffffff161480612e5d5750600060116000612e0e614dab565b73ffffffffffffffffffffffffffffffffffffffff1673ffffffffffffffffffffffffffffffffffffffff16815260200190815260200160002060009054906101000a900461ffff1661ffff16115b612e9c576040517f08c379a0000000000000000000000000000000000000000000000000000000008152600401612e9390618a24565b60405180910390fd5b601160008373ffffffffffffffffffffffffffffffffffffffff1673ffffffffffffffffffffffffffffffffffffffff16815260200190815260200160002060009054906101000a900461ffff169050919050565b60008083905060008390508051825114612f1057600092505050612fc8565b60005b8251811015612fc057818181518110612f2f57612f2e6186ab565b5b602001015160f81c60f81b7effffffffffffffffffffffffffffffffffffffffffffffffffffffffffffff1916838281518110612f6f57612f6e6186ab565b5b602001015160f81c60f81b7effffffffffffffffffffffffffffffffffffffffffffffffffffffffffffff191614612fad5760009350505050612fc8565b8080612fb890618709565b915050612f13565b506001925050505b92915050565b612fd6614c5c565b83826000821180612fe75750600081115b613026576040517f08c379a000000000000000000000000000000000000000000000000000000000815260040161301d906182d6565b60405180910390fd5b61302f87615685565b965061303a876156f7565b1561307a576040517f08c379a00000000000000000000000000000000000000000000000000000000081526004016130719061916d565b60405180910390fd5b6000878051906020012060001c905087600e600083815260200190815260200160002060000190816130ac919061932f565b5086600e60008381526020019081526020016000206001018190555085600e6000838152602001908152602001600020600201819055506001600e600083815260200190815260200160002060050160006101000a81548160ff02191690831515021790555084600e60008381526020019081526020016000206003018190555083600e6000838152602001908152602001600020600401819055506000600e600083815260200190815260200160002060050160016101000a81548160ff02191690831515021790555087604051613185919061943d565b60405180910390207f1985bedb72c1911f8a0bb69a6ed7cdb1435f45ecb17d9d320b6dff82cb551ca8888888886040516131c294939291906194a0565b60405180910390a25050505050505050565b6131dc614c5c565b60005b81518110156133145761320b8282815181106131fe576131fd6186ab565b5b6020026020010151615685565b82828151811061321e5761321d6186ab565b5b6020026020010181905250600a82828151811061323e5761323d6186ab565b5b6020026020010151604051613253919061943d565b908152602001604051809103902060009054906101000a900460ff161561330157600a828281518110613289576132886186ab565b5b602002602001015160405161329e919061943d565b908152602001604051809103902060006101000a81549060ff0219169055600b8282815181106132d1576132d06186ab565b5b60200260200101516040516132e6919061943d565b908152602001604051809103902060006133009190617125565b5b808061330c90618709565b9150506131df565b5050565b600c6020528060005260406000206000915054906101000a900460ff1681565b6000600660009054906101000a900473ffffffffffffffffffffffffffffffffffffffff16905090565b60008151835114613376576000905061342a565b60005b835181101561342457828181518110613395576133946186ab565b5b602001015160f81c60f81b7effffffffffffffffffffffffffffffffffffffffffffffffffffffffffffff19168482815181106133d5576133d46186ab565b5b602001015160f81c60f81b7effffffffffffffffffffffffffffffffffffffffffffffffffffffffffffff19161461341157600091505061342a565b808061341c90618709565b915050613379565b50600190505b92915050565b60606001805461343f90618435565b80601f016020809104026020016040519081016040528092919081815260200182805461346b90618435565b80156134b85780601f1061348d576101008083540402835291602001916134b8565b820191906000526020600020905b81548152906001019060200180831161349b57829003601f168201915b5050505050905090565b600080828051906020012060001c9050600860009054906101000a900473ffffffffffffffffffffffffffffffffffffffff1673ffffffffffffffffffffffffffffffffffffffff16632efca7d9826040518263ffffffff1660e01b815260040161352d9190617870565b6020604051808303816000875af115801561354c573d6000803e3d6000fd5b505050506040513d601f19601f820116820180604052508101906135709190618766565b61357e576000915050613697565b6000600860009054906101000a900473ffffffffffffffffffffffffffffffffffffffff1673ffffffffffffffffffffffffffffffffffffffff166333d9ad8e836040518263ffffffff1660e01b81526004016135db9190617870565b6000604051808303816000875af11580156135fa573d6000803e3d6000fd5b505050506040513d6000823e3d601f19601f820116820180604052508101906136239190618662565b905060005b815181101561368f57600c6000838381518110613648576136476186ab565b5b6020026020010151815260200190815260200160002060009054906101000a900460ff1661367c5760019350505050613697565b808061368790618709565b915050613628565b506000925050505b919050565b600042600060166000858152602001908152602001600020546136bf9190618ae6565b109050919050565b6000806000806000905060008060008060008060008b8051906020012060001c90506136f28161572c565b1561376b5760019150600e600082815260200190815260200160002060040154925061371e838761195b565b9550600e6000828152602001908152602001600020600101549450613743888661195b565b9750600e6000828152602001908152602001600020600301549350613768848861195b565b96505b6137758c516157a8565b156137f5576001915060008c519050600d60008281526020019081526020016000206004015493506137a7848861195b565b9650600d60008281526020019081526020016000206001015495506137cc898761195b565b9850600d60008281526020019081526020016000206003015494506137f1858961195b565b9750505b6137fe8c615824565b1561384157600191506138108c6114f3565b809550819650829750505050613826838761195b565b9550613832888661195b565b975061383e848861195b565b96505b8787879a509a509a5050505050505050509193909250565b61386b613864614dab565b8383615aa0565b5050565b613877614c5c565b60005b81518110156139eb576138aa828281518110613899576138986186ab565b5b602002602001015160000151615685565b8282815181106138bd576138bc6186ab565b5b602002602001015160000181905250600a8282815181106138e1576138e06186ab565b5b6020026020010151600001516040516138fa919061943d565b908152602001604051809103902060009054906101000a900460ff166139d8576001600a838381518110613931576139306186ab565b5b60200260200101516000015160405161394a919061943d565b908152602001604051809103902060006101000a81548160ff021916908315150217905550818181518110613982576139816186ab565b5b602002602001015160200151600b8383815181106139a3576139a26186ab565b5b6020026020010151600001516040516139bc919061943d565b908152602001604051809103902090816139d6919061932f565b505b80806139e390618709565b91505061387a565b5050565b6139f7614c5c565b6001601760008373ffffffffffffffffffffffffffffffffffffffff1673ffffffffffffffffffffffffffffffffffffffff16815260200190815260200160002060006101000a81548160ff0219169083151502179055508073ffffffffffffffffffffffffffffffffffffffff167f0a8bb31534c0ed46f380cb867bd5c803a189ced9a764e30b3a4991a9901d747460405160405180910390a250565b613a9e81615685565b90506000818051906020012060001c9050600060095482604051602001613ac692919061953a565b6040516020818303038152906040528051906020012090506000600760009054906101000a900473ffffffffffffffffffffffffffffffffffffffff1673ffffffffffffffffffffffffffffffffffffffff166302571be3836040518263ffffffff1660e01b8152600401613b3b919061822f565b602060405180830381865afa158015613b58573d6000803e3d6000fd5b505050506040513d601f19601f82011682018060405250810190613b7c9190618919565b9050613b86614dab565b73ffffffffffffffffffffffffffffffffffffffff168173ffffffffffffffffffffffffffffffffffffffff1614613bf3576040517f08c379a0000000000000000000000000000000000000000000000000000000008152600401613bea906195b2565b60405180910390fd5b600760009054906101000a900473ffffffffffffffffffffffffffffffffffffffff1673ffffffffffffffffffffffffffffffffffffffff166306ab59236009548560001b886040518463ffffffff1660e01b8152600401613c57939291906195d2565b6020604051808303816000875af1158015613c76573d6000803e3d6000fd5b505050506040513d601f19601f82011682018060405250810190613c9a9190619635565b508473ffffffffffffffffffffffffffffffffffffffff16613cba614dab565b73ffffffffffffffffffffffffffffffffffffffff167fb86ce101300772e0d040925271b551450c6497e60ae8fe6525e31d7dfbc3353d86604051613cff91906173d3565b60405180910390a35050505050565b6000613d1983615685565b92506000838051906020012060001c9050613d3381615c0c565b80613d445750613d438451615c5b565b5b80613d545750613d5384615caa565b5b613d93576040517f08c379a0000000000000000000000000000000000000000000000000000000008152600401613d8a906196ae565b60405180910390fd5b613d9e843485615ee1565b4260006016600084815260200190815260200160002054613dbf9190618ae6565b1015613dca57600080fd5b600083613dd79190618ae6565b6000846016600085815260200190815260200160002054613df89190618ae6565b613e029190618ae6565b11613e0c57600080fd5b82601660008381526020019081526020016000206000828254613e2f9190618ae6565b925050819055503460146000828254613e489190618ae6565b9250508190555083604051613e5d919061943d565b60405180910390207f0cf55da39288ef07a66ed9175301862aedb2e223317200ca33fa25f9e9d2c9d36016600084815260200190815260200160002054604051613ea79190617870565b60405180910390a2601660008281526020019081526020016000205491505092915050565b600080600080600090506000806000806000808a8051906020012060001c90506000600860009054906101000a900473ffffffffffffffffffffffffffffffffffffffff1673ffffffffffffffffffffffffffffffffffffffff1663e378add6836040518263ffffffff1660e01b8152600401613f499190617870565b6000604051808303816000875af1158015613f68573d6000803e3d6000fd5b505050506040513d6000823e3d601f19601f82011682018060405250810190613f919190618662565b905060005b815181101561408c576000828281518110613fb457613fb36186ab565b5b60200260200101519050600f600082815260200190815260200160002060050160009054906101000a900460ff168015614003575042600f600083815260200190815260200160002060020154105b1561407857600f600082815260200190815260200160002060010154965061402b8a8861195b565b9950600f6000828152602001908152602001600020600301549550614050868a61195b565b9850600f6000828152602001908152602001600020600401549450614075858961195b565b97505b50808061408490618709565b915050613f96565b508787879a509a509a5050505050505050509193909250565b6140b66140b0614dab565b83614e6c565b6140f5576040517f08c379a00000000000000000000000000000000000000000000000000000000081526004016140ec906188e4565b60405180910390fd5b614101848484846160e1565b50505050565b600081565b606061411782614cda565b600061412161613d565b90506000815111614141576040518060200160405280600081525061416c565b8061414b84616154565b60405160200161415c9291906196ce565b6040516020818303038152906040525b915050919050565b61417c614c5c565b8382600082118061418d5750600081115b6141cc576040517f08c379a00000000000000000000000000000000000000000000000000000000081526004016141c3906182d6565b60405180910390fd5b6141d5876156f7565b15614215576040517f08c379a000000000000000000000000000000000000000000000000000000000815260040161420c9061916d565b60405180910390fd5b6000878051906020012060001c9050600e600082815260200190815260200160002060050160009054906101000a900460ff16614287576040517f08c379a000000000000000000000000000000000000000000000000000000000815260040161427e9061973e565b60405180910390fd5b87600e600083815260200190815260200160002060000190816142aa919061932f565b5086600e60008381526020019081526020016000206001018190555085600e6000838152602001908152602001600020600201819055506001600e600083815260200190815260200160002060050160006101000a81548160ff02191690831515021790555084600e60008381526020019081526020016000206003018190555083600e60008381526020019081526020016000206004018190555087604051614354919061943d565b60405180910390207f1985bedb72c1911f8a0bb69a6ed7cdb1435f45ecb17d9d320b6dff82cb551ca88888888860405161439194939291906183ae565b60405180910390a25050505050505050565b6143ab617165565b6000828051906020012060001c9050600f60008281526020019081526020016000206040518060e00160405290816000820180546143e890618435565b80601f016020809104026020016040519081016040528092919081815260200182805461441490618435565b80156144615780601f1061443657610100808354040283529160200191614461565b820191906000526020600020905b81548152906001019060200180831161444457829003601f168201915b50505050508152602001600182015481526020016002820154815260200160038201548152602001600482015481526020016005820160009054906101000a900460ff161515151581526020016005820160019054906101000a900460ff161515151581525050915050919050565b60006144db84615685565b93506144ea8484846001616222565b90509392505050565b6144fb614c5c565b8382600082118061450c5750600081115b61454b576040517f08c379a0000000000000000000000000000000000000000000000000000000008152600401614542906182d6565b60405180910390fd5b86600d60008981526020019081526020016000206000018190555085600d60008981526020019081526020016000206001018190555084600d6000898152602001908152602001600020600201819055506001600d600089815260200190815260200160002060050160006101000a81548160ff02191690831515021790555083600d60008981526020019081526020016000206003018190555082600d6000898152602001908152602001600020600401819055506000600d600089815260200190815260200160002060050160016101000a81548160ff021916908315150217905550867f2d5be7b52d85cb6dd0e0011707fa73a2e4ddf68ee282dbf72431a6fc482b42898787878760405161466694939291906194a0565b60405180910390a250505050505050565b600060166000838152602001908152602001600020549050919050565b61469c614c5c565b6000818051906020012060001c9050600e600082815260200190815260200160002060050160009054906101000a900460ff1661470e576040517f08c379a00000000000000000000000000000000000000000000000000000000081526004016147059061973e565b60405180910390fd5b6001600e600083815260200190815260200160002060050160016101000a81548160ff0219169083151502179055508160405161474b919061943d565b60405180910390207f1985bedb72c1911f8a0bb69a6ed7cdb1435f45ecb17d9d320b6dff82cb551ca860008060008060405161478a949392919061881a565b60405180910390a25050565b600860009054906101000a900473ffffffffffffffffffffffffffffffffffffffff1681565b60176020528060005260406000206000915054906101000a900460ff1681565b6000806000905060005b614e208110156148115781806147fb90618709565b925050808061480990618709565b9150506147e6565b508091505090565b60095481565b6000600560008473ffffffffffffffffffffffffffffffffffffffff1673ffffffffffffffffffffffffffffffffffffffff16815260200190815260200160002060008373ffffffffffffffffffffffffffffffffffffffff1673ffffffffffffffffffffffffffffffffffffffff16815260200190815260200160002060009054906101000a900460ff16905092915050565b6148bb614c5c565b600073ffffffffffffffffffffffffffffffffffffffff168173ffffffffffffffffffffffffffffffffffffffff160361492a576040517f08c379a0000000000000000000000000000000000000000000000000000000008152600401614921906197d0565b60405180910390fd5b614933816155bf565b50565b61493e614c5c565b8382600082118061494f5750600081115b61498e576040517f08c379a0000000000000000000000000000000000000000000000000000000008152600401614985906182d6565b60405180910390fd5b6000878051906020012060001c9050600860009054906101000a900473ffffffffffffffffffffffffffffffffffffffff1673ffffffffffffffffffffffffffffffffffffffff1663cf909520826040518263ffffffff1660e01b81526004016149f89190617870565b6020604051808303816000875af1158015614a17573d6000803e3d6000fd5b505050506040513d601f19601f82011682018060405250810190614a3b9190618766565b614a7a576040517f08c379a0000000000000000000000000000000000000000000000000000000008152600401614a719061983c565b60405180910390fd5b86600f60008381526020019081526020016000206001018190555085600f6000838152602001908152602001600020600201819055506001600f600083815260200190815260200160002060050160006101000a81548160ff02191690831515021790555084600f60008381526020019081526020016000206003018190555083600f6000838152602001908152602001600020600401819055506000600f600083815260200190815260200160002060050160016101000a81548160ff02191690831515021790555060108190806001815401808255809150506001900390600052602060002001600090919091909150557f99e276693a0830687191493f52e13b0a2ff7e6b723e54757dd5ebdbf45cd1f5c8888888888604051614ba49594939291906198a8565b60405180910390a15050505050505050565b614bbe614c5c565b6000601760008373ffffffffffffffffffffffffffffffffffffffff1673ffffffffffffffffffffffffffffffffffffffff16815260200190815260200160002060006101000a81548160ff0219169083151502179055508073ffffffffffffffffffffffffffffffffffffffff167f33d83959be2573f5453b12eb9d43b3499bc57d96bd2f067ba44803c859e8111360405160405180910390a250565b614c64614dab565b73ffffffffffffffffffffffffffffffffffffffff16614c82613338565b73ffffffffffffffffffffffffffffffffffffffff1614614cd8576040517f08c379a0000000000000000000000000000000000000000000000000000000008152600401614ccf906195b2565b60405180910390fd5b565b614ce3816165a0565b614d22576040517f08c379a0000000000000000000000000000000000000000000000000000000008152600401614d1990619961565b60405180910390fd5b50565b600080614d31836165e1565b9050600073ffffffffffffffffffffffffffffffffffffffff168173ffffffffffffffffffffffffffffffffffffffff1603614da2576040517f08c379a0000000000000000000000000000000000000000000000000000000008152600401614d9990619961565b60405180910390fd5b80915050919050565b600033905090565b816004600083815260200190815260200160002060006101000a81548173ffffffffffffffffffffffffffffffffffffffff021916908373ffffffffffffffffffffffffffffffffffffffff160217905550808273ffffffffffffffffffffffffffffffffffffffff16614e2683614d25565b73ffffffffffffffffffffffffffffffffffffffff167f8c5be1e5ebec7d5bd14f71427d1e84f3dd0314c0f7b2291e5b200ac8c7c3b92560405160405180910390a45050565b600080614e7883612731565b90508073ffffffffffffffffffffffffffffffffffffffff168473ffffffffffffffffffffffffffffffffffffffff161480614ee757508373ffffffffffffffffffffffffffffffffffffffff16614ecf84611396565b73ffffffffffffffffffffffffffffffffffffffff16145b80614ef85750614ef7818561481f565b5b91505092915050565b8273ffffffffffffffffffffffffffffffffffffffff16614f2182614d25565b73ffffffffffffffffffffffffffffffffffffffff1614614f77576040517f08c379a0000000000000000000000000000000000000000000000000000000008152600401614f6e906199f3565b60405180910390fd5b600073ffffffffffffffffffffffffffffffffffffffff168273ffffffffffffffffffffffffffffffffffffffff1603614fe6576040517f08c379a0000000000000000000000000000000000000000000000000000000008152600401614fdd90619a85565b60405180910390fd5b614ff3838383600161661e565b8273ffffffffffffffffffffffffffffffffffffffff1661501382614d25565b73ffffffffffffffffffffffffffffffffffffffff1614615069576040517f08c379a0000000000000000000000000000000000000000000000000000000008152600401615060906199f3565b60405180910390fd5b6004600082815260200190815260200160002060006101000a81549073ffffffffffffffffffffffffffffffffffffffff02191690556001600360008573ffffffffffffffffffffffffffffffffffffffff1673ffffffffffffffffffffffffffffffffffffffff168152602001908152602001600020600082825403925050819055506001600360008473ffffffffffffffffffffffffffffffffffffffff1673ffffffffffffffffffffffffffffffffffffffff16815260200190815260200160002060008282540192505081905550816002600083815260200190815260200160002060006101000a81548173ffffffffffffffffffffffffffffffffffffffff021916908373ffffffffffffffffffffffffffffffffffffffff160217905550808273ffffffffffffffffffffffffffffffffffffffff168473ffffffffffffffffffffffffffffffffffffffff167fddf252ad1be2c89b69c2b068fc378daa952ba7f163c4a11628f55a4df523b3ef60405160405180910390a46151f58383836001616624565b505050565b60004790506000811180156152225750601360049054906101000a900461ffff1661ffff1681105b1561533f5761522f614dab565b73ffffffffffffffffffffffffffffffffffffffff166108fc829081150290604051600060405180830381858888f19350505050158015615274573d6000803e3d6000fd5b508060156000615282614dab565b73ffffffffffffffffffffffffffffffffffffffff1673ffffffffffffffffffffffffffffffffffffffff16815260200190815260200160002060008282546152cb9190618ae6565b925050819055506152da614dab565b73ffffffffffffffffffffffffffffffffffffffff163073ffffffffffffffffffffffffffffffffffffffff167f9b1bfa7fa9ee420a16e124f794c35ac9f90472acc99140eb2f6447c714cad8eb836040516153369190617870565b60405180910390a35b50565b6000601160008373ffffffffffffffffffffffffffffffffffffffff1673ffffffffffffffffffffffffffffffffffffffff16815260200190815260200160002060009054906101000a900461ffff1661ffff16146153a057600080fd5b601160008273ffffffffffffffffffffffffffffffffffffffff1673ffffffffffffffffffffffffffffffffffffffff16815260200190815260200160002060006101000a81549061ffff021916905560005b601280549050811015615578578173ffffffffffffffffffffffffffffffffffffffff166012828154811061542b5761542a6186ab565b5b9060005260206000200160009054906101000a900473ffffffffffffffffffffffffffffffffffffffff1673ffffffffffffffffffffffffffffffffffffffff160361556557601260016012805490506154859190619aa5565b81548110615496576154956186ab565b5b9060005260206000200160009054906101000a900473ffffffffffffffffffffffffffffffffffffffff16601282815481106154d5576154d46186ab565b5b9060005260206000200160006101000a81548173ffffffffffffffffffffffffffffffffffffffff021916908373ffffffffffffffffffffffffffffffffffffffff160217905550601280548061552f5761552e619ad9565b5b6001900381819060005260206000200160006101000a81549073ffffffffffffffffffffffffffffffffffffffff021916905590555b808061557090618709565b9150506153f3565b508073ffffffffffffffffffffffffffffffffffffffff167fb9b0748e6a6d0253614c9f5d91124d02712b9b5f395ec9c8cb0335bd2fd1847f60405160405180910390a250565b6000600660009054906101000a900473ffffffffffffffffffffffffffffffffffffffff16905081600660006101000a81548173ffffffffffffffffffffffffffffffffffffffff021916908373ffffffffffffffffffffffffffffffffffffffff1602179055508173ffffffffffffffffffffffffffffffffffffffff168173ffffffffffffffffffffffffffffffffffffffff167f8be0079c531659141344cd1fd0a4f28419497f9722a3daafe3b4186f6b6457e060405160405180910390a35050565b606060405190508151808252602083019250602060405101915060005b818110156156dd57808401805160f81c80605a1481605a111781604114604183111716602002808201848701535050506001810190506156a2565b50602082039150601f196040820116820160405250919050565b6000600a82604051615709919061943d565b908152602001604051809103902060009054906101000a900460ff169050919050565b6000600e600083815260200190815260200160002060050160019054906101000a900460ff1615801561577f5750600e600083815260200190815260200160002060050160009054906101000a900460ff165b80156157a1575042600e60008481526020019081526020016000206002015411155b9050919050565b6000600d600083815260200190815260200160002060050160019054906101000a900460ff161580156157fb5750600d600083815260200190815260200160002060050160009054906101000a900460ff165b801561581d575042600d60008481526020019081526020016000206002015411155b9050919050565b6000806010805490500361583b5760009050615a9b565b600080838051906020012060001c9050600860009054906101000a900473ffffffffffffffffffffffffffffffffffffffff1673ffffffffffffffffffffffffffffffffffffffff166333cb2e33826040518263ffffffff1660e01b81526004016158a69190617870565b6020604051808303816000875af11580156158c5573d6000803e3d6000fd5b505050506040513d601f19601f820116820180604052508101906158e99190618766565b6158f857600092505050615a9b565b6000600860009054906101000a900473ffffffffffffffffffffffffffffffffffffffff1673ffffffffffffffffffffffffffffffffffffffff1663e378add6836040518263ffffffff1660e01b81526004016159559190617870565b6000604051808303816000875af1158015615974573d6000803e3d6000fd5b505050506040513d6000823e3d601f19601f8201168201806040525081019061599d9190618662565b905060005b8151811015615a9357600f60008383815181106159c2576159c16186ab565b5b6020026020010151815260200190815260200160002060050160019054906101000a900460ff1680615a6a5750600f6000838381518110615a0657615a056186ab565b5b6020026020010151815260200190815260200160002060050160009054906101000a900460ff16158015615a69575042600f6000848481518110615a4d57615a4c6186ab565b5b6020026020010151815260200190815260200160002060020154115b5b15615a7c576000945050505050615a9b565b600193508080615a8b90618709565b9150506159a2565b508293505050505b919050565b8173ffffffffffffffffffffffffffffffffffffffff168373ffffffffffffffffffffffffffffffffffffffff1603615b0e576040517f08c379a0000000000000000000000000000000000000000000000000000000008152600401615b0590619b54565b60405180910390fd5b80600560008573ffffffffffffffffffffffffffffffffffffffff1673ffffffffffffffffffffffffffffffffffffffff16815260200190815260200160002060008473ffffffffffffffffffffffffffffffffffffffff1673ffffffffffffffffffffffffffffffffffffffff16815260200190815260200160002060006101000a81548160ff0219169083151502179055508173ffffffffffffffffffffffffffffffffffffffff168373ffffffffffffffffffffffffffffffffffffffff167f17307eab39ab6107e8899845ad3d59bd9653f200f220920489ca2b5937696c3183604051615bff9190617277565b60405180910390a3505050565b6000600e600083815260200190815260200160002060050160009054906101000a900460ff168015615c54575042600e60008481526020019081526020016000206002015411155b9050919050565b6000600d600083815260200190815260200160002060050160009054906101000a900460ff168015615ca3575042600d60008481526020019081526020016000206002015411155b9050919050565b60008060108054905003615cc15760009050615edc565b600080838051906020012060001c9050600860009054906101000a900473ffffffffffffffffffffffffffffffffffffffff1673ffffffffffffffffffffffffffffffffffffffff166333cb2e33826040518263ffffffff1660e01b8152600401615d2c9190617870565b6020604051808303816000875af1158015615d4b573d6000803e3d6000fd5b505050506040513d601f19601f82011682018060405250810190615d6f9190618766565b615d7e57600092505050615edc565b6000600860009054906101000a900473ffffffffffffffffffffffffffffffffffffffff1673ffffffffffffffffffffffffffffffffffffffff1663e378add6836040518263ffffffff1660e01b8152600401615ddb9190617870565b6000604051808303816000875af1158015615dfa573d6000803e3d6000fd5b505050506040513d6000823e3d601f19601f82011682018060405250810190615e239190618662565b905060005b8151811015615ed457600f6000838381518110615e4857615e476186ab565b5b6020026020010151815260200190815260200160002060050160009054906101000a900460ff16158015615eab575042600f6000848481518110615e8f57615e8e6186ab565b5b6020026020010151815260200190815260200160002060020154115b15615ebd576000945050505050615edc565b600193508080615ecc90618709565b915050615e28565b508293505050505b919050565b6000838051906020012060001c90506301e13380821015615f37576040517f08c379a0000000000000000000000000000000000000000000000000000000008152600401615f2e90619bc0565b60405180910390fd5b6000806000806000806000615f4b88615c0c565b15615f7a5760019050600e6000898152602001908152602001600020600401549150615f77828661195b565b94505b615f848b51615c5b565b15615fba576001905060008b519050600d6000828152602001908152602001600020600401549250615fb6838761195b565b9550505b615fc38b615caa565b15615fee5760019050615fd58b613ecc565b809450819550829650505050615feb828661195b565b94505b8061602e576040517f08c379a000000000000000000000000000000000000000000000000000000000815260040161602590619c2c565b60405180910390fd5b60008511616071576040517f08c379a000000000000000000000000000000000000000000000000000000000815260040161606890619c98565b60405180910390fd5b6000856301e133808b6160849190618a73565b61608e9190618aa4565b9050808b10156160d3576040517f08c379a00000000000000000000000000000000000000000000000000000000081526004016160ca90619d04565b60405180910390fd5b505050505050505050505050565b6160ec848484614f01565b6160f88484848461662a565b616137576040517f08c379a000000000000000000000000000000000000000000000000000000000815260040161612e90619d96565b60405180910390fd5b50505050565b606060405180602001604052806000815250905090565b606060006001616163846167b1565b01905060008167ffffffffffffffff811115616182576161816174f4565b5b6040519080825280601f01601f1916602001820160405280156161b45781602001600182028036833780820191505090505b509050600082602001820190505b600115616217578080600190039150507f3031323334353637383961626364656600000000000000000000000000000000600a86061a8153600a858161620b5761620a618a44565b5b049450600085036161c2575b819350505050919050565b600080858051906020012060001c905061623b8161572c565b8061624c575061624b86516157a8565b5b8061625c575061625b86615824565b5b61629b576040517f08c379a0000000000000000000000000000000000000000000000000000000008152600401616292906196ae565b60405180910390fd5b6162a4866156f7565b156162e4576040517f08c379a00000000000000000000000000000000000000000000000000000000081526004016162db90619e02565b60405180910390fd5b6162ed86616904565b1561632d576040517f08c379a000000000000000000000000000000000000000000000000000000000815260040161632490619e6e565b60405180910390fd5b616338863486616ade565b346014600082825461634a9190618ae6565b9250508190555061635a8161369c565b616399576040517f08c379a000000000000000000000000000000000000000000000000000000000815260040161639090619eda565b60405180910390fd5b6000426163a69190618ae6565b600085426163b49190618ae6565b6163be9190618ae6565b116163c857600080fd5b83426163d49190618ae6565b60166000838152602001908152602001600020819055506163f4816165a0565b156164035761640281616d97565b5b61640d8582616ee5565b821561652e5760006308c379a060e01b90506000600760009054906101000a900473ffffffffffffffffffffffffffffffffffffffff1673ffffffffffffffffffffffffffffffffffffffff166306ab59236009548560001b8a6040518463ffffffff1660e01b8152600401616485939291906195d2565b6020604051808303816000875af11580156164a4573d6000803e3d6000fd5b505050506040513d601f19601f820116820180604052508101906164c89190619635565b9050817bffffffffffffffffffffffffffffffffffffffffffffffffffffffff1916810361652b576040517f08c379a000000000000000000000000000000000000000000000000000000000815260040161652290619f46565b60405180910390fd5b50505b8473ffffffffffffffffffffffffffffffffffffffff167f8a168ef997ae6a1723ef504e6a0205acfe336ccb522561e95accebadde414b878786426165739190618ae6565b604051616581929190619f66565b60405180910390a283426165959190618ae6565b915050949350505050565b60008073ffffffffffffffffffffffffffffffffffffffff166165c2836165e1565b73ffffffffffffffffffffffffffffffffffffffff1614159050919050565b60006002600083815260200190815260200160002060009054906101000a900473ffffffffffffffffffffffffffffffffffffffff169050919050565b50505050565b50505050565b600061664b8473ffffffffffffffffffffffffffffffffffffffff16617102565b156167a4578373ffffffffffffffffffffffffffffffffffffffff1663150b7a02616674614dab565b8786866040518563ffffffff1660e01b81526004016166969493929190619feb565b6020604051808303816000875af19250505080156166d257506040513d601f19601f820116820180604052508101906166cf919061a04c565b60015b616754573d8060008114616702576040519150601f19603f3d011682016040523d82523d6000602084013e616707565b606091505b50600081510361674c576040517f08c379a000000000000000000000000000000000000000000000000000000000815260040161674390619d96565b60405180910390fd5b805181602001fd5b63150b7a0260e01b7bffffffffffffffffffffffffffffffffffffffffffffffffffffffff1916817bffffffffffffffffffffffffffffffffffffffffffffffffffffffff1916149150506167a9565b600190505b949350505050565b600080600090507a184f03e93ff9f4daa797ed6e38ed64bf6a1f010000000000000000831061680f577a184f03e93ff9f4daa797ed6e38ed64bf6a1f010000000000000000838161680557616804618a44565b5b0492506040810190505b6d04ee2d6d415b85acef8100000000831061684c576d04ee2d6d415b85acef8100000000838161684257616841618a44565b5b0492506020810190505b662386f26fc10000831061687b57662386f26fc10000838161687157616870618a44565b5b0492506010810190505b6305f5e10083106168a4576305f5e100838161689a57616899618a44565b5b0492506008810190505b61271083106168c95761271083816168bf576168be618a44565b5b0492506004810190505b606483106168ec57606483816168e2576168e1618a44565b5b0492506002810190505b600a83106168fb576001810190505b80915050919050565b600080828051906020012060001c9050600860009054906101000a900473ffffffffffffffffffffffffffffffffffffffff1673ffffffffffffffffffffffffffffffffffffffff16632efca7d9826040518263ffffffff1660e01b815260040161696f9190617870565b6020604051808303816000875af115801561698e573d6000803e3d6000fd5b505050506040513d601f19601f820116820180604052508101906169b29190618766565b6169c0576000915050616ad9565b6000600860009054906101000a900473ffffffffffffffffffffffffffffffffffffffff1673ffffffffffffffffffffffffffffffffffffffff166333d9ad8e836040518263ffffffff1660e01b8152600401616a1d9190617870565b6000604051808303816000875af1158015616a3c573d6000803e3d6000fd5b505050506040513d6000823e3d601f19601f82011682018060405250810190616a659190618662565b905060005b8151811015616ad157600c6000838381518110616a8a57616a896186ab565b5b6020026020010151815260200190815260200160002060009054906101000a900460ff16616abe5760019350505050616ad9565b8080616ac990618709565b915050616a6a565b506000925050505b919050565b6000838051906020012060001c90506301e13380821015616b34576040517f08c379a0000000000000000000000000000000000000000000000000000000008152600401616b2b90619bc0565b60405180910390fd5b6000806000806000806000616b488861572c565b15616b9c5760019050600e6000898152602001908152602001600020600101549350616b74878561195b565b9650600e6000898152602001908152602001600020600301549250616b99838761195b565b95505b616ba68b516157a8565b15616c01576001905060008b519050600d6000828152602001908152602001600020600101549450616bd8888661195b565b9750600d6000828152602001908152602001600020600301549350616bfd848861195b565b9650505b616c0a8b615824565b15616c415760019050616c1c8b6114f3565b809450819550829650505050616c32878561195b565b9650616c3e838761195b565b95505b80616c81576040517f08c379a0000000000000000000000000000000000000000000000000000000008152600401616c7890619c2c565b60405180910390fd5b64496cebb8008910158015616c965750600086115b15616ce357858a1015616cde576040517f08c379a0000000000000000000000000000000000000000000000000000000008152600401616cd59061a0c5565b60405180910390fd5b616d8a565b60008711616d26576040517f08c379a0000000000000000000000000000000000000000000000000000000008152600401616d1d90619c98565b60405180910390fd5b6000876301e133808b616d399190618a73565b616d439190618aa4565b9050808b1015616d88576040517f08c379a0000000000000000000000000000000000000000000000000000000008152600401616d7f90619d04565b60405180910390fd5b505b5050505050505050505050565b6000616da282614d25565b9050616db281600084600161661e565b616dbb82614d25565b90506004600083815260200190815260200160002060006101000a81549073ffffffffffffffffffffffffffffffffffffffff02191690556001600360008373ffffffffffffffffffffffffffffffffffffffff1673ffffffffffffffffffffffffffffffffffffffff168152602001908152602001600020600082825403925050819055506002600083815260200190815260200160002060006101000a81549073ffffffffffffffffffffffffffffffffffffffff021916905581600073ffffffffffffffffffffffffffffffffffffffff168273ffffffffffffffffffffffffffffffffffffffff167fddf252ad1be2c89b69c2b068fc378daa952ba7f163c4a11628f55a4df523b3ef60405160405180910390a4616ee1816000846001616624565b5050565b600073ffffffffffffffffffffffffffffffffffffffff168273ffffffffffffffffffffffffffffffffffffffff1603616f54576040517f08c379a0000000000000000000000000000000000000000000000000000000008152600401616f4b9061a131565b60405180910390fd5b616f5d816165a0565b15616f9d576040517f08c379a0000000000000000000000000000000000000000000000000000000008152600401616f949061a19d565b60405180910390fd5b616fab60008383600161661e565b616fb4816165a0565b15616ff4576040517f08c379a0000000000000000000000000000000000000000000000000000000008152600401616feb9061a19d565b60405180910390fd5b6001600360008473ffffffffffffffffffffffffffffffffffffffff1673ffffffffffffffffffffffffffffffffffffffff16815260200190815260200160002060008282540192505081905550816002600083815260200190815260200160002060006101000a81548173ffffffffffffffffffffffffffffffffffffffff021916908373ffffffffffffffffffffffffffffffffffffffff160217905550808273ffffffffffffffffffffffffffffffffffffffff16600073ffffffffffffffffffffffffffffffffffffffff167fddf252ad1be2c89b69c2b068fc378daa952ba7f163c4a11628f55a4df523b3ef60405160405180910390a46170fe600083836001616624565b5050565b6000808273ffffffffffffffffffffffffffffffffffffffff163b119050919050565b50805461713190618435565b6000825580601f106171435750617162565b601f01602090049060005260206000209081019061716191906171a6565b5b50565b6040518060e0016040528060608152602001600081526020016000815260200160008152602001600081526020016000151581526020016000151581525090565b5b808211156171bf5760008160009055506001016171a7565b5090565b6000604051905090565b600080fd5b600080fd5b60007fffffffff0000000000000000000000000000000000000000000000000000000082169050919050565b61720c816171d7565b811461721757600080fd5b50565b60008135905061722981617203565b92915050565b600060208284031215617245576172446171cd565b5b60006172538482850161721a565b91505092915050565b60008115159050919050565b6172718161725c565b82525050565b600060208201905061728c6000830184617268565b92915050565b6000819050919050565b6172a581617292565b81146172b057600080fd5b50565b6000813590506172c28161729c565b92915050565b600080600080600060a086880312156172e4576172e36171cd565b5b60006172f2888289016172b3565b9550506020617303888289016172b3565b9450506040617314888289016172b3565b9350506060617325888289016172b3565b9250506080617336888289016172b3565b9150509295509295909350565b600081519050919050565b600082825260208201905092915050565b60005b8381101561737d578082015181840152602081019050617362565b60008484015250505050565b6000601f19601f8301169050919050565b60006173a582617343565b6173af818561734e565b93506173bf81856020860161735f565b6173c881617389565b840191505092915050565b600060208201905081810360008301526173ed818461739a565b905092915050565b60006020828403121561740b5761740a6171cd565b5b6000617419848285016172b3565b91505092915050565b600073ffffffffffffffffffffffffffffffffffffffff82169050919050565b600061744d82617422565b9050919050565b61745d81617442565b82525050565b60006020820190506174786000830184617454565b92915050565b61748781617442565b811461749257600080fd5b50565b6000813590506174a48161747e565b92915050565b600080604083850312156174c1576174c06171cd565b5b60006174cf85828601617495565b92505060206174e0858286016172b3565b9150509250929050565b600080fd5b600080fd5b7f4e487b7100000000000000000000000000000000000000000000000000000000600052604160045260246000fd5b61752c82617389565b810181811067ffffffffffffffff8211171561754b5761754a6174f4565b5b80604052505050565b600061755e6171c3565b905061756a8282617523565b919050565b600067ffffffffffffffff82111561758a576175896174f4565b5b61759382617389565b9050602081019050919050565b82818337600083830152505050565b60006175c26175bd8461756f565b617554565b9050828152602081018484840111156175de576175dd6174ef565b5b6175e98482856175a0565b509392505050565b600082601f830112617606576176056174ea565b5b81356176168482602086016175af565b91505092915050565b600060208284031215617635576176346171cd565b5b600082013567ffffffffffffffff811115617653576176526171d2565b5b61765f848285016175f1565b91505092915050565b61767181617292565b82525050565b600060608201905061768c6000830186617668565b6176996020830185617668565b6176a66040830184617668565b949350505050565b600067ffffffffffffffff8211156176c9576176c86174f4565b5b602082029050602081019050919050565b600080fd5b60006176f26176ed846176ae565b617554565b90508083825260208201905060208402830185811115617715576177146176da565b5b835b8181101561775c57803567ffffffffffffffff81111561773a576177396174ea565b5b80860161774789826175f1565b85526020850194505050602081019050617717565b5050509392505050565b600082601f83011261777b5761777a6174ea565b5b813561778b8482602086016176df565b91505092915050565b6000602082840312156177aa576177a96171cd565b5b600082013567ffffffffffffffff8111156177c8576177c76171d2565b5b6177d484828501617766565b91505092915050565b6000806000606084860312156177f6576177f56171cd565b5b600061780486828701617495565b935050602061781586828701617495565b9250506040617826868287016172b3565b9150509250925092565b60008060408385031215617847576178466171cd565b5b6000617855858286016172b3565b9250506020617866858286016172b3565b9150509250929050565b60006020820190506178856000830184617668565b92915050565b600080604083850312156178a2576178a16171cd565b5b60006178b0858286016172b3565b92505060206178c185828601617495565b9150509250929050565b6000819050919050565b60006178f06178eb6178e684617422565b6178cb565b617422565b9050919050565b6000617902826178d5565b9050919050565b6000617914826178f7565b9050919050565b61792481617909565b82525050565b600060208201905061793f600083018461791b565b92915050565b60006020828403121561795b5761795a6171cd565b5b600061796984828501617495565b91505092915050565b600067ffffffffffffffff82111561798d5761798c6174f4565b5b602082029050602081019050919050565b600080fd5b600080fd5b600061ffff82169050919050565b6179bf816179a8565b81146179ca57600080fd5b50565b6000813590506179dc816179b6565b92915050565b6000604082840312156179f8576179f761799e565b5b617a026040617554565b90506000617a1284828501617495565b6000830152506020617a26848285016179cd565b60208301525092915050565b6000617a45617a4084617972565b617554565b90508083825260208201905060408402830185811115617a6857617a676176da565b5b835b81811015617a915780617a7d88826179e2565b845260208401935050604081019050617a6a565b5050509392505050565b600082601f830112617ab057617aaf6174ea565b5b8135617ac0848260208601617a32565b91505092915050565b600060208284031215617adf57617ade6171cd565b5b600082013567ffffffffffffffff811115617afd57617afc6171d2565b5b617b0984828501617a9b565b91505092915050565b600080600080600060a08688031215617b2e57617b2d6171cd565b5b600086013567ffffffffffffffff811115617b4c57617b4b6171d2565b5b617b58888289016175f1565b9550506020617b69888289016172b3565b9450506040617b7a888289016172b3565b9350506060617b8b888289016172b3565b9250506080617b9c888289016172b3565b9150509295509295909350565b617bb2816179a8565b82525050565b6000602082019050617bcd6000830184617ba9565b92915050565b60008060408385031215617bea57617be96171cd565b5b600083013567ffffffffffffffff811115617c0857617c076171d2565b5b617c14858286016175f1565b925050602083013567ffffffffffffffff811115617c3557617c346171d2565b5b617c41858286016175f1565b9150509250929050565b617c548161725c565b8114617c5f57600080fd5b50565b600081359050617c7181617c4b565b92915050565b60008060408385031215617c8e57617c8d6171cd565b5b6000617c9c85828601617495565b9250506020617cad85828601617c62565b9150509250929050565b600067ffffffffffffffff821115617cd257617cd16174f4565b5b602082029050602081019050919050565b600060408284031215617cf957617cf861799e565b5b617d036040617554565b9050600082013567ffffffffffffffff811115617d2357617d226179a3565b5b617d2f848285016175f1565b600083015250602082013567ffffffffffffffff811115617d5357617d526179a3565b5b617d5f848285016175f1565b60208301525092915050565b6000617d7e617d7984617cb7565b617554565b90508083825260208201905060208402830185811115617da157617da06176da565b5b835b81811015617de857803567ffffffffffffffff811115617dc657617dc56174ea565b5b808601617dd38982617ce3565b85526020850194505050602081019050617da3565b5050509392505050565b600082601f830112617e0757617e066174ea565b5b8135617e17848260208601617d6b565b91505092915050565b600060208284031215617e3657617e356171cd565b5b600082013567ffffffffffffffff811115617e5457617e536171d2565b5b617e6084828501617df2565b91505092915050565b60008060408385031215617e8057617e7f6171cd565b5b6000617e8e85828601617495565b925050602083013567ffffffffffffffff811115617eaf57617eae6171d2565b5b617ebb858286016175f1565b9150509250929050565b60008060408385031215617edc57617edb6171cd565b5b600083013567ffffffffffffffff811115617efa57617ef96171d2565b5b617f06858286016175f1565b9250506020617f17858286016172b3565b9150509250929050565b600067ffffffffffffffff821115617f3c57617f3b6174f4565b5b617f4582617389565b9050602081019050919050565b6000617f65617f6084617f21565b617554565b905082815260208101848484011115617f8157617f806174ef565b5b617f8c8482856175a0565b509392505050565b600082601f830112617fa957617fa86174ea565b5b8135617fb9848260208601617f52565b91505092915050565b60008060008060808587031215617fdc57617fdb6171cd565b5b6000617fea87828801617495565b9450506020617ffb87828801617495565b935050604061800c878288016172b3565b925050606085013567ffffffffffffffff81111561802d5761802c6171d2565b5b61803987828801617f94565b91505092959194509250565b600082825260208201905092915050565b600061806182617343565b61806b8185618045565b935061807b81856020860161735f565b61808481617389565b840191505092915050565b61809881617292565b82525050565b6180a78161725c565b82525050565b600060e08301600083015184820360008601526180ca8282618056565b91505060208301516180df602086018261808f565b5060408301516180f2604086018261808f565b506060830151618105606086018261808f565b506080830151618118608086018261808f565b5060a083015161812b60a086018261809e565b5060c083015161813e60c086018261809e565b508091505092915050565b6000602082019050818103600083015261816381846180ad565b905092915050565b600080600060608486031215618184576181836171cd565b5b600084013567ffffffffffffffff8111156181a2576181a16171d2565b5b6181ae868287016175f1565b93505060206181bf86828701617495565b92505060406181d0868287016172b3565b9150509250925092565b60006181e5826178f7565b9050919050565b6181f5816181da565b82525050565b600060208201905061821060008301846181ec565b92915050565b6000819050919050565b61822981618216565b82525050565b60006020820190506182446000830184618220565b92915050565b60008060408385031215618261576182606171cd565b5b600061826f85828601617495565b925050602061828085828601617495565b9150509250929050565b7f646f6d61696e20707269636520697320696e76616c6964000000000000000000600082015250565b60006182c060178361734e565b91506182cb8261828a565b602082019050919050565b600060208201905081810360008301526182ef816182b3565b9050919050565b7f746865206c656e20646f6d61696e206e6f7420686173206265656e2061646400600082015250565b600061832c601f8361734e565b9150618337826182f6565b602082019050919050565b6000602082019050818103600083015261835b8161831f565b9050919050565b7f6d6f646966790000000000000000000000000000000000000000000000000000600082015250565b600061839860068361734e565b91506183a382618362565b602082019050919050565b600060a0820190506183c36000830187617668565b6183d06020830186617668565b6183dd6040830185617668565b6183ea6060830184617668565b81810360808301526183fb8161838b565b905095945050505050565b7f4e487b7100000000000000000000000000000000000000000000000000000000600052602260045260246000fd5b6000600282049050600182168061844d57607f821691505b6020821081036184605761845f618406565b5b50919050565b7f4552433732313a20617070726f76616c20746f2063757272656e74206f776e6560008201527f7200000000000000000000000000000000000000000000000000000000000000602082015250565b60006184c260218361734e565b91506184cd82618466565b604082019050919050565b600060208201905081810360008301526184f1816184b5565b9050919050565b7f4552433732313a20617070726f76652063616c6c6572206973206e6f7420746f60008201527f6b656e206f776e6572206f7220617070726f76656420666f7220616c6c000000602082015250565b6000618554603d8361734e565b915061855f826184f8565b604082019050919050565b6000602082019050818103600083015261858381618547565b9050919050565b600067ffffffffffffffff8211156185a5576185a46174f4565b5b602082029050602081019050919050565b6000815190506185c58161729c565b92915050565b60006185de6185d98461858a565b617554565b90508083825260208201905060208402830185811115618601576186006176da565b5b835b8181101561862a578061861688826185b6565b845260208401935050602081019050618603565b5050509392505050565b600082601f830112618649576186486174ea565b5b81516186598482602086016185cb565b91505092915050565b600060208284031215618678576186776171cd565b5b600082015167ffffffffffffffff811115618696576186956171d2565b5b6186a284828501618634565b91505092915050565b7f4e487b7100000000000000000000000000000000000000000000000000000000600052603260045260246000fd5b7f4e487b7100000000000000000000000000000000000000000000000000000000600052601160045260246000fd5b600061871482617292565b91507fffffffffffffffffffffffffffffffffffffffffffffffffffffffffffffffff8203618746576187456186da565b5b600182019050919050565b60008151905061876081617c4b565b92915050565b60006020828403121561877c5761877b6171cd565b5b600061878a84828501618751565b91505092915050565b6000819050919050565b60006187b86187b36187ae84618793565b6178cb565b617292565b9050919050565b6187c88161879d565b82525050565b7f61626f7274000000000000000000000000000000000000000000000000000000600082015250565b600061880460058361734e565b915061880f826187ce565b602082019050919050565b600060a08201905061882f60008301876187bf565b61883c60208301866187bf565b61884960408301856187bf565b61885660608301846187bf565b8181036080830152618867816187f7565b905095945050505050565b7f4552433732313a2063616c6c6572206973206e6f7420746f6b656e206f776e6560008201527f72206f7220617070726f76656400000000000000000000000000000000000000602082015250565b60006188ce602d8361734e565b91506188d982618872565b604082019050919050565b600060208201905081810360008301526188fd816188c1565b9050919050565b6000815190506189138161747e565b92915050565b60006020828403121561892f5761892e6171cd565b5b600061893d84828501618904565b91505092915050565b7f6e6f7420737570706f72746564207265636c61696d0000000000000000000000600082015250565b600061897c60158361734e565b915061898782618946565b602082019050919050565b600060208201905081810360008301526189ab8161896f565b9050919050565b7f4f776e61626c653a2063616c6c6572206973206e6f7420746865206d616e616760008201527f6572000000000000000000000000000000000000000000000000000000000000602082015250565b6000618a0e60228361734e565b9150618a19826189b2565b604082019050919050565b60006020820190508181036000830152618a3d81618a01565b9050919050565b7f4e487b7100000000000000000000000000000000000000000000000000000000600052601260045260246000fd5b6000618a7e82617292565b9150618a8983617292565b925082618a9957618a98618a44565b5b828204905092915050565b6000618aaf82617292565b9150618aba83617292565b9250828202618ac881617292565b91508282048414831517618adf57618ade6186da565b5b5092915050565b6000618af182617292565b9150618afc83617292565b9250828201905080821115618b1457618b136186da565b5b92915050565b7f746865207479706520646f6d61696e206e6f7420616464000000000000000000600082015250565b6000618b5060178361734e565b9150618b5b82618b1a565b602082019050919050565b60006020820190508181036000830152618b7f81618b43565b9050919050565b7f746865207479706520646f6d61696e20686173206265656e2061626f72740000600082015250565b6000618bbc601e8361734e565b9150618bc782618b86565b602082019050919050565b60006020820190508181036000830152618beb81618baf565b9050919050565b7f6c61756e6368446f6d61696e5479706541626f72740000000000000000000000600082015250565b6000618c2860158361734e565b9150618c3382618bf2565b602082019050919050565b60006040820190508181036000830152618c58818461739a565b90508181036020830152618c6b81618c1b565b905092915050565b6000604082019050618c886000830185618220565b618c956020830184617454565b9392505050565b7f62616c616e6365206d7573742062652075736564207570000000000000000000600082015250565b6000618cd260178361734e565b9150618cdd82618c9c565b602082019050919050565b60006020820190508181036000830152618d0181618cc5565b9050919050565b7f726174696f20697320746f6f206c6f7700000000000000000000000000000000600082015250565b6000618d3e60108361734e565b9150618d4982618d08565b602082019050919050565b60006020820190508181036000830152618d6d81618d31565b9050919050565b6000618d7f826179a8565b9150618d8a836179a8565b9250828203905061ffff811115618da457618da36186da565b5b92915050565b6000618db5826179a8565b9150618dc0836179a8565b9250828201905061ffff811115618dda57618dd96186da565b5b92915050565b7f737572706c757320726174696f20697320746f6f206c6f770000000000000000600082015250565b6000618e1660188361734e565b9150618e2182618de0565b602082019050919050565b60006020820190508181036000830152618e4581618e09565b9050919050565b7f657863656564696e67206d6178206c696d697400000000000000000000000000600082015250565b6000618e8260138361734e565b9150618e8d82618e4c565b602082019050919050565b60006020820190508181036000830152618eb181618e75565b9050919050565b600081519050919050565b600082825260208201905092915050565b6000819050602082019050919050565b618eed81617442565b82525050565b618efc816179a8565b82525050565b604082016000820151618f186000850182618ee4565b506020820151618f2b6020850182618ef3565b50505050565b6000618f3d8383618f02565b60408301905092915050565b6000602082019050919050565b6000618f6182618eb8565b618f6b8185618ec3565b9350618f7683618ed4565b8060005b83811015618fa7578151618f8e8882618f31565b9750618f9983618f49565b925050600181019050618f7a565b5085935050505092915050565b60006020820190508181036000830152618fce8184618f56565b905092915050565b7f6c61756e6368446f6d61696e547970654d6f6469667900000000000000000000600082015250565b600061900c60168361734e565b915061901782618fd6565b602082019050919050565b600060c082019050818103600083015261903c818861739a565b905061904b6020830187617668565b6190586040830186617668565b6190656060830185617668565b6190726080830184617668565b81810360a083015261908381618fff565b90509695505050505050565b7f4552433732313a2061646472657373207a65726f206973206e6f74206120766160008201527f6c6964206f776e65720000000000000000000000000000000000000000000000602082015250565b60006190eb60298361734e565b91506190f68261908f565b604082019050919050565b6000602082019050818103600083015261911a816190de565b9050919050565b7f74686520646f6d61696e20686173206265656e206c6f636b0000000000000000600082015250565b600061915760188361734e565b915061916282619121565b602082019050919050565b600060208201905081810360008301526191868161914a565b9050919050565b60008190508160005260206000209050919050565b60006020601f8301049050919050565b600082821b905092915050565b6000600883026191ef7fffffffffffffffffffffffffffffffffffffffffffffffffffffffffffffffff826191b2565b6191f986836191b2565b95508019841693508086168417925050509392505050565b600061922c61922761922284617292565b6178cb565b617292565b9050919050565b6000819050919050565b61924683619211565b61925a61925282619233565b8484546191bf565b825550505050565b600090565b61926f619262565b61927a81848461923d565b505050565b5b8181101561929e57619293600082619267565b600181019050619280565b5050565b601f8211156192e3576192b48161918d565b6192bd846191a2565b810160208510156192cc578190505b6192e06192d8856191a2565b83018261927f565b50505b505050565b600082821c905092915050565b6000619306600019846008026192e8565b1980831691505092915050565b600061931f83836192f5565b9150826002028217905092915050565b61933882617343565b67ffffffffffffffff811115619351576193506174f4565b5b61935b8254618435565b6193668282856192a2565b600060209050601f8311600181146193995760008415619387578287015190505b6193918582619313565b8655506193f9565b601f1984166193a78661918d565b60005b828110156193cf578489015182556001820191506020850194506020810190506193aa565b868310156193ec57848901516193e8601f8916826192f5565b8355505b6001600288020188555050505b505050505050565b600081905092915050565b600061941782617343565b6194218185619401565b935061943181856020860161735f565b80840191505092915050565b6000619449828461940c565b915081905092915050565b7f6c61756e63680000000000000000000000000000000000000000000000000000600082015250565b600061948a60068361734e565b915061949582619454565b602082019050919050565b600060a0820190506194b56000830187617668565b6194c26020830186617668565b6194cf6040830185617668565b6194dc6060830184617668565b81810360808301526194ed8161947d565b905095945050505050565b6000819050919050565b61951361950e82618216565b6194f8565b82525050565b6000819050919050565b61953461952f82617292565b619519565b82525050565b60006195468285619502565b6020820191506195568284619523565b6020820191508190509392505050565b7f4f776e61626c653a2063616c6c6572206973206e6f7420746865206f776e6572600082015250565b600061959c60208361734e565b91506195a782619566565b602082019050919050565b600060208201905081810360008301526195cb8161958f565b9050919050565b60006060820190506195e76000830186618220565b6195f46020830185618220565b6196016040830184617454565b949350505050565b61961281618216565b811461961d57600080fd5b50565b60008151905061962f81619609565b92915050565b60006020828403121561964b5761964a6171cd565b5b600061965984828501619620565b91505092915050565b7f646f6d61696e20737461747573206973206e6f74206f70656e00000000000000600082015250565b600061969860198361734e565b91506196a382619662565b602082019050919050565b600060208201905081810360008301526196c78161968b565b9050919050565b60006196da828561940c565b91506196e6828461940c565b91508190509392505050565b7f74686520646f6d61696e206e6f7420686173206265656e206164640000000000600082015250565b6000619728601b8361734e565b9150619733826196f2565b602082019050919050565b600060208201905081810360008301526197578161971b565b9050919050565b7f4f776e61626c653a206e6577206f776e657220697320746865207a65726f206160008201527f6464726573730000000000000000000000000000000000000000000000000000602082015250565b60006197ba60268361734e565b91506197c58261975e565b604082019050919050565b600060208201905081810360008301526197e9816197ad565b9050919050565b7f7468652074797065206e616d65206e6f74206164640000000000000000000000600082015250565b600061982660158361734e565b9150619831826197f0565b602082019050919050565b6000602082019050818103600083015261985581619819565b9050919050565b7f6c61756e6368446f6d61696e5479706500000000000000000000000000000000600082015250565b600061989260108361734e565b915061989d8261985c565b602082019050919050565b600060c08201905081810360008301526198c2818861739a565b90506198d16020830187617668565b6198de6040830186617668565b6198eb6060830185617668565b6198f86080830184617668565b81810360a083015261990981619885565b90509695505050505050565b7f4552433732313a20696e76616c696420746f6b656e2049440000000000000000600082015250565b600061994b60188361734e565b915061995682619915565b602082019050919050565b6000602082019050818103600083015261997a8161993e565b9050919050565b7f4552433732313a207472616e736665722066726f6d20696e636f72726563742060008201527f6f776e6572000000000000000000000000000000000000000000000000000000602082015250565b60006199dd60258361734e565b91506199e882619981565b604082019050919050565b60006020820190508181036000830152619a0c816199d0565b9050919050565b7f4552433732313a207472616e7366657220746f20746865207a65726f2061646460008201527f7265737300000000000000000000000000000000000000000000000000000000602082015250565b6000619a6f60248361734e565b9150619a7a82619a13565b604082019050919050565b60006020820190508181036000830152619a9e81619a62565b9050919050565b6000619ab082617292565b9150619abb83617292565b9250828203905081811115619ad357619ad26186da565b5b92915050565b7f4e487b7100000000000000000000000000000000000000000000000000000000600052603160045260246000fd5b7f4552433732313a20617070726f766520746f2063616c6c657200000000000000600082015250565b6000619b3e60198361734e565b9150619b4982619b08565b602082019050919050565b60006020820190508181036000830152619b6d81619b31565b9050919050565b7f6475726174696f6e20697320696e76616c696400000000000000000000000000600082015250565b6000619baa60138361734e565b9150619bb582619b74565b602082019050919050565b60006020820190508181036000830152619bd981619b9d565b9050919050565b7f646f6d61696e206e6f74206c61756e6368000000000000000000000000000000600082015250565b6000619c1660118361734e565b9150619c2182619be0565b602082019050919050565b60006020820190508181036000830152619c4581619c09565b9050919050565b7f646f6d61696e207072696365206e6f74206c61756e6368000000000000000000600082015250565b6000619c8260178361734e565b9150619c8d82619c4c565b602082019050919050565b60006020820190508181036000830152619cb181619c75565b9050919050565b7f706179206d6f6e6579206e6f7420656e6f756768000000000000000000000000600082015250565b6000619cee60148361734e565b9150619cf982619cb8565b602082019050919050565b60006020820190508181036000830152619d1d81619ce1565b9050919050565b7f4552433732313a207472616e7366657220746f206e6f6e20455243373231526560008201527f63656976657220696d706c656d656e7465720000000000000000000000000000602082015250565b6000619d8060328361734e565b9150619d8b82619d24565b604082019050919050565b60006020820190508181036000830152619daf81619d73565b9050919050565b7f646f6d61696e20737461747573206973206c6f636b6564000000000000000000600082015250565b6000619dec60178361734e565b9150619df782619db6565b602082019050919050565b60006020820190508181036000830152619e1b81619ddf565b9050919050565b7f6d617374657220646f6d61696e20737461747573206973206c6f636b65640000600082015250565b6000619e58601e8361734e565b9150619e6382619e22565b602082019050919050565b60006020820190508181036000830152619e8781619e4b565b9050919050565b7f6964206e6f7420617661696c61626c6500000000000000000000000000000000600082015250565b6000619ec460108361734e565b9150619ecf82619e8e565b602082019050919050565b60006020820190508181036000830152619ef381619eb7565b9050919050565b7f617574686f7269736564206661696c6564210000000000000000000000000000600082015250565b6000619f3060128361734e565b9150619f3b82619efa565b602082019050919050565b60006020820190508181036000830152619f5f81619f23565b9050919050565b60006040820190508181036000830152619f80818561739a565b9050619f8f6020830184617668565b9392505050565b600081519050919050565b600082825260208201905092915050565b6000619fbd82619f96565b619fc78185619fa1565b9350619fd781856020860161735f565b619fe081617389565b840191505092915050565b600060808201905061a0006000830187617454565b61a00d6020830186617454565b61a01a6040830185617668565b818103606083015261a02c8184619fb2565b905095945050505050565b60008151905061a04681617203565b92915050565b60006020828403121561a0625761a0616171cd565b5b600061a0708482850161a037565b91505092915050565b7f70617920666f7265766572206d6f6e6579206e6f7420656e6f75676800000000600082015250565b600061a0af601c8361734e565b915061a0ba8261a079565b602082019050919050565b6000602082019050818103600083015261a0de8161a0a2565b9050919050565b7f4552433732313a206d696e7420746f20746865207a65726f2061646472657373600082015250565b600061a11b60208361734e565b915061a1268261a0e5565b602082019050919050565b6000602082019050818103600083015261a14a8161a10e565b9050919050565b7f4552433732313a20746f6b656e20616c7265616479206d696e74656400000000600082015250565b600061a187601c8361734e565b915061a1928261a151565b602082019050919050565b6000602082019050818103600083015261a1b68161a17a565b905091905056fea2646970667358221220fac091111ce29f404d0255a09c5e24ba2ef949c77c8d3e246f390715b764a36b64736f6c63430008130033",
			"opcodes": "PUSH1 0x80 PUSH1 0x40 MSTORE PUSH1 0x32 PUSH1 0x13 PUSH1 0x0 PUSH2 0x100 EXP DUP2 SLOAD DUP2 PUSH2 0xFFFF MUL NOT AND SWAP1 DUP4 PUSH2 0xFFFF AND MUL OR SWAP1 SSTORE POP PUSH1 0x1 PUSH1 0x13 PUSH1 0x2 PUSH2 0x100 EXP DUP2 SLOAD DUP2 PUSH2 0xFFFF MUL NOT AND SWAP1 DUP4 PUSH2 0xFFFF AND MUL OR SWAP1 SSTORE POP PUSH1 0x64 PUSH1 0x13 PUSH1 0x4 PUSH2 0x100 EXP DUP2 SLOAD DUP2 PUSH2 0xFFFF MUL NOT AND SWAP1 DUP4 PUSH2 0xFFFF AND MUL OR SWAP1 SSTORE POP PUSH1 0x0 PUSH1 0x13 PUSH1 0x6 PUSH2 0x100 EXP DUP2 SLOAD DUP2 PUSH1 0xFF MUL NOT AND SWAP1 DUP4 ISZERO ISZERO MUL OR SWAP1 SSTORE POP PUSH1 0x0 PUSH1 0x13 PUSH1 0x7 PUSH2 0x100 EXP DUP2 SLOAD DUP2 PUSH1 0xFF MUL NOT AND SWAP1 DUP4 ISZERO ISZERO MUL OR SWAP1 SSTORE POP CALLVALUE DUP1 ISZERO PUSH3 0xA1 JUMPI PUSH1 0x0 DUP1 REVERT JUMPDEST POP PUSH1 0x40 MLOAD PUSH3 0xB705 CODESIZE SUB DUP1 PUSH3 0xB705 DUP4 CODECOPY DUP2 DUP2 ADD PUSH1 0x40 MSTORE DUP2 ADD SWAP1 PUSH3 0xC7 SWAP2 SWAP1 PUSH3 0xC08 JUMP JUMPDEST DUP5 DUP5 DUP5 PUSH1 0x40 MLOAD DUP1 PUSH1 0x20 ADD PUSH1 0x40 MSTORE DUP1 PUSH1 0x0 DUP2 MSTORE POP PUSH1 0x40 MLOAD DUP1 PUSH1 0x20 ADD PUSH1 0x40 MSTORE DUP1 PUSH1 0x0 DUP2 MSTORE POP DUP2 PUSH1 0x0 SWAP1 DUP2 PUSH3 0xFB SWAP2 SWAP1 PUSH3 0xF19 JUMP JUMPDEST POP DUP1 PUSH1 0x1 SWAP1 DUP2 PUSH3 0x10D SWAP2 SWAP1 PUSH3 0xF19 JUMP JUMPDEST POP POP POP PUSH3 0x130 PUSH3 0x124 PUSH3 0x23A PUSH1 0x20 SHL PUSH1 0x20 SHR JUMP JUMPDEST PUSH3 0x242 PUSH1 0x20 SHL PUSH1 0x20 SHR JUMP JUMPDEST DUP3 PUSH1 0x7 PUSH1 0x0 PUSH2 0x100 EXP DUP2 SLOAD DUP2 PUSH20 0xFFFFFFFFFFFFFFFFFFFFFFFFFFFFFFFFFFFFFFFF MUL NOT AND SWAP1 DUP4 PUSH20 0xFFFFFFFFFFFFFFFFFFFFFFFFFFFFFFFFFFFFFFFF AND MUL OR SWAP1 SSTORE POP DUP2 PUSH1 0x8 PUSH1 0x0 PUSH2 0x100 EXP DUP2 SLOAD DUP2 PUSH20 0xFFFFFFFFFFFFFFFFFFFFFFFFFFFFFFFFFFFFFFFF MUL NOT AND SWAP1 DUP4 PUSH20 0xFFFFFFFFFFFFFFFFFFFFFFFFFFFFFFFFFFFFFFFF AND MUL OR SWAP1 SSTORE POP DUP1 PUSH1 0x9 DUP2 SWAP1 SSTORE POP POP POP POP PUSH3 0x1CD DUP2 PUSH3 0x308 PUSH1 0x20 SHL PUSH1 0x20 SHR JUMP JUMPDEST DUP2 PUSH1 0x40 MLOAD PUSH3 0x1DD SWAP2 SWAP1 PUSH3 0x1042 JUMP JUMPDEST PUSH1 0x40 MLOAD DUP1 SWAP2 SUB SWAP1 KECCAK256 PUSH32 0xA84E0C64E700CA2A3B5FC394D97B9994727DA06D4CEB8139DD141417E21F98D8 PUSH3 0x216 PUSH3 0x718 PUSH1 0x20 SHL PUSH1 0x20 SHR JUMP JUMPDEST ADDRESS PUSH1 0x40 MLOAD PUSH3 0x227 SWAP3 SWAP2 SWAP1 PUSH3 0x106C JUMP JUMPDEST PUSH1 0x40 MLOAD DUP1 SWAP2 SUB SWAP1 LOG2 POP POP POP POP POP PUSH3 0x1502 JUMP JUMPDEST PUSH1 0x0 CALLER SWAP1 POP SWAP1 JUMP JUMPDEST PUSH1 0x0 PUSH1 0x6 PUSH1 0x0 SWAP1 SLOAD SWAP1 PUSH2 0x100 EXP SWAP1 DIV PUSH20 0xFFFFFFFFFFFFFFFFFFFFFFFFFFFFFFFFFFFFFFFF AND SWAP1 POP DUP2 PUSH1 0x6 PUSH1 0x0 PUSH2 0x100 EXP DUP2 SLOAD DUP2 PUSH20 0xFFFFFFFFFFFFFFFFFFFFFFFFFFFFFFFFFFFFFFFF MUL NOT AND SWAP1 DUP4 PUSH20 0xFFFFFFFFFFFFFFFFFFFFFFFFFFFFFFFFFFFFFFFF AND MUL OR SWAP1 SSTORE POP DUP2 PUSH20 0xFFFFFFFFFFFFFFFFFFFFFFFFFFFFFFFFFFFFFFFF AND DUP2 PUSH20 0xFFFFFFFFFFFFFFFFFFFFFFFFFFFFFFFFFFFFFFFF AND PUSH32 0x8BE0079C531659141344CD1FD0A4F28419497F9722A3DAAFE3B4186F6B6457E0 PUSH1 0x40 MLOAD PUSH1 0x40 MLOAD DUP1 SWAP2 SUB SWAP1 LOG3 POP POP JUMP JUMPDEST PUSH3 0x318 PUSH3 0x742 PUSH1 0x20 SHL PUSH1 0x20 SHR JUMP JUMPDEST PUSH1 0x0 DUP2 MLOAD GT DUP1 ISZERO PUSH3 0x33F JUMPI POP PUSH1 0x13 PUSH1 0x0 SWAP1 SLOAD SWAP1 PUSH2 0x100 EXP SWAP1 DIV PUSH2 0xFFFF AND PUSH2 0xFFFF AND DUP2 MLOAD GT ISZERO JUMPDEST PUSH3 0x381 JUMPI PUSH1 0x40 MLOAD PUSH32 0x8C379A000000000000000000000000000000000000000000000000000000000 DUP2 MSTORE PUSH1 0x4 ADD PUSH3 0x378 SWAP1 PUSH3 0x10FA JUMP JUMPDEST PUSH1 0x40 MLOAD DUP1 SWAP2 SUB SWAP1 REVERT JUMPDEST PUSH1 0x13 PUSH1 0x6 SWAP1 SLOAD SWAP1 PUSH2 0x100 EXP SWAP1 DIV PUSH1 0xFF AND ISZERO PUSH3 0x3D4 JUMPI PUSH1 0x40 MLOAD PUSH32 0x8C379A000000000000000000000000000000000000000000000000000000000 DUP2 MSTORE PUSH1 0x4 ADD PUSH3 0x3CB SWAP1 PUSH3 0x116C JUMP JUMPDEST PUSH1 0x40 MLOAD DUP1 SWAP2 SUB SWAP1 REVERT JUMPDEST PUSH1 0x1 PUSH1 0x13 PUSH1 0x6 PUSH2 0x100 EXP DUP2 SLOAD DUP2 PUSH1 0xFF MUL NOT AND SWAP1 DUP4 ISZERO ISZERO MUL OR SWAP1 SSTORE POP PUSH1 0x0 DUP1 JUMPDEST DUP3 MLOAD DUP2 LT ISZERO PUSH3 0x67D JUMPI PUSH1 0x13 PUSH1 0x2 SWAP1 SLOAD SWAP1 PUSH2 0x100 EXP SWAP1 DIV PUSH2 0xFFFF AND PUSH2 0xFFFF AND DUP4 DUP3 DUP2 MLOAD DUP2 LT PUSH3 0x428 JUMPI PUSH3 0x427 PUSH3 0x118E JUMP JUMPDEST JUMPDEST PUSH1 0x20 MUL PUSH1 0x20 ADD ADD MLOAD PUSH1 0x20 ADD MLOAD PUSH2 0xFFFF AND LT ISZERO PUSH3 0x47C JUMPI PUSH1 0x40 MLOAD PUSH32 0x8C379A000000000000000000000000000000000000000000000000000000000 DUP2 MSTORE PUSH1 0x4 ADD PUSH3 0x473 SWAP1 PUSH3 0x120D JUMP JUMPDEST PUSH1 0x40 MLOAD DUP1 SWAP2 SUB SWAP1 REVERT JUMPDEST DUP3 DUP2 DUP2 MLOAD DUP2 LT PUSH3 0x492 JUMPI PUSH3 0x491 PUSH3 0x118E JUMP JUMPDEST JUMPDEST PUSH1 0x20 MUL PUSH1 0x20 ADD ADD MLOAD PUSH1 0x20 ADD MLOAD DUP3 PUSH3 0x4AB SWAP2 SWAP1 PUSH3 0x125E JUMP JUMPDEST SWAP2 POP PUSH1 0x0 PUSH1 0x11 PUSH1 0x0 DUP6 DUP5 DUP2 MLOAD DUP2 LT PUSH3 0x4C9 JUMPI PUSH3 0x4C8 PUSH3 0x118E JUMP JUMPDEST JUMPDEST PUSH1 0x20 MUL PUSH1 0x20 ADD ADD MLOAD PUSH1 0x0 ADD MLOAD PUSH20 0xFFFFFFFFFFFFFFFFFFFFFFFFFFFFFFFFFFFFFFFF AND PUSH20 0xFFFFFFFFFFFFFFFFFFFFFFFFFFFFFFFFFFFFFFFF AND DUP2 MSTORE PUSH1 0x20 ADD SWAP1 DUP2 MSTORE PUSH1 0x20 ADD PUSH1 0x0 KECCAK256 PUSH1 0x0 SWAP1 SLOAD SWAP1 PUSH2 0x100 EXP SWAP1 DIV PUSH2 0xFFFF AND PUSH2 0xFFFF AND SUB PUSH3 0x5AD JUMPI PUSH1 0x12 DUP4 DUP3 DUP2 MLOAD DUP2 LT PUSH3 0x540 JUMPI PUSH3 0x53F PUSH3 0x118E JUMP JUMPDEST JUMPDEST PUSH1 0x20 MUL PUSH1 0x20 ADD ADD MLOAD PUSH1 0x0 ADD MLOAD SWAP1 DUP1 PUSH1 0x1 DUP2 SLOAD ADD DUP1 DUP3 SSTORE DUP1 SWAP2 POP POP PUSH1 0x1 SWAP1 SUB SWAP1 PUSH1 0x0 MSTORE PUSH1 0x20 PUSH1 0x0 KECCAK256 ADD PUSH1 0x0 SWAP1 SWAP2 SWAP1 SWAP2 SWAP1 SWAP2 PUSH2 0x100 EXP DUP2 SLOAD DUP2 PUSH20 0xFFFFFFFFFFFFFFFFFFFFFFFFFFFFFFFFFFFFFFFF MUL NOT AND SWAP1 DUP4 PUSH20 0xFFFFFFFFFFFFFFFFFFFFFFFFFFFFFFFFFFFFFFFF AND MUL OR SWAP1 SSTORE POP JUMPDEST DUP3 DUP2 DUP2 MLOAD DUP2 LT PUSH3 0x5C3 JUMPI PUSH3 0x5C2 PUSH3 0x118E JUMP JUMPDEST JUMPDEST PUSH1 0x20 MUL PUSH1 0x20 ADD ADD MLOAD PUSH1 0x20 ADD MLOAD PUSH1 0x11 PUSH1 0x0 DUP6 DUP5 DUP2 MLOAD DUP2 LT PUSH3 0x5E9 JUMPI PUSH3 0x5E8 PUSH3 0x118E JUMP JUMPDEST JUMPDEST PUSH1 0x20 MUL PUSH1 0x20 ADD ADD MLOAD PUSH1 0x0 ADD MLOAD PUSH20 0xFFFFFFFFFFFFFFFFFFFFFFFFFFFFFFFFFFFFFFFF AND PUSH20 0xFFFFFFFFFFFFFFFFFFFFFFFFFFFFFFFFFFFFFFFF AND DUP2 MSTORE PUSH1 0x20 ADD SWAP1 DUP2 MSTORE PUSH1 0x20 ADD PUSH1 0x0 KECCAK256 PUSH1 0x0 DUP3 DUP3 DUP3 SWAP1 SLOAD SWAP1 PUSH2 0x100 EXP SWAP1 DIV PUSH2 0xFFFF AND PUSH3 0x64D SWAP2 SWAP1 PUSH3 0x125E JUMP JUMPDEST SWAP3 POP PUSH2 0x100 EXP DUP2 SLOAD DUP2 PUSH2 0xFFFF MUL NOT AND SWAP1 DUP4 PUSH2 0xFFFF AND MUL OR SWAP1 SSTORE POP DUP1 DUP1 PUSH3 0x674 SWAP1 PUSH3 0x129B JUMP JUMPDEST SWAP2 POP POP PUSH3 0x3F3 JUMP JUMPDEST POP PUSH1 0x13 PUSH1 0x4 SWAP1 SLOAD SWAP1 PUSH2 0x100 EXP SWAP1 DIV PUSH2 0xFFFF AND PUSH2 0xFFFF AND DUP2 PUSH2 0xFFFF AND EQ PUSH3 0x6DB JUMPI PUSH1 0x40 MLOAD PUSH32 0x8C379A000000000000000000000000000000000000000000000000000000000 DUP2 MSTORE PUSH1 0x4 ADD PUSH3 0x6D2 SWAP1 PUSH3 0x1338 JUMP JUMPDEST PUSH1 0x40 MLOAD DUP1 SWAP2 SUB SWAP1 REVERT JUMPDEST PUSH32 0xB4401F7FF72A1EE5D63DA4A8CC041AF040AD9F24E50BECA9BC095652591F1991 DUP3 PUSH1 0x40 MLOAD PUSH3 0x70C SWAP2 SWAP1 PUSH3 0x146C JUMP JUMPDEST PUSH1 0x40 MLOAD DUP1 SWAP2 SUB SWAP1 LOG1 POP POP JUMP JUMPDEST PUSH1 0x0 PUSH1 0x6 PUSH1 0x0 SWAP1 SLOAD SWAP1 PUSH2 0x100 EXP SWAP1 DIV PUSH20 0xFFFFFFFFFFFFFFFFFFFFFFFFFFFFFFFFFFFFFFFF AND SWAP1 POP SWAP1 JUMP JUMPDEST PUSH3 0x752 PUSH3 0x23A PUSH1 0x20 SHL PUSH1 0x20 SHR JUMP JUMPDEST PUSH20 0xFFFFFFFFFFFFFFFFFFFFFFFFFFFFFFFFFFFFFFFF AND PUSH3 0x778 PUSH3 0x718 PUSH1 0x20 SHL PUSH1 0x20 SHR JUMP JUMPDEST PUSH20 0xFFFFFFFFFFFFFFFFFFFFFFFFFFFFFFFFFFFFFFFF AND EQ PUSH3 0x7D1 JUMPI PUSH1 0x40 MLOAD PUSH32 0x8C379A000000000000000000000000000000000000000000000000000000000 DUP2 MSTORE PUSH1 0x4 ADD PUSH3 0x7C8 SWAP1 PUSH3 0x14E0 JUMP JUMPDEST PUSH1 0x40 MLOAD DUP1 SWAP2 SUB SWAP1 REVERT JUMPDEST JUMP JUMPDEST PUSH1 0x0 PUSH1 0x40 MLOAD SWAP1 POP SWAP1 JUMP JUMPDEST PUSH1 0x0 DUP1 REVERT JUMPDEST PUSH1 0x0 DUP1 REVERT JUMPDEST PUSH1 0x0 PUSH20 0xFFFFFFFFFFFFFFFFFFFFFFFFFFFFFFFFFFFFFFFF DUP3 AND SWAP1 POP SWAP2 SWAP1 POP JUMP JUMPDEST PUSH1 0x0 PUSH3 0x814 DUP3 PUSH3 0x7E7 JUMP JUMPDEST SWAP1 POP SWAP2 SWAP1 POP JUMP JUMPDEST PUSH1 0x0 PUSH3 0x828 DUP3 PUSH3 0x807 JUMP JUMPDEST SWAP1 POP SWAP2 SWAP1 POP JUMP JUMPDEST PUSH3 0x83A DUP2 PUSH3 0x81B JUMP JUMPDEST DUP2 EQ PUSH3 0x846 JUMPI PUSH1 0x0 DUP1 REVERT JUMPDEST POP JUMP JUMPDEST PUSH1 0x0 DUP2 MLOAD SWAP1 POP PUSH3 0x85A DUP2 PUSH3 0x82F JUMP JUMPDEST SWAP3 SWAP2 POP POP JUMP JUMPDEST PUSH1 0x0 PUSH3 0x86D DUP3 PUSH3 0x807 JUMP JUMPDEST SWAP1 POP SWAP2 SWAP1 POP JUMP JUMPDEST PUSH3 0x87F DUP2 PUSH3 0x860 JUMP JUMPDEST DUP2 EQ PUSH3 0x88B JUMPI PUSH1 0x0 DUP1 REVERT JUMPDEST POP JUMP JUMPDEST PUSH1 0x0 DUP2 MLOAD SWAP1 POP PUSH3 0x89F DUP2 PUSH3 0x874 JUMP JUMPDEST SWAP3 SWAP2 POP POP JUMP JUMPDEST PUSH1 0x0 DUP2 SWAP1 POP SWAP2 SWAP1 POP JUMP JUMPDEST PUSH3 0x8BA DUP2 PUSH3 0x8A5 JUMP JUMPDEST DUP2 EQ PUSH3 0x8C6 JUMPI PUSH1 0x0 DUP1 REVERT JUMPDEST POP JUMP JUMPDEST PUSH1 0x0 DUP2 MLOAD SWAP1 POP PUSH3 0x8DA DUP2 PUSH3 0x8AF JUMP JUMPDEST SWAP3 SWAP2 POP POP JUMP JUMPDEST PUSH1 0x0 DUP1 REVERT JUMPDEST PUSH1 0x0 DUP1 REVERT JUMPDEST PUSH1 0x0 PUSH1 0x1F NOT PUSH1 0x1F DUP4 ADD AND SWAP1 POP SWAP2 SWAP1 POP JUMP JUMPDEST PUSH32 0x4E487B7100000000000000000000000000000000000000000000000000000000 PUSH1 0x0 MSTORE PUSH1 0x41 PUSH1 0x4 MSTORE PUSH1 0x24 PUSH1 0x0 REVERT JUMPDEST PUSH3 0x935 DUP3 PUSH3 0x8EA JUMP JUMPDEST DUP2 ADD DUP2 DUP2 LT PUSH8 0xFFFFFFFFFFFFFFFF DUP3 GT OR ISZERO PUSH3 0x957 JUMPI PUSH3 0x956 PUSH3 0x8FB JUMP JUMPDEST JUMPDEST DUP1 PUSH1 0x40 MSTORE POP POP POP JUMP JUMPDEST PUSH1 0x0 PUSH3 0x96C PUSH3 0x7D3 JUMP JUMPDEST SWAP1 POP PUSH3 0x97A DUP3 DUP3 PUSH3 0x92A JUMP JUMPDEST SWAP2 SWAP1 POP JUMP JUMPDEST PUSH1 0x0 PUSH8 0xFFFFFFFFFFFFFFFF DUP3 GT ISZERO PUSH3 0x99D JUMPI PUSH3 0x99C PUSH3 0x8FB JUMP JUMPDEST JUMPDEST PUSH3 0x9A8 DUP3 PUSH3 0x8EA JUMP JUMPDEST SWAP1 POP PUSH1 0x20 DUP2 ADD SWAP1 POP SWAP2 SWAP1 POP JUMP JUMPDEST PUSH1 0x0 JUMPDEST DUP4 DUP2 LT ISZERO PUSH3 0x9D5 JUMPI DUP1 DUP3 ADD MLOAD DUP2 DUP5 ADD MSTORE PUSH1 0x20 DUP2 ADD SWAP1 POP PUSH3 0x9B8 JUMP JUMPDEST PUSH1 0x0 DUP5 DUP5 ADD MSTORE POP POP POP POP JUMP JUMPDEST PUSH1 0x0 PUSH3 0x9F8 PUSH3 0x9F2 DUP5 PUSH3 0x97F JUMP JUMPDEST PUSH3 0x960 JUMP JUMPDEST SWAP1 POP DUP3 DUP2 MSTORE PUSH1 0x20 DUP2 ADD DUP5 DUP5 DUP5 ADD GT ISZERO PUSH3 0xA17 JUMPI PUSH3 0xA16 PUSH3 0x8E5 JUMP JUMPDEST JUMPDEST PUSH3 0xA24 DUP5 DUP3 DUP6 PUSH3 0x9B5 JUMP JUMPDEST POP SWAP4 SWAP3 POP POP POP JUMP JUMPDEST PUSH1 0x0 DUP3 PUSH1 0x1F DUP4 ADD SLT PUSH3 0xA44 JUMPI PUSH3 0xA43 PUSH3 0x8E0 JUMP JUMPDEST JUMPDEST DUP2 MLOAD PUSH3 0xA56 DUP5 DUP3 PUSH1 0x20 DUP7 ADD PUSH3 0x9E1 JUMP JUMPDEST SWAP2 POP POP SWAP3 SWAP2 POP POP JUMP JUMPDEST PUSH1 0x0 PUSH8 0xFFFFFFFFFFFFFFFF DUP3 GT ISZERO PUSH3 0xA7D JUMPI PUSH3 0xA7C PUSH3 0x8FB JUMP JUMPDEST JUMPDEST PUSH1 0x20 DUP3 MUL SWAP1 POP PUSH1 0x20 DUP2 ADD SWAP1 POP SWAP2 SWAP1 POP JUMP JUMPDEST PUSH1 0x0 DUP1 REVERT JUMPDEST PUSH1 0x0 DUP1 REVERT JUMPDEST PUSH3 0xAA3 DUP2 PUSH3 0x807 JUMP JUMPDEST DUP2 EQ PUSH3 0xAAF JUMPI PUSH1 0x0 DUP1 REVERT JUMPDEST POP JUMP JUMPDEST PUSH1 0x0 DUP2 MLOAD SWAP1 POP PUSH3 0xAC3 DUP2 PUSH3 0xA98 JUMP JUMPDEST SWAP3 SWAP2 POP POP JUMP JUMPDEST PUSH1 0x0 PUSH2 0xFFFF DUP3 AND SWAP1 POP SWAP2 SWAP1 POP JUMP JUMPDEST PUSH3 0xAE2 DUP2 PUSH3 0xAC9 JUMP JUMPDEST DUP2 EQ PUSH3 0xAEE JUMPI PUSH1 0x0 DUP1 REVERT JUMPDEST POP JUMP JUMPDEST PUSH1 0x0 DUP2 MLOAD SWAP1 POP PUSH3 0xB02 DUP2 PUSH3 0xAD7 JUMP JUMPDEST SWAP3 SWAP2 POP POP JUMP JUMPDEST PUSH1 0x0 PUSH1 0x40 DUP3 DUP5 SUB SLT ISZERO PUSH3 0xB21 JUMPI PUSH3 0xB20 PUSH3 0xA93 JUMP JUMPDEST JUMPDEST PUSH3 0xB2D PUSH1 0x40 PUSH3 0x960 JUMP JUMPDEST SWAP1 POP PUSH1 0x0 PUSH3 0xB3F DUP5 DUP3 DUP6 ADD PUSH3 0xAB2 JUMP JUMPDEST PUSH1 0x0 DUP4 ADD MSTORE POP PUSH1 0x20 PUSH3 0xB55 DUP5 DUP3 DUP6 ADD PUSH3 0xAF1 JUMP JUMPDEST PUSH1 0x20 DUP4 ADD MSTORE POP SWAP3 SWAP2 POP POP JUMP JUMPDEST PUSH1 0x0 PUSH3 0xB78 PUSH3 0xB72 DUP5 PUSH3 0xA5F JUMP JUMPDEST PUSH3 0x960 JUMP JUMPDEST SWAP1 POP DUP1 DUP4 DUP3 MSTORE PUSH1 0x20 DUP3 ADD SWAP1 POP PUSH1 0x40 DUP5 MUL DUP4 ADD DUP6 DUP2 GT ISZERO PUSH3 0xB9E JUMPI PUSH3 0xB9D PUSH3 0xA8E JUMP JUMPDEST JUMPDEST DUP4 JUMPDEST DUP2 DUP2 LT ISZERO PUSH3 0xBCB JUMPI DUP1 PUSH3 0xBB6 DUP9 DUP3 PUSH3 0xB08 JUMP JUMPDEST DUP5 MSTORE PUSH1 0x20 DUP5 ADD SWAP4 POP POP PUSH1 0x40 DUP2 ADD SWAP1 POP PUSH3 0xBA0 JUMP JUMPDEST POP POP POP SWAP4 SWAP3 POP POP POP JUMP JUMPDEST PUSH1 0x0 DUP3 PUSH1 0x1F DUP4 ADD SLT PUSH3 0xBED JUMPI PUSH3 0xBEC PUSH3 0x8E0 JUMP JUMPDEST JUMPDEST DUP2 MLOAD PUSH3 0xBFF DUP5 DUP3 PUSH1 0x20 DUP7 ADD PUSH3 0xB61 JUMP JUMPDEST SWAP2 POP POP SWAP3 SWAP2 POP POP JUMP JUMPDEST PUSH1 0x0 DUP1 PUSH1 0x0 DUP1 PUSH1 0x0 PUSH1 0xA0 DUP7 DUP9 SUB SLT ISZERO PUSH3 0xC27 JUMPI PUSH3 0xC26 PUSH3 0x7DD JUMP JUMPDEST JUMPDEST PUSH1 0x0 PUSH3 0xC37 DUP9 DUP3 DUP10 ADD PUSH3 0x849 JUMP JUMPDEST SWAP6 POP POP PUSH1 0x20 PUSH3 0xC4A DUP9 DUP3 DUP10 ADD PUSH3 0x88E JUMP JUMPDEST SWAP5 POP POP PUSH1 0x40 PUSH3 0xC5D DUP9 DUP3 DUP10 ADD PUSH3 0x8C9 JUMP JUMPDEST SWAP4 POP POP PUSH1 0x60 DUP7 ADD MLOAD PUSH8 0xFFFFFFFFFFFFFFFF DUP2 GT ISZERO PUSH3 0xC81 JUMPI PUSH3 0xC80 PUSH3 0x7E2 JUMP JUMPDEST JUMPDEST PUSH3 0xC8F DUP9 DUP3 DUP10 ADD PUSH3 0xA2C JUMP JUMPDEST SWAP3 POP POP PUSH1 0x80 DUP7 ADD MLOAD PUSH8 0xFFFFFFFFFFFFFFFF DUP2 GT ISZERO PUSH3 0xCB3 JUMPI PUSH3 0xCB2 PUSH3 0x7E2 JUMP JUMPDEST JUMPDEST PUSH3 0xCC1 DUP9 DUP3 DUP10 ADD PUSH3 0xBD5 JUMP JUMPDEST SWAP2 POP POP SWAP3 SWAP6 POP SWAP3 SWAP6 SWAP1 SWAP4 POP JUMP JUMPDEST PUSH1 0x0 DUP2 MLOAD SWAP1 POP SWAP2 SWAP1 POP JUMP JUMPDEST PUSH32 0x4E487B7100000000000000000000000000000000000000000000000000000000 PUSH1 0x0 MSTORE PUSH1 0x22 PUSH1 0x4 MSTORE PUSH1 0x24 PUSH1 0x0 REVERT JUMPDEST PUSH1 0x0 PUSH1 0x2 DUP3 DIV SWAP1 POP PUSH1 0x1 DUP3 AND DUP1 PUSH3 0xD21 JUMPI PUSH1 0x7F DUP3 AND SWAP2 POP JUMPDEST PUSH1 0x20 DUP3 LT DUP2 SUB PUSH3 0xD37 JUMPI PUSH3 0xD36 PUSH3 0xCD9 JUMP JUMPDEST JUMPDEST POP SWAP2 SWAP1 POP JUMP JUMPDEST PUSH1 0x0 DUP2 SWAP1 POP DUP2 PUSH1 0x0 MSTORE PUSH1 0x20 PUSH1 0x0 KECCAK256 SWAP1 POP SWAP2 SWAP1 POP JUMP JUMPDEST PUSH1 0x0 PUSH1 0x20 PUSH1 0x1F DUP4 ADD DIV SWAP1 POP SWAP2 SWAP1 POP JUMP JUMPDEST PUSH1 0x0 DUP3 DUP3 SHL SWAP1 POP SWAP3 SWAP2 POP POP JUMP JUMPDEST PUSH1 0x0 PUSH1 0x8 DUP4 MUL PUSH3 0xDA1 PUSH32 0xFFFFFFFFFFFFFFFFFFFFFFFFFFFFFFFFFFFFFFFFFFFFFFFFFFFFFFFFFFFFFFFF DUP3 PUSH3 0xD62 JUMP JUMPDEST PUSH3 0xDAD DUP7 DUP4 PUSH3 0xD62 JUMP JUMPDEST SWAP6 POP DUP1 NOT DUP5 AND SWAP4 POP DUP1 DUP7 AND DUP5 OR SWAP3 POP POP POP SWAP4 SWAP3 POP POP POP JUMP JUMPDEST PUSH1 0x0 DUP2 SWAP1 POP SWAP2 SWAP1 POP JUMP JUMPDEST PUSH1 0x0 DUP2 SWAP1 POP SWAP2 SWAP1 POP JUMP JUMPDEST PUSH1 0x0 PUSH3 0xDFA PUSH3 0xDF4 PUSH3 0xDEE DUP5 PUSH3 0xDC5 JUMP JUMPDEST PUSH3 0xDCF JUMP JUMPDEST PUSH3 0xDC5 JUMP JUMPDEST SWAP1 POP SWAP2 SWAP1 POP JUMP JUMPDEST PUSH1 0x0 DUP2 SWAP1 POP SWAP2 SWAP1 POP JUMP JUMPDEST PUSH3 0xE16 DUP4 PUSH3 0xDD9 JUMP JUMPDEST PUSH3 0xE2E PUSH3 0xE25 DUP3 PUSH3 0xE01 JUMP JUMPDEST DUP5 DUP5 SLOAD PUSH3 0xD6F JUMP JUMPDEST DUP3 SSTORE POP POP POP POP JUMP JUMPDEST PUSH1 0x0 SWAP1 JUMP JUMPDEST PUSH3 0xE45 PUSH3 0xE36 JUMP JUMPDEST PUSH3 0xE52 DUP2 DUP5 DUP5 PUSH3 0xE0B JUMP JUMPDEST POP POP POP JUMP JUMPDEST JUMPDEST DUP2 DUP2 LT ISZERO PUSH3 0xE7A JUMPI PUSH3 0xE6E PUSH1 0x0 DUP3 PUSH3 0xE3B JUMP JUMPDEST PUSH1 0x1 DUP2 ADD SWAP1 POP PUSH3 0xE58 JUMP JUMPDEST POP POP JUMP JUMPDEST PUSH1 0x1F DUP3 GT ISZERO PUSH3 0xEC9 JUMPI PUSH3 0xE93 DUP2 PUSH3 0xD3D JUMP JUMPDEST PUSH3 0xE9E DUP5 PUSH3 0xD52 JUMP JUMPDEST DUP2 ADD PUSH1 0x20 DUP6 LT ISZERO PUSH3 0xEAE JUMPI DUP2 SWAP1 POP JUMPDEST PUSH3 0xEC6 PUSH3 0xEBD DUP6 PUSH3 0xD52 JUMP JUMPDEST DUP4 ADD DUP3 PUSH3 0xE57 JUMP JUMPDEST POP POP JUMPDEST POP POP POP JUMP JUMPDEST PUSH1 0x0 DUP3 DUP3 SHR SWAP1 POP SWAP3 SWAP2 POP POP JUMP JUMPDEST PUSH1 0x0 PUSH3 0xEEE PUSH1 0x0 NOT DUP5 PUSH1 0x8 MUL PUSH3 0xECE JUMP JUMPDEST NOT DUP1 DUP4 AND SWAP2 POP POP SWAP3 SWAP2 POP POP JUMP JUMPDEST PUSH1 0x0 PUSH3 0xF09 DUP4 DUP4 PUSH3 0xEDB JUMP JUMPDEST SWAP2 POP DUP3 PUSH1 0x2 MUL DUP3 OR SWAP1 POP SWAP3 SWAP2 POP POP JUMP JUMPDEST PUSH3 0xF24 DUP3 PUSH3 0xCCE JUMP JUMPDEST PUSH8 0xFFFFFFFFFFFFFFFF DUP2 GT ISZERO PUSH3 0xF40 JUMPI PUSH3 0xF3F PUSH3 0x8FB JUMP JUMPDEST JUMPDEST PUSH3 0xF4C DUP3 SLOAD PUSH3 0xD08 JUMP JUMPDEST PUSH3 0xF59 DUP3 DUP3 DUP6 PUSH3 0xE7E JUMP JUMPDEST PUSH1 0x0 PUSH1 0x20 SWAP1 POP PUSH1 0x1F DUP4 GT PUSH1 0x1 DUP2 EQ PUSH3 0xF91 JUMPI PUSH1 0x0 DUP5 ISZERO PUSH3 0xF7C JUMPI DUP3 DUP8 ADD MLOAD SWAP1 POP JUMPDEST PUSH3 0xF88 DUP6 DUP3 PUSH3 0xEFB JUMP JUMPDEST DUP7 SSTORE POP PUSH3 0xFF8 JUMP JUMPDEST PUSH1 0x1F NOT DUP5 AND PUSH3 0xFA1 DUP7 PUSH3 0xD3D JUMP JUMPDEST PUSH1 0x0 JUMPDEST DUP3 DUP2 LT ISZERO PUSH3 0xFCB JUMPI DUP5 DUP10 ADD MLOAD DUP3 SSTORE PUSH1 0x1 DUP3 ADD SWAP2 POP PUSH1 0x20 DUP6 ADD SWAP5 POP PUSH1 0x20 DUP2 ADD SWAP1 POP PUSH3 0xFA4 JUMP JUMPDEST DUP7 DUP4 LT ISZERO PUSH3 0xFEB JUMPI DUP5 DUP10 ADD MLOAD PUSH3 0xFE7 PUSH1 0x1F DUP10 AND DUP3 PUSH3 0xEDB JUMP JUMPDEST DUP4 SSTORE POP JUMPDEST PUSH1 0x1 PUSH1 0x2 DUP9 MUL ADD DUP9 SSTORE POP POP POP JUMPDEST POP POP POP POP POP POP JUMP JUMPDEST PUSH1 0x0 DUP2 SWAP1 POP SWAP3 SWAP2 POP POP JUMP JUMPDEST PUSH1 0x0 PUSH3 0x1018 DUP3 PUSH3 0xCCE JUMP JUMPDEST PUSH3 0x1024 DUP2 DUP6 PUSH3 0x1000 JUMP JUMPDEST SWAP4 POP PUSH3 0x1036 DUP2 DUP6 PUSH1 0x20 DUP7 ADD PUSH3 0x9B5 JUMP JUMPDEST DUP1 DUP5 ADD SWAP2 POP POP SWAP3 SWAP2 POP POP JUMP JUMPDEST PUSH1 0x0 PUSH3 0x1050 DUP3 DUP5 PUSH3 0x100B JUMP JUMPDEST SWAP2 POP DUP2 SWAP1 POP SWAP3 SWAP2 POP POP JUMP JUMPDEST PUSH3 0x1066 DUP2 PUSH3 0x807 JUMP JUMPDEST DUP3 MSTORE POP POP JUMP JUMPDEST PUSH1 0x0 PUSH1 0x40 DUP3 ADD SWAP1 POP PUSH3 0x1083 PUSH1 0x0 DUP4 ADD DUP6 PUSH3 0x105B JUMP JUMPDEST PUSH3 0x1092 PUSH1 0x20 DUP4 ADD DUP5 PUSH3 0x105B JUMP JUMPDEST SWAP4 SWAP3 POP POP POP JUMP JUMPDEST PUSH1 0x0 DUP3 DUP3 MSTORE PUSH1 0x20 DUP3 ADD SWAP1 POP SWAP3 SWAP2 POP POP JUMP JUMPDEST PUSH32 0x73746F636B7320696E697420697320696E76616C696400000000000000000000 PUSH1 0x0 DUP3 ADD MSTORE POP JUMP JUMPDEST PUSH1 0x0 PUSH3 0x10E2 PUSH1 0x16 DUP4 PUSH3 0x1099 JUMP JUMPDEST SWAP2 POP PUSH3 0x10EF DUP3 PUSH3 0x10AA JUMP JUMPDEST PUSH1 0x20 DUP3 ADD SWAP1 POP SWAP2 SWAP1 POP JUMP JUMPDEST PUSH1 0x0 PUSH1 0x20 DUP3 ADD SWAP1 POP DUP2 DUP2 SUB PUSH1 0x0 DUP4 ADD MSTORE PUSH3 0x1115 DUP2 PUSH3 0x10D3 JUMP JUMPDEST SWAP1 POP SWAP2 SWAP1 POP JUMP JUMPDEST PUSH32 0x6F776E6572277320726174696F20616C72656164792073657400000000000000 PUSH1 0x0 DUP3 ADD MSTORE POP JUMP JUMPDEST PUSH1 0x0 PUSH3 0x1154 PUSH1 0x19 DUP4 PUSH3 0x1099 JUMP JUMPDEST SWAP2 POP PUSH3 0x1161 DUP3 PUSH3 0x111C JUMP JUMPDEST PUSH1 0x20 DUP3 ADD SWAP1 POP SWAP2 SWAP1 POP JUMP JUMPDEST PUSH1 0x0 PUSH1 0x20 DUP3 ADD SWAP1 POP DUP2 DUP2 SUB PUSH1 0x0 DUP4 ADD MSTORE PUSH3 0x1187 DUP2 PUSH3 0x1145 JUMP JUMPDEST SWAP1 POP SWAP2 SWAP1 POP JUMP JUMPDEST PUSH32 0x4E487B7100000000000000000000000000000000000000000000000000000000 PUSH1 0x0 MSTORE PUSH1 0x32 PUSH1 0x4 MSTORE PUSH1 0x24 PUSH1 0x0 REVERT JUMPDEST PUSH32 0x726174696F20697320746F6F206C6F7700000000000000000000000000000000 PUSH1 0x0 DUP3 ADD MSTORE POP JUMP JUMPDEST PUSH1 0x0 PUSH3 0x11F5 PUSH1 0x10 DUP4 PUSH3 0x1099 JUMP JUMPDEST SWAP2 POP PUSH3 0x1202 DUP3 PUSH3 0x11BD JUMP JUMPDEST PUSH1 0x20 DUP3 ADD SWAP1 POP SWAP2 SWAP1 POP JUMP JUMPDEST PUSH1 0x0 PUSH1 0x20 DUP3 ADD SWAP1 POP DUP2 DUP2 SUB PUSH1 0x0 DUP4 ADD MSTORE PUSH3 0x1228 DUP2 PUSH3 0x11E6 JUMP JUMPDEST SWAP1 POP SWAP2 SWAP1 POP JUMP JUMPDEST PUSH32 0x4E487B7100000000000000000000000000000000000000000000000000000000 PUSH1 0x0 MSTORE PUSH1 0x11 PUSH1 0x4 MSTORE PUSH1 0x24 PUSH1 0x0 REVERT JUMPDEST PUSH1 0x0 PUSH3 0x126B DUP3 PUSH3 0xAC9 JUMP JUMPDEST SWAP2 POP PUSH3 0x1278 DUP4 PUSH3 0xAC9 JUMP JUMPDEST SWAP3 POP DUP3 DUP3 ADD SWAP1 POP PUSH2 0xFFFF DUP2 GT ISZERO PUSH3 0x1295 JUMPI PUSH3 0x1294 PUSH3 0x122F JUMP JUMPDEST JUMPDEST SWAP3 SWAP2 POP POP JUMP JUMPDEST PUSH1 0x0 PUSH3 0x12A8 DUP3 PUSH3 0xDC5 JUMP JUMPDEST SWAP2 POP PUSH32 0xFFFFFFFFFFFFFFFFFFFFFFFFFFFFFFFFFFFFFFFFFFFFFFFFFFFFFFFFFFFFFFFF DUP3 SUB PUSH3 0x12DD JUMPI PUSH3 0x12DC PUSH3 0x122F JUMP JUMPDEST JUMPDEST PUSH1 0x1 DUP3 ADD SWAP1 POP SWAP2 SWAP1 POP JUMP JUMPDEST PUSH32 0x726174696F20746F74616C20697320696E76616C696400000000000000000000 PUSH1 0x0 DUP3 ADD MSTORE POP JUMP JUMPDEST PUSH1 0x0 PUSH3 0x1320 PUSH1 0x16 DUP4 PUSH3 0x1099 JUMP JUMPDEST SWAP2 POP PUSH3 0x132D DUP3 PUSH3 0x12E8 JUMP JUMPDEST PUSH1 0x20 DUP3 ADD SWAP1 POP SWAP2 SWAP1 POP JUMP JUMPDEST PUSH1 0x0 PUSH1 0x20 DUP3 ADD SWAP1 POP DUP2 DUP2 SUB PUSH1 0x0 DUP4 ADD MSTORE PUSH3 0x1353 DUP2 PUSH3 0x1311 JUMP JUMPDEST SWAP1 POP SWAP2 SWAP1 POP JUMP JUMPDEST PUSH1 0x0 DUP2 MLOAD SWAP1 POP SWAP2 SWAP1 POP JUMP JUMPDEST PUSH1 0x0 DUP3 DUP3 MSTORE PUSH1 0x20 DUP3 ADD SWAP1 POP SWAP3 SWAP2 POP POP JUMP JUMPDEST PUSH1 0x0 DUP2 SWAP1 POP PUSH1 0x20 DUP3 ADD SWAP1 POP SWAP2 SWAP1 POP JUMP JUMPDEST PUSH3 0x1391 DUP2 PUSH3 0x807 JUMP JUMPDEST DUP3 MSTORE POP POP JUMP JUMPDEST PUSH3 0x13A2 DUP2 PUSH3 0xAC9 JUMP JUMPDEST DUP3 MSTORE POP POP JUMP JUMPDEST PUSH1 0x40 DUP3 ADD PUSH1 0x0 DUP3 ADD MLOAD PUSH3 0x13C0 PUSH1 0x0 DUP6 ADD DUP3 PUSH3 0x1386 JUMP JUMPDEST POP PUSH1 0x20 DUP3 ADD MLOAD PUSH3 0x13D5 PUSH1 0x20 DUP6 ADD DUP3 PUSH3 0x1397 JUMP JUMPDEST POP POP POP POP JUMP JUMPDEST PUSH1 0x0 PUSH3 0x13E9 DUP4 DUP4 PUSH3 0x13A8 JUMP JUMPDEST PUSH1 0x40 DUP4 ADD SWAP1 POP SWAP3 SWAP2 POP POP JUMP JUMPDEST PUSH1 0x0 PUSH1 0x20 DUP3 ADD SWAP1 POP SWAP2 SWAP1 POP JUMP JUMPDEST PUSH1 0x0 PUSH3 0x140F DUP3 PUSH3 0x135A JUMP JUMPDEST PUSH3 0x141B DUP2 DUP6 PUSH3 0x1365 JUMP JUMPDEST SWAP4 POP PUSH3 0x1428 DUP4 PUSH3 0x1376 JUMP JUMPDEST DUP1 PUSH1 0x0 JUMPDEST DUP4 DUP2 LT ISZERO PUSH3 0x145F JUMPI DUP2 MLOAD PUSH3 0x1443 DUP9 DUP3 PUSH3 0x13DB JUMP JUMPDEST SWAP8 POP PUSH3 0x1450 DUP4 PUSH3 0x13F5 JUMP JUMPDEST SWAP3 POP POP PUSH1 0x1 DUP2 ADD SWAP1 POP PUSH3 0x142C JUMP JUMPDEST POP DUP6 SWAP4 POP POP POP POP SWAP3 SWAP2 POP POP JUMP JUMPDEST PUSH1 0x0 PUSH1 0x20 DUP3 ADD SWAP1 POP DUP2 DUP2 SUB PUSH1 0x0 DUP4 ADD MSTORE PUSH3 0x1488 DUP2 DUP5 PUSH3 0x1402 JUMP JUMPDEST SWAP1 POP SWAP3 SWAP2 POP POP JUMP JUMPDEST PUSH32 0x4F776E61626C653A2063616C6C6572206973206E6F7420746865206F776E6572 PUSH1 0x0 DUP3 ADD MSTORE POP JUMP JUMPDEST PUSH1 0x0 PUSH3 0x14C8 PUSH1 0x20 DUP4 PUSH3 0x1099 JUMP JUMPDEST SWAP2 POP PUSH3 0x14D5 DUP3 PUSH3 0x1490 JUMP JUMPDEST PUSH1 0x20 DUP3 ADD SWAP1 POP SWAP2 SWAP1 POP JUMP JUMPDEST PUSH1 0x0 PUSH1 0x20 DUP3 ADD SWAP1 POP DUP2 DUP2 SUB PUSH1 0x0 DUP4 ADD MSTORE PUSH3 0x14FB DUP2 PUSH3 0x14B9 JUMP JUMPDEST SWAP1 POP SWAP2 SWAP1 POP JUMP JUMPDEST PUSH2 0xA1F3 DUP1 PUSH3 0x1512 PUSH1 0x0 CODECOPY PUSH1 0x0 RETURN INVALID PUSH1 0x80 PUSH1 0x40 MSTORE PUSH1 0x4 CALLDATASIZE LT PUSH2 0x3A2 JUMPI PUSH1 0x0 CALLDATALOAD PUSH1 0xE0 SHR DUP1 PUSH4 0x78F97D90 GT PUSH2 0x1E7 JUMPI DUP1 PUSH4 0xC1A287E2 GT PUSH2 0x10D JUMPI DUP1 PUSH4 0xD99942CF GT PUSH2 0xA0 JUMPI DUP1 PUSH4 0xE985E9C5 GT PUSH2 0x6F JUMPI DUP1 PUSH4 0xE985E9C5 EQ PUSH2 0xE4A JUMPI DUP1 PUSH4 0xF2FDE38B EQ PUSH2 0xE87 JUMPI DUP1 PUSH4 0xF4624AFF EQ PUSH2 0xEB0 JUMPI DUP1 PUSH4 0xF6A74ED7 EQ PUSH2 0xED9 JUMPI PUSH2 0x3A2 JUMP JUMPDEST DUP1 PUSH4 0xD99942CF EQ PUSH2 0xD8C JUMPI DUP1 PUSH4 0xDA8C229E EQ PUSH2 0xDB7 JUMPI DUP1 PUSH4 0xDD6627C3 EQ PUSH2 0xDF4 JUMPI DUP1 PUSH4 0xDDF7FCB0 EQ PUSH2 0xE1F JUMPI PUSH2 0x3A2 JUMP JUMPDEST DUP1 PUSH4 0xD393C871 GT PUSH2 0xDC JUMPI DUP1 PUSH4 0xD393C871 EQ PUSH2 0xCCD JUMPI DUP1 PUSH4 0xD58A8117 EQ PUSH2 0xCFD JUMPI DUP1 PUSH4 0xD6E4FA86 EQ PUSH2 0xD26 JUMPI DUP1 PUSH4 0xD85267F1 EQ PUSH2 0xD63 JUMPI PUSH2 0x3A2 JUMP JUMPDEST DUP1 PUSH4 0xC1A287E2 EQ PUSH2 0xBFF JUMPI DUP1 PUSH4 0xC87B56DD EQ PUSH2 0xC2A JUMPI DUP1 PUSH4 0xCA7EACD7 EQ PUSH2 0xC67 JUMPI DUP1 PUSH4 0xD26F74F8 EQ PUSH2 0xC90 JUMPI PUSH2 0x3A2 JUMP JUMPDEST DUP1 PUSH4 0x9BF32BF5 GT PUSH2 0x185 JUMPI DUP1 PUSH4 0xA8B4A67B GT PUSH2 0x154 JUMPI DUP1 PUSH4 0xA8B4A67B EQ PUSH2 0xB3E JUMPI DUP1 PUSH4 0xACF1A841 EQ PUSH2 0xB67 JUMPI DUP1 PUSH4 0xB86CFFBB EQ PUSH2 0xB97 JUMPI DUP1 PUSH4 0xB88D4FDE EQ PUSH2 0xBD6 JUMPI PUSH2 0x3A2 JUMP JUMPDEST DUP1 PUSH4 0x9BF32BF5 EQ PUSH2 0xA84 JUMPI DUP1 PUSH4 0xA22CB465 EQ PUSH2 0xAC3 JUMPI DUP1 PUSH4 0xA4A9BB3A EQ PUSH2 0xAEC JUMPI DUP1 PUSH4 0xA7FC7A07 EQ PUSH2 0xB15 JUMPI PUSH2 0x3A2 JUMP JUMPDEST DUP1 PUSH4 0x8DDBEB07 GT PUSH2 0x1C1 JUMPI DUP1 PUSH4 0x8DDBEB07 EQ PUSH2 0x9A2 JUMPI DUP1 PUSH4 0x95D89B41 EQ PUSH2 0x9DF JUMPI DUP1 PUSH4 0x969E93DA EQ PUSH2 0xA0A JUMPI DUP1 PUSH4 0x96E494E8 EQ PUSH2 0xA47 JUMPI PUSH2 0x3A2 JUMP JUMPDEST DUP1 PUSH4 0x78F97D90 EQ PUSH2 0x911 JUMPI DUP1 PUSH4 0x8D8785D7 EQ PUSH2 0x93A JUMPI DUP1 PUSH4 0x8DA5CB5B EQ PUSH2 0x977 JUMPI PUSH2 0x3A2 JUMP JUMPDEST DUP1 PUSH4 0x4D3FB0CB GT PUSH2 0x2CC JUMPI DUP1 PUSH4 0x6DC8FCEE GT PUSH2 0x26A JUMPI DUP1 PUSH4 0x72AE6034 GT PUSH2 0x239 JUMPI DUP1 PUSH4 0x72AE6034 EQ PUSH2 0x845 JUMPI DUP1 PUSH4 0x754B2707 EQ PUSH2 0x86E JUMPI DUP1 PUSH4 0x75B83187 EQ PUSH2 0x8AB JUMPI DUP1 PUSH4 0x772A3AFA EQ PUSH2 0x8E8 JUMPI PUSH2 0x3A2 JUMP JUMPDEST DUP1 PUSH4 0x6DC8FCEE EQ PUSH2 0x78B JUMPI DUP1 PUSH4 0x70A08231 EQ PUSH2 0x7B4 JUMPI DUP1 PUSH4 0x715018A6 EQ PUSH2 0x7F1 JUMPI DUP1 PUSH4 0x7274C559 EQ PUSH2 0x808 JUMPI PUSH2 0x3A2 JUMP JUMPDEST DUP1 PUSH4 0x56C7AE41 GT PUSH2 0x2A6 JUMPI DUP1 PUSH4 0x56C7AE41 EQ PUSH2 0x6E3 JUMPI DUP1 PUSH4 0x59E5FF2A EQ PUSH2 0x70E JUMPI DUP1 PUSH4 0x6352211E EQ PUSH2 0x737 JUMPI DUP1 PUSH4 0x6B59084D EQ PUSH2 0x774 JUMPI PUSH2 0x3A2 JUMP JUMPDEST DUP1 PUSH4 0x4D3FB0CB EQ PUSH2 0x654 JUMPI DUP1 PUSH4 0x4E14EB28 EQ PUSH2 0x67D JUMPI DUP1 PUSH4 0x4E543B26 EQ PUSH2 0x6BA JUMPI PUSH2 0x3A2 JUMP JUMPDEST DUP1 PUSH4 0x12ABBB6C GT PUSH2 0x344 JUMPI DUP1 PUSH4 0x2DDBD13A GT PUSH2 0x313 JUMPI DUP1 PUSH4 0x2DDBD13A EQ PUSH2 0x5BE JUMPI DUP1 PUSH4 0x3CCFD60B EQ PUSH2 0x5E9 JUMPI DUP1 PUSH4 0x3F15457F EQ PUSH2 0x600 JUMPI DUP1 PUSH4 0x42842E0E EQ PUSH2 0x62B JUMPI PUSH2 0x3A2 JUMP JUMPDEST DUP1 PUSH4 0x12ABBB6C EQ PUSH2 0x506 JUMPI DUP1 PUSH4 0x23B872DD EQ PUSH2 0x52F JUMPI DUP1 PUSH4 0x25E8660A EQ PUSH2 0x558 JUMPI DUP1 PUSH4 0x28ED4F6C EQ PUSH2 0x595 JUMPI PUSH2 0x3A2 JUMP JUMPDEST DUP1 PUSH4 0x81812FC GT PUSH2 0x380 JUMPI DUP1 PUSH4 0x81812FC EQ PUSH2 0x438 JUMPI DUP1 PUSH4 0x95EA7B3 EQ PUSH2 0x475 JUMPI DUP1 PUSH4 0xA7D4F1E EQ PUSH2 0x49E JUMPI DUP1 PUSH4 0x10152B66 EQ PUSH2 0x4DD JUMPI PUSH2 0x3A2 JUMP JUMPDEST DUP1 PUSH4 0x1FFC9A7 EQ PUSH2 0x3A7 JUMPI DUP1 PUSH4 0x5EF9E52 EQ PUSH2 0x3E4 JUMPI DUP1 PUSH4 0x6FDDE03 EQ PUSH2 0x40D JUMPI JUMPDEST PUSH1 0x0 DUP1 REVERT JUMPDEST CALLVALUE DUP1 ISZERO PUSH2 0x3B3 JUMPI PUSH1 0x0 DUP1 REVERT JUMPDEST POP PUSH2 0x3CE PUSH1 0x4 DUP1 CALLDATASIZE SUB DUP2 ADD SWAP1 PUSH2 0x3C9 SWAP2 SWAP1 PUSH2 0x722F JUMP JUMPDEST PUSH2 0xF02 JUMP JUMPDEST PUSH1 0x40 MLOAD PUSH2 0x3DB SWAP2 SWAP1 PUSH2 0x7277 JUMP JUMPDEST PUSH1 0x40 MLOAD DUP1 SWAP2 SUB SWAP1 RETURN JUMPDEST CALLVALUE DUP1 ISZERO PUSH2 0x3F0 JUMPI PUSH1 0x0 DUP1 REVERT JUMPDEST POP PUSH2 0x40B PUSH1 0x4 DUP1 CALLDATASIZE SUB DUP2 ADD SWAP1 PUSH2 0x406 SWAP2 SWAP1 PUSH2 0x72C8 JUMP JUMPDEST PUSH2 0x114C JUMP JUMPDEST STOP JUMPDEST CALLVALUE DUP1 ISZERO PUSH2 0x419 JUMPI PUSH1 0x0 DUP1 REVERT JUMPDEST POP PUSH2 0x422 PUSH2 0x1304 JUMP JUMPDEST PUSH1 0x40 MLOAD PUSH2 0x42F SWAP2 SWAP1 PUSH2 0x73D3 JUMP JUMPDEST PUSH1 0x40 MLOAD DUP1 SWAP2 SUB SWAP1 RETURN JUMPDEST CALLVALUE DUP1 ISZERO PUSH2 0x444 JUMPI PUSH1 0x0 DUP1 REVERT JUMPDEST POP PUSH2 0x45F PUSH1 0x4 DUP1 CALLDATASIZE SUB DUP2 ADD SWAP1 PUSH2 0x45A SWAP2 SWAP1 PUSH2 0x73F5 JUMP JUMPDEST PUSH2 0x1396 JUMP JUMPDEST PUSH1 0x40 MLOAD PUSH2 0x46C SWAP2 SWAP1 PUSH2 0x7463 JUMP JUMPDEST PUSH1 0x40 MLOAD DUP1 SWAP2 SUB SWAP1 RETURN JUMPDEST CALLVALUE DUP1 ISZERO PUSH2 0x481 JUMPI PUSH1 0x0 DUP1 REVERT JUMPDEST POP PUSH2 0x49C PUSH1 0x4 DUP1 CALLDATASIZE SUB DUP2 ADD SWAP1 PUSH2 0x497 SWAP2 SWAP1 PUSH2 0x74AA JUMP JUMPDEST PUSH2 0x13DC JUMP JUMPDEST STOP JUMPDEST CALLVALUE DUP1 ISZERO PUSH2 0x4AA JUMPI PUSH1 0x0 DUP1 REVERT JUMPDEST POP PUSH2 0x4C5 PUSH1 0x4 DUP1 CALLDATASIZE SUB DUP2 ADD SWAP1 PUSH2 0x4C0 SWAP2 SWAP1 PUSH2 0x761F JUMP JUMPDEST PUSH2 0x14F3 JUMP JUMPDEST PUSH1 0x40 MLOAD PUSH2 0x4D4 SWAP4 SWAP3 SWAP2 SWAP1 PUSH2 0x7677 JUMP JUMPDEST PUSH1 0x40 MLOAD DUP1 SWAP2 SUB SWAP1 RETURN JUMPDEST CALLVALUE DUP1 ISZERO PUSH2 0x4E9 JUMPI PUSH1 0x0 DUP1 REVERT JUMPDEST POP PUSH2 0x504 PUSH1 0x4 DUP1 CALLDATASIZE SUB DUP2 ADD SWAP1 PUSH2 0x4FF SWAP2 SWAP1 PUSH2 0x7794 JUMP JUMPDEST PUSH2 0x16F9 JUMP JUMPDEST STOP JUMPDEST CALLVALUE DUP1 ISZERO PUSH2 0x512 JUMPI PUSH1 0x0 DUP1 REVERT JUMPDEST POP PUSH2 0x52D PUSH1 0x4 DUP1 CALLDATASIZE SUB DUP2 ADD SWAP1 PUSH2 0x528 SWAP2 SWAP1 PUSH2 0x73F5 JUMP JUMPDEST PUSH2 0x181E JUMP JUMPDEST STOP JUMPDEST CALLVALUE DUP1 ISZERO PUSH2 0x53B JUMPI PUSH1 0x0 DUP1 REVERT JUMPDEST POP PUSH2 0x556 PUSH1 0x4 DUP1 CALLDATASIZE SUB DUP2 ADD SWAP1 PUSH2 0x551 SWAP2 SWAP1 PUSH2 0x77DD JUMP JUMPDEST PUSH2 0x18FB JUMP JUMPDEST STOP JUMPDEST CALLVALUE DUP1 ISZERO PUSH2 0x564 JUMPI PUSH1 0x0 DUP1 REVERT JUMPDEST POP PUSH2 0x57F PUSH1 0x4 DUP1 CALLDATASIZE SUB DUP2 ADD SWAP1 PUSH2 0x57A SWAP2 SWAP1 PUSH2 0x7830 JUMP JUMPDEST PUSH2 0x195B JUMP JUMPDEST PUSH1 0x40 MLOAD PUSH2 0x58C SWAP2 SWAP1 PUSH2 0x7870 JUMP JUMPDEST PUSH1 0x40 MLOAD DUP1 SWAP2 SUB SWAP1 RETURN JUMPDEST CALLVALUE DUP1 ISZERO PUSH2 0x5A1 JUMPI PUSH1 0x0 DUP1 REVERT JUMPDEST POP PUSH2 0x5BC PUSH1 0x4 DUP1 CALLDATASIZE SUB DUP2 ADD SWAP1 PUSH2 0x5B7 SWAP2 SWAP1 PUSH2 0x788B JUMP JUMPDEST PUSH2 0x1977 JUMP JUMPDEST STOP JUMPDEST CALLVALUE DUP1 ISZERO PUSH2 0x5CA JUMPI PUSH1 0x0 DUP1 REVERT JUMPDEST POP PUSH2 0x5D3 PUSH2 0x1A87 JUMP JUMPDEST PUSH1 0x40 MLOAD PUSH2 0x5E0 SWAP2 SWAP1 PUSH2 0x7870 JUMP JUMPDEST PUSH1 0x40 MLOAD DUP1 SWAP2 SUB SWAP1 RETURN JUMPDEST CALLVALUE DUP1 ISZERO PUSH2 0x5F5 JUMPI PUSH1 0x0 DUP1 REVERT JUMPDEST POP PUSH2 0x5FE PUSH2 0x1A8D JUMP JUMPDEST STOP JUMPDEST CALLVALUE DUP1 ISZERO PUSH2 0x60C JUMPI PUSH1 0x0 DUP1 REVERT JUMPDEST POP PUSH2 0x615 PUSH2 0x1E43 JUMP JUMPDEST PUSH1 0x40 MLOAD PUSH2 0x622 SWAP2 SWAP1 PUSH2 0x792A JUMP JUMPDEST PUSH1 0x40 MLOAD DUP1 SWAP2 SUB SWAP1 RETURN JUMPDEST CALLVALUE DUP1 ISZERO PUSH2 0x637 JUMPI PUSH1 0x0 DUP1 REVERT JUMPDEST POP PUSH2 0x652 PUSH1 0x4 DUP1 CALLDATASIZE SUB DUP2 ADD SWAP1 PUSH2 0x64D SWAP2 SWAP1 PUSH2 0x77DD JUMP JUMPDEST PUSH2 0x1E69 JUMP JUMPDEST STOP JUMPDEST CALLVALUE DUP1 ISZERO PUSH2 0x660 JUMPI PUSH1 0x0 DUP1 REVERT JUMPDEST POP PUSH2 0x67B PUSH1 0x4 DUP1 CALLDATASIZE SUB DUP2 ADD SWAP1 PUSH2 0x676 SWAP2 SWAP1 PUSH2 0x761F JUMP JUMPDEST PUSH2 0x1E89 JUMP JUMPDEST STOP JUMPDEST CALLVALUE DUP1 ISZERO PUSH2 0x689 JUMPI PUSH1 0x0 DUP1 REVERT JUMPDEST POP PUSH2 0x6A4 PUSH1 0x4 DUP1 CALLDATASIZE SUB DUP2 ADD SWAP1 PUSH2 0x69F SWAP2 SWAP1 PUSH2 0x7945 JUMP JUMPDEST PUSH2 0x1FD1 JUMP JUMPDEST PUSH1 0x40 MLOAD PUSH2 0x6B1 SWAP2 SWAP1 PUSH2 0x7870 JUMP JUMPDEST PUSH1 0x40 MLOAD DUP1 SWAP2 SUB SWAP1 RETURN JUMPDEST CALLVALUE DUP1 ISZERO PUSH2 0x6C6 JUMPI PUSH1 0x0 DUP1 REVERT JUMPDEST POP PUSH2 0x6E1 PUSH1 0x4 DUP1 CALLDATASIZE SUB DUP2 ADD SWAP1 PUSH2 0x6DC SWAP2 SWAP1 PUSH2 0x7945 JUMP JUMPDEST PUSH2 0x1FE9 JUMP JUMPDEST STOP JUMPDEST CALLVALUE DUP1 ISZERO PUSH2 0x6EF JUMPI PUSH1 0x0 DUP1 REVERT JUMPDEST POP PUSH2 0x6F8 PUSH2 0x2085 JUMP JUMPDEST PUSH1 0x40 MLOAD PUSH2 0x705 SWAP2 SWAP1 PUSH2 0x7870 JUMP JUMPDEST PUSH1 0x40 MLOAD DUP1 SWAP2 SUB SWAP1 RETURN JUMPDEST CALLVALUE DUP1 ISZERO PUSH2 0x71A JUMPI PUSH1 0x0 DUP1 REVERT JUMPDEST POP PUSH2 0x735 PUSH1 0x4 DUP1 CALLDATASIZE SUB DUP2 ADD SWAP1 PUSH2 0x730 SWAP2 SWAP1 PUSH2 0x7AC9 JUMP JUMPDEST PUSH2 0x20BC JUMP JUMPDEST STOP JUMPDEST CALLVALUE DUP1 ISZERO PUSH2 0x743 JUMPI PUSH1 0x0 DUP1 REVERT JUMPDEST POP PUSH2 0x75E PUSH1 0x4 DUP1 CALLDATASIZE SUB DUP2 ADD SWAP1 PUSH2 0x759 SWAP2 SWAP1 PUSH2 0x73F5 JUMP JUMPDEST PUSH2 0x2731 JUMP JUMPDEST PUSH1 0x40 MLOAD PUSH2 0x76B SWAP2 SWAP1 PUSH2 0x7463 JUMP JUMPDEST PUSH1 0x40 MLOAD DUP1 SWAP2 SUB SWAP1 RETURN JUMPDEST CALLVALUE DUP1 ISZERO PUSH2 0x780 JUMPI PUSH1 0x0 DUP1 REVERT JUMPDEST POP PUSH2 0x789 PUSH2 0x2762 JUMP JUMPDEST STOP JUMPDEST CALLVALUE DUP1 ISZERO PUSH2 0x797 JUMPI PUSH1 0x0 DUP1 REVERT JUMPDEST POP PUSH2 0x7B2 PUSH1 0x4 DUP1 CALLDATASIZE SUB DUP2 ADD SWAP1 PUSH2 0x7AD SWAP2 SWAP1 PUSH2 0x7B12 JUMP JUMPDEST PUSH2 0x2778 JUMP JUMPDEST STOP JUMPDEST CALLVALUE DUP1 ISZERO PUSH2 0x7C0 JUMPI PUSH1 0x0 DUP1 REVERT JUMPDEST POP PUSH2 0x7DB PUSH1 0x4 DUP1 CALLDATASIZE SUB DUP2 ADD SWAP1 PUSH2 0x7D6 SWAP2 SWAP1 PUSH2 0x7945 JUMP JUMPDEST PUSH2 0x294F JUMP JUMPDEST PUSH1 0x40 MLOAD PUSH2 0x7E8 SWAP2 SWAP1 PUSH2 0x7870 JUMP JUMPDEST PUSH1 0x40 MLOAD DUP1 SWAP2 SUB SWAP1 RETURN JUMPDEST CALLVALUE DUP1 ISZERO PUSH2 0x7FD JUMPI PUSH1 0x0 DUP1 REVERT JUMPDEST POP PUSH2 0x806 PUSH2 0x2A06 JUMP JUMPDEST STOP JUMPDEST CALLVALUE DUP1 ISZERO PUSH2 0x814 JUMPI PUSH1 0x0 DUP1 REVERT JUMPDEST POP PUSH2 0x82F PUSH1 0x4 DUP1 CALLDATASIZE SUB DUP2 ADD SWAP1 PUSH2 0x82A SWAP2 SWAP1 PUSH2 0x761F JUMP JUMPDEST PUSH2 0x2A1A JUMP JUMPDEST PUSH1 0x40 MLOAD PUSH2 0x83C SWAP2 SWAP1 PUSH2 0x7277 JUMP JUMPDEST PUSH1 0x40 MLOAD DUP1 SWAP2 SUB SWAP1 RETURN JUMPDEST CALLVALUE DUP1 ISZERO PUSH2 0x851 JUMPI PUSH1 0x0 DUP1 REVERT JUMPDEST POP PUSH2 0x86C PUSH1 0x4 DUP1 CALLDATASIZE SUB DUP2 ADD SWAP1 PUSH2 0x867 SWAP2 SWAP1 PUSH2 0x7794 JUMP JUMPDEST PUSH2 0x2C96 JUMP JUMPDEST STOP JUMPDEST CALLVALUE DUP1 ISZERO PUSH2 0x87A JUMPI PUSH1 0x0 DUP1 REVERT JUMPDEST POP PUSH2 0x895 PUSH1 0x4 DUP1 CALLDATASIZE SUB DUP2 ADD SWAP1 PUSH2 0x890 SWAP2 SWAP1 PUSH2 0x7945 JUMP JUMPDEST PUSH2 0x2DBB JUMP JUMPDEST PUSH1 0x40 MLOAD PUSH2 0x8A2 SWAP2 SWAP1 PUSH2 0x7BB8 JUMP JUMPDEST PUSH1 0x40 MLOAD DUP1 SWAP2 SUB SWAP1 RETURN JUMPDEST CALLVALUE DUP1 ISZERO PUSH2 0x8B7 JUMPI PUSH1 0x0 DUP1 REVERT JUMPDEST POP PUSH2 0x8D2 PUSH1 0x4 DUP1 CALLDATASIZE SUB DUP2 ADD SWAP1 PUSH2 0x8CD SWAP2 SWAP1 PUSH2 0x7BD3 JUMP JUMPDEST PUSH2 0x2EF1 JUMP JUMPDEST PUSH1 0x40 MLOAD PUSH2 0x8DF SWAP2 SWAP1 PUSH2 0x7277 JUMP JUMPDEST PUSH1 0x40 MLOAD DUP1 SWAP2 SUB SWAP1 RETURN JUMPDEST CALLVALUE DUP1 ISZERO PUSH2 0x8F4 JUMPI PUSH1 0x0 DUP1 REVERT JUMPDEST POP PUSH2 0x90F PUSH1 0x4 DUP1 CALLDATASIZE SUB DUP2 ADD SWAP1 PUSH2 0x90A SWAP2 SWAP1 PUSH2 0x7B12 JUMP JUMPDEST PUSH2 0x2FCE JUMP JUMPDEST STOP JUMPDEST CALLVALUE DUP1 ISZERO PUSH2 0x91D JUMPI PUSH1 0x0 DUP1 REVERT JUMPDEST POP PUSH2 0x938 PUSH1 0x4 DUP1 CALLDATASIZE SUB DUP2 ADD SWAP1 PUSH2 0x933 SWAP2 SWAP1 PUSH2 0x7794 JUMP JUMPDEST PUSH2 0x31D4 JUMP JUMPDEST STOP JUMPDEST CALLVALUE DUP1 ISZERO PUSH2 0x946 JUMPI PUSH1 0x0 DUP1 REVERT JUMPDEST POP PUSH2 0x961 PUSH1 0x4 DUP1 CALLDATASIZE SUB DUP2 ADD SWAP1 PUSH2 0x95C SWAP2 SWAP1 PUSH2 0x73F5 JUMP JUMPDEST PUSH2 0x3318 JUMP JUMPDEST PUSH1 0x40 MLOAD PUSH2 0x96E SWAP2 SWAP1 PUSH2 0x7277 JUMP JUMPDEST PUSH1 0x40 MLOAD DUP1 SWAP2 SUB SWAP1 RETURN JUMPDEST CALLVALUE DUP1 ISZERO PUSH2 0x983 JUMPI PUSH1 0x0 DUP1 REVERT JUMPDEST POP PUSH2 0x98C PUSH2 0x3338 JUMP JUMPDEST PUSH1 0x40 MLOAD PUSH2 0x999 SWAP2 SWAP1 PUSH2 0x7463 JUMP JUMPDEST PUSH1 0x40 MLOAD DUP1 SWAP2 SUB SWAP1 RETURN JUMPDEST CALLVALUE DUP1 ISZERO PUSH2 0x9AE JUMPI PUSH1 0x0 DUP1 REVERT JUMPDEST POP PUSH2 0x9C9 PUSH1 0x4 DUP1 CALLDATASIZE SUB DUP2 ADD SWAP1 PUSH2 0x9C4 SWAP2 SWAP1 PUSH2 0x7BD3 JUMP JUMPDEST PUSH2 0x3362 JUMP JUMPDEST PUSH1 0x40 MLOAD PUSH2 0x9D6 SWAP2 SWAP1 PUSH2 0x7277 JUMP JUMPDEST PUSH1 0x40 MLOAD DUP1 SWAP2 SUB SWAP1 RETURN JUMPDEST CALLVALUE DUP1 ISZERO PUSH2 0x9EB JUMPI PUSH1 0x0 DUP1 REVERT JUMPDEST POP PUSH2 0x9F4 PUSH2 0x3430 JUMP JUMPDEST PUSH1 0x40 MLOAD PUSH2 0xA01 SWAP2 SWAP1 PUSH2 0x73D3 JUMP JUMPDEST PUSH1 0x40 MLOAD DUP1 SWAP2 SUB SWAP1 RETURN JUMPDEST CALLVALUE DUP1 ISZERO PUSH2 0xA16 JUMPI PUSH1 0x0 DUP1 REVERT JUMPDEST POP PUSH2 0xA31 PUSH1 0x4 DUP1 CALLDATASIZE SUB DUP2 ADD SWAP1 PUSH2 0xA2C SWAP2 SWAP1 PUSH2 0x761F JUMP JUMPDEST PUSH2 0x34C2 JUMP JUMPDEST PUSH1 0x40 MLOAD PUSH2 0xA3E SWAP2 SWAP1 PUSH2 0x7277 JUMP JUMPDEST PUSH1 0x40 MLOAD DUP1 SWAP2 SUB SWAP1 RETURN JUMPDEST CALLVALUE DUP1 ISZERO PUSH2 0xA53 JUMPI PUSH1 0x0 DUP1 REVERT JUMPDEST POP PUSH2 0xA6E PUSH1 0x4 DUP1 CALLDATASIZE SUB DUP2 ADD SWAP1 PUSH2 0xA69 SWAP2 SWAP1 PUSH2 0x73F5 JUMP JUMPDEST PUSH2 0x369C JUMP JUMPDEST PUSH1 0x40 MLOAD PUSH2 0xA7B SWAP2 SWAP1 PUSH2 0x7277 JUMP JUMPDEST PUSH1 0x40 MLOAD DUP1 SWAP2 SUB SWAP1 RETURN JUMPDEST CALLVALUE DUP1 ISZERO PUSH2 0xA90 JUMPI PUSH1 0x0 DUP1 REVERT JUMPDEST POP PUSH2 0xAAB PUSH1 0x4 DUP1 CALLDATASIZE SUB DUP2 ADD SWAP1 PUSH2 0xAA6 SWAP2 SWAP1 PUSH2 0x761F JUMP JUMPDEST PUSH2 0x36C7 JUMP JUMPDEST PUSH1 0x40 MLOAD PUSH2 0xABA SWAP4 SWAP3 SWAP2 SWAP1 PUSH2 0x7677 JUMP JUMPDEST PUSH1 0x40 MLOAD DUP1 SWAP2 SUB SWAP1 RETURN JUMPDEST CALLVALUE DUP1 ISZERO PUSH2 0xACF JUMPI PUSH1 0x0 DUP1 REVERT JUMPDEST POP PUSH2 0xAEA PUSH1 0x4 DUP1 CALLDATASIZE SUB DUP2 ADD SWAP1 PUSH2 0xAE5 SWAP2 SWAP1 PUSH2 0x7C77 JUMP JUMPDEST PUSH2 0x3859 JUMP JUMPDEST STOP JUMPDEST CALLVALUE DUP1 ISZERO PUSH2 0xAF8 JUMPI PUSH1 0x0 DUP1 REVERT JUMPDEST POP PUSH2 0xB13 PUSH1 0x4 DUP1 CALLDATASIZE SUB DUP2 ADD SWAP1 PUSH2 0xB0E SWAP2 SWAP1 PUSH2 0x7E20 JUMP JUMPDEST PUSH2 0x386F JUMP JUMPDEST STOP JUMPDEST CALLVALUE DUP1 ISZERO PUSH2 0xB21 JUMPI PUSH1 0x0 DUP1 REVERT JUMPDEST POP PUSH2 0xB3C PUSH1 0x4 DUP1 CALLDATASIZE SUB DUP2 ADD SWAP1 PUSH2 0xB37 SWAP2 SWAP1 PUSH2 0x7945 JUMP JUMPDEST PUSH2 0x39EF JUMP JUMPDEST STOP JUMPDEST CALLVALUE DUP1 ISZERO PUSH2 0xB4A JUMPI PUSH1 0x0 DUP1 REVERT JUMPDEST POP PUSH2 0xB65 PUSH1 0x4 DUP1 CALLDATASIZE SUB DUP2 ADD SWAP1 PUSH2 0xB60 SWAP2 SWAP1 PUSH2 0x7E69 JUMP JUMPDEST PUSH2 0x3A95 JUMP JUMPDEST STOP JUMPDEST PUSH2 0xB81 PUSH1 0x4 DUP1 CALLDATASIZE SUB DUP2 ADD SWAP1 PUSH2 0xB7C SWAP2 SWAP1 PUSH2 0x7EC5 JUMP JUMPDEST PUSH2 0x3D0E JUMP JUMPDEST PUSH1 0x40 MLOAD PUSH2 0xB8E SWAP2 SWAP1 PUSH2 0x7870 JUMP JUMPDEST PUSH1 0x40 MLOAD DUP1 SWAP2 SUB SWAP1 RETURN JUMPDEST CALLVALUE DUP1 ISZERO PUSH2 0xBA3 JUMPI PUSH1 0x0 DUP1 REVERT JUMPDEST POP PUSH2 0xBBE PUSH1 0x4 DUP1 CALLDATASIZE SUB DUP2 ADD SWAP1 PUSH2 0xBB9 SWAP2 SWAP1 PUSH2 0x761F JUMP JUMPDEST PUSH2 0x3ECC JUMP JUMPDEST PUSH1 0x40 MLOAD PUSH2 0xBCD SWAP4 SWAP3 SWAP2 SWAP1 PUSH2 0x7677 JUMP JUMPDEST PUSH1 0x40 MLOAD DUP1 SWAP2 SUB SWAP1 RETURN JUMPDEST CALLVALUE DUP1 ISZERO PUSH2 0xBE2 JUMPI PUSH1 0x0 DUP1 REVERT JUMPDEST POP PUSH2 0xBFD PUSH1 0x4 DUP1 CALLDATASIZE SUB DUP2 ADD SWAP1 PUSH2 0xBF8 SWAP2 SWAP1 PUSH2 0x7FC2 JUMP JUMPDEST PUSH2 0x40A5 JUMP JUMPDEST STOP JUMPDEST CALLVALUE DUP1 ISZERO PUSH2 0xC0B JUMPI PUSH1 0x0 DUP1 REVERT JUMPDEST POP PUSH2 0xC14 PUSH2 0x4107 JUMP JUMPDEST PUSH1 0x40 MLOAD PUSH2 0xC21 SWAP2 SWAP1 PUSH2 0x7870 JUMP JUMPDEST PUSH1 0x40 MLOAD DUP1 SWAP2 SUB SWAP1 RETURN JUMPDEST CALLVALUE DUP1 ISZERO PUSH2 0xC36 JUMPI PUSH1 0x0 DUP1 REVERT JUMPDEST POP PUSH2 0xC51 PUSH1 0x4 DUP1 CALLDATASIZE SUB DUP2 ADD SWAP1 PUSH2 0xC4C SWAP2 SWAP1 PUSH2 0x73F5 JUMP JUMPDEST PUSH2 0x410C JUMP JUMPDEST PUSH1 0x40 MLOAD PUSH2 0xC5E SWAP2 SWAP1 PUSH2 0x73D3 JUMP JUMPDEST PUSH1 0x40 MLOAD DUP1 SWAP2 SUB SWAP1 RETURN JUMPDEST CALLVALUE DUP1 ISZERO PUSH2 0xC73 JUMPI PUSH1 0x0 DUP1 REVERT JUMPDEST POP PUSH2 0xC8E PUSH1 0x4 DUP1 CALLDATASIZE SUB DUP2 ADD SWAP1 PUSH2 0xC89 SWAP2 SWAP1 PUSH2 0x7B12 JUMP JUMPDEST PUSH2 0x4174 JUMP JUMPDEST STOP JUMPDEST CALLVALUE DUP1 ISZERO PUSH2 0xC9C JUMPI PUSH1 0x0 DUP1 REVERT JUMPDEST POP PUSH2 0xCB7 PUSH1 0x4 DUP1 CALLDATASIZE SUB DUP2 ADD SWAP1 PUSH2 0xCB2 SWAP2 SWAP1 PUSH2 0x761F JUMP JUMPDEST PUSH2 0x43A3 JUMP JUMPDEST PUSH1 0x40 MLOAD PUSH2 0xCC4 SWAP2 SWAP1 PUSH2 0x8149 JUMP JUMPDEST PUSH1 0x40 MLOAD DUP1 SWAP2 SUB SWAP1 RETURN JUMPDEST PUSH2 0xCE7 PUSH1 0x4 DUP1 CALLDATASIZE SUB DUP2 ADD SWAP1 PUSH2 0xCE2 SWAP2 SWAP1 PUSH2 0x816B JUMP JUMPDEST PUSH2 0x44D0 JUMP JUMPDEST PUSH1 0x40 MLOAD PUSH2 0xCF4 SWAP2 SWAP1 PUSH2 0x7870 JUMP JUMPDEST PUSH1 0x40 MLOAD DUP1 SWAP2 SUB SWAP1 RETURN JUMPDEST CALLVALUE DUP1 ISZERO PUSH2 0xD09 JUMPI PUSH1 0x0 DUP1 REVERT JUMPDEST POP PUSH2 0xD24 PUSH1 0x4 DUP1 CALLDATASIZE SUB DUP2 ADD SWAP1 PUSH2 0xD1F SWAP2 SWAP1 PUSH2 0x72C8 JUMP JUMPDEST PUSH2 0x44F3 JUMP JUMPDEST STOP JUMPDEST CALLVALUE DUP1 ISZERO PUSH2 0xD32 JUMPI PUSH1 0x0 DUP1 REVERT JUMPDEST POP PUSH2 0xD4D PUSH1 0x4 DUP1 CALLDATASIZE SUB DUP2 ADD SWAP1 PUSH2 0xD48 SWAP2 SWAP1 PUSH2 0x73F5 JUMP JUMPDEST PUSH2 0x4677 JUMP JUMPDEST PUSH1 0x40 MLOAD PUSH2 0xD5A SWAP2 SWAP1 PUSH2 0x7870 JUMP JUMPDEST PUSH1 0x40 MLOAD DUP1 SWAP2 SUB SWAP1 RETURN JUMPDEST CALLVALUE DUP1 ISZERO PUSH2 0xD6F JUMPI PUSH1 0x0 DUP1 REVERT JUMPDEST POP PUSH2 0xD8A PUSH1 0x4 DUP1 CALLDATASIZE SUB DUP2 ADD SWAP1 PUSH2 0xD85 SWAP2 SWAP1 PUSH2 0x761F JUMP JUMPDEST PUSH2 0x4694 JUMP JUMPDEST STOP JUMPDEST CALLVALUE DUP1 ISZERO PUSH2 0xD98 JUMPI PUSH1 0x0 DUP1 REVERT JUMPDEST POP PUSH2 0xDA1 PUSH2 0x4796 JUMP JUMPDEST PUSH1 0x40 MLOAD PUSH2 0xDAE SWAP2 SWAP1 PUSH2 0x81FB JUMP JUMPDEST PUSH1 0x40 MLOAD DUP1 SWAP2 SUB SWAP1 RETURN JUMPDEST CALLVALUE DUP1 ISZERO PUSH2 0xDC3 JUMPI PUSH1 0x0 DUP1 REVERT JUMPDEST POP PUSH2 0xDDE PUSH1 0x4 DUP1 CALLDATASIZE SUB DUP2 ADD SWAP1 PUSH2 0xDD9 SWAP2 SWAP1 PUSH2 0x7945 JUMP JUMPDEST PUSH2 0x47BC JUMP JUMPDEST PUSH1 0x40 MLOAD PUSH2 0xDEB SWAP2 SWAP1 PUSH2 0x7277 JUMP JUMPDEST PUSH1 0x40 MLOAD DUP1 SWAP2 SUB SWAP1 RETURN JUMPDEST CALLVALUE DUP1 ISZERO PUSH2 0xE00 JUMPI PUSH1 0x0 DUP1 REVERT JUMPDEST POP PUSH2 0xE09 PUSH2 0x47DC JUMP JUMPDEST PUSH1 0x40 MLOAD PUSH2 0xE16 SWAP2 SWAP1 PUSH2 0x7870 JUMP JUMPDEST PUSH1 0x40 MLOAD DUP1 SWAP2 SUB SWAP1 RETURN JUMPDEST CALLVALUE DUP1 ISZERO PUSH2 0xE2B JUMPI PUSH1 0x0 DUP1 REVERT JUMPDEST POP PUSH2 0xE34 PUSH2 0x4819 JUMP JUMPDEST PUSH1 0x40 MLOAD PUSH2 0xE41 SWAP2 SWAP1 PUSH2 0x822F JUMP JUMPDEST PUSH1 0x40 MLOAD DUP1 SWAP2 SUB SWAP1 RETURN JUMPDEST CALLVALUE DUP1 ISZERO PUSH2 0xE56 JUMPI PUSH1 0x0 DUP1 REVERT JUMPDEST POP PUSH2 0xE71 PUSH1 0x4 DUP1 CALLDATASIZE SUB DUP2 ADD SWAP1 PUSH2 0xE6C SWAP2 SWAP1 PUSH2 0x824A JUMP JUMPDEST PUSH2 0x481F JUMP JUMPDEST PUSH1 0x40 MLOAD PUSH2 0xE7E SWAP2 SWAP1 PUSH2 0x7277 JUMP JUMPDEST PUSH1 0x40 MLOAD DUP1 SWAP2 SUB SWAP1 RETURN JUMPDEST CALLVALUE DUP1 ISZERO PUSH2 0xE93 JUMPI PUSH1 0x0 DUP1 REVERT JUMPDEST POP PUSH2 0xEAE PUSH1 0x4 DUP1 CALLDATASIZE SUB DUP2 ADD SWAP1 PUSH2 0xEA9 SWAP2 SWAP1 PUSH2 0x7945 JUMP JUMPDEST PUSH2 0x48B3 JUMP JUMPDEST STOP JUMPDEST CALLVALUE DUP1 ISZERO PUSH2 0xEBC JUMPI PUSH1 0x0 DUP1 REVERT JUMPDEST POP PUSH2 0xED7 PUSH1 0x4 DUP1 CALLDATASIZE SUB DUP2 ADD SWAP1 PUSH2 0xED2 SWAP2 SWAP1 PUSH2 0x7B12 JUMP JUMPDEST PUSH2 0x4936 JUMP JUMPDEST STOP JUMPDEST CALLVALUE DUP1 ISZERO PUSH2 0xEE5 JUMPI PUSH1 0x0 DUP1 REVERT JUMPDEST POP PUSH2 0xF00 PUSH1 0x4 DUP1 CALLDATASIZE SUB DUP2 ADD SWAP1 PUSH2 0xEFB SWAP2 SWAP1 PUSH2 0x7945 JUMP JUMPDEST PUSH2 0x4BB6 JUMP JUMPDEST STOP JUMPDEST PUSH1 0x0 PUSH32 0x1FFC9A7A5CEF8BAA21ED3C5C0D7E23ACCB804B619E9333B597F47A0D84076E2 PUSH28 0xFFFFFFFFFFFFFFFFFFFFFFFFFFFFFFFFFFFFFFFFFFFFFFFFFFFFFFFF NOT AND DUP3 PUSH28 0xFFFFFFFFFFFFFFFFFFFFFFFFFFFFFFFFFFFFFFFFFFFFFFFFFFFFFFFF NOT AND EQ DUP1 PUSH2 0x10DD JUMPI POP PUSH32 0xB88D4FDE60196325A28BB7F99A2582E0B46DE55B18761E960C14AD7A32099465 PUSH32 0x42842E0EB38857A7775B4E7364B2775DF7325074D088E7FB39590CD6281184ED PUSH32 0x23B872DD7302113369CDA2901243429419BEC145408FA8B352B3DD92B66C680B PUSH32 0xE985E9C5C6636C6879256001057B28CCAC7718EF0AC56553FF9B926452CAB8A3 PUSH32 0xA22CB4651AB9570F89BB516380C40CE76762284FB1F21337CEAF6ADAB99E7D4A PUSH32 0x81812FC55E34FDC7CF5D8B5CF4E3621FA6423FDE952EC6AB24AFDC0D85C0B2E PUSH32 0x95EA7B334AE44009AA867BFB386F5C3B4B443AC6F0EE573FA91C4608FBADFBA PUSH32 0x6352211E6566AA027E75AC9DBF2423197FBD9B82B9D981A3AB367D355866AA1C PUSH32 0x70A08231B98EF4CA268C9CC3F6B4590E4BFEC28280DB06BB5D45E689F2A360BE XOR XOR XOR XOR XOR XOR XOR XOR PUSH28 0xFFFFFFFFFFFFFFFFFFFFFFFFFFFFFFFFFFFFFFFFFFFFFFFFFFFFFFFF NOT AND DUP3 PUSH28 0xFFFFFFFFFFFFFFFFFFFFFFFFFFFFFFFFFFFFFFFFFFFFFFFFFFFFFFFF NOT AND EQ JUMPDEST DUP1 PUSH2 0x1145 JUMPI POP PUSH32 0x28ED4F6C74B219A5819055DFBCD2F1837C046C364CF01FABB6799E4F440D6F13 PUSH28 0xFFFFFFFFFFFFFFFFFFFFFFFFFFFFFFFFFFFFFFFFFFFFFFFFFFFFFFFF NOT AND DUP3 PUSH28 0xFFFFFFFFFFFFFFFFFFFFFFFFFFFFFFFFFFFFFFFFFFFFFFFFFFFFFFFF NOT AND EQ JUMPDEST SWAP1 POP SWAP2 SWAP1 POP JUMP JUMPDEST PUSH2 0x1154 PUSH2 0x4C5C JUMP JUMPDEST DUP4 DUP3 PUSH1 0x0 DUP3 GT DUP1 PUSH2 0x1165 JUMPI POP PUSH1 0x0 DUP2 GT JUMPDEST PUSH2 0x11A4 JUMPI PUSH1 0x40 MLOAD PUSH32 0x8C379A000000000000000000000000000000000000000000000000000000000 DUP2 MSTORE PUSH1 0x4 ADD PUSH2 0x119B SWAP1 PUSH2 0x82D6 JUMP JUMPDEST PUSH1 0x40 MLOAD DUP1 SWAP2 SUB SWAP1 REVERT JUMPDEST PUSH1 0xD PUSH1 0x0 DUP9 DUP2 MSTORE PUSH1 0x20 ADD SWAP1 DUP2 MSTORE PUSH1 0x20 ADD PUSH1 0x0 KECCAK256 PUSH1 0x5 ADD PUSH1 0x0 SWAP1 SLOAD SWAP1 PUSH2 0x100 EXP SWAP1 DIV PUSH1 0xFF AND PUSH2 0x1207 JUMPI PUSH1 0x40 MLOAD PUSH32 0x8C379A000000000000000000000000000000000000000000000000000000000 DUP2 MSTORE PUSH1 0x4 ADD PUSH2 0x11FE SWAP1 PUSH2 0x8342 JUMP JUMPDEST PUSH1 0x40 MLOAD DUP1 SWAP2 SUB SWAP1 REVERT JUMPDEST DUP7 PUSH1 0xD PUSH1 0x0 DUP10 DUP2 MSTORE PUSH1 0x20 ADD SWAP1 DUP2 MSTORE PUSH1 0x20 ADD PUSH1 0x0 KECCAK256 PUSH1 0x0 ADD DUP2 SWAP1 SSTORE POP DUP6 PUSH1 0xD PUSH1 0x0 DUP10 DUP2 MSTORE PUSH1 0x20 ADD SWAP1 DUP2 MSTORE PUSH1 0x20 ADD PUSH1 0x0 KECCAK256 PUSH1 0x1 ADD DUP2 SWAP1 SSTORE POP DUP5 PUSH1 0xD PUSH1 0x0 DUP10 DUP2 MSTORE PUSH1 0x20 ADD SWAP1 DUP2 MSTORE PUSH1 0x20 ADD PUSH1 0x0 KECCAK256 PUSH1 0x2 ADD DUP2 SWAP1 SSTORE POP PUSH1 0x1 PUSH1 0xD PUSH1 0x0 DUP10 DUP2 MSTORE PUSH1 0x20 ADD SWAP1 DUP2 MSTORE PUSH1 0x20 ADD PUSH1 0x0 KECCAK256 PUSH1 0x5 ADD PUSH1 0x0 PUSH2 0x100 EXP DUP2 SLOAD DUP2 PUSH1 0xFF MUL NOT AND SWAP1 DUP4 ISZERO ISZERO MUL OR SWAP1 SSTORE POP DUP4 PUSH1 0xD PUSH1 0x0 DUP10 DUP2 MSTORE PUSH1 0x20 ADD SWAP1 DUP2 MSTORE PUSH1 0x20 ADD PUSH1 0x0 KECCAK256 PUSH1 0x3 ADD DUP2 SWAP1 SSTORE POP DUP3 PUSH1 0xD PUSH1 0x0 DUP10 DUP2 MSTORE PUSH1 0x20 ADD SWAP1 DUP2 MSTORE PUSH1 0x20 ADD PUSH1 0x0 KECCAK256 PUSH1 0x4 ADD DUP2 SWAP1 SSTORE POP DUP7 PUSH32 0x2D5BE7B52D85CB6DD0E0011707FA73A2E4DDF68EE282DBF72431A6FC482B4289 DUP8 DUP8 DUP8 DUP8 PUSH1 0x40 MLOAD PUSH2 0x12F3 SWAP5 SWAP4 SWAP3 SWAP2 SWAP1 PUSH2 0x83AE JUMP JUMPDEST PUSH1 0x40 MLOAD DUP1 SWAP2 SUB SWAP1 LOG2 POP POP POP POP POP POP POP JUMP JUMPDEST PUSH1 0x60 PUSH1 0x0 DUP1 SLOAD PUSH2 0x1313 SWAP1 PUSH2 0x8435 JUMP JUMPDEST DUP1 PUSH1 0x1F ADD PUSH1 0x20 DUP1 SWAP2 DIV MUL PUSH1 0x20 ADD PUSH1 0x40 MLOAD SWAP1 DUP2 ADD PUSH1 0x40 MSTORE DUP1 SWAP3 SWAP2 SWAP1 DUP2 DUP2 MSTORE PUSH1 0x20 ADD DUP3 DUP1 SLOAD PUSH2 0x133F SWAP1 PUSH2 0x8435 JUMP JUMPDEST DUP1 ISZERO PUSH2 0x138C JUMPI DUP1 PUSH1 0x1F LT PUSH2 0x1361 JUMPI PUSH2 0x100 DUP1 DUP4 SLOAD DIV MUL DUP4 MSTORE SWAP2 PUSH1 0x20 ADD SWAP2 PUSH2 0x138C JUMP JUMPDEST DUP3 ADD SWAP2 SWAP1 PUSH1 0x0 MSTORE PUSH1 0x20 PUSH1 0x0 KECCAK256 SWAP1 JUMPDEST DUP2 SLOAD DUP2 MSTORE SWAP1 PUSH1 0x1 ADD SWAP1 PUSH1 0x20 ADD DUP1 DUP4 GT PUSH2 0x136F JUMPI DUP3 SWAP1 SUB PUSH1 0x1F AND DUP3 ADD SWAP2 JUMPDEST POP POP POP POP POP SWAP1 POP SWAP1 JUMP JUMPDEST PUSH1 0x0 PUSH2 0x13A1 DUP3 PUSH2 0x4CDA JUMP JUMPDEST PUSH1 0x4 PUSH1 0x0 DUP4 DUP2 MSTORE PUSH1 0x20 ADD SWAP1 DUP2 MSTORE PUSH1 0x20 ADD PUSH1 0x0 KECCAK256 PUSH1 0x0 SWAP1 SLOAD SWAP1 PUSH2 0x100 EXP SWAP1 DIV PUSH20 0xFFFFFFFFFFFFFFFFFFFFFFFFFFFFFFFFFFFFFFFF AND SWAP1 POP SWAP2 SWAP1 POP JUMP JUMPDEST PUSH1 0x0 PUSH2 0x13E7 DUP3 PUSH2 0x4D25 JUMP JUMPDEST SWAP1 POP DUP1 PUSH20 0xFFFFFFFFFFFFFFFFFFFFFFFFFFFFFFFFFFFFFFFF AND DUP4 PUSH20 0xFFFFFFFFFFFFFFFFFFFFFFFFFFFFFFFFFFFFFFFF AND SUB PUSH2 0x1457 JUMPI PUSH1 0x40 MLOAD PUSH32 0x8C379A000000000000000000000000000000000000000000000000000000000 DUP2 MSTORE PUSH1 0x4 ADD PUSH2 0x144E SWAP1 PUSH2 0x84D8 JUMP JUMPDEST PUSH1 0x40 MLOAD DUP1 SWAP2 SUB SWAP1 REVERT JUMPDEST DUP1 PUSH20 0xFFFFFFFFFFFFFFFFFFFFFFFFFFFFFFFFFFFFFFFF AND PUSH2 0x1476 PUSH2 0x4DAB JUMP JUMPDEST PUSH20 0xFFFFFFFFFFFFFFFFFFFFFFFFFFFFFFFFFFFFFFFF AND EQ DUP1 PUSH2 0x14A5 JUMPI POP PUSH2 0x14A4 DUP2 PUSH2 0x149F PUSH2 0x4DAB JUMP JUMPDEST PUSH2 0x481F JUMP JUMPDEST JUMPDEST PUSH2 0x14E4 JUMPI PUSH1 0x40 MLOAD PUSH32 0x8C379A000000000000000000000000000000000000000000000000000000000 DUP2 MSTORE PUSH1 0x4 ADD PUSH2 0x14DB SWAP1 PUSH2 0x856A JUMP JUMPDEST PUSH1 0x40 MLOAD DUP1 SWAP2 SUB SWAP1 REVERT JUMPDEST PUSH2 0x14EE DUP4 DUP4 PUSH2 0x4DB3 JUMP JUMPDEST POP POP POP JUMP JUMPDEST PUSH1 0x0 DUP1 PUSH1 0x0 DUP1 PUSH1 0x0 SWAP1 POP PUSH1 0x0 DUP1 PUSH1 0x0 DUP1 PUSH1 0x0 DUP1 DUP11 DUP1 MLOAD SWAP1 PUSH1 0x20 ADD KECCAK256 PUSH1 0x0 SHR SWAP1 POP PUSH1 0x0 PUSH1 0x8 PUSH1 0x0 SWAP1 SLOAD SWAP1 PUSH2 0x100 EXP SWAP1 DIV PUSH20 0xFFFFFFFFFFFFFFFFFFFFFFFFFFFFFFFFFFFFFFFF AND PUSH20 0xFFFFFFFFFFFFFFFFFFFFFFFFFFFFFFFFFFFFFFFF AND PUSH4 0xE378ADD6 DUP4 PUSH1 0x40 MLOAD DUP3 PUSH4 0xFFFFFFFF AND PUSH1 0xE0 SHL DUP2 MSTORE PUSH1 0x4 ADD PUSH2 0x1570 SWAP2 SWAP1 PUSH2 0x7870 JUMP JUMPDEST PUSH1 0x0 PUSH1 0x40 MLOAD DUP1 DUP4 SUB DUP2 PUSH1 0x0 DUP8 GAS CALL ISZERO DUP1 ISZERO PUSH2 0x158F JUMPI RETURNDATASIZE PUSH1 0x0 DUP1 RETURNDATACOPY RETURNDATASIZE PUSH1 0x0 REVERT JUMPDEST POP POP POP POP PUSH1 0x40 MLOAD RETURNDATASIZE PUSH1 0x0 DUP3 RETURNDATACOPY RETURNDATASIZE PUSH1 0x1F NOT PUSH1 0x1F DUP3 ADD AND DUP3 ADD DUP1 PUSH1 0x40 MSTORE POP DUP2 ADD SWAP1 PUSH2 0x15B8 SWAP2 SWAP1 PUSH2 0x8662 JUMP JUMPDEST SWAP1 POP PUSH1 0x0 JUMPDEST DUP2 MLOAD DUP2 LT ISZERO PUSH2 0x16E0 JUMPI PUSH1 0x0 DUP3 DUP3 DUP2 MLOAD DUP2 LT PUSH2 0x15DB JUMPI PUSH2 0x15DA PUSH2 0x86AB JUMP JUMPDEST JUMPDEST PUSH1 0x20 MUL PUSH1 0x20 ADD ADD MLOAD SWAP1 POP PUSH1 0xF PUSH1 0x0 DUP3 DUP2 MSTORE PUSH1 0x20 ADD SWAP1 DUP2 MSTORE PUSH1 0x20 ADD PUSH1 0x0 KECCAK256 PUSH1 0x5 ADD PUSH1 0x1 SWAP1 SLOAD SWAP1 PUSH2 0x100 EXP SWAP1 DIV PUSH1 0xFF AND ISZERO DUP1 ISZERO PUSH2 0x1636 JUMPI POP PUSH1 0xF PUSH1 0x0 DUP3 DUP2 MSTORE PUSH1 0x20 ADD SWAP1 DUP2 MSTORE PUSH1 0x20 ADD PUSH1 0x0 KECCAK256 PUSH1 0x5 ADD PUSH1 0x0 SWAP1 SLOAD SWAP1 PUSH2 0x100 EXP SWAP1 DIV PUSH1 0xFF AND JUMPDEST DUP1 ISZERO PUSH2 0x1657 JUMPI POP TIMESTAMP PUSH1 0xF PUSH1 0x0 DUP4 DUP2 MSTORE PUSH1 0x20 ADD SWAP1 DUP2 MSTORE PUSH1 0x20 ADD PUSH1 0x0 KECCAK256 PUSH1 0x2 ADD SLOAD LT JUMPDEST ISZERO PUSH2 0x16CC JUMPI PUSH1 0xF PUSH1 0x0 DUP3 DUP2 MSTORE PUSH1 0x20 ADD SWAP1 DUP2 MSTORE PUSH1 0x20 ADD PUSH1 0x0 KECCAK256 PUSH1 0x1 ADD SLOAD SWAP7 POP PUSH2 0x167F DUP11 DUP9 PUSH2 0x195B JUMP JUMPDEST SWAP10 POP PUSH1 0xF PUSH1 0x0 DUP3 DUP2 MSTORE PUSH1 0x20 ADD SWAP1 DUP2 MSTORE PUSH1 0x20 ADD PUSH1 0x0 KECCAK256 PUSH1 0x3 ADD SLOAD SWAP6 POP PUSH2 0x16A4 DUP7 DUP11 PUSH2 0x195B JUMP JUMPDEST SWAP9 POP PUSH1 0xF PUSH1 0x0 DUP3 DUP2 MSTORE PUSH1 0x20 ADD SWAP1 DUP2 MSTORE PUSH1 0x20 ADD PUSH1 0x0 KECCAK256 PUSH1 0x4 ADD SLOAD SWAP5 POP PUSH2 0x16C9 DUP6 DUP10 PUSH2 0x195B JUMP JUMPDEST SWAP8 POP JUMPDEST POP DUP1 DUP1 PUSH2 0x16D8 SWAP1 PUSH2 0x8709 JUMP JUMPDEST SWAP2 POP POP PUSH2 0x15BD JUMP JUMPDEST POP DUP8 DUP8 DUP8 SWAP11 POP SWAP11 POP SWAP11 POP POP POP POP POP POP POP POP POP SWAP2 SWAP4 SWAP1 SWAP3 POP JUMP JUMPDEST PUSH2 0x1701 PUSH2 0x4C5C JUMP JUMPDEST PUSH1 0x0 JUMPDEST DUP2 MLOAD DUP2 LT ISZERO PUSH2 0x181A JUMPI PUSH1 0x0 DUP3 DUP3 DUP2 MLOAD DUP2 LT PUSH2 0x1722 JUMPI PUSH2 0x1721 PUSH2 0x86AB JUMP JUMPDEST JUMPDEST PUSH1 0x20 MUL PUSH1 0x20 ADD ADD MLOAD DUP1 MLOAD SWAP1 PUSH1 0x20 ADD KECCAK256 PUSH1 0x0 SHR SWAP1 POP PUSH1 0x8 PUSH1 0x0 SWAP1 SLOAD SWAP1 PUSH2 0x100 EXP SWAP1 DIV PUSH20 0xFFFFFFFFFFFFFFFFFFFFFFFFFFFFFFFFFFFFFFFF AND PUSH20 0xFFFFFFFFFFFFFFFFFFFFFFFFFFFFFFFFFFFFFFFF AND PUSH4 0x5AA7A868 DUP3 PUSH1 0x40 MLOAD DUP3 PUSH4 0xFFFFFFFF AND PUSH1 0xE0 SHL DUP2 MSTORE PUSH1 0x4 ADD PUSH2 0x1791 SWAP2 SWAP1 PUSH2 0x7870 JUMP JUMPDEST PUSH1 0x20 PUSH1 0x40 MLOAD DUP1 DUP4 SUB DUP2 PUSH1 0x0 DUP8 GAS CALL ISZERO DUP1 ISZERO PUSH2 0x17B0 JUMPI RETURNDATASIZE PUSH1 0x0 DUP1 RETURNDATACOPY RETURNDATASIZE PUSH1 0x0 REVERT JUMPDEST POP POP POP POP PUSH1 0x40 MLOAD RETURNDATASIZE PUSH1 0x1F NOT PUSH1 0x1F DUP3 ADD AND DUP3 ADD DUP1 PUSH1 0x40 MSTORE POP DUP2 ADD SWAP1 PUSH2 0x17D4 SWAP2 SWAP1 PUSH2 0x8766 JUMP JUMPDEST ISZERO PUSH2 0x1806 JUMPI PUSH1 0x1 PUSH1 0xC PUSH1 0x0 DUP4 DUP2 MSTORE PUSH1 0x20 ADD SWAP1 DUP2 MSTORE PUSH1 0x20 ADD PUSH1 0x0 KECCAK256 PUSH1 0x0 PUSH2 0x100 EXP DUP2 SLOAD DUP2 PUSH1 0xFF MUL NOT AND SWAP1 DUP4 ISZERO ISZERO MUL OR SWAP1 SSTORE POP JUMPDEST POP DUP1 DUP1 PUSH2 0x1812 SWAP1 PUSH2 0x8709 JUMP JUMPDEST SWAP2 POP POP PUSH2 0x1704 JUMP JUMPDEST POP POP JUMP JUMPDEST PUSH2 0x1826 PUSH2 0x4C5C JUMP JUMPDEST PUSH1 0xD PUSH1 0x0 DUP3 DUP2 MSTORE PUSH1 0x20 ADD SWAP1 DUP2 MSTORE PUSH1 0x20 ADD PUSH1 0x0 KECCAK256 PUSH1 0x5 ADD PUSH1 0x0 SWAP1 SLOAD SWAP1 PUSH2 0x100 EXP SWAP1 DIV PUSH1 0xFF AND PUSH2 0x1889 JUMPI PUSH1 0x40 MLOAD PUSH32 0x8C379A000000000000000000000000000000000000000000000000000000000 DUP2 MSTORE PUSH1 0x4 ADD PUSH2 0x1880 SWAP1 PUSH2 0x8342 JUMP JUMPDEST PUSH1 0x40 MLOAD DUP1 SWAP2 SUB SWAP1 REVERT JUMPDEST PUSH1 0x1 PUSH1 0xD PUSH1 0x0 DUP4 DUP2 MSTORE PUSH1 0x20 ADD SWAP1 DUP2 MSTORE PUSH1 0x20 ADD PUSH1 0x0 KECCAK256 PUSH1 0x5 ADD PUSH1 0x1 PUSH2 0x100 EXP DUP2 SLOAD DUP2 PUSH1 0xFF MUL NOT AND SWAP1 DUP4 ISZERO ISZERO MUL OR SWAP1 SSTORE POP DUP1 PUSH32 0x2D5BE7B52D85CB6DD0E0011707FA73A2E4DDF68EE282DBF72431A6FC482B4289 PUSH1 0x0 DUP1 PUSH1 0x0 DUP1 PUSH1 0x40 MLOAD PUSH2 0x18F0 SWAP5 SWAP4 SWAP3 SWAP2 SWAP1 PUSH2 0x881A JUMP JUMPDEST PUSH1 0x40 MLOAD DUP1 SWAP2 SUB SWAP1 LOG2 POP JUMP JUMPDEST PUSH2 0x190C PUSH2 0x1906 PUSH2 0x4DAB JUMP JUMPDEST DUP3 PUSH2 0x4E6C JUMP JUMPDEST PUSH2 0x194B JUMPI PUSH1 0x40 MLOAD PUSH32 0x8C379A000000000000000000000000000000000000000000000000000000000 DUP2 MSTORE PUSH1 0x4 ADD PUSH2 0x1942 SWAP1 PUSH2 0x88E4 JUMP JUMPDEST PUSH1 0x40 MLOAD DUP1 SWAP2 SUB SWAP1 REVERT JUMPDEST PUSH2 0x1956 DUP4 DUP4 DUP4 PUSH2 0x4F01 JUMP JUMPDEST POP POP POP JUMP JUMPDEST PUSH1 0x0 DUP2 DUP4 GT ISZERO PUSH2 0x196D JUMPI DUP3 SWAP1 POP PUSH2 0x1971 JUMP JUMPDEST DUP2 SWAP1 POP JUMPDEST SWAP3 SWAP2 POP POP JUMP JUMPDEST ADDRESS PUSH20 0xFFFFFFFFFFFFFFFFFFFFFFFFFFFFFFFFFFFFFFFF AND PUSH1 0x7 PUSH1 0x0 SWAP1 SLOAD SWAP1 PUSH2 0x100 EXP SWAP1 DIV PUSH20 0xFFFFFFFFFFFFFFFFFFFFFFFFFFFFFFFFFFFFFFFF AND PUSH20 0xFFFFFFFFFFFFFFFFFFFFFFFFFFFFFFFFFFFFFFFF AND PUSH4 0x2571BE3 PUSH1 0x9 SLOAD PUSH1 0x40 MLOAD DUP3 PUSH4 0xFFFFFFFF AND PUSH1 0xE0 SHL DUP2 MSTORE PUSH1 0x4 ADD PUSH2 0x19EB SWAP2 SWAP1 PUSH2 0x822F JUMP JUMPDEST PUSH1 0x20 PUSH1 0x40 MLOAD DUP1 DUP4 SUB DUP2 DUP7 GAS STATICCALL ISZERO DUP1 ISZERO PUSH2 0x1A08 JUMPI RETURNDATASIZE PUSH1 0x0 DUP1 RETURNDATACOPY RETURNDATASIZE PUSH1 0x0 REVERT JUMPDEST POP POP POP POP PUSH1 0x40 MLOAD RETURNDATASIZE PUSH1 0x1F NOT PUSH1 0x1F DUP3 ADD AND DUP3 ADD DUP1 PUSH1 0x40 MSTORE POP DUP2 ADD SWAP1 PUSH2 0x1A2C SWAP2 SWAP1 PUSH2 0x8919 JUMP JUMPDEST PUSH20 0xFFFFFFFFFFFFFFFFFFFFFFFFFFFFFFFFFFFFFFFF AND EQ PUSH2 0x1A4C JUMPI PUSH1 0x0 DUP1 REVERT JUMPDEST PUSH1 0x40 MLOAD PUSH32 0x8C379A000000000000000000000000000000000000000000000000000000000 DUP2 MSTORE PUSH1 0x4 ADD PUSH2 0x1A7E SWAP1 PUSH2 0x8992 JUMP JUMPDEST PUSH1 0x40 MLOAD DUP1 SWAP2 SUB SWAP1 REVERT JUMPDEST PUSH1 0x14 SLOAD DUP2 JUMP JUMPDEST PUSH1 0x0 PUSH1 0x11 PUSH1 0x0 PUSH2 0x1A9B PUSH2 0x4DAB JUMP JUMPDEST PUSH20 0xFFFFFFFFFFFFFFFFFFFFFFFFFFFFFFFFFFFFFFFF AND PUSH20 0xFFFFFFFFFFFFFFFFFFFFFFFFFFFFFFFFFFFFFFFF AND DUP2 MSTORE PUSH1 0x20 ADD SWAP1 DUP2 MSTORE PUSH1 0x20 ADD PUSH1 0x0 KECCAK256 PUSH1 0x0 SWAP1 SLOAD SWAP1 PUSH2 0x100 EXP SWAP1 DIV PUSH2 0xFFFF AND PUSH2 0xFFFF AND GT PUSH2 0x1B28 JUMPI PUSH1 0x40 MLOAD PUSH32 0x8C379A000000000000000000000000000000000000000000000000000000000 DUP2 MSTORE PUSH1 0x4 ADD PUSH2 0x1B1F SWAP1 PUSH2 0x8A24 JUMP JUMPDEST PUSH1 0x40 MLOAD DUP1 SWAP2 SUB SWAP1 REVERT JUMPDEST PUSH1 0x13 PUSH1 0x7 SWAP1 SLOAD SWAP1 PUSH2 0x100 EXP SWAP1 DIV PUSH1 0xFF AND ISZERO PUSH2 0x1B42 JUMPI PUSH1 0x0 DUP1 REVERT JUMPDEST PUSH1 0x1 PUSH1 0x13 PUSH1 0x7 PUSH2 0x100 EXP DUP2 SLOAD DUP2 PUSH1 0xFF MUL NOT AND SWAP1 DUP4 ISZERO ISZERO MUL OR SWAP1 SSTORE POP PUSH1 0x0 SELFBALANCE SWAP1 POP PUSH1 0x13 PUSH1 0x4 SWAP1 SLOAD SWAP1 PUSH2 0x100 EXP SWAP1 DIV PUSH2 0xFFFF AND PUSH2 0xFFFF AND DUP2 LT PUSH2 0x1E1D JUMPI PUSH1 0x0 JUMPDEST PUSH1 0x12 DUP1 SLOAD SWAP1 POP DUP2 LT ISZERO PUSH2 0x1E1B JUMPI PUSH1 0x0 PUSH1 0x11 PUSH1 0x0 PUSH1 0x12 DUP5 DUP2 SLOAD DUP2 LT PUSH2 0x1BA7 JUMPI PUSH2 0x1BA6 PUSH2 0x86AB JUMP JUMPDEST JUMPDEST SWAP1 PUSH1 0x0 MSTORE PUSH1 0x20 PUSH1 0x0 KECCAK256 ADD PUSH1 0x0 SWAP1 SLOAD SWAP1 PUSH2 0x100 EXP SWAP1 DIV PUSH20 0xFFFFFFFFFFFFFFFFFFFFFFFFFFFFFFFFFFFFFFFF AND PUSH20 0xFFFFFFFFFFFFFFFFFFFFFFFFFFFFFFFFFFFFFFFF AND PUSH20 0xFFFFFFFFFFFFFFFFFFFFFFFFFFFFFFFFFFFFFFFF AND DUP2 MSTORE PUSH1 0x20 ADD SWAP1 DUP2 MSTORE PUSH1 0x20 ADD PUSH1 0x0 KECCAK256 PUSH1 0x0 SWAP1 SLOAD SWAP1 PUSH2 0x100 EXP SWAP1 DIV PUSH2 0xFFFF AND PUSH2 0xFFFF AND PUSH1 0x13 PUSH1 0x4 SWAP1 SLOAD SWAP1 PUSH2 0x100 EXP SWAP1 DIV PUSH2 0xFFFF AND PUSH2 0xFFFF AND DUP5 PUSH2 0x1C3F SWAP2 SWAP1 PUSH2 0x8A73 JUMP JUMPDEST PUSH2 0x1C49 SWAP2 SWAP1 PUSH2 0x8AA4 JUMP JUMPDEST SWAP1 POP PUSH1 0x12 DUP3 DUP2 SLOAD DUP2 LT PUSH2 0x1C5F JUMPI PUSH2 0x1C5E PUSH2 0x86AB JUMP JUMPDEST JUMPDEST SWAP1 PUSH1 0x0 MSTORE PUSH1 0x20 PUSH1 0x0 KECCAK256 ADD PUSH1 0x0 SWAP1 SLOAD SWAP1 PUSH2 0x100 EXP SWAP1 DIV PUSH20 0xFFFFFFFFFFFFFFFFFFFFFFFFFFFFFFFFFFFFFFFF AND PUSH20 0xFFFFFFFFFFFFFFFFFFFFFFFFFFFFFFFFFFFFFFFF AND PUSH2 0x8FC DUP3 SWAP1 DUP2 ISZERO MUL SWAP1 PUSH1 0x40 MLOAD PUSH1 0x0 PUSH1 0x40 MLOAD DUP1 DUP4 SUB DUP2 DUP6 DUP9 DUP9 CALL SWAP4 POP POP POP POP ISZERO DUP1 ISZERO PUSH2 0x1CCF JUMPI RETURNDATASIZE PUSH1 0x0 DUP1 RETURNDATACOPY RETURNDATASIZE PUSH1 0x0 REVERT JUMPDEST POP DUP1 PUSH1 0x15 PUSH1 0x0 PUSH1 0x12 DUP6 DUP2 SLOAD DUP2 LT PUSH2 0x1CE9 JUMPI PUSH2 0x1CE8 PUSH2 0x86AB JUMP JUMPDEST JUMPDEST SWAP1 PUSH1 0x0 MSTORE PUSH1 0x20 PUSH1 0x0 KECCAK256 ADD PUSH1 0x0 SWAP1 SLOAD SWAP1 PUSH2 0x100 EXP SWAP1 DIV PUSH20 0xFFFFFFFFFFFFFFFFFFFFFFFFFFFFFFFFFFFFFFFF AND PUSH20 0xFFFFFFFFFFFFFFFFFFFFFFFFFFFFFFFFFFFFFFFF AND PUSH20 0xFFFFFFFFFFFFFFFFFFFFFFFFFFFFFFFFFFFFFFFF AND DUP2 MSTORE PUSH1 0x20 ADD SWAP1 DUP2 MSTORE PUSH1 0x20 ADD PUSH1 0x0 KECCAK256 PUSH1 0x0 DUP3 DUP3 SLOAD PUSH2 0x1D5D SWAP2 SWAP1 PUSH2 0x8AE6 JUMP JUMPDEST SWAP3 POP POP DUP2 SWAP1 SSTORE POP PUSH1 0x12 DUP3 DUP2 SLOAD DUP2 LT PUSH2 0x1D78 JUMPI PUSH2 0x1D77 PUSH2 0x86AB JUMP JUMPDEST JUMPDEST SWAP1 PUSH1 0x0 MSTORE PUSH1 0x20 PUSH1 0x0 KECCAK256 ADD PUSH1 0x0 SWAP1 SLOAD SWAP1 PUSH2 0x100 EXP SWAP1 DIV PUSH20 0xFFFFFFFFFFFFFFFFFFFFFFFFFFFFFFFFFFFFFFFF AND PUSH20 0xFFFFFFFFFFFFFFFFFFFFFFFFFFFFFFFFFFFFFFFF AND ADDRESS PUSH20 0xFFFFFFFFFFFFFFFFFFFFFFFFFFFFFFFFFFFFFFFF AND PUSH32 0x9B1BFA7FA9EE420A16E124F794C35AC9F90472ACC99140EB2F6447C714CAD8EB DUP4 PUSH1 0x40 MLOAD PUSH2 0x1DFF SWAP2 SWAP1 PUSH2 0x7870 JUMP JUMPDEST PUSH1 0x40 MLOAD DUP1 SWAP2 SUB SWAP1 LOG3 POP DUP1 DUP1 PUSH2 0x1E13 SWAP1 PUSH2 0x8709 JUMP JUMPDEST SWAP2 POP POP PUSH2 0x1B80 JUMP JUMPDEST POP JUMPDEST PUSH2 0x1E25 PUSH2 0x51FA JUMP JUMPDEST POP PUSH1 0x0 PUSH1 0x13 PUSH1 0x7 PUSH2 0x100 EXP DUP2 SLOAD DUP2 PUSH1 0xFF MUL NOT AND SWAP1 DUP4 ISZERO ISZERO MUL OR SWAP1 SSTORE POP JUMP JUMPDEST PUSH1 0x7 PUSH1 0x0 SWAP1 SLOAD SWAP1 PUSH2 0x100 EXP SWAP1 DIV PUSH20 0xFFFFFFFFFFFFFFFFFFFFFFFFFFFFFFFFFFFFFFFF AND DUP2 JUMP JUMPDEST PUSH2 0x1E84 DUP4 DUP4 DUP4 PUSH1 0x40 MLOAD DUP1 PUSH1 0x20 ADD PUSH1 0x40 MSTORE DUP1 PUSH1 0x0 DUP2 MSTORE POP PUSH2 0x40A5 JUMP JUMPDEST POP POP POP JUMP JUMPDEST PUSH2 0x1E91 PUSH2 0x4C5C JUMP JUMPDEST PUSH1 0x0 DUP2 DUP1 MLOAD SWAP1 PUSH1 0x20 ADD KECCAK256 PUSH1 0x0 SHR SWAP1 POP PUSH1 0xF PUSH1 0x0 DUP3 DUP2 MSTORE PUSH1 0x20 ADD SWAP1 DUP2 MSTORE PUSH1 0x20 ADD PUSH1 0x0 KECCAK256 PUSH1 0x5 ADD PUSH1 0x0 SWAP1 SLOAD SWAP1 PUSH2 0x100 EXP SWAP1 DIV PUSH1 0xFF AND PUSH2 0x1F03 JUMPI PUSH1 0x40 MLOAD PUSH32 0x8C379A000000000000000000000000000000000000000000000000000000000 DUP2 MSTORE PUSH1 0x4 ADD PUSH2 0x1EFA SWAP1 PUSH2 0x8B66 JUMP JUMPDEST PUSH1 0x40 MLOAD DUP1 SWAP2 SUB SWAP1 REVERT JUMPDEST PUSH1 0xF PUSH1 0x0 DUP3 DUP2 MSTORE PUSH1 0x20 ADD SWAP1 DUP2 MSTORE PUSH1 0x20 ADD PUSH1 0x0 KECCAK256 PUSH1 0x5 ADD PUSH1 0x1 SWAP1 SLOAD SWAP1 PUSH2 0x100 EXP SWAP1 DIV PUSH1 0xFF AND ISZERO PUSH2 0x1F67 JUMPI PUSH1 0x40 MLOAD PUSH32 0x8C379A000000000000000000000000000000000000000000000000000000000 DUP2 MSTORE PUSH1 0x4 ADD PUSH2 0x1F5E SWAP1 PUSH2 0x8BD2 JUMP JUMPDEST PUSH1 0x40 MLOAD DUP1 SWAP2 SUB SWAP1 REVERT JUMPDEST PUSH1 0x1 PUSH1 0xF PUSH1 0x0 DUP4 DUP2 MSTORE PUSH1 0x20 ADD SWAP1 DUP2 MSTORE PUSH1 0x20 ADD PUSH1 0x0 KECCAK256 PUSH1 0x5 ADD PUSH1 0x1 PUSH2 0x100 EXP DUP2 SLOAD DUP2 PUSH1 0xFF MUL NOT AND SWAP1 DUP4 ISZERO ISZERO MUL OR SWAP1 SSTORE POP PUSH32 0x363C4E9DC3FE783B52D85AD02045D37CBCC27DED5AA54126FFBB46265EE325F7 DUP3 PUSH1 0x40 MLOAD PUSH2 0x1FC5 SWAP2 SWAP1 PUSH2 0x8C3E JUMP JUMPDEST PUSH1 0x40 MLOAD DUP1 SWAP2 SUB SWAP1 LOG1 POP POP JUMP JUMPDEST PUSH1 0x15 PUSH1 0x20 MSTORE DUP1 PUSH1 0x0 MSTORE PUSH1 0x40 PUSH1 0x0 KECCAK256 PUSH1 0x0 SWAP2 POP SWAP1 POP SLOAD DUP2 JUMP JUMPDEST PUSH2 0x1FF1 PUSH2 0x4C5C JUMP JUMPDEST PUSH1 0x7 PUSH1 0x0 SWAP1 SLOAD SWAP1 PUSH2 0x100 EXP SWAP1 DIV PUSH20 0xFFFFFFFFFFFFFFFFFFFFFFFFFFFFFFFFFFFFFFFF AND PUSH20 0xFFFFFFFFFFFFFFFFFFFFFFFFFFFFFFFFFFFFFFFF AND PUSH4 0x1896F70A PUSH1 0x9 SLOAD DUP4 PUSH1 0x40 MLOAD DUP4 PUSH4 0xFFFFFFFF AND PUSH1 0xE0 SHL DUP2 MSTORE PUSH1 0x4 ADD PUSH2 0x2050 SWAP3 SWAP2 SWAP1 PUSH2 0x8C73 JUMP JUMPDEST PUSH1 0x0 PUSH1 0x40 MLOAD DUP1 DUP4 SUB DUP2 PUSH1 0x0 DUP8 DUP1 EXTCODESIZE ISZERO DUP1 ISZERO PUSH2 0x206A JUMPI PUSH1 0x0 DUP1 REVERT JUMPDEST POP GAS CALL ISZERO DUP1 ISZERO PUSH2 0x207E JUMPI RETURNDATASIZE PUSH1 0x0 DUP1 RETURNDATACOPY RETURNDATASIZE PUSH1 0x0 REVERT JUMPDEST POP POP POP POP POP JUMP JUMPDEST PUSH1 0x0 DUP1 PUSH1 0x0 SWAP1 POP PUSH1 0x0 JUMPDEST PUSH1 0x14 DUP2 LT ISZERO PUSH2 0x20B4 JUMPI PUSH2 0x20A0 PUSH2 0x47DC JUMP JUMPDEST POP DUP1 DUP1 PUSH2 0x20AC SWAP1 PUSH2 0x8709 JUMP JUMPDEST SWAP2 POP POP PUSH2 0x208F JUMP JUMPDEST POP DUP1 SWAP2 POP POP SWAP1 JUMP JUMPDEST PUSH1 0x0 PUSH1 0x11 PUSH1 0x0 PUSH2 0x20CA PUSH2 0x4DAB JUMP JUMPDEST PUSH20 0xFFFFFFFFFFFFFFFFFFFFFFFFFFFFFFFFFFFFFFFF AND PUSH20 0xFFFFFFFFFFFFFFFFFFFFFFFFFFFFFFFFFFFFFFFF AND DUP2 MSTORE PUSH1 0x20 ADD SWAP1 DUP2 MSTORE PUSH1 0x20 ADD PUSH1 0x0 KECCAK256 PUSH1 0x0 SWAP1 SLOAD SWAP1 PUSH2 0x100 EXP SWAP1 DIV PUSH2 0xFFFF AND PUSH2 0xFFFF AND GT PUSH2 0x2157 JUMPI PUSH1 0x40 MLOAD PUSH32 0x8C379A000000000000000000000000000000000000000000000000000000000 DUP2 MSTORE PUSH1 0x4 ADD PUSH2 0x214E SWAP1 PUSH2 0x8A24 JUMP JUMPDEST PUSH1 0x40 MLOAD DUP1 SWAP2 SUB SWAP1 REVERT JUMPDEST PUSH1 0x13 PUSH1 0x4 SWAP1 SLOAD SWAP1 PUSH2 0x100 EXP SWAP1 DIV PUSH2 0xFFFF AND PUSH2 0xFFFF AND SELFBALANCE LT PUSH2 0x21AD JUMPI PUSH1 0x40 MLOAD PUSH32 0x8C379A000000000000000000000000000000000000000000000000000000000 DUP2 MSTORE PUSH1 0x4 ADD PUSH2 0x21A4 SWAP1 PUSH2 0x8CE8 JUMP JUMPDEST PUSH1 0x40 MLOAD DUP1 SWAP2 SUB SWAP1 REVERT JUMPDEST PUSH1 0x0 JUMPDEST DUP2 MLOAD DUP2 LT ISZERO PUSH2 0x2517 JUMPI PUSH1 0x13 PUSH1 0x2 SWAP1 SLOAD SWAP1 PUSH2 0x100 EXP SWAP1 DIV PUSH2 0xFFFF AND PUSH2 0xFFFF AND DUP3 DUP3 DUP2 MLOAD DUP2 LT PUSH2 0x21E1 JUMPI PUSH2 0x21E0 PUSH2 0x86AB JUMP JUMPDEST JUMPDEST PUSH1 0x20 MUL PUSH1 0x20 ADD ADD MLOAD PUSH1 0x20 ADD MLOAD PUSH2 0xFFFF AND LT ISZERO DUP1 ISZERO PUSH2 0x2279 JUMPI POP PUSH1 0x11 PUSH1 0x0 PUSH2 0x2206 PUSH2 0x4DAB JUMP JUMPDEST PUSH20 0xFFFFFFFFFFFFFFFFFFFFFFFFFFFFFFFFFFFFFFFF AND PUSH20 0xFFFFFFFFFFFFFFFFFFFFFFFFFFFFFFFFFFFFFFFF AND DUP2 MSTORE PUSH1 0x20 ADD SWAP1 DUP2 MSTORE PUSH1 0x20 ADD PUSH1 0x0 KECCAK256 PUSH1 0x0 SWAP1 SLOAD SWAP1 PUSH2 0x100 EXP SWAP1 DIV PUSH2 0xFFFF AND PUSH2 0xFFFF AND DUP3 DUP3 DUP2 MLOAD DUP2 LT PUSH2 0x2266 JUMPI PUSH2 0x2265 PUSH2 0x86AB JUMP JUMPDEST JUMPDEST PUSH1 0x20 MUL PUSH1 0x20 ADD ADD MLOAD PUSH1 0x20 ADD MLOAD PUSH2 0xFFFF AND GT ISZERO JUMPDEST PUSH2 0x22B8 JUMPI PUSH1 0x40 MLOAD PUSH32 0x8C379A000000000000000000000000000000000000000000000000000000000 DUP2 MSTORE PUSH1 0x4 ADD PUSH2 0x22AF SWAP1 PUSH2 0x8D54 JUMP JUMPDEST PUSH1 0x40 MLOAD DUP1 SWAP2 SUB SWAP1 REVERT JUMPDEST PUSH1 0x0 PUSH1 0x11 PUSH1 0x0 DUP5 DUP5 DUP2 MLOAD DUP2 LT PUSH2 0x22D1 JUMPI PUSH2 0x22D0 PUSH2 0x86AB JUMP JUMPDEST JUMPDEST PUSH1 0x20 MUL PUSH1 0x20 ADD ADD MLOAD PUSH1 0x0 ADD MLOAD PUSH20 0xFFFFFFFFFFFFFFFFFFFFFFFFFFFFFFFFFFFFFFFF AND PUSH20 0xFFFFFFFFFFFFFFFFFFFFFFFFFFFFFFFFFFFFFFFF AND DUP2 MSTORE PUSH1 0x20 ADD SWAP1 DUP2 MSTORE PUSH1 0x20 ADD PUSH1 0x0 KECCAK256 PUSH1 0x0 SWAP1 SLOAD SWAP1 PUSH2 0x100 EXP SWAP1 DIV PUSH2 0xFFFF AND PUSH2 0xFFFF AND SWAP1 POP DUP3 DUP3 DUP2 MLOAD DUP2 LT PUSH2 0x233F JUMPI PUSH2 0x233E PUSH2 0x86AB JUMP JUMPDEST JUMPDEST PUSH1 0x20 MUL PUSH1 0x20 ADD ADD MLOAD PUSH1 0x20 ADD MLOAD PUSH1 0x11 PUSH1 0x0 PUSH2 0x2357 PUSH2 0x4DAB JUMP JUMPDEST PUSH20 0xFFFFFFFFFFFFFFFFFFFFFFFFFFFFFFFFFFFFFFFF AND PUSH20 0xFFFFFFFFFFFFFFFFFFFFFFFFFFFFFFFFFFFFFFFF AND DUP2 MSTORE PUSH1 0x20 ADD SWAP1 DUP2 MSTORE PUSH1 0x20 ADD PUSH1 0x0 KECCAK256 PUSH1 0x0 DUP3 DUP3 DUP3 SWAP1 SLOAD SWAP1 PUSH2 0x100 EXP SWAP1 DIV PUSH2 0xFFFF AND PUSH2 0x23AD SWAP2 SWAP1 PUSH2 0x8D74 JUMP JUMPDEST SWAP3 POP PUSH2 0x100 EXP DUP2 SLOAD DUP2 PUSH2 0xFFFF MUL NOT AND SWAP1 DUP4 PUSH2 0xFFFF AND MUL OR SWAP1 SSTORE POP PUSH1 0x0 DUP2 SUB PUSH2 0x2451 JUMPI PUSH1 0x12 DUP4 DUP4 DUP2 MLOAD DUP2 LT PUSH2 0x23E4 JUMPI PUSH2 0x23E3 PUSH2 0x86AB JUMP JUMPDEST JUMPDEST PUSH1 0x20 MUL PUSH1 0x20 ADD ADD MLOAD PUSH1 0x0 ADD MLOAD SWAP1 DUP1 PUSH1 0x1 DUP2 SLOAD ADD DUP1 DUP3 SSTORE DUP1 SWAP2 POP POP PUSH1 0x1 SWAP1 SUB SWAP1 PUSH1 0x0 MSTORE PUSH1 0x20 PUSH1 0x0 KECCAK256 ADD PUSH1 0x0 SWAP1 SWAP2 SWAP1 SWAP2 SWAP1 SWAP2 PUSH2 0x100 EXP DUP2 SLOAD DUP2 PUSH20 0xFFFFFFFFFFFFFFFFFFFFFFFFFFFFFFFFFFFFFFFF MUL NOT AND SWAP1 DUP4 PUSH20 0xFFFFFFFFFFFFFFFFFFFFFFFFFFFFFFFFFFFFFFFF AND MUL OR SWAP1 SSTORE POP JUMPDEST DUP3 DUP3 DUP2 MLOAD DUP2 LT PUSH2 0x2464 JUMPI PUSH2 0x2463 PUSH2 0x86AB JUMP JUMPDEST JUMPDEST PUSH1 0x20 MUL PUSH1 0x20 ADD ADD MLOAD PUSH1 0x20 ADD MLOAD PUSH1 0x11 PUSH1 0x0 DUP6 DUP6 DUP2 MLOAD DUP2 LT PUSH2 0x2487 JUMPI PUSH2 0x2486 PUSH2 0x86AB JUMP JUMPDEST JUMPDEST PUSH1 0x20 MUL PUSH1 0x20 ADD ADD MLOAD PUSH1 0x0 ADD MLOAD PUSH20 0xFFFFFFFFFFFFFFFFFFFFFFFFFFFFFFFFFFFFFFFF AND PUSH20 0xFFFFFFFFFFFFFFFFFFFFFFFFFFFFFFFFFFFFFFFF AND DUP2 MSTORE PUSH1 0x20 ADD SWAP1 DUP2 MSTORE PUSH1 0x20 ADD PUSH1 0x0 KECCAK256 PUSH1 0x0 DUP3 DUP3 DUP3 SWAP1 SLOAD SWAP1 PUSH2 0x100 EXP SWAP1 DIV PUSH2 0xFFFF AND PUSH2 0x24E9 SWAP2 SWAP1 PUSH2 0x8DAA JUMP JUMPDEST SWAP3 POP PUSH2 0x100 EXP DUP2 SLOAD DUP2 PUSH2 0xFFFF MUL NOT AND SWAP1 DUP4 PUSH2 0xFFFF AND MUL OR SWAP1 SSTORE POP POP DUP1 DUP1 PUSH2 0x250F SWAP1 PUSH2 0x8709 JUMP JUMPDEST SWAP2 POP POP PUSH2 0x21B0 JUMP JUMPDEST POP PUSH1 0x0 PUSH1 0x11 PUSH1 0x0 PUSH2 0x2526 PUSH2 0x4DAB JUMP JUMPDEST PUSH20 0xFFFFFFFFFFFFFFFFFFFFFFFFFFFFFFFFFFFFFFFF AND PUSH20 0xFFFFFFFFFFFFFFFFFFFFFFFFFFFFFFFFFFFFFFFF AND DUP2 MSTORE PUSH1 0x20 ADD SWAP1 DUP2 MSTORE PUSH1 0x20 ADD PUSH1 0x0 KECCAK256 PUSH1 0x0 SWAP1 SLOAD SWAP1 PUSH2 0x100 EXP SWAP1 DIV PUSH2 0xFFFF AND PUSH2 0xFFFF AND EQ DUP1 PUSH2 0x25EB JUMPI POP PUSH1 0x13 PUSH1 0x2 SWAP1 SLOAD SWAP1 PUSH2 0x100 EXP SWAP1 DIV PUSH2 0xFFFF AND PUSH2 0xFFFF AND PUSH1 0x11 PUSH1 0x0 PUSH2 0x259B PUSH2 0x4DAB JUMP JUMPDEST PUSH20 0xFFFFFFFFFFFFFFFFFFFFFFFFFFFFFFFFFFFFFFFF AND PUSH20 0xFFFFFFFFFFFFFFFFFFFFFFFFFFFFFFFFFFFFFFFF AND DUP2 MSTORE PUSH1 0x20 ADD SWAP1 DUP2 MSTORE PUSH1 0x20 ADD PUSH1 0x0 KECCAK256 PUSH1 0x0 SWAP1 SLOAD SWAP1 PUSH2 0x100 EXP SWAP1 DIV PUSH2 0xFFFF AND PUSH2 0xFFFF AND LT ISZERO JUMPDEST PUSH2 0x262A JUMPI PUSH1 0x40 MLOAD PUSH32 0x8C379A000000000000000000000000000000000000000000000000000000000 DUP2 MSTORE PUSH1 0x4 ADD PUSH2 0x2621 SWAP1 PUSH2 0x8E2C JUMP JUMPDEST PUSH1 0x40 MLOAD DUP1 SWAP2 SUB SWAP1 REVERT JUMPDEST PUSH1 0x0 PUSH1 0x11 PUSH1 0x0 PUSH2 0x2638 PUSH2 0x4DAB JUMP JUMPDEST PUSH20 0xFFFFFFFFFFFFFFFFFFFFFFFFFFFFFFFFFFFFFFFF AND PUSH20 0xFFFFFFFFFFFFFFFFFFFFFFFFFFFFFFFFFFFFFFFF AND DUP2 MSTORE PUSH1 0x20 ADD SWAP1 DUP2 MSTORE PUSH1 0x20 ADD PUSH1 0x0 KECCAK256 PUSH1 0x0 SWAP1 SLOAD SWAP1 PUSH2 0x100 EXP SWAP1 DIV PUSH2 0xFFFF AND PUSH2 0xFFFF AND SUB PUSH2 0x269B JUMPI PUSH2 0x269A PUSH2 0x2695 PUSH2 0x4DAB JUMP JUMPDEST PUSH2 0x5342 JUMP JUMPDEST JUMPDEST PUSH1 0x13 PUSH1 0x0 SWAP1 SLOAD SWAP1 PUSH2 0x100 EXP SWAP1 DIV PUSH2 0xFFFF AND PUSH2 0xFFFF AND PUSH1 0x12 DUP1 SLOAD SWAP1 POP GT ISZERO PUSH2 0x26F7 JUMPI PUSH1 0x40 MLOAD PUSH32 0x8C379A000000000000000000000000000000000000000000000000000000000 DUP2 MSTORE PUSH1 0x4 ADD PUSH2 0x26EE SWAP1 PUSH2 0x8E98 JUMP JUMPDEST PUSH1 0x40 MLOAD DUP1 SWAP2 SUB SWAP1 REVERT JUMPDEST PUSH32 0xB4401F7FF72A1EE5D63DA4A8CC041AF040AD9F24E50BECA9BC095652591F1991 DUP2 PUSH1 0x40 MLOAD PUSH2 0x2726 SWAP2 SWAP1 PUSH2 0x8FB4 JUMP JUMPDEST PUSH1 0x40 MLOAD DUP1 SWAP2 SUB SWAP1 LOG1 POP JUMP JUMPDEST PUSH1 0x0 TIMESTAMP PUSH1 0x16 PUSH1 0x0 DUP5 DUP2 MSTORE PUSH1 0x20 ADD SWAP1 DUP2 MSTORE PUSH1 0x20 ADD PUSH1 0x0 KECCAK256 SLOAD GT PUSH2 0x2752 JUMPI PUSH1 0x0 DUP1 REVERT JUMPDEST PUSH2 0x275B DUP3 PUSH2 0x4D25 JUMP JUMPDEST SWAP1 POP SWAP2 SWAP1 POP JUMP JUMPDEST PUSH1 0x0 DUP1 PUSH1 0x10 DUP1 SLOAD SWAP1 POP SUB PUSH2 0x2775 JUMPI PUSH1 0x9 SWAP1 POP JUMPDEST POP JUMP JUMPDEST PUSH2 0x2780 PUSH2 0x4C5C JUMP JUMPDEST DUP4 DUP3 PUSH1 0x0 DUP3 GT DUP1 PUSH2 0x2791 JUMPI POP PUSH1 0x0 DUP2 GT JUMPDEST PUSH2 0x27D0 JUMPI PUSH1 0x40 MLOAD PUSH32 0x8C379A000000000000000000000000000000000000000000000000000000000 DUP2 MSTORE PUSH1 0x4 ADD PUSH2 0x27C7 SWAP1 PUSH2 0x82D6 JUMP JUMPDEST PUSH1 0x40 MLOAD DUP1 SWAP2 SUB SWAP1 REVERT JUMPDEST PUSH1 0x0 DUP8 DUP1 MLOAD SWAP1 PUSH1 0x20 ADD KECCAK256 PUSH1 0x0 SHR SWAP1 POP PUSH1 0xF PUSH1 0x0 DUP3 DUP2 MSTORE PUSH1 0x20 ADD SWAP1 DUP2 MSTORE PUSH1 0x20 ADD PUSH1 0x0 KECCAK256 PUSH1 0x5 ADD PUSH1 0x0 SWAP1 SLOAD SWAP1 PUSH2 0x100 EXP SWAP1 DIV PUSH1 0xFF AND PUSH2 0x2842 JUMPI PUSH1 0x40 MLOAD PUSH32 0x8C379A000000000000000000000000000000000000000000000000000000000 DUP2 MSTORE PUSH1 0x4 ADD PUSH2 0x2839 SWAP1 PUSH2 0x8B66 JUMP JUMPDEST PUSH1 0x40 MLOAD DUP1 SWAP2 SUB SWAP1 REVERT JUMPDEST DUP7 PUSH1 0xF PUSH1 0x0 DUP4 DUP2 MSTORE PUSH1 0x20 ADD SWAP1 DUP2 MSTORE PUSH1 0x20 ADD PUSH1 0x0 KECCAK256 PUSH1 0x1 ADD DUP2 SWAP1 SSTORE POP DUP6 PUSH1 0xF PUSH1 0x0 DUP4 DUP2 MSTORE PUSH1 0x20 ADD SWAP1 DUP2 MSTORE PUSH1 0x20 ADD PUSH1 0x0 KECCAK256 PUSH1 0x2 ADD DUP2 SWAP1 SSTORE POP PUSH1 0x1 PUSH1 0xF PUSH1 0x0 DUP4 DUP2 MSTORE PUSH1 0x20 ADD SWAP1 DUP2 MSTORE PUSH1 0x20 ADD PUSH1 0x0 KECCAK256 PUSH1 0x5 ADD PUSH1 0x0 PUSH2 0x100 EXP DUP2 SLOAD DUP2 PUSH1 0xFF MUL NOT AND SWAP1 DUP4 ISZERO ISZERO MUL OR SWAP1 SSTORE POP DUP5 PUSH1 0xF PUSH1 0x0 DUP4 DUP2 MSTORE PUSH1 0x20 ADD SWAP1 DUP2 MSTORE PUSH1 0x20 ADD PUSH1 0x0 KECCAK256 PUSH1 0x3 ADD DUP2 SWAP1 SSTORE POP DUP4 PUSH1 0xF PUSH1 0x0 DUP4 DUP2 MSTORE PUSH1 0x20 ADD SWAP1 DUP2 MSTORE PUSH1 0x20 ADD PUSH1 0x0 KECCAK256 PUSH1 0x4 ADD DUP2 SWAP1 SSTORE POP PUSH1 0x10 DUP2 SWAP1 DUP1 PUSH1 0x1 DUP2 SLOAD ADD DUP1 DUP3 SSTORE DUP1 SWAP2 POP POP PUSH1 0x1 SWAP1 SUB SWAP1 PUSH1 0x0 MSTORE PUSH1 0x20 PUSH1 0x0 KECCAK256 ADD PUSH1 0x0 SWAP1 SWAP2 SWAP1 SWAP2 SWAP1 SWAP2 POP SSTORE PUSH32 0x99E276693A0830687191493F52E13B0A2FF7E6B723E54757DD5EBDBF45CD1F5C DUP9 DUP9 DUP9 DUP9 DUP9 PUSH1 0x40 MLOAD PUSH2 0x293D SWAP6 SWAP5 SWAP4 SWAP3 SWAP2 SWAP1 PUSH2 0x9022 JUMP JUMPDEST PUSH1 0x40 MLOAD DUP1 SWAP2 SUB SWAP1 LOG1 POP POP POP POP POP POP POP POP JUMP JUMPDEST PUSH1 0x0 DUP1 PUSH20 0xFFFFFFFFFFFFFFFFFFFFFFFFFFFFFFFFFFFFFFFF AND DUP3 PUSH20 0xFFFFFFFFFFFFFFFFFFFFFFFFFFFFFFFFFFFFFFFF AND SUB PUSH2 0x29BF JUMPI PUSH1 0x40 MLOAD PUSH32 0x8C379A000000000000000000000000000000000000000000000000000000000 DUP2 MSTORE PUSH1 0x4 ADD PUSH2 0x29B6 SWAP1 PUSH2 0x9101 JUMP JUMPDEST PUSH1 0x40 MLOAD DUP1 SWAP2 SUB SWAP1 REVERT JUMPDEST PUSH1 0x3 PUSH1 0x0 DUP4 PUSH20 0xFFFFFFFFFFFFFFFFFFFFFFFFFFFFFFFFFFFFFFFF AND PUSH20 0xFFFFFFFFFFFFFFFFFFFFFFFFFFFFFFFFFFFFFFFF AND DUP2 MSTORE PUSH1 0x20 ADD SWAP1 DUP2 MSTORE PUSH1 0x20 ADD PUSH1 0x0 KECCAK256 SLOAD SWAP1 POP SWAP2 SWAP1 POP JUMP JUMPDEST PUSH2 0x2A0E PUSH2 0x4C5C JUMP JUMPDEST PUSH2 0x2A18 PUSH1 0x0 PUSH2 0x55BF JUMP JUMPDEST JUMP JUMPDEST PUSH1 0x0 DUP1 PUSH1 0x10 DUP1 SLOAD SWAP1 POP SUB PUSH2 0x2A31 JUMPI PUSH1 0x0 SWAP1 POP PUSH2 0x2C91 JUMP JUMPDEST PUSH1 0x0 DUP1 DUP4 DUP1 MLOAD SWAP1 PUSH1 0x20 ADD KECCAK256 PUSH1 0x0 SHR SWAP1 POP PUSH1 0x8 PUSH1 0x0 SWAP1 SLOAD SWAP1 PUSH2 0x100 EXP SWAP1 DIV PUSH20 0xFFFFFFFFFFFFFFFFFFFFFFFFFFFFFFFFFFFFFFFF AND PUSH20 0xFFFFFFFFFFFFFFFFFFFFFFFFFFFFFFFFFFFFFFFF AND PUSH4 0x33CB2E33 DUP3 PUSH1 0x40 MLOAD DUP3 PUSH4 0xFFFFFFFF AND PUSH1 0xE0 SHL DUP2 MSTORE PUSH1 0x4 ADD PUSH2 0x2A9C SWAP2 SWAP1 PUSH2 0x7870 JUMP JUMPDEST PUSH1 0x20 PUSH1 0x40 MLOAD DUP1 DUP4 SUB DUP2 PUSH1 0x0 DUP8 GAS CALL ISZERO DUP1 ISZERO PUSH2 0x2ABB JUMPI RETURNDATASIZE PUSH1 0x0 DUP1 RETURNDATACOPY RETURNDATASIZE PUSH1 0x0 REVERT JUMPDEST POP POP POP POP PUSH1 0x40 MLOAD RETURNDATASIZE PUSH1 0x1F NOT PUSH1 0x1F DUP3 ADD AND DUP3 ADD DUP1 PUSH1 0x40 MSTORE POP DUP2 ADD SWAP1 PUSH2 0x2ADF SWAP2 SWAP1 PUSH2 0x8766 JUMP JUMPDEST PUSH2 0x2AEE JUMPI PUSH1 0x0 SWAP3 POP POP POP PUSH2 0x2C91 JUMP JUMPDEST PUSH1 0x0 PUSH1 0x8 PUSH1 0x0 SWAP1 SLOAD SWAP1 PUSH2 0x100 EXP SWAP1 DIV PUSH20 0xFFFFFFFFFFFFFFFFFFFFFFFFFFFFFFFFFFFFFFFF AND PUSH20 0xFFFFFFFFFFFFFFFFFFFFFFFFFFFFFFFFFFFFFFFF AND PUSH4 0xE378ADD6 DUP4 PUSH1 0x40 MLOAD DUP3 PUSH4 0xFFFFFFFF AND PUSH1 0xE0 SHL DUP2 MSTORE PUSH1 0x4 ADD PUSH2 0x2B4B SWAP2 SWAP1 PUSH2 0x7870 JUMP JUMPDEST PUSH1 0x0 PUSH1 0x40 MLOAD DUP1 DUP4 SUB DUP2 PUSH1 0x0 DUP8 GAS CALL ISZERO DUP1 ISZERO PUSH2 0x2B6A JUMPI RETURNDATASIZE PUSH1 0x0 DUP1 RETURNDATACOPY RETURNDATASIZE PUSH1 0x0 REVERT JUMPDEST POP POP POP POP PUSH1 0x40 MLOAD RETURNDATASIZE PUSH1 0x0 DUP3 RETURNDATACOPY RETURNDATASIZE PUSH1 0x1F NOT PUSH1 0x1F DUP3 ADD AND DUP3 ADD DUP1 PUSH1 0x40 MSTORE POP DUP2 ADD SWAP1 PUSH2 0x2B93 SWAP2 SWAP1 PUSH2 0x8662 JUMP JUMPDEST SWAP1 POP PUSH1 0x0 JUMPDEST DUP2 MLOAD DUP2 LT ISZERO PUSH2 0x2C89 JUMPI PUSH1 0xF PUSH1 0x0 DUP4 DUP4 DUP2 MLOAD DUP2 LT PUSH2 0x2BB8 JUMPI PUSH2 0x2BB7 PUSH2 0x86AB JUMP JUMPDEST JUMPDEST PUSH1 0x20 MUL PUSH1 0x20 ADD ADD MLOAD DUP2 MSTORE PUSH1 0x20 ADD SWAP1 DUP2 MSTORE PUSH1 0x20 ADD PUSH1 0x0 KECCAK256 PUSH1 0x5 ADD PUSH1 0x1 SWAP1 SLOAD SWAP1 PUSH2 0x100 EXP SWAP1 DIV PUSH1 0xFF AND DUP1 PUSH2 0x2C60 JUMPI POP PUSH1 0xF PUSH1 0x0 DUP4 DUP4 DUP2 MLOAD DUP2 LT PUSH2 0x2BFC JUMPI PUSH2 0x2BFB PUSH2 0x86AB JUMP JUMPDEST JUMPDEST PUSH1 0x20 MUL PUSH1 0x20 ADD ADD MLOAD DUP2 MSTORE PUSH1 0x20 ADD SWAP1 DUP2 MSTORE PUSH1 0x20 ADD PUSH1 0x0 KECCAK256 PUSH1 0x5 ADD PUSH1 0x0 SWAP1 SLOAD SWAP1 PUSH2 0x100 EXP SWAP1 DIV PUSH1 0xFF AND ISZERO DUP1 ISZERO PUSH2 0x2C5F JUMPI POP TIMESTAMP PUSH1 0xF PUSH1 0x0 DUP5 DUP5 DUP2 MLOAD DUP2 LT PUSH2 0x2C43 JUMPI PUSH2 0x2C42 PUSH2 0x86AB JUMP JUMPDEST JUMPDEST PUSH1 0x20 MUL PUSH1 0x20 ADD ADD MLOAD DUP2 MSTORE PUSH1 0x20 ADD SWAP1 DUP2 MSTORE PUSH1 0x20 ADD PUSH1 0x0 KECCAK256 PUSH1 0x2 ADD SLOAD GT JUMPDEST JUMPDEST ISZERO PUSH2 0x2C72 JUMPI PUSH1 0x0 SWAP5 POP POP POP POP POP PUSH2 0x2C91 JUMP JUMPDEST PUSH1 0x1 SWAP4 POP DUP1 DUP1 PUSH2 0x2C81 SWAP1 PUSH2 0x8709 JUMP JUMPDEST SWAP2 POP POP PUSH2 0x2B98 JUMP JUMPDEST POP DUP3 SWAP4 POP POP POP POP JUMPDEST SWAP2 SWAP1 POP JUMP JUMPDEST PUSH2 0x2C9E PUSH2 0x4C5C JUMP JUMPDEST PUSH1 0x0 JUMPDEST DUP2 MLOAD DUP2 LT ISZERO PUSH2 0x2DB7 JUMPI PUSH1 0x0 DUP3 DUP3 DUP2 MLOAD DUP2 LT PUSH2 0x2CBF JUMPI PUSH2 0x2CBE PUSH2 0x86AB JUMP JUMPDEST JUMPDEST PUSH1 0x20 MUL PUSH1 0x20 ADD ADD MLOAD DUP1 MLOAD SWAP1 PUSH1 0x20 ADD KECCAK256 PUSH1 0x0 SHR SWAP1 POP PUSH1 0x8 PUSH1 0x0 SWAP1 SLOAD SWAP1 PUSH2 0x100 EXP SWAP1 DIV PUSH20 0xFFFFFFFFFFFFFFFFFFFFFFFFFFFFFFFFFFFFFFFF AND PUSH20 0xFFFFFFFFFFFFFFFFFFFFFFFFFFFFFFFFFFFFFFFF AND PUSH4 0x5AA7A868 DUP3 PUSH1 0x40 MLOAD DUP3 PUSH4 0xFFFFFFFF AND PUSH1 0xE0 SHL DUP2 MSTORE PUSH1 0x4 ADD PUSH2 0x2D2E SWAP2 SWAP1 PUSH2 0x7870 JUMP JUMPDEST PUSH1 0x20 PUSH1 0x40 MLOAD DUP1 DUP4 SUB DUP2 PUSH1 0x0 DUP8 GAS CALL ISZERO DUP1 ISZERO PUSH2 0x2D4D JUMPI RETURNDATASIZE PUSH1 0x0 DUP1 RETURNDATACOPY RETURNDATASIZE PUSH1 0x0 REVERT JUMPDEST POP POP POP POP PUSH1 0x40 MLOAD RETURNDATASIZE PUSH1 0x1F NOT PUSH1 0x1F DUP3 ADD AND DUP3 ADD DUP1 PUSH1 0x40 MSTORE POP DUP2 ADD SWAP1 PUSH2 0x2D71 SWAP2 SWAP1 PUSH2 0x8766 JUMP JUMPDEST ISZERO PUSH2 0x2DA3 JUMPI PUSH1 0x0 PUSH1 0xC PUSH1 0x0 DUP4 DUP2 MSTORE PUSH1 0x20 ADD SWAP1 DUP2 MSTORE PUSH1 0x20 ADD PUSH1 0x0 KECCAK256 PUSH1 0x0 PUSH2 0x100 EXP DUP2 SLOAD DUP2 PUSH1 0xFF MUL NOT AND SWAP1 DUP4 ISZERO ISZERO MUL OR SWAP1 SSTORE POP JUMPDEST POP DUP1 DUP1 PUSH2 0x2DAF SWAP1 PUSH2 0x8709 JUMP JUMPDEST SWAP2 POP POP PUSH2 0x2CA1 JUMP JUMPDEST POP POP JUMP JUMPDEST PUSH1 0x0 PUSH2 0x2DC5 PUSH2 0x4DAB JUMP JUMPDEST PUSH20 0xFFFFFFFFFFFFFFFFFFFFFFFFFFFFFFFFFFFFFFFF AND PUSH2 0x2DE3 PUSH2 0x3338 JUMP JUMPDEST PUSH20 0xFFFFFFFFFFFFFFFFFFFFFFFFFFFFFFFFFFFFFFFF AND EQ DUP1 PUSH2 0x2E5D JUMPI POP PUSH1 0x0 PUSH1 0x11 PUSH1 0x0 PUSH2 0x2E0E PUSH2 0x4DAB JUMP JUMPDEST PUSH20 0xFFFFFFFFFFFFFFFFFFFFFFFFFFFFFFFFFFFFFFFF AND PUSH20 0xFFFFFFFFFFFFFFFFFFFFFFFFFFFFFFFFFFFFFFFF AND DUP2 MSTORE PUSH1 0x20 ADD SWAP1 DUP2 MSTORE PUSH1 0x20 ADD PUSH1 0x0 KECCAK256 PUSH1 0x0 SWAP1 SLOAD SWAP1 PUSH2 0x100 EXP SWAP1 DIV PUSH2 0xFFFF AND PUSH2 0xFFFF AND GT JUMPDEST PUSH2 0x2E9C JUMPI PUSH1 0x40 MLOAD PUSH32 0x8C379A000000000000000000000000000000000000000000000000000000000 DUP2 MSTORE PUSH1 0x4 ADD PUSH2 0x2E93 SWAP1 PUSH2 0x8A24 JUMP JUMPDEST PUSH1 0x40 MLOAD DUP1 SWAP2 SUB SWAP1 REVERT JUMPDEST PUSH1 0x11 PUSH1 0x0 DUP4 PUSH20 0xFFFFFFFFFFFFFFFFFFFFFFFFFFFFFFFFFFFFFFFF AND PUSH20 0xFFFFFFFFFFFFFFFFFFFFFFFFFFFFFFFFFFFFFFFF AND DUP2 MSTORE PUSH1 0x20 ADD SWAP1 DUP2 MSTORE PUSH1 0x20 ADD PUSH1 0x0 KECCAK256 PUSH1 0x0 SWAP1 SLOAD SWAP1 PUSH2 0x100 EXP SWAP1 DIV PUSH2 0xFFFF AND SWAP1 POP SWAP2 SWAP1 POP JUMP JUMPDEST PUSH1 0x0 DUP1 DUP4 SWAP1 POP PUSH1 0x0 DUP4 SWAP1 POP DUP1 MLOAD DUP3 MLOAD EQ PUSH2 0x2F10 JUMPI PUSH1 0x0 SWAP3 POP POP POP PUSH2 0x2FC8 JUMP JUMPDEST PUSH1 0x0 JUMPDEST DUP3 MLOAD DUP2 LT ISZERO PUSH2 0x2FC0 JUMPI DUP2 DUP2 DUP2 MLOAD DUP2 LT PUSH2 0x2F2F JUMPI PUSH2 0x2F2E PUSH2 0x86AB JUMP JUMPDEST JUMPDEST PUSH1 0x20 ADD ADD MLOAD PUSH1 0xF8 SHR PUSH1 0xF8 SHL PUSH31 0xFFFFFFFFFFFFFFFFFFFFFFFFFFFFFFFFFFFFFFFFFFFFFFFFFFFFFFFFFFFFFF NOT AND DUP4 DUP3 DUP2 MLOAD DUP2 LT PUSH2 0x2F6F JUMPI PUSH2 0x2F6E PUSH2 0x86AB JUMP JUMPDEST JUMPDEST PUSH1 0x20 ADD ADD MLOAD PUSH1 0xF8 SHR PUSH1 0xF8 SHL PUSH31 0xFFFFFFFFFFFFFFFFFFFFFFFFFFFFFFFFFFFFFFFFFFFFFFFFFFFFFFFFFFFFFF NOT AND EQ PUSH2 0x2FAD JUMPI PUSH1 0x0 SWAP4 POP POP POP POP PUSH2 0x2FC8 JUMP JUMPDEST DUP1 DUP1 PUSH2 0x2FB8 SWAP1 PUSH2 0x8709 JUMP JUMPDEST SWAP2 POP POP PUSH2 0x2F13 JUMP JUMPDEST POP PUSH1 0x1 SWAP3 POP POP POP JUMPDEST SWAP3 SWAP2 POP POP JUMP JUMPDEST PUSH2 0x2FD6 PUSH2 0x4C5C JUMP JUMPDEST DUP4 DUP3 PUSH1 0x0 DUP3 GT DUP1 PUSH2 0x2FE7 JUMPI POP PUSH1 0x0 DUP2 GT JUMPDEST PUSH2 0x3026 JUMPI PUSH1 0x40 MLOAD PUSH32 0x8C379A000000000000000000000000000000000000000000000000000000000 DUP2 MSTORE PUSH1 0x4 ADD PUSH2 0x301D SWAP1 PUSH2 0x82D6 JUMP JUMPDEST PUSH1 0x40 MLOAD DUP1 SWAP2 SUB SWAP1 REVERT JUMPDEST PUSH2 0x302F DUP8 PUSH2 0x5685 JUMP JUMPDEST SWAP7 POP PUSH2 0x303A DUP8 PUSH2 0x56F7 JUMP JUMPDEST ISZERO PUSH2 0x307A JUMPI PUSH1 0x40 MLOAD PUSH32 0x8C379A000000000000000000000000000000000000000000000000000000000 DUP2 MSTORE PUSH1 0x4 ADD PUSH2 0x3071 SWAP1 PUSH2 0x916D JUMP JUMPDEST PUSH1 0x40 MLOAD DUP1 SWAP2 SUB SWAP1 REVERT JUMPDEST PUSH1 0x0 DUP8 DUP1 MLOAD SWAP1 PUSH1 0x20 ADD KECCAK256 PUSH1 0x0 SHR SWAP1 POP DUP8 PUSH1 0xE PUSH1 0x0 DUP4 DUP2 MSTORE PUSH1 0x20 ADD SWAP1 DUP2 MSTORE PUSH1 0x20 ADD PUSH1 0x0 KECCAK256 PUSH1 0x0 ADD SWAP1 DUP2 PUSH2 0x30AC SWAP2 SWAP1 PUSH2 0x932F JUMP JUMPDEST POP DUP7 PUSH1 0xE PUSH1 0x0 DUP4 DUP2 MSTORE PUSH1 0x20 ADD SWAP1 DUP2 MSTORE PUSH1 0x20 ADD PUSH1 0x0 KECCAK256 PUSH1 0x1 ADD DUP2 SWAP1 SSTORE POP DUP6 PUSH1 0xE PUSH1 0x0 DUP4 DUP2 MSTORE PUSH1 0x20 ADD SWAP1 DUP2 MSTORE PUSH1 0x20 ADD PUSH1 0x0 KECCAK256 PUSH1 0x2 ADD DUP2 SWAP1 SSTORE POP PUSH1 0x1 PUSH1 0xE PUSH1 0x0 DUP4 DUP2 MSTORE PUSH1 0x20 ADD SWAP1 DUP2 MSTORE PUSH1 0x20 ADD PUSH1 0x0 KECCAK256 PUSH1 0x5 ADD PUSH1 0x0 PUSH2 0x100 EXP DUP2 SLOAD DUP2 PUSH1 0xFF MUL NOT AND SWAP1 DUP4 ISZERO ISZERO MUL OR SWAP1 SSTORE POP DUP5 PUSH1 0xE PUSH1 0x0 DUP4 DUP2 MSTORE PUSH1 0x20 ADD SWAP1 DUP2 MSTORE PUSH1 0x20 ADD PUSH1 0x0 KECCAK256 PUSH1 0x3 ADD DUP2 SWAP1 SSTORE POP DUP4 PUSH1 0xE PUSH1 0x0 DUP4 DUP2 MSTORE PUSH1 0x20 ADD SWAP1 DUP2 MSTORE PUSH1 0x20 ADD PUSH1 0x0 KECCAK256 PUSH1 0x4 ADD DUP2 SWAP1 SSTORE POP PUSH1 0x0 PUSH1 0xE PUSH1 0x0 DUP4 DUP2 MSTORE PUSH1 0x20 ADD SWAP1 DUP2 MSTORE PUSH1 0x20 ADD PUSH1 0x0 KECCAK256 PUSH1 0x5 ADD PUSH1 0x1 PUSH2 0x100 EXP DUP2 SLOAD DUP2 PUSH1 0xFF MUL NOT AND SWAP1 DUP4 ISZERO ISZERO MUL OR SWAP1 SSTORE POP DUP8 PUSH1 0x40 MLOAD PUSH2 0x3185 SWAP2 SWAP1 PUSH2 0x943D JUMP JUMPDEST PUSH1 0x40 MLOAD DUP1 SWAP2 SUB SWAP1 KECCAK256 PUSH32 0x1985BEDB72C1911F8A0BB69A6ED7CDB1435F45ECB17D9D320B6DFF82CB551CA8 DUP9 DUP9 DUP9 DUP9 PUSH1 0x40 MLOAD PUSH2 0x31C2 SWAP5 SWAP4 SWAP3 SWAP2 SWAP1 PUSH2 0x94A0 JUMP JUMPDEST PUSH1 0x40 MLOAD DUP1 SWAP2 SUB SWAP1 LOG2 POP POP POP POP POP POP POP POP JUMP JUMPDEST PUSH2 0x31DC PUSH2 0x4C5C JUMP JUMPDEST PUSH1 0x0 JUMPDEST DUP2 MLOAD DUP2 LT ISZERO PUSH2 0x3314 JUMPI PUSH2 0x320B DUP3 DUP3 DUP2 MLOAD DUP2 LT PUSH2 0x31FE JUMPI PUSH2 0x31FD PUSH2 0x86AB JUMP JUMPDEST JUMPDEST PUSH1 0x20 MUL PUSH1 0x20 ADD ADD MLOAD PUSH2 0x5685 JUMP JUMPDEST DUP3 DUP3 DUP2 MLOAD DUP2 LT PUSH2 0x321E JUMPI PUSH2 0x321D PUSH2 0x86AB JUMP JUMPDEST JUMPDEST PUSH1 0x20 MUL PUSH1 0x20 ADD ADD DUP2 SWAP1 MSTORE POP PUSH1 0xA DUP3 DUP3 DUP2 MLOAD DUP2 LT PUSH2 0x323E JUMPI PUSH2 0x323D PUSH2 0x86AB JUMP JUMPDEST JUMPDEST PUSH1 0x20 MUL PUSH1 0x20 ADD ADD MLOAD PUSH1 0x40 MLOAD PUSH2 0x3253 SWAP2 SWAP1 PUSH2 0x943D JUMP JUMPDEST SWAP1 DUP2 MSTORE PUSH1 0x20 ADD PUSH1 0x40 MLOAD DUP1 SWAP2 SUB SWAP1 KECCAK256 PUSH1 0x0 SWAP1 SLOAD SWAP1 PUSH2 0x100 EXP SWAP1 DIV PUSH1 0xFF AND ISZERO PUSH2 0x3301 JUMPI PUSH1 0xA DUP3 DUP3 DUP2 MLOAD DUP2 LT PUSH2 0x3289 JUMPI PUSH2 0x3288 PUSH2 0x86AB JUMP JUMPDEST JUMPDEST PUSH1 0x20 MUL PUSH1 0x20 ADD ADD MLOAD PUSH1 0x40 MLOAD PUSH2 0x329E SWAP2 SWAP1 PUSH2 0x943D JUMP JUMPDEST SWAP1 DUP2 MSTORE PUSH1 0x20 ADD PUSH1 0x40 MLOAD DUP1 SWAP2 SUB SWAP1 KECCAK256 PUSH1 0x0 PUSH2 0x100 EXP DUP2 SLOAD SWAP1 PUSH1 0xFF MUL NOT AND SWAP1 SSTORE PUSH1 0xB DUP3 DUP3 DUP2 MLOAD DUP2 LT PUSH2 0x32D1 JUMPI PUSH2 0x32D0 PUSH2 0x86AB JUMP JUMPDEST JUMPDEST PUSH1 0x20 MUL PUSH1 0x20 ADD ADD MLOAD PUSH1 0x40 MLOAD PUSH2 0x32E6 SWAP2 SWAP1 PUSH2 0x943D JUMP JUMPDEST SWAP1 DUP2 MSTORE PUSH1 0x20 ADD PUSH1 0x40 MLOAD DUP1 SWAP2 SUB SWAP1 KECCAK256 PUSH1 0x0 PUSH2 0x3300 SWAP2 SWAP1 PUSH2 0x7125 JUMP JUMPDEST JUMPDEST DUP1 DUP1 PUSH2 0x330C SWAP1 PUSH2 0x8709 JUMP JUMPDEST SWAP2 POP POP PUSH2 0x31DF JUMP JUMPDEST POP POP JUMP JUMPDEST PUSH1 0xC PUSH1 0x20 MSTORE DUP1 PUSH1 0x0 MSTORE PUSH1 0x40 PUSH1 0x0 KECCAK256 PUSH1 0x0 SWAP2 POP SLOAD SWAP1 PUSH2 0x100 EXP SWAP1 DIV PUSH1 0xFF AND DUP2 JUMP JUMPDEST PUSH1 0x0 PUSH1 0x6 PUSH1 0x0 SWAP1 SLOAD SWAP1 PUSH2 0x100 EXP SWAP1 DIV PUSH20 0xFFFFFFFFFFFFFFFFFFFFFFFFFFFFFFFFFFFFFFFF AND SWAP1 POP SWAP1 JUMP JUMPDEST PUSH1 0x0 DUP2 MLOAD DUP4 MLOAD EQ PUSH2 0x3376 JUMPI PUSH1 0x0 SWAP1 POP PUSH2 0x342A JUMP JUMPDEST PUSH1 0x0 JUMPDEST DUP4 MLOAD DUP2 LT ISZERO PUSH2 0x3424 JUMPI DUP3 DUP2 DUP2 MLOAD DUP2 LT PUSH2 0x3395 JUMPI PUSH2 0x3394 PUSH2 0x86AB JUMP JUMPDEST JUMPDEST PUSH1 0x20 ADD ADD MLOAD PUSH1 0xF8 SHR PUSH1 0xF8 SHL PUSH31 0xFFFFFFFFFFFFFFFFFFFFFFFFFFFFFFFFFFFFFFFFFFFFFFFFFFFFFFFFFFFFFF NOT AND DUP5 DUP3 DUP2 MLOAD DUP2 LT PUSH2 0x33D5 JUMPI PUSH2 0x33D4 PUSH2 0x86AB JUMP JUMPDEST JUMPDEST PUSH1 0x20 ADD ADD MLOAD PUSH1 0xF8 SHR PUSH1 0xF8 SHL PUSH31 0xFFFFFFFFFFFFFFFFFFFFFFFFFFFFFFFFFFFFFFFFFFFFFFFFFFFFFFFFFFFFFF NOT AND EQ PUSH2 0x3411 JUMPI PUSH1 0x0 SWAP2 POP POP PUSH2 0x342A JUMP JUMPDEST DUP1 DUP1 PUSH2 0x341C SWAP1 PUSH2 0x8709 JUMP JUMPDEST SWAP2 POP POP PUSH2 0x3379 JUMP JUMPDEST POP PUSH1 0x1 SWAP1 POP JUMPDEST SWAP3 SWAP2 POP POP JUMP JUMPDEST PUSH1 0x60 PUSH1 0x1 DUP1 SLOAD PUSH2 0x343F SWAP1 PUSH2 0x8435 JUMP JUMPDEST DUP1 PUSH1 0x1F ADD PUSH1 0x20 DUP1 SWAP2 DIV MUL PUSH1 0x20 ADD PUSH1 0x40 MLOAD SWAP1 DUP2 ADD PUSH1 0x40 MSTORE DUP1 SWAP3 SWAP2 SWAP1 DUP2 DUP2 MSTORE PUSH1 0x20 ADD DUP3 DUP1 SLOAD PUSH2 0x346B SWAP1 PUSH2 0x8435 JUMP JUMPDEST DUP1 ISZERO PUSH2 0x34B8 JUMPI DUP1 PUSH1 0x1F LT PUSH2 0x348D JUMPI PUSH2 0x100 DUP1 DUP4 SLOAD DIV MUL DUP4 MSTORE SWAP2 PUSH1 0x20 ADD SWAP2 PUSH2 0x34B8 JUMP JUMPDEST DUP3 ADD SWAP2 SWAP1 PUSH1 0x0 MSTORE PUSH1 0x20 PUSH1 0x0 KECCAK256 SWAP1 JUMPDEST DUP2 SLOAD DUP2 MSTORE SWAP1 PUSH1 0x1 ADD SWAP1 PUSH1 0x20 ADD DUP1 DUP4 GT PUSH2 0x349B JUMPI DUP3 SWAP1 SUB PUSH1 0x1F AND DUP3 ADD SWAP2 JUMPDEST POP POP POP POP POP SWAP1 POP SWAP1 JUMP JUMPDEST PUSH1 0x0 DUP1 DUP3 DUP1 MLOAD SWAP1 PUSH1 0x20 ADD KECCAK256 PUSH1 0x0 SHR SWAP1 POP PUSH1 0x8 PUSH1 0x0 SWAP1 SLOAD SWAP1 PUSH2 0x100 EXP SWAP1 DIV PUSH20 0xFFFFFFFFFFFFFFFFFFFFFFFFFFFFFFFFFFFFFFFF AND PUSH20 0xFFFFFFFFFFFFFFFFFFFFFFFFFFFFFFFFFFFFFFFF AND PUSH4 0x2EFCA7D9 DUP3 PUSH1 0x40 MLOAD DUP3 PUSH4 0xFFFFFFFF AND PUSH1 0xE0 SHL DUP2 MSTORE PUSH1 0x4 ADD PUSH2 0x352D SWAP2 SWAP1 PUSH2 0x7870 JUMP JUMPDEST PUSH1 0x20 PUSH1 0x40 MLOAD DUP1 DUP4 SUB DUP2 PUSH1 0x0 DUP8 GAS CALL ISZERO DUP1 ISZERO PUSH2 0x354C JUMPI RETURNDATASIZE PUSH1 0x0 DUP1 RETURNDATACOPY RETURNDATASIZE PUSH1 0x0 REVERT JUMPDEST POP POP POP POP PUSH1 0x40 MLOAD RETURNDATASIZE PUSH1 0x1F NOT PUSH1 0x1F DUP3 ADD AND DUP3 ADD DUP1 PUSH1 0x40 MSTORE POP DUP2 ADD SWAP1 PUSH2 0x3570 SWAP2 SWAP1 PUSH2 0x8766 JUMP JUMPDEST PUSH2 0x357E JUMPI PUSH1 0x0 SWAP2 POP POP PUSH2 0x3697 JUMP JUMPDEST PUSH1 0x0 PUSH1 0x8 PUSH1 0x0 SWAP1 SLOAD SWAP1 PUSH2 0x100 EXP SWAP1 DIV PUSH20 0xFFFFFFFFFFFFFFFFFFFFFFFFFFFFFFFFFFFFFFFF AND PUSH20 0xFFFFFFFFFFFFFFFFFFFFFFFFFFFFFFFFFFFFFFFF AND PUSH4 0x33D9AD8E DUP4 PUSH1 0x40 MLOAD DUP3 PUSH4 0xFFFFFFFF AND PUSH1 0xE0 SHL DUP2 MSTORE PUSH1 0x4 ADD PUSH2 0x35DB SWAP2 SWAP1 PUSH2 0x7870 JUMP JUMPDEST PUSH1 0x0 PUSH1 0x40 MLOAD DUP1 DUP4 SUB DUP2 PUSH1 0x0 DUP8 GAS CALL ISZERO DUP1 ISZERO PUSH2 0x35FA JUMPI RETURNDATASIZE PUSH1 0x0 DUP1 RETURNDATACOPY RETURNDATASIZE PUSH1 0x0 REVERT JUMPDEST POP POP POP POP PUSH1 0x40 MLOAD RETURNDATASIZE PUSH1 0x0 DUP3 RETURNDATACOPY RETURNDATASIZE PUSH1 0x1F NOT PUSH1 0x1F DUP3 ADD AND DUP3 ADD DUP1 PUSH1 0x40 MSTORE POP DUP2 ADD SWAP1 PUSH2 0x3623 SWAP2 SWAP1 PUSH2 0x8662 JUMP JUMPDEST SWAP1 POP PUSH1 0x0 JUMPDEST DUP2 MLOAD DUP2 LT ISZERO PUSH2 0x368F JUMPI PUSH1 0xC PUSH1 0x0 DUP4 DUP4 DUP2 MLOAD DUP2 LT PUSH2 0x3648 JUMPI PUSH2 0x3647 PUSH2 0x86AB JUMP JUMPDEST JUMPDEST PUSH1 0x20 MUL PUSH1 0x20 ADD ADD MLOAD DUP2 MSTORE PUSH1 0x20 ADD SWAP1 DUP2 MSTORE PUSH1 0x20 ADD PUSH1 0x0 KECCAK256 PUSH1 0x0 SWAP1 SLOAD SWAP1 PUSH2 0x100 EXP SWAP1 DIV PUSH1 0xFF AND PUSH2 0x367C JUMPI PUSH1 0x1 SWAP4 POP POP POP POP PUSH2 0x3697 JUMP JUMPDEST DUP1 DUP1 PUSH2 0x3687 SWAP1 PUSH2 0x8709 JUMP JUMPDEST SWAP2 POP POP PUSH2 0x3628 JUMP JUMPDEST POP PUSH1 0x0 SWAP3 POP POP POP JUMPDEST SWAP2 SWAP1 POP JUMP JUMPDEST PUSH1 0x0 TIMESTAMP PUSH1 0x0 PUSH1 0x16 PUSH1 0x0 DUP6 DUP2 MSTORE PUSH1 0x20 ADD SWAP1 DUP2 MSTORE PUSH1 0x20 ADD PUSH1 0x0 KECCAK256 SLOAD PUSH2 0x36BF SWAP2 SWAP1 PUSH2 0x8AE6 JUMP JUMPDEST LT SWAP1 POP SWAP2 SWAP1 POP JUMP JUMPDEST PUSH1 0x0 DUP1 PUSH1 0x0 DUP1 PUSH1 0x0 SWAP1 POP PUSH1 0x0 DUP1 PUSH1 0x0 DUP1 PUSH1 0x0 DUP1 PUSH1 0x0 DUP12 DUP1 MLOAD SWAP1 PUSH1 0x20 ADD KECCAK256 PUSH1 0x0 SHR SWAP1 POP PUSH2 0x36F2 DUP2 PUSH2 0x572C JUMP JUMPDEST ISZERO PUSH2 0x376B JUMPI PUSH1 0x1 SWAP2 POP PUSH1 0xE PUSH1 0x0 DUP3 DUP2 MSTORE PUSH1 0x20 ADD SWAP1 DUP2 MSTORE PUSH1 0x20 ADD PUSH1 0x0 KECCAK256 PUSH1 0x4 ADD SLOAD SWAP3 POP PUSH2 0x371E DUP4 DUP8 PUSH2 0x195B JUMP JUMPDEST SWAP6 POP PUSH1 0xE PUSH1 0x0 DUP3 DUP2 MSTORE PUSH1 0x20 ADD SWAP1 DUP2 MSTORE PUSH1 0x20 ADD PUSH1 0x0 KECCAK256 PUSH1 0x1 ADD SLOAD SWAP5 POP PUSH2 0x3743 DUP9 DUP7 PUSH2 0x195B JUMP JUMPDEST SWAP8 POP PUSH1 0xE PUSH1 0x0 DUP3 DUP2 MSTORE PUSH1 0x20 ADD SWAP1 DUP2 MSTORE PUSH1 0x20 ADD PUSH1 0x0 KECCAK256 PUSH1 0x3 ADD SLOAD SWAP4 POP PUSH2 0x3768 DUP5 DUP9 PUSH2 0x195B JUMP JUMPDEST SWAP7 POP JUMPDEST PUSH2 0x3775 DUP13 MLOAD PUSH2 0x57A8 JUMP JUMPDEST ISZERO PUSH2 0x37F5 JUMPI PUSH1 0x1 SWAP2 POP PUSH1 0x0 DUP13 MLOAD SWAP1 POP PUSH1 0xD PUSH1 0x0 DUP3 DUP2 MSTORE PUSH1 0x20 ADD SWAP1 DUP2 MSTORE PUSH1 0x20 ADD PUSH1 0x0 KECCAK256 PUSH1 0x4 ADD SLOAD SWAP4 POP PUSH2 0x37A7 DUP5 DUP9 PUSH2 0x195B JUMP JUMPDEST SWAP7 POP PUSH1 0xD PUSH1 0x0 DUP3 DUP2 MSTORE PUSH1 0x20 ADD SWAP1 DUP2 MSTORE PUSH1 0x20 ADD PUSH1 0x0 KECCAK256 PUSH1 0x1 ADD SLOAD SWAP6 POP PUSH2 0x37CC DUP10 DUP8 PUSH2 0x195B JUMP JUMPDEST SWAP9 POP PUSH1 0xD PUSH1 0x0 DUP3 DUP2 MSTORE PUSH1 0x20 ADD SWAP1 DUP2 MSTORE PUSH1 0x20 ADD PUSH1 0x0 KECCAK256 PUSH1 0x3 ADD SLOAD SWAP5 POP PUSH2 0x37F1 DUP6 DUP10 PUSH2 0x195B JUMP JUMPDEST SWAP8 POP POP JUMPDEST PUSH2 0x37FE DUP13 PUSH2 0x5824 JUMP JUMPDEST ISZERO PUSH2 0x3841 JUMPI PUSH1 0x1 SWAP2 POP PUSH2 0x3810 DUP13 PUSH2 0x14F3 JUMP JUMPDEST DUP1 SWAP6 POP DUP2 SWAP7 POP DUP3 SWAP8 POP POP POP POP PUSH2 0x3826 DUP4 DUP8 PUSH2 0x195B JUMP JUMPDEST SWAP6 POP PUSH2 0x3832 DUP9 DUP7 PUSH2 0x195B JUMP JUMPDEST SWAP8 POP PUSH2 0x383E DUP5 DUP9 PUSH2 0x195B JUMP JUMPDEST SWAP7 POP JUMPDEST DUP8 DUP8 DUP8 SWAP11 POP SWAP11 POP SWAP11 POP POP POP POP POP POP POP POP POP SWAP2 SWAP4 SWAP1 SWAP3 POP JUMP JUMPDEST PUSH2 0x386B PUSH2 0x3864 PUSH2 0x4DAB JUMP JUMPDEST DUP4 DUP4 PUSH2 0x5AA0 JUMP JUMPDEST POP POP JUMP JUMPDEST PUSH2 0x3877 PUSH2 0x4C5C JUMP JUMPDEST PUSH1 0x0 JUMPDEST DUP2 MLOAD DUP2 LT ISZERO PUSH2 0x39EB JUMPI PUSH2 0x38AA DUP3 DUP3 DUP2 MLOAD DUP2 LT PUSH2 0x3899 JUMPI PUSH2 0x3898 PUSH2 0x86AB JUMP JUMPDEST JUMPDEST PUSH1 0x20 MUL PUSH1 0x20 ADD ADD MLOAD PUSH1 0x0 ADD MLOAD PUSH2 0x5685 JUMP JUMPDEST DUP3 DUP3 DUP2 MLOAD DUP2 LT PUSH2 0x38BD JUMPI PUSH2 0x38BC PUSH2 0x86AB JUMP JUMPDEST JUMPDEST PUSH1 0x20 MUL PUSH1 0x20 ADD ADD MLOAD PUSH1 0x0 ADD DUP2 SWAP1 MSTORE POP PUSH1 0xA DUP3 DUP3 DUP2 MLOAD DUP2 LT PUSH2 0x38E1 JUMPI PUSH2 0x38E0 PUSH2 0x86AB JUMP JUMPDEST JUMPDEST PUSH1 0x20 MUL PUSH1 0x20 ADD ADD MLOAD PUSH1 0x0 ADD MLOAD PUSH1 0x40 MLOAD PUSH2 0x38FA SWAP2 SWAP1 PUSH2 0x943D JUMP JUMPDEST SWAP1 DUP2 MSTORE PUSH1 0x20 ADD PUSH1 0x40 MLOAD DUP1 SWAP2 SUB SWAP1 KECCAK256 PUSH1 0x0 SWAP1 SLOAD SWAP1 PUSH2 0x100 EXP SWAP1 DIV PUSH1 0xFF AND PUSH2 0x39D8 JUMPI PUSH1 0x1 PUSH1 0xA DUP4 DUP4 DUP2 MLOAD DUP2 LT PUSH2 0x3931 JUMPI PUSH2 0x3930 PUSH2 0x86AB JUMP JUMPDEST JUMPDEST PUSH1 0x20 MUL PUSH1 0x20 ADD ADD MLOAD PUSH1 0x0 ADD MLOAD PUSH1 0x40 MLOAD PUSH2 0x394A SWAP2 SWAP1 PUSH2 0x943D JUMP JUMPDEST SWAP1 DUP2 MSTORE PUSH1 0x20 ADD PUSH1 0x40 MLOAD DUP1 SWAP2 SUB SWAP1 KECCAK256 PUSH1 0x0 PUSH2 0x100 EXP DUP2 SLOAD DUP2 PUSH1 0xFF MUL NOT AND SWAP1 DUP4 ISZERO ISZERO MUL OR SWAP1 SSTORE POP DUP2 DUP2 DUP2 MLOAD DUP2 LT PUSH2 0x3982 JUMPI PUSH2 0x3981 PUSH2 0x86AB JUMP JUMPDEST JUMPDEST PUSH1 0x20 MUL PUSH1 0x20 ADD ADD MLOAD PUSH1 0x20 ADD MLOAD PUSH1 0xB DUP4 DUP4 DUP2 MLOAD DUP2 LT PUSH2 0x39A3 JUMPI PUSH2 0x39A2 PUSH2 0x86AB JUMP JUMPDEST JUMPDEST PUSH1 0x20 MUL PUSH1 0x20 ADD ADD MLOAD PUSH1 0x0 ADD MLOAD PUSH1 0x40 MLOAD PUSH2 0x39BC SWAP2 SWAP1 PUSH2 0x943D JUMP JUMPDEST SWAP1 DUP2 MSTORE PUSH1 0x20 ADD PUSH1 0x40 MLOAD DUP1 SWAP2 SUB SWAP1 KECCAK256 SWAP1 DUP2 PUSH2 0x39D6 SWAP2 SWAP1 PUSH2 0x932F JUMP JUMPDEST POP JUMPDEST DUP1 DUP1 PUSH2 0x39E3 SWAP1 PUSH2 0x8709 JUMP JUMPDEST SWAP2 POP POP PUSH2 0x387A JUMP JUMPDEST POP POP JUMP JUMPDEST PUSH2 0x39F7 PUSH2 0x4C5C JUMP JUMPDEST PUSH1 0x1 PUSH1 0x17 PUSH1 0x0 DUP4 PUSH20 0xFFFFFFFFFFFFFFFFFFFFFFFFFFFFFFFFFFFFFFFF AND PUSH20 0xFFFFFFFFFFFFFFFFFFFFFFFFFFFFFFFFFFFFFFFF AND DUP2 MSTORE PUSH1 0x20 ADD SWAP1 DUP2 MSTORE PUSH1 0x20 ADD PUSH1 0x0 KECCAK256 PUSH1 0x0 PUSH2 0x100 EXP DUP2 SLOAD DUP2 PUSH1 0xFF MUL NOT AND SWAP1 DUP4 ISZERO ISZERO MUL OR SWAP1 SSTORE POP DUP1 PUSH20 0xFFFFFFFFFFFFFFFFFFFFFFFFFFFFFFFFFFFFFFFF AND PUSH32 0xA8BB31534C0ED46F380CB867BD5C803A189CED9A764E30B3A4991A9901D7474 PUSH1 0x40 MLOAD PUSH1 0x40 MLOAD DUP1 SWAP2 SUB SWAP1 LOG2 POP JUMP JUMPDEST PUSH2 0x3A9E DUP2 PUSH2 0x5685 JUMP JUMPDEST SWAP1 POP PUSH1 0x0 DUP2 DUP1 MLOAD SWAP1 PUSH1 0x20 ADD KECCAK256 PUSH1 0x0 SHR SWAP1 POP PUSH1 0x0 PUSH1 0x9 SLOAD DUP3 PUSH1 0x40 MLOAD PUSH1 0x20 ADD PUSH2 0x3AC6 SWAP3 SWAP2 SWAP1 PUSH2 0x953A JUMP JUMPDEST PUSH1 0x40 MLOAD PUSH1 0x20 DUP2 DUP4 SUB SUB DUP2 MSTORE SWAP1 PUSH1 0x40 MSTORE DUP1 MLOAD SWAP1 PUSH1 0x20 ADD KECCAK256 SWAP1 POP PUSH1 0x0 PUSH1 0x7 PUSH1 0x0 SWAP1 SLOAD SWAP1 PUSH2 0x100 EXP SWAP1 DIV PUSH20 0xFFFFFFFFFFFFFFFFFFFFFFFFFFFFFFFFFFFFFFFF AND PUSH20 0xFFFFFFFFFFFFFFFFFFFFFFFFFFFFFFFFFFFFFFFF AND PUSH4 0x2571BE3 DUP4 PUSH1 0x40 MLOAD DUP3 PUSH4 0xFFFFFFFF AND PUSH1 0xE0 SHL DUP2 MSTORE PUSH1 0x4 ADD PUSH2 0x3B3B SWAP2 SWAP1 PUSH2 0x822F JUMP JUMPDEST PUSH1 0x20 PUSH1 0x40 MLOAD DUP1 DUP4 SUB DUP2 DUP7 GAS STATICCALL ISZERO DUP1 ISZERO PUSH2 0x3B58 JUMPI RETURNDATASIZE PUSH1 0x0 DUP1 RETURNDATACOPY RETURNDATASIZE PUSH1 0x0 REVERT JUMPDEST POP POP POP POP PUSH1 0x40 MLOAD RETURNDATASIZE PUSH1 0x1F NOT PUSH1 0x1F DUP3 ADD AND DUP3 ADD DUP1 PUSH1 0x40 MSTORE POP DUP2 ADD SWAP1 PUSH2 0x3B7C SWAP2 SWAP1 PUSH2 0x8919 JUMP JUMPDEST SWAP1 POP PUSH2 0x3B86 PUSH2 0x4DAB JUMP JUMPDEST PUSH20 0xFFFFFFFFFFFFFFFFFFFFFFFFFFFFFFFFFFFFFFFF AND DUP2 PUSH20 0xFFFFFFFFFFFFFFFFFFFFFFFFFFFFFFFFFFFFFFFF AND EQ PUSH2 0x3BF3 JUMPI PUSH1 0x40 MLOAD PUSH32 0x8C379A000000000000000000000000000000000000000000000000000000000 DUP2 MSTORE PUSH1 0x4 ADD PUSH2 0x3BEA SWAP1 PUSH2 0x95B2 JUMP JUMPDEST PUSH1 0x40 MLOAD DUP1 SWAP2 SUB SWAP1 REVERT JUMPDEST PUSH1 0x7 PUSH1 0x0 SWAP1 SLOAD SWAP1 PUSH2 0x100 EXP SWAP1 DIV PUSH20 0xFFFFFFFFFFFFFFFFFFFFFFFFFFFFFFFFFFFFFFFF AND PUSH20 0xFFFFFFFFFFFFFFFFFFFFFFFFFFFFFFFFFFFFFFFF AND PUSH4 0x6AB5923 PUSH1 0x9 SLOAD DUP6 PUSH1 0x0 SHL DUP9 PUSH1 0x40 MLOAD DUP5 PUSH4 0xFFFFFFFF AND PUSH1 0xE0 SHL DUP2 MSTORE PUSH1 0x4 ADD PUSH2 0x3C57 SWAP4 SWAP3 SWAP2 SWAP1 PUSH2 0x95D2 JUMP JUMPDEST PUSH1 0x20 PUSH1 0x40 MLOAD DUP1 DUP4 SUB DUP2 PUSH1 0x0 DUP8 GAS CALL ISZERO DUP1 ISZERO PUSH2 0x3C76 JUMPI RETURNDATASIZE PUSH1 0x0 DUP1 RETURNDATACOPY RETURNDATASIZE PUSH1 0x0 REVERT JUMPDEST POP POP POP POP PUSH1 0x40 MLOAD RETURNDATASIZE PUSH1 0x1F NOT PUSH1 0x1F DUP3 ADD AND DUP3 ADD DUP1 PUSH1 0x40 MSTORE POP DUP2 ADD SWAP1 PUSH2 0x3C9A SWAP2 SWAP1 PUSH2 0x9635 JUMP JUMPDEST POP DUP5 PUSH20 0xFFFFFFFFFFFFFFFFFFFFFFFFFFFFFFFFFFFFFFFF AND PUSH2 0x3CBA PUSH2 0x4DAB JUMP JUMPDEST PUSH20 0xFFFFFFFFFFFFFFFFFFFFFFFFFFFFFFFFFFFFFFFF AND PUSH32 0xB86CE101300772E0D040925271B551450C6497E60AE8FE6525E31D7DFBC3353D DUP7 PUSH1 0x40 MLOAD PUSH2 0x3CFF SWAP2 SWAP1 PUSH2 0x73D3 JUMP JUMPDEST PUSH1 0x40 MLOAD DUP1 SWAP2 SUB SWAP1 LOG3 POP POP POP POP POP JUMP JUMPDEST PUSH1 0x0 PUSH2 0x3D19 DUP4 PUSH2 0x5685 JUMP JUMPDEST SWAP3 POP PUSH1 0x0 DUP4 DUP1 MLOAD SWAP1 PUSH1 0x20 ADD KECCAK256 PUSH1 0x0 SHR SWAP1 POP PUSH2 0x3D33 DUP2 PUSH2 0x5C0C JUMP JUMPDEST DUP1 PUSH2 0x3D44 JUMPI POP PUSH2 0x3D43 DUP5 MLOAD PUSH2 0x5C5B JUMP JUMPDEST JUMPDEST DUP1 PUSH2 0x3D54 JUMPI POP PUSH2 0x3D53 DUP5 PUSH2 0x5CAA JUMP JUMPDEST JUMPDEST PUSH2 0x3D93 JUMPI PUSH1 0x40 MLOAD PUSH32 0x8C379A000000000000000000000000000000000000000000000000000000000 DUP2 MSTORE PUSH1 0x4 ADD PUSH2 0x3D8A SWAP1 PUSH2 0x96AE JUMP JUMPDEST PUSH1 0x40 MLOAD DUP1 SWAP2 SUB SWAP1 REVERT JUMPDEST PUSH2 0x3D9E DUP5 CALLVALUE DUP6 PUSH2 0x5EE1 JUMP JUMPDEST TIMESTAMP PUSH1 0x0 PUSH1 0x16 PUSH1 0x0 DUP5 DUP2 MSTORE PUSH1 0x20 ADD SWAP1 DUP2 MSTORE PUSH1 0x20 ADD PUSH1 0x0 KECCAK256 SLOAD PUSH2 0x3DBF SWAP2 SWAP1 PUSH2 0x8AE6 JUMP JUMPDEST LT ISZERO PUSH2 0x3DCA JUMPI PUSH1 0x0 DUP1 REVERT JUMPDEST PUSH1 0x0 DUP4 PUSH2 0x3DD7 SWAP2 SWAP1 PUSH2 0x8AE6 JUMP JUMPDEST PUSH1 0x0 DUP5 PUSH1 0x16 PUSH1 0x0 DUP6 DUP2 MSTORE PUSH1 0x20 ADD SWAP1 DUP2 MSTORE PUSH1 0x20 ADD PUSH1 0x0 KECCAK256 SLOAD PUSH2 0x3DF8 SWAP2 SWAP1 PUSH2 0x8AE6 JUMP JUMPDEST PUSH2 0x3E02 SWAP2 SWAP1 PUSH2 0x8AE6 JUMP JUMPDEST GT PUSH2 0x3E0C JUMPI PUSH1 0x0 DUP1 REVERT JUMPDEST DUP3 PUSH1 0x16 PUSH1 0x0 DUP4 DUP2 MSTORE PUSH1 0x20 ADD SWAP1 DUP2 MSTORE PUSH1 0x20 ADD PUSH1 0x0 KECCAK256 PUSH1 0x0 DUP3 DUP3 SLOAD PUSH2 0x3E2F SWAP2 SWAP1 PUSH2 0x8AE6 JUMP JUMPDEST SWAP3 POP POP DUP2 SWAP1 SSTORE POP CALLVALUE PUSH1 0x14 PUSH1 0x0 DUP3 DUP3 SLOAD PUSH2 0x3E48 SWAP2 SWAP1 PUSH2 0x8AE6 JUMP JUMPDEST SWAP3 POP POP DUP2 SWAP1 SSTORE POP DUP4 PUSH1 0x40 MLOAD PUSH2 0x3E5D SWAP2 SWAP1 PUSH2 0x943D JUMP JUMPDEST PUSH1 0x40 MLOAD DUP1 SWAP2 SUB SWAP1 KECCAK256 PUSH32 0xCF55DA39288EF07A66ED9175301862AEDB2E223317200CA33FA25F9E9D2C9D3 PUSH1 0x16 PUSH1 0x0 DUP5 DUP2 MSTORE PUSH1 0x20 ADD SWAP1 DUP2 MSTORE PUSH1 0x20 ADD PUSH1 0x0 KECCAK256 SLOAD PUSH1 0x40 MLOAD PUSH2 0x3EA7 SWAP2 SWAP1 PUSH2 0x7870 JUMP JUMPDEST PUSH1 0x40 MLOAD DUP1 SWAP2 SUB SWAP1 LOG2 PUSH1 0x16 PUSH1 0x0 DUP3 DUP2 MSTORE PUSH1 0x20 ADD SWAP1 DUP2 MSTORE PUSH1 0x20 ADD PUSH1 0x0 KECCAK256 SLOAD SWAP2 POP POP SWAP3 SWAP2 POP POP JUMP JUMPDEST PUSH1 0x0 DUP1 PUSH1 0x0 DUP1 PUSH1 0x0 SWAP1 POP PUSH1 0x0 DUP1 PUSH1 0x0 DUP1 PUSH1 0x0 DUP1 DUP11 DUP1 MLOAD SWAP1 PUSH1 0x20 ADD KECCAK256 PUSH1 0x0 SHR SWAP1 POP PUSH1 0x0 PUSH1 0x8 PUSH1 0x0 SWAP1 SLOAD SWAP1 PUSH2 0x100 EXP SWAP1 DIV PUSH20 0xFFFFFFFFFFFFFFFFFFFFFFFFFFFFFFFFFFFFFFFF AND PUSH20 0xFFFFFFFFFFFFFFFFFFFFFFFFFFFFFFFFFFFFFFFF AND PUSH4 0xE378ADD6 DUP4 PUSH1 0x40 MLOAD DUP3 PUSH4 0xFFFFFFFF AND PUSH1 0xE0 SHL DUP2 MSTORE PUSH1 0x4 ADD PUSH2 0x3F49 SWAP2 SWAP1 PUSH2 0x7870 JUMP JUMPDEST PUSH1 0x0 PUSH1 0x40 MLOAD DUP1 DUP4 SUB DUP2 PUSH1 0x0 DUP8 GAS CALL ISZERO DUP1 ISZERO PUSH2 0x3F68 JUMPI RETURNDATASIZE PUSH1 0x0 DUP1 RETURNDATACOPY RETURNDATASIZE PUSH1 0x0 REVERT JUMPDEST POP POP POP POP PUSH1 0x40 MLOAD RETURNDATASIZE PUSH1 0x0 DUP3 RETURNDATACOPY RETURNDATASIZE PUSH1 0x1F NOT PUSH1 0x1F DUP3 ADD AND DUP3 ADD DUP1 PUSH1 0x40 MSTORE POP DUP2 ADD SWAP1 PUSH2 0x3F91 SWAP2 SWAP1 PUSH2 0x8662 JUMP JUMPDEST SWAP1 POP PUSH1 0x0 JUMPDEST DUP2 MLOAD DUP2 LT ISZERO PUSH2 0x408C JUMPI PUSH1 0x0 DUP3 DUP3 DUP2 MLOAD DUP2 LT PUSH2 0x3FB4 JUMPI PUSH2 0x3FB3 PUSH2 0x86AB JUMP JUMPDEST JUMPDEST PUSH1 0x20 MUL PUSH1 0x20 ADD ADD MLOAD SWAP1 POP PUSH1 0xF PUSH1 0x0 DUP3 DUP2 MSTORE PUSH1 0x20 ADD SWAP1 DUP2 MSTORE PUSH1 0x20 ADD PUSH1 0x0 KECCAK256 PUSH1 0x5 ADD PUSH1 0x0 SWAP1 SLOAD SWAP1 PUSH2 0x100 EXP SWAP1 DIV PUSH1 0xFF AND DUP1 ISZERO PUSH2 0x4003 JUMPI POP TIMESTAMP PUSH1 0xF PUSH1 0x0 DUP4 DUP2 MSTORE PUSH1 0x20 ADD SWAP1 DUP2 MSTORE PUSH1 0x20 ADD PUSH1 0x0 KECCAK256 PUSH1 0x2 ADD SLOAD LT JUMPDEST ISZERO PUSH2 0x4078 JUMPI PUSH1 0xF PUSH1 0x0 DUP3 DUP2 MSTORE PUSH1 0x20 ADD SWAP1 DUP2 MSTORE PUSH1 0x20 ADD PUSH1 0x0 KECCAK256 PUSH1 0x1 ADD SLOAD SWAP7 POP PUSH2 0x402B DUP11 DUP9 PUSH2 0x195B JUMP JUMPDEST SWAP10 POP PUSH1 0xF PUSH1 0x0 DUP3 DUP2 MSTORE PUSH1 0x20 ADD SWAP1 DUP2 MSTORE PUSH1 0x20 ADD PUSH1 0x0 KECCAK256 PUSH1 0x3 ADD SLOAD SWAP6 POP PUSH2 0x4050 DUP7 DUP11 PUSH2 0x195B JUMP JUMPDEST SWAP9 POP PUSH1 0xF PUSH1 0x0 DUP3 DUP2 MSTORE PUSH1 0x20 ADD SWAP1 DUP2 MSTORE PUSH1 0x20 ADD PUSH1 0x0 KECCAK256 PUSH1 0x4 ADD SLOAD SWAP5 POP PUSH2 0x4075 DUP6 DUP10 PUSH2 0x195B JUMP JUMPDEST SWAP8 POP JUMPDEST POP DUP1 DUP1 PUSH2 0x4084 SWAP1 PUSH2 0x8709 JUMP JUMPDEST SWAP2 POP POP PUSH2 0x3F96 JUMP JUMPDEST POP DUP8 DUP8 DUP8 SWAP11 POP SWAP11 POP SWAP11 POP POP POP POP POP POP POP POP POP SWAP2 SWAP4 SWAP1 SWAP3 POP JUMP JUMPDEST PUSH2 0x40B6 PUSH2 0x40B0 PUSH2 0x4DAB JUMP JUMPDEST DUP4 PUSH2 0x4E6C JUMP JUMPDEST PUSH2 0x40F5 JUMPI PUSH1 0x40 MLOAD PUSH32 0x8C379A000000000000000000000000000000000000000000000000000000000 DUP2 MSTORE PUSH1 0x4 ADD PUSH2 0x40EC SWAP1 PUSH2 0x88E4 JUMP JUMPDEST PUSH1 0x40 MLOAD DUP1 SWAP2 SUB SWAP1 REVERT JUMPDEST PUSH2 0x4101 DUP5 DUP5 DUP5 DUP5 PUSH2 0x60E1 JUMP JUMPDEST POP POP POP POP JUMP JUMPDEST PUSH1 0x0 DUP2 JUMP JUMPDEST PUSH1 0x60 PUSH2 0x4117 DUP3 PUSH2 0x4CDA JUMP JUMPDEST PUSH1 0x0 PUSH2 0x4121 PUSH2 0x613D JUMP JUMPDEST SWAP1 POP PUSH1 0x0 DUP2 MLOAD GT PUSH2 0x4141 JUMPI PUSH1 0x40 MLOAD DUP1 PUSH1 0x20 ADD PUSH1 0x40 MSTORE DUP1 PUSH1 0x0 DUP2 MSTORE POP PUSH2 0x416C JUMP JUMPDEST DUP1 PUSH2 0x414B DUP5 PUSH2 0x6154 JUMP JUMPDEST PUSH1 0x40 MLOAD PUSH1 0x20 ADD PUSH2 0x415C SWAP3 SWAP2 SWAP1 PUSH2 0x96CE JUMP JUMPDEST PUSH1 0x40 MLOAD PUSH1 0x20 DUP2 DUP4 SUB SUB DUP2 MSTORE SWAP1 PUSH1 0x40 MSTORE JUMPDEST SWAP2 POP POP SWAP2 SWAP1 POP JUMP JUMPDEST PUSH2 0x417C PUSH2 0x4C5C JUMP JUMPDEST DUP4 DUP3 PUSH1 0x0 DUP3 GT DUP1 PUSH2 0x418D JUMPI POP PUSH1 0x0 DUP2 GT JUMPDEST PUSH2 0x41CC JUMPI PUSH1 0x40 MLOAD PUSH32 0x8C379A000000000000000000000000000000000000000000000000000000000 DUP2 MSTORE PUSH1 0x4 ADD PUSH2 0x41C3 SWAP1 PUSH2 0x82D6 JUMP JUMPDEST PUSH1 0x40 MLOAD DUP1 SWAP2 SUB SWAP1 REVERT JUMPDEST PUSH2 0x41D5 DUP8 PUSH2 0x56F7 JUMP JUMPDEST ISZERO PUSH2 0x4215 JUMPI PUSH1 0x40 MLOAD PUSH32 0x8C379A000000000000000000000000000000000000000000000000000000000 DUP2 MSTORE PUSH1 0x4 ADD PUSH2 0x420C SWAP1 PUSH2 0x916D JUMP JUMPDEST PUSH1 0x40 MLOAD DUP1 SWAP2 SUB SWAP1 REVERT JUMPDEST PUSH1 0x0 DUP8 DUP1 MLOAD SWAP1 PUSH1 0x20 ADD KECCAK256 PUSH1 0x0 SHR SWAP1 POP PUSH1 0xE PUSH1 0x0 DUP3 DUP2 MSTORE PUSH1 0x20 ADD SWAP1 DUP2 MSTORE PUSH1 0x20 ADD PUSH1 0x0 KECCAK256 PUSH1 0x5 ADD PUSH1 0x0 SWAP1 SLOAD SWAP1 PUSH2 0x100 EXP SWAP1 DIV PUSH1 0xFF AND PUSH2 0x4287 JUMPI PUSH1 0x40 MLOAD PUSH32 0x8C379A000000000000000000000000000000000000000000000000000000000 DUP2 MSTORE PUSH1 0x4 ADD PUSH2 0x427E SWAP1 PUSH2 0x973E JUMP JUMPDEST PUSH1 0x40 MLOAD DUP1 SWAP2 SUB SWAP1 REVERT JUMPDEST DUP8 PUSH1 0xE PUSH1 0x0 DUP4 DUP2 MSTORE PUSH1 0x20 ADD SWAP1 DUP2 MSTORE PUSH1 0x20 ADD PUSH1 0x0 KECCAK256 PUSH1 0x0 ADD SWAP1 DUP2 PUSH2 0x42AA SWAP2 SWAP1 PUSH2 0x932F JUMP JUMPDEST POP DUP7 PUSH1 0xE PUSH1 0x0 DUP4 DUP2 MSTORE PUSH1 0x20 ADD SWAP1 DUP2 MSTORE PUSH1 0x20 ADD PUSH1 0x0 KECCAK256 PUSH1 0x1 ADD DUP2 SWAP1 SSTORE POP DUP6 PUSH1 0xE PUSH1 0x0 DUP4 DUP2 MSTORE PUSH1 0x20 ADD SWAP1 DUP2 MSTORE PUSH1 0x20 ADD PUSH1 0x0 KECCAK256 PUSH1 0x2 ADD DUP2 SWAP1 SSTORE POP PUSH1 0x1 PUSH1 0xE PUSH1 0x0 DUP4 DUP2 MSTORE PUSH1 0x20 ADD SWAP1 DUP2 MSTORE PUSH1 0x20 ADD PUSH1 0x0 KECCAK256 PUSH1 0x5 ADD PUSH1 0x0 PUSH2 0x100 EXP DUP2 SLOAD DUP2 PUSH1 0xFF MUL NOT AND SWAP1 DUP4 ISZERO ISZERO MUL OR SWAP1 SSTORE POP DUP5 PUSH1 0xE PUSH1 0x0 DUP4 DUP2 MSTORE PUSH1 0x20 ADD SWAP1 DUP2 MSTORE PUSH1 0x20 ADD PUSH1 0x0 KECCAK256 PUSH1 0x3 ADD DUP2 SWAP1 SSTORE POP DUP4 PUSH1 0xE PUSH1 0x0 DUP4 DUP2 MSTORE PUSH1 0x20 ADD SWAP1 DUP2 MSTORE PUSH1 0x20 ADD PUSH1 0x0 KECCAK256 PUSH1 0x4 ADD DUP2 SWAP1 SSTORE POP DUP8 PUSH1 0x40 MLOAD PUSH2 0x4354 SWAP2 SWAP1 PUSH2 0x943D JUMP JUMPDEST PUSH1 0x40 MLOAD DUP1 SWAP2 SUB SWAP1 KECCAK256 PUSH32 0x1985BEDB72C1911F8A0BB69A6ED7CDB1435F45ECB17D9D320B6DFF82CB551CA8 DUP9 DUP9 DUP9 DUP9 PUSH1 0x40 MLOAD PUSH2 0x4391 SWAP5 SWAP4 SWAP3 SWAP2 SWAP1 PUSH2 0x83AE JUMP JUMPDEST PUSH1 0x40 MLOAD DUP1 SWAP2 SUB SWAP1 LOG2 POP POP POP POP POP POP POP POP JUMP JUMPDEST PUSH2 0x43AB PUSH2 0x7165 JUMP JUMPDEST PUSH1 0x0 DUP3 DUP1 MLOAD SWAP1 PUSH1 0x20 ADD KECCAK256 PUSH1 0x0 SHR SWAP1 POP PUSH1 0xF PUSH1 0x0 DUP3 DUP2 MSTORE PUSH1 0x20 ADD SWAP1 DUP2 MSTORE PUSH1 0x20 ADD PUSH1 0x0 KECCAK256 PUSH1 0x40 MLOAD DUP1 PUSH1 0xE0 ADD PUSH1 0x40 MSTORE SWAP1 DUP2 PUSH1 0x0 DUP3 ADD DUP1 SLOAD PUSH2 0x43E8 SWAP1 PUSH2 0x8435 JUMP JUMPDEST DUP1 PUSH1 0x1F ADD PUSH1 0x20 DUP1 SWAP2 DIV MUL PUSH1 0x20 ADD PUSH1 0x40 MLOAD SWAP1 DUP2 ADD PUSH1 0x40 MSTORE DUP1 SWAP3 SWAP2 SWAP1 DUP2 DUP2 MSTORE PUSH1 0x20 ADD DUP3 DUP1 SLOAD PUSH2 0x4414 SWAP1 PUSH2 0x8435 JUMP JUMPDEST DUP1 ISZERO PUSH2 0x4461 JUMPI DUP1 PUSH1 0x1F LT PUSH2 0x4436 JUMPI PUSH2 0x100 DUP1 DUP4 SLOAD DIV MUL DUP4 MSTORE SWAP2 PUSH1 0x20 ADD SWAP2 PUSH2 0x4461 JUMP JUMPDEST DUP3 ADD SWAP2 SWAP1 PUSH1 0x0 MSTORE PUSH1 0x20 PUSH1 0x0 KECCAK256 SWAP1 JUMPDEST DUP2 SLOAD DUP2 MSTORE SWAP1 PUSH1 0x1 ADD SWAP1 PUSH1 0x20 ADD DUP1 DUP4 GT PUSH2 0x4444 JUMPI DUP3 SWAP1 SUB PUSH1 0x1F AND DUP3 ADD SWAP2 JUMPDEST POP POP POP POP POP DUP2 MSTORE PUSH1 0x20 ADD PUSH1 0x1 DUP3 ADD SLOAD DUP2 MSTORE PUSH1 0x20 ADD PUSH1 0x2 DUP3 ADD SLOAD DUP2 MSTORE PUSH1 0x20 ADD PUSH1 0x3 DUP3 ADD SLOAD DUP2 MSTORE PUSH1 0x20 ADD PUSH1 0x4 DUP3 ADD SLOAD DUP2 MSTORE PUSH1 0x20 ADD PUSH1 0x5 DUP3 ADD PUSH1 0x0 SWAP1 SLOAD SWAP1 PUSH2 0x100 EXP SWAP1 DIV PUSH1 0xFF AND ISZERO ISZERO ISZERO ISZERO DUP2 MSTORE PUSH1 0x20 ADD PUSH1 0x5 DUP3 ADD PUSH1 0x1 SWAP1 SLOAD SWAP1 PUSH2 0x100 EXP SWAP1 DIV PUSH1 0xFF AND ISZERO ISZERO ISZERO ISZERO DUP2 MSTORE POP POP SWAP2 POP POP SWAP2 SWAP1 POP JUMP JUMPDEST PUSH1 0x0 PUSH2 0x44DB DUP5 PUSH2 0x5685 JUMP JUMPDEST SWAP4 POP PUSH2 0x44EA DUP5 DUP5 DUP5 PUSH1 0x1 PUSH2 0x6222 JUMP JUMPDEST SWAP1 POP SWAP4 SWAP3 POP POP POP JUMP JUMPDEST PUSH2 0x44FB PUSH2 0x4C5C JUMP JUMPDEST DUP4 DUP3 PUSH1 0x0 DUP3 GT DUP1 PUSH2 0x450C JUMPI POP PUSH1 0x0 DUP2 GT JUMPDEST PUSH2 0x454B JUMPI PUSH1 0x40 MLOAD PUSH32 0x8C379A000000000000000000000000000000000000000000000000000000000 DUP2 MSTORE PUSH1 0x4 ADD PUSH2 0x4542 SWAP1 PUSH2 0x82D6 JUMP JUMPDEST PUSH1 0x40 MLOAD DUP1 SWAP2 SUB SWAP1 REVERT JUMPDEST DUP7 PUSH1 0xD PUSH1 0x0 DUP10 DUP2 MSTORE PUSH1 0x20 ADD SWAP1 DUP2 MSTORE PUSH1 0x20 ADD PUSH1 0x0 KECCAK256 PUSH1 0x0 ADD DUP2 SWAP1 SSTORE POP DUP6 PUSH1 0xD PUSH1 0x0 DUP10 DUP2 MSTORE PUSH1 0x20 ADD SWAP1 DUP2 MSTORE PUSH1 0x20 ADD PUSH1 0x0 KECCAK256 PUSH1 0x1 ADD DUP2 SWAP1 SSTORE POP DUP5 PUSH1 0xD PUSH1 0x0 DUP10 DUP2 MSTORE PUSH1 0x20 ADD SWAP1 DUP2 MSTORE PUSH1 0x20 ADD PUSH1 0x0 KECCAK256 PUSH1 0x2 ADD DUP2 SWAP1 SSTORE POP PUSH1 0x1 PUSH1 0xD PUSH1 0x0 DUP10 DUP2 MSTORE PUSH1 0x20 ADD SWAP1 DUP2 MSTORE PUSH1 0x20 ADD PUSH1 0x0 KECCAK256 PUSH1 0x5 ADD PUSH1 0x0 PUSH2 0x100 EXP DUP2 SLOAD DUP2 PUSH1 0xFF MUL NOT AND SWAP1 DUP4 ISZERO ISZERO MUL OR SWAP1 SSTORE POP DUP4 PUSH1 0xD PUSH1 0x0 DUP10 DUP2 MSTORE PUSH1 0x20 ADD SWAP1 DUP2 MSTORE PUSH1 0x20 ADD PUSH1 0x0 KECCAK256 PUSH1 0x3 ADD DUP2 SWAP1 SSTORE POP DUP3 PUSH1 0xD PUSH1 0x0 DUP10 DUP2 MSTORE PUSH1 0x20 ADD SWAP1 DUP2 MSTORE PUSH1 0x20 ADD PUSH1 0x0 KECCAK256 PUSH1 0x4 ADD DUP2 SWAP1 SSTORE POP PUSH1 0x0 PUSH1 0xD PUSH1 0x0 DUP10 DUP2 MSTORE PUSH1 0x20 ADD SWAP1 DUP2 MSTORE PUSH1 0x20 ADD PUSH1 0x0 KECCAK256 PUSH1 0x5 ADD PUSH1 0x1 PUSH2 0x100 EXP DUP2 SLOAD DUP2 PUSH1 0xFF MUL NOT AND SWAP1 DUP4 ISZERO ISZERO MUL OR SWAP1 SSTORE POP DUP7 PUSH32 0x2D5BE7B52D85CB6DD0E0011707FA73A2E4DDF68EE282DBF72431A6FC482B4289 DUP8 DUP8 DUP8 DUP8 PUSH1 0x40 MLOAD PUSH2 0x4666 SWAP5 SWAP4 SWAP3 SWAP2 SWAP1 PUSH2 0x94A0 JUMP JUMPDEST PUSH1 0x40 MLOAD DUP1 SWAP2 SUB SWAP1 LOG2 POP POP POP POP POP POP POP JUMP JUMPDEST PUSH1 0x0 PUSH1 0x16 PUSH1 0x0 DUP4 DUP2 MSTORE PUSH1 0x20 ADD SWAP1 DUP2 MSTORE PUSH1 0x20 ADD PUSH1 0x0 KECCAK256 SLOAD SWAP1 POP SWAP2 SWAP1 POP JUMP JUMPDEST PUSH2 0x469C PUSH2 0x4C5C JUMP JUMPDEST PUSH1 0x0 DUP2 DUP1 MLOAD SWAP1 PUSH1 0x20 ADD KECCAK256 PUSH1 0x0 SHR SWAP1 POP PUSH1 0xE PUSH1 0x0 DUP3 DUP2 MSTORE PUSH1 0x20 ADD SWAP1 DUP2 MSTORE PUSH1 0x20 ADD PUSH1 0x0 KECCAK256 PUSH1 0x5 ADD PUSH1 0x0 SWAP1 SLOAD SWAP1 PUSH2 0x100 EXP SWAP1 DIV PUSH1 0xFF AND PUSH2 0x470E JUMPI PUSH1 0x40 MLOAD PUSH32 0x8C379A000000000000000000000000000000000000000000000000000000000 DUP2 MSTORE PUSH1 0x4 ADD PUSH2 0x4705 SWAP1 PUSH2 0x973E JUMP JUMPDEST PUSH1 0x40 MLOAD DUP1 SWAP2 SUB SWAP1 REVERT JUMPDEST PUSH1 0x1 PUSH1 0xE PUSH1 0x0 DUP4 DUP2 MSTORE PUSH1 0x20 ADD SWAP1 DUP2 MSTORE PUSH1 0x20 ADD PUSH1 0x0 KECCAK256 PUSH1 0x5 ADD PUSH1 0x1 PUSH2 0x100 EXP DUP2 SLOAD DUP2 PUSH1 0xFF MUL NOT AND SWAP1 DUP4 ISZERO ISZERO MUL OR SWAP1 SSTORE POP DUP2 PUSH1 0x40 MLOAD PUSH2 0x474B SWAP2 SWAP1 PUSH2 0x943D JUMP JUMPDEST PUSH1 0x40 MLOAD DUP1 SWAP2 SUB SWAP1 KECCAK256 PUSH32 0x1985BEDB72C1911F8A0BB69A6ED7CDB1435F45ECB17D9D320B6DFF82CB551CA8 PUSH1 0x0 DUP1 PUSH1 0x0 DUP1 PUSH1 0x40 MLOAD PUSH2 0x478A SWAP5 SWAP4 SWAP3 SWAP2 SWAP1 PUSH2 0x881A JUMP JUMPDEST PUSH1 0x40 MLOAD DUP1 SWAP2 SUB SWAP1 LOG2 POP POP JUMP JUMPDEST PUSH1 0x8 PUSH1 0x0 SWAP1 SLOAD SWAP1 PUSH2 0x100 EXP SWAP1 DIV PUSH20 0xFFFFFFFFFFFFFFFFFFFFFFFFFFFFFFFFFFFFFFFF AND DUP2 JUMP JUMPDEST PUSH1 0x17 PUSH1 0x20 MSTORE DUP1 PUSH1 0x0 MSTORE PUSH1 0x40 PUSH1 0x0 KECCAK256 PUSH1 0x0 SWAP2 POP SLOAD SWAP1 PUSH2 0x100 EXP SWAP1 DIV PUSH1 0xFF AND DUP2 JUMP JUMPDEST PUSH1 0x0 DUP1 PUSH1 0x0 SWAP1 POP PUSH1 0x0 JUMPDEST PUSH2 0x4E20 DUP2 LT ISZERO PUSH2 0x4811 JUMPI DUP2 DUP1 PUSH2 0x47FB SWAP1 PUSH2 0x8709 JUMP JUMPDEST SWAP3 POP POP DUP1 DUP1 PUSH2 0x4809 SWAP1 PUSH2 0x8709 JUMP JUMPDEST SWAP2 POP POP PUSH2 0x47E6 JUMP JUMPDEST POP DUP1 SWAP2 POP POP SWAP1 JUMP JUMPDEST PUSH1 0x9 SLOAD DUP2 JUMP JUMPDEST PUSH1 0x0 PUSH1 0x5 PUSH1 0x0 DUP5 PUSH20 0xFFFFFFFFFFFFFFFFFFFFFFFFFFFFFFFFFFFFFFFF AND PUSH20 0xFFFFFFFFFFFFFFFFFFFFFFFFFFFFFFFFFFFFFFFF AND DUP2 MSTORE PUSH1 0x20 ADD SWAP1 DUP2 MSTORE PUSH1 0x20 ADD PUSH1 0x0 KECCAK256 PUSH1 0x0 DUP4 PUSH20 0xFFFFFFFFFFFFFFFFFFFFFFFFFFFFFFFFFFFFFFFF AND PUSH20 0xFFFFFFFFFFFFFFFFFFFFFFFFFFFFFFFFFFFFFFFF AND DUP2 MSTORE PUSH1 0x20 ADD SWAP1 DUP2 MSTORE PUSH1 0x20 ADD PUSH1 0x0 KECCAK256 PUSH1 0x0 SWAP1 SLOAD SWAP1 PUSH2 0x100 EXP SWAP1 DIV PUSH1 0xFF AND SWAP1 POP SWAP3 SWAP2 POP POP JUMP JUMPDEST PUSH2 0x48BB PUSH2 0x4C5C JUMP JUMPDEST PUSH1 0x0 PUSH20 0xFFFFFFFFFFFFFFFFFFFFFFFFFFFFFFFFFFFFFFFF AND DUP2 PUSH20 0xFFFFFFFFFFFFFFFFFFFFFFFFFFFFFFFFFFFFFFFF AND SUB PUSH2 0x492A JUMPI PUSH1 0x40 MLOAD PUSH32 0x8C379A000000000000000000000000000000000000000000000000000000000 DUP2 MSTORE PUSH1 0x4 ADD PUSH2 0x4921 SWAP1 PUSH2 0x97D0 JUMP JUMPDEST PUSH1 0x40 MLOAD DUP1 SWAP2 SUB SWAP1 REVERT JUMPDEST PUSH2 0x4933 DUP2 PUSH2 0x55BF JUMP JUMPDEST POP JUMP JUMPDEST PUSH2 0x493E PUSH2 0x4C5C JUMP JUMPDEST DUP4 DUP3 PUSH1 0x0 DUP3 GT DUP1 PUSH2 0x494F JUMPI POP PUSH1 0x0 DUP2 GT JUMPDEST PUSH2 0x498E JUMPI PUSH1 0x40 MLOAD PUSH32 0x8C379A000000000000000000000000000000000000000000000000000000000 DUP2 MSTORE PUSH1 0x4 ADD PUSH2 0x4985 SWAP1 PUSH2 0x82D6 JUMP JUMPDEST PUSH1 0x40 MLOAD DUP1 SWAP2 SUB SWAP1 REVERT JUMPDEST PUSH1 0x0 DUP8 DUP1 MLOAD SWAP1 PUSH1 0x20 ADD KECCAK256 PUSH1 0x0 SHR SWAP1 POP PUSH1 0x8 PUSH1 0x0 SWAP1 SLOAD SWAP1 PUSH2 0x100 EXP SWAP1 DIV PUSH20 0xFFFFFFFFFFFFFFFFFFFFFFFFFFFFFFFFFFFFFFFF AND PUSH20 0xFFFFFFFFFFFFFFFFFFFFFFFFFFFFFFFFFFFFFFFF AND PUSH4 0xCF909520 DUP3 PUSH1 0x40 MLOAD DUP3 PUSH4 0xFFFFFFFF AND PUSH1 0xE0 SHL DUP2 MSTORE PUSH1 0x4 ADD PUSH2 0x49F8 SWAP2 SWAP1 PUSH2 0x7870 JUMP JUMPDEST PUSH1 0x20 PUSH1 0x40 MLOAD DUP1 DUP4 SUB DUP2 PUSH1 0x0 DUP8 GAS CALL ISZERO DUP1 ISZERO PUSH2 0x4A17 JUMPI RETURNDATASIZE PUSH1 0x0 DUP1 RETURNDATACOPY RETURNDATASIZE PUSH1 0x0 REVERT JUMPDEST POP POP POP POP PUSH1 0x40 MLOAD RETURNDATASIZE PUSH1 0x1F NOT PUSH1 0x1F DUP3 ADD AND DUP3 ADD DUP1 PUSH1 0x40 MSTORE POP DUP2 ADD SWAP1 PUSH2 0x4A3B SWAP2 SWAP1 PUSH2 0x8766 JUMP JUMPDEST PUSH2 0x4A7A JUMPI PUSH1 0x40 MLOAD PUSH32 0x8C379A000000000000000000000000000000000000000000000000000000000 DUP2 MSTORE PUSH1 0x4 ADD PUSH2 0x4A71 SWAP1 PUSH2 0x983C JUMP JUMPDEST PUSH1 0x40 MLOAD DUP1 SWAP2 SUB SWAP1 REVERT JUMPDEST DUP7 PUSH1 0xF PUSH1 0x0 DUP4 DUP2 MSTORE PUSH1 0x20 ADD SWAP1 DUP2 MSTORE PUSH1 0x20 ADD PUSH1 0x0 KECCAK256 PUSH1 0x1 ADD DUP2 SWAP1 SSTORE POP DUP6 PUSH1 0xF PUSH1 0x0 DUP4 DUP2 MSTORE PUSH1 0x20 ADD SWAP1 DUP2 MSTORE PUSH1 0x20 ADD PUSH1 0x0 KECCAK256 PUSH1 0x2 ADD DUP2 SWAP1 SSTORE POP PUSH1 0x1 PUSH1 0xF PUSH1 0x0 DUP4 DUP2 MSTORE PUSH1 0x20 ADD SWAP1 DUP2 MSTORE PUSH1 0x20 ADD PUSH1 0x0 KECCAK256 PUSH1 0x5 ADD PUSH1 0x0 PUSH2 0x100 EXP DUP2 SLOAD DUP2 PUSH1 0xFF MUL NOT AND SWAP1 DUP4 ISZERO ISZERO MUL OR SWAP1 SSTORE POP DUP5 PUSH1 0xF PUSH1 0x0 DUP4 DUP2 MSTORE PUSH1 0x20 ADD SWAP1 DUP2 MSTORE PUSH1 0x20 ADD PUSH1 0x0 KECCAK256 PUSH1 0x3 ADD DUP2 SWAP1 SSTORE POP DUP4 PUSH1 0xF PUSH1 0x0 DUP4 DUP2 MSTORE PUSH1 0x20 ADD SWAP1 DUP2 MSTORE PUSH1 0x20 ADD PUSH1 0x0 KECCAK256 PUSH1 0x4 ADD DUP2 SWAP1 SSTORE POP PUSH1 0x0 PUSH1 0xF PUSH1 0x0 DUP4 DUP2 MSTORE PUSH1 0x20 ADD SWAP1 DUP2 MSTORE PUSH1 0x20 ADD PUSH1 0x0 KECCAK256 PUSH1 0x5 ADD PUSH1 0x1 PUSH2 0x100 EXP DUP2 SLOAD DUP2 PUSH1 0xFF MUL NOT AND SWAP1 DUP4 ISZERO ISZERO MUL OR SWAP1 SSTORE POP PUSH1 0x10 DUP2 SWAP1 DUP1 PUSH1 0x1 DUP2 SLOAD ADD DUP1 DUP3 SSTORE DUP1 SWAP2 POP POP PUSH1 0x1 SWAP1 SUB SWAP1 PUSH1 0x0 MSTORE PUSH1 0x20 PUSH1 0x0 KECCAK256 ADD PUSH1 0x0 SWAP1 SWAP2 SWAP1 SWAP2 SWAP1 SWAP2 POP SSTORE PUSH32 0x99E276693A0830687191493F52E13B0A2FF7E6B723E54757DD5EBDBF45CD1F5C DUP9 DUP9 DUP9 DUP9 DUP9 PUSH1 0x40 MLOAD PUSH2 0x4BA4 SWAP6 SWAP5 SWAP4 SWAP3 SWAP2 SWAP1 PUSH2 0x98A8 JUMP JUMPDEST PUSH1 0x40 MLOAD DUP1 SWAP2 SUB SWAP1 LOG1 POP POP POP POP POP POP POP POP JUMP JUMPDEST PUSH2 0x4BBE PUSH2 0x4C5C JUMP JUMPDEST PUSH1 0x0 PUSH1 0x17 PUSH1 0x0 DUP4 PUSH20 0xFFFFFFFFFFFFFFFFFFFFFFFFFFFFFFFFFFFFFFFF AND PUSH20 0xFFFFFFFFFFFFFFFFFFFFFFFFFFFFFFFFFFFFFFFF AND DUP2 MSTORE PUSH1 0x20 ADD SWAP1 DUP2 MSTORE PUSH1 0x20 ADD PUSH1 0x0 KECCAK256 PUSH1 0x0 PUSH2 0x100 EXP DUP2 SLOAD DUP2 PUSH1 0xFF MUL NOT AND SWAP1 DUP4 ISZERO ISZERO MUL OR SWAP1 SSTORE POP DUP1 PUSH20 0xFFFFFFFFFFFFFFFFFFFFFFFFFFFFFFFFFFFFFFFF AND PUSH32 0x33D83959BE2573F5453B12EB9D43B3499BC57D96BD2F067BA44803C859E81113 PUSH1 0x40 MLOAD PUSH1 0x40 MLOAD DUP1 SWAP2 SUB SWAP1 LOG2 POP JUMP JUMPDEST PUSH2 0x4C64 PUSH2 0x4DAB JUMP JUMPDEST PUSH20 0xFFFFFFFFFFFFFFFFFFFFFFFFFFFFFFFFFFFFFFFF AND PUSH2 0x4C82 PUSH2 0x3338 JUMP JUMPDEST PUSH20 0xFFFFFFFFFFFFFFFFFFFFFFFFFFFFFFFFFFFFFFFF AND EQ PUSH2 0x4CD8 JUMPI PUSH1 0x40 MLOAD PUSH32 0x8C379A000000000000000000000000000000000000000000000000000000000 DUP2 MSTORE PUSH1 0x4 ADD PUSH2 0x4CCF SWAP1 PUSH2 0x95B2 JUMP JUMPDEST PUSH1 0x40 MLOAD DUP1 SWAP2 SUB SWAP1 REVERT JUMPDEST JUMP JUMPDEST PUSH2 0x4CE3 DUP2 PUSH2 0x65A0 JUMP JUMPDEST PUSH2 0x4D22 JUMPI PUSH1 0x40 MLOAD PUSH32 0x8C379A000000000000000000000000000000000000000000000000000000000 DUP2 MSTORE PUSH1 0x4 ADD PUSH2 0x4D19 SWAP1 PUSH2 0x9961 JUMP JUMPDEST PUSH1 0x40 MLOAD DUP1 SWAP2 SUB SWAP1 REVERT JUMPDEST POP JUMP JUMPDEST PUSH1 0x0 DUP1 PUSH2 0x4D31 DUP4 PUSH2 0x65E1 JUMP JUMPDEST SWAP1 POP PUSH1 0x0 PUSH20 0xFFFFFFFFFFFFFFFFFFFFFFFFFFFFFFFFFFFFFFFF AND DUP2 PUSH20 0xFFFFFFFFFFFFFFFFFFFFFFFFFFFFFFFFFFFFFFFF AND SUB PUSH2 0x4DA2 JUMPI PUSH1 0x40 MLOAD PUSH32 0x8C379A000000000000000000000000000000000000000000000000000000000 DUP2 MSTORE PUSH1 0x4 ADD PUSH2 0x4D99 SWAP1 PUSH2 0x9961 JUMP JUMPDEST PUSH1 0x40 MLOAD DUP1 SWAP2 SUB SWAP1 REVERT JUMPDEST DUP1 SWAP2 POP POP SWAP2 SWAP1 POP JUMP JUMPDEST PUSH1 0x0 CALLER SWAP1 POP SWAP1 JUMP JUMPDEST DUP2 PUSH1 0x4 PUSH1 0x0 DUP4 DUP2 MSTORE PUSH1 0x20 ADD SWAP1 DUP2 MSTORE PUSH1 0x20 ADD PUSH1 0x0 KECCAK256 PUSH1 0x0 PUSH2 0x100 EXP DUP2 SLOAD DUP2 PUSH20 0xFFFFFFFFFFFFFFFFFFFFFFFFFFFFFFFFFFFFFFFF MUL NOT AND SWAP1 DUP4 PUSH20 0xFFFFFFFFFFFFFFFFFFFFFFFFFFFFFFFFFFFFFFFF AND MUL OR SWAP1 SSTORE POP DUP1 DUP3 PUSH20 0xFFFFFFFFFFFFFFFFFFFFFFFFFFFFFFFFFFFFFFFF AND PUSH2 0x4E26 DUP4 PUSH2 0x4D25 JUMP JUMPDEST PUSH20 0xFFFFFFFFFFFFFFFFFFFFFFFFFFFFFFFFFFFFFFFF AND PUSH32 0x8C5BE1E5EBEC7D5BD14F71427D1E84F3DD0314C0F7B2291E5B200AC8C7C3B925 PUSH1 0x40 MLOAD PUSH1 0x40 MLOAD DUP1 SWAP2 SUB SWAP1 LOG4 POP POP JUMP JUMPDEST PUSH1 0x0 DUP1 PUSH2 0x4E78 DUP4 PUSH2 0x2731 JUMP JUMPDEST SWAP1 POP DUP1 PUSH20 0xFFFFFFFFFFFFFFFFFFFFFFFFFFFFFFFFFFFFFFFF AND DUP5 PUSH20 0xFFFFFFFFFFFFFFFFFFFFFFFFFFFFFFFFFFFFFFFF AND EQ DUP1 PUSH2 0x4EE7 JUMPI POP DUP4 PUSH20 0xFFFFFFFFFFFFFFFFFFFFFFFFFFFFFFFFFFFFFFFF AND PUSH2 0x4ECF DUP5 PUSH2 0x1396 JUMP JUMPDEST PUSH20 0xFFFFFFFFFFFFFFFFFFFFFFFFFFFFFFFFFFFFFFFF AND EQ JUMPDEST DUP1 PUSH2 0x4EF8 JUMPI POP PUSH2 0x4EF7 DUP2 DUP6 PUSH2 0x481F JUMP JUMPDEST JUMPDEST SWAP2 POP POP SWAP3 SWAP2 POP POP JUMP JUMPDEST DUP3 PUSH20 0xFFFFFFFFFFFFFFFFFFFFFFFFFFFFFFFFFFFFFFFF AND PUSH2 0x4F21 DUP3 PUSH2 0x4D25 JUMP JUMPDEST PUSH20 0xFFFFFFFFFFFFFFFFFFFFFFFFFFFFFFFFFFFFFFFF AND EQ PUSH2 0x4F77 JUMPI PUSH1 0x40 MLOAD PUSH32 0x8C379A000000000000000000000000000000000000000000000000000000000 DUP2 MSTORE PUSH1 0x4 ADD PUSH2 0x4F6E SWAP1 PUSH2 0x99F3 JUMP JUMPDEST PUSH1 0x40 MLOAD DUP1 SWAP2 SUB SWAP1 REVERT JUMPDEST PUSH1 0x0 PUSH20 0xFFFFFFFFFFFFFFFFFFFFFFFFFFFFFFFFFFFFFFFF AND DUP3 PUSH20 0xFFFFFFFFFFFFFFFFFFFFFFFFFFFFFFFFFFFFFFFF AND SUB PUSH2 0x4FE6 JUMPI PUSH1 0x40 MLOAD PUSH32 0x8C379A000000000000000000000000000000000000000000000000000000000 DUP2 MSTORE PUSH1 0x4 ADD PUSH2 0x4FDD SWAP1 PUSH2 0x9A85 JUMP JUMPDEST PUSH1 0x40 MLOAD DUP1 SWAP2 SUB SWAP1 REVERT JUMPDEST PUSH2 0x4FF3 DUP4 DUP4 DUP4 PUSH1 0x1 PUSH2 0x661E JUMP JUMPDEST DUP3 PUSH20 0xFFFFFFFFFFFFFFFFFFFFFFFFFFFFFFFFFFFFFFFF AND PUSH2 0x5013 DUP3 PUSH2 0x4D25 JUMP JUMPDEST PUSH20 0xFFFFFFFFFFFFFFFFFFFFFFFFFFFFFFFFFFFFFFFF AND EQ PUSH2 0x5069 JUMPI PUSH1 0x40 MLOAD PUSH32 0x8C379A000000000000000000000000000000000000000000000000000000000 DUP2 MSTORE PUSH1 0x4 ADD PUSH2 0x5060 SWAP1 PUSH2 0x99F3 JUMP JUMPDEST PUSH1 0x40 MLOAD DUP1 SWAP2 SUB SWAP1 REVERT JUMPDEST PUSH1 0x4 PUSH1 0x0 DUP3 DUP2 MSTORE PUSH1 0x20 ADD SWAP1 DUP2 MSTORE PUSH1 0x20 ADD PUSH1 0x0 KECCAK256 PUSH1 0x0 PUSH2 0x100 EXP DUP2 SLOAD SWAP1 PUSH20 0xFFFFFFFFFFFFFFFFFFFFFFFFFFFFFFFFFFFFFFFF MUL NOT AND SWAP1 SSTORE PUSH1 0x1 PUSH1 0x3 PUSH1 0x0 DUP6 PUSH20 0xFFFFFFFFFFFFFFFFFFFFFFFFFFFFFFFFFFFFFFFF AND PUSH20 0xFFFFFFFFFFFFFFFFFFFFFFFFFFFFFFFFFFFFFFFF AND DUP2 MSTORE PUSH1 0x20 ADD SWAP1 DUP2 MSTORE PUSH1 0x20 ADD PUSH1 0x0 KECCAK256 PUSH1 0x0 DUP3 DUP3 SLOAD SUB SWAP3 POP POP DUP2 SWAP1 SSTORE POP PUSH1 0x1 PUSH1 0x3 PUSH1 0x0 DUP5 PUSH20 0xFFFFFFFFFFFFFFFFFFFFFFFFFFFFFFFFFFFFFFFF AND PUSH20 0xFFFFFFFFFFFFFFFFFFFFFFFFFFFFFFFFFFFFFFFF AND DUP2 MSTORE PUSH1 0x20 ADD SWAP1 DUP2 MSTORE PUSH1 0x20 ADD PUSH1 0x0 KECCAK256 PUSH1 0x0 DUP3 DUP3 SLOAD ADD SWAP3 POP POP DUP2 SWAP1 SSTORE POP DUP2 PUSH1 0x2 PUSH1 0x0 DUP4 DUP2 MSTORE PUSH1 0x20 ADD SWAP1 DUP2 MSTORE PUSH1 0x20 ADD PUSH1 0x0 KECCAK256 PUSH1 0x0 PUSH2 0x100 EXP DUP2 SLOAD DUP2 PUSH20 0xFFFFFFFFFFFFFFFFFFFFFFFFFFFFFFFFFFFFFFFF MUL NOT AND SWAP1 DUP4 PUSH20 0xFFFFFFFFFFFFFFFFFFFFFFFFFFFFFFFFFFFFFFFF AND MUL OR SWAP1 SSTORE POP DUP1 DUP3 PUSH20 0xFFFFFFFFFFFFFFFFFFFFFFFFFFFFFFFFFFFFFFFF AND DUP5 PUSH20 0xFFFFFFFFFFFFFFFFFFFFFFFFFFFFFFFFFFFFFFFF AND PUSH32 0xDDF252AD1BE2C89B69C2B068FC378DAA952BA7F163C4A11628F55A4DF523B3EF PUSH1 0x40 MLOAD PUSH1 0x40 MLOAD DUP1 SWAP2 SUB SWAP1 LOG4 PUSH2 0x51F5 DUP4 DUP4 DUP4 PUSH1 0x1 PUSH2 0x6624 JUMP JUMPDEST POP POP POP JUMP JUMPDEST PUSH1 0x0 SELFBALANCE SWAP1 POP PUSH1 0x0 DUP2 GT DUP1 ISZERO PUSH2 0x5222 JUMPI POP PUSH1 0x13 PUSH1 0x4 SWAP1 SLOAD SWAP1 PUSH2 0x100 EXP SWAP1 DIV PUSH2 0xFFFF AND PUSH2 0xFFFF AND DUP2 LT JUMPDEST ISZERO PUSH2 0x533F JUMPI PUSH2 0x522F PUSH2 0x4DAB JUMP JUMPDEST PUSH20 0xFFFFFFFFFFFFFFFFFFFFFFFFFFFFFFFFFFFFFFFF AND PUSH2 0x8FC DUP3 SWAP1 DUP2 ISZERO MUL SWAP1 PUSH1 0x40 MLOAD PUSH1 0x0 PUSH1 0x40 MLOAD DUP1 DUP4 SUB DUP2 DUP6 DUP9 DUP9 CALL SWAP4 POP POP POP POP ISZERO DUP1 ISZERO PUSH2 0x5274 JUMPI RETURNDATASIZE PUSH1 0x0 DUP1 RETURNDATACOPY RETURNDATASIZE PUSH1 0x0 REVERT JUMPDEST POP DUP1 PUSH1 0x15 PUSH1 0x0 PUSH2 0x5282 PUSH2 0x4DAB JUMP JUMPDEST PUSH20 0xFFFFFFFFFFFFFFFFFFFFFFFFFFFFFFFFFFFFFFFF AND PUSH20 0xFFFFFFFFFFFFFFFFFFFFFFFFFFFFFFFFFFFFFFFF AND DUP2 MSTORE PUSH1 0x20 ADD SWAP1 DUP2 MSTORE PUSH1 0x20 ADD PUSH1 0x0 KECCAK256 PUSH1 0x0 DUP3 DUP3 SLOAD PUSH2 0x52CB SWAP2 SWAP1 PUSH2 0x8AE6 JUMP JUMPDEST SWAP3 POP POP DUP2 SWAP1 SSTORE POP PUSH2 0x52DA PUSH2 0x4DAB JUMP JUMPDEST PUSH20 0xFFFFFFFFFFFFFFFFFFFFFFFFFFFFFFFFFFFFFFFF AND ADDRESS PUSH20 0xFFFFFFFFFFFFFFFFFFFFFFFFFFFFFFFFFFFFFFFF AND PUSH32 0x9B1BFA7FA9EE420A16E124F794C35AC9F90472ACC99140EB2F6447C714CAD8EB DUP4 PUSH1 0x40 MLOAD PUSH2 0x5336 SWAP2 SWAP1 PUSH2 0x7870 JUMP JUMPDEST PUSH1 0x40 MLOAD DUP1 SWAP2 SUB SWAP1 LOG3 JUMPDEST POP JUMP JUMPDEST PUSH1 0x0 PUSH1 0x11 PUSH1 0x0 DUP4 PUSH20 0xFFFFFFFFFFFFFFFFFFFFFFFFFFFFFFFFFFFFFFFF AND PUSH20 0xFFFFFFFFFFFFFFFFFFFFFFFFFFFFFFFFFFFFFFFF AND DUP2 MSTORE PUSH1 0x20 ADD SWAP1 DUP2 MSTORE PUSH1 0x20 ADD PUSH1 0x0 KECCAK256 PUSH1 0x0 SWAP1 SLOAD SWAP1 PUSH2 0x100 EXP SWAP1 DIV PUSH2 0xFFFF AND PUSH2 0xFFFF AND EQ PUSH2 0x53A0 JUMPI PUSH1 0x0 DUP1 REVERT JUMPDEST PUSH1 0x11 PUSH1 0x0 DUP3 PUSH20 0xFFFFFFFFFFFFFFFFFFFFFFFFFFFFFFFFFFFFFFFF AND PUSH20 0xFFFFFFFFFFFFFFFFFFFFFFFFFFFFFFFFFFFFFFFF AND DUP2 MSTORE PUSH1 0x20 ADD SWAP1 DUP2 MSTORE PUSH1 0x20 ADD PUSH1 0x0 KECCAK256 PUSH1 0x0 PUSH2 0x100 EXP DUP2 SLOAD SWAP1 PUSH2 0xFFFF MUL NOT AND SWAP1 SSTORE PUSH1 0x0 JUMPDEST PUSH1 0x12 DUP1 SLOAD SWAP1 POP DUP2 LT ISZERO PUSH2 0x5578 JUMPI DUP2 PUSH20 0xFFFFFFFFFFFFFFFFFFFFFFFFFFFFFFFFFFFFFFFF AND PUSH1 0x12 DUP3 DUP2 SLOAD DUP2 LT PUSH2 0x542B JUMPI PUSH2 0x542A PUSH2 0x86AB JUMP JUMPDEST JUMPDEST SWAP1 PUSH1 0x0 MSTORE PUSH1 0x20 PUSH1 0x0 KECCAK256 ADD PUSH1 0x0 SWAP1 SLOAD SWAP1 PUSH2 0x100 EXP SWAP1 DIV PUSH20 0xFFFFFFFFFFFFFFFFFFFFFFFFFFFFFFFFFFFFFFFF AND PUSH20 0xFFFFFFFFFFFFFFFFFFFFFFFFFFFFFFFFFFFFFFFF AND SUB PUSH2 0x5565 JUMPI PUSH1 0x12 PUSH1 0x1 PUSH1 0x12 DUP1 SLOAD SWAP1 POP PUSH2 0x5485 SWAP2 SWAP1 PUSH2 0x9AA5 JUMP JUMPDEST DUP2 SLOAD DUP2 LT PUSH2 0x5496 JUMPI PUSH2 0x5495 PUSH2 0x86AB JUMP JUMPDEST JUMPDEST SWAP1 PUSH1 0x0 MSTORE PUSH1 0x20 PUSH1 0x0 KECCAK256 ADD PUSH1 0x0 SWAP1 SLOAD SWAP1 PUSH2 0x100 EXP SWAP1 DIV PUSH20 0xFFFFFFFFFFFFFFFFFFFFFFFFFFFFFFFFFFFFFFFF AND PUSH1 0x12 DUP3 DUP2 SLOAD DUP2 LT PUSH2 0x54D5 JUMPI PUSH2 0x54D4 PUSH2 0x86AB JUMP JUMPDEST JUMPDEST SWAP1 PUSH1 0x0 MSTORE PUSH1 0x20 PUSH1 0x0 KECCAK256 ADD PUSH1 0x0 PUSH2 0x100 EXP DUP2 SLOAD DUP2 PUSH20 0xFFFFFFFFFFFFFFFFFFFFFFFFFFFFFFFFFFFFFFFF MUL NOT AND SWAP1 DUP4 PUSH20 0xFFFFFFFFFFFFFFFFFFFFFFFFFFFFFFFFFFFFFFFF AND MUL OR SWAP1 SSTORE POP PUSH1 0x12 DUP1 SLOAD DUP1 PUSH2 0x552F JUMPI PUSH2 0x552E PUSH2 0x9AD9 JUMP JUMPDEST JUMPDEST PUSH1 0x1 SWAP1 SUB DUP2 DUP2 SWAP1 PUSH1 0x0 MSTORE PUSH1 0x20 PUSH1 0x0 KECCAK256 ADD PUSH1 0x0 PUSH2 0x100 EXP DUP2 SLOAD SWAP1 PUSH20 0xFFFFFFFFFFFFFFFFFFFFFFFFFFFFFFFFFFFFFFFF MUL NOT AND SWAP1 SSTORE SWAP1 SSTORE JUMPDEST DUP1 DUP1 PUSH2 0x5570 SWAP1 PUSH2 0x8709 JUMP JUMPDEST SWAP2 POP POP PUSH2 0x53F3 JUMP JUMPDEST POP DUP1 PUSH20 0xFFFFFFFFFFFFFFFFFFFFFFFFFFFFFFFFFFFFFFFF AND PUSH32 0xB9B0748E6A6D0253614C9F5D91124D02712B9B5F395EC9C8CB0335BD2FD1847F PUSH1 0x40 MLOAD PUSH1 0x40 MLOAD DUP1 SWAP2 SUB SWAP1 LOG2 POP JUMP JUMPDEST PUSH1 0x0 PUSH1 0x6 PUSH1 0x0 SWAP1 SLOAD SWAP1 PUSH2 0x100 EXP SWAP1 DIV PUSH20 0xFFFFFFFFFFFFFFFFFFFFFFFFFFFFFFFFFFFFFFFF AND SWAP1 POP DUP2 PUSH1 0x6 PUSH1 0x0 PUSH2 0x100 EXP DUP2 SLOAD DUP2 PUSH20 0xFFFFFFFFFFFFFFFFFFFFFFFFFFFFFFFFFFFFFFFF MUL NOT AND SWAP1 DUP4 PUSH20 0xFFFFFFFFFFFFFFFFFFFFFFFFFFFFFFFFFFFFFFFF AND MUL OR SWAP1 SSTORE POP DUP2 PUSH20 0xFFFFFFFFFFFFFFFFFFFFFFFFFFFFFFFFFFFFFFFF AND DUP2 PUSH20 0xFFFFFFFFFFFFFFFFFFFFFFFFFFFFFFFFFFFFFFFF AND PUSH32 0x8BE0079C531659141344CD1FD0A4F28419497F9722A3DAAFE3B4186F6B6457E0 PUSH1 0x40 MLOAD PUSH1 0x40 MLOAD DUP1 SWAP2 SUB SWAP1 LOG3 POP POP JUMP JUMPDEST PUSH1 0x60 PUSH1 0x40 MLOAD SWAP1 POP DUP2 MLOAD DUP1 DUP3 MSTORE PUSH1 0x20 DUP4 ADD SWAP3 POP PUSH1 0x20 PUSH1 0x40 MLOAD ADD SWAP2 POP PUSH1 0x0 JUMPDEST DUP2 DUP2 LT ISZERO PUSH2 0x56DD JUMPI DUP1 DUP5 ADD DUP1 MLOAD PUSH1 0xF8 SHR DUP1 PUSH1 0x5A EQ DUP2 PUSH1 0x5A GT OR DUP2 PUSH1 0x41 EQ PUSH1 0x41 DUP4 GT OR AND PUSH1 0x20 MUL DUP1 DUP3 ADD DUP5 DUP8 ADD MSTORE8 POP POP POP PUSH1 0x1 DUP2 ADD SWAP1 POP PUSH2 0x56A2 JUMP JUMPDEST POP PUSH1 0x20 DUP3 SUB SWAP2 POP PUSH1 0x1F NOT PUSH1 0x40 DUP3 ADD AND DUP3 ADD PUSH1 0x40 MSTORE POP SWAP2 SWAP1 POP JUMP JUMPDEST PUSH1 0x0 PUSH1 0xA DUP3 PUSH1 0x40 MLOAD PUSH2 0x5709 SWAP2 SWAP1 PUSH2 0x943D JUMP JUMPDEST SWAP1 DUP2 MSTORE PUSH1 0x20 ADD PUSH1 0x40 MLOAD DUP1 SWAP2 SUB SWAP1 KECCAK256 PUSH1 0x0 SWAP1 SLOAD SWAP1 PUSH2 0x100 EXP SWAP1 DIV PUSH1 0xFF AND SWAP1 POP SWAP2 SWAP1 POP JUMP JUMPDEST PUSH1 0x0 PUSH1 0xE PUSH1 0x0 DUP4 DUP2 MSTORE PUSH1 0x20 ADD SWAP1 DUP2 MSTORE PUSH1 0x20 ADD PUSH1 0x0 KECCAK256 PUSH1 0x5 ADD PUSH1 0x1 SWAP1 SLOAD SWAP1 PUSH2 0x100 EXP SWAP1 DIV PUSH1 0xFF AND ISZERO DUP1 ISZERO PUSH2 0x577F JUMPI POP PUSH1 0xE PUSH1 0x0 DUP4 DUP2 MSTORE PUSH1 0x20 ADD SWAP1 DUP2 MSTORE PUSH1 0x20 ADD PUSH1 0x0 KECCAK256 PUSH1 0x5 ADD PUSH1 0x0 SWAP1 SLOAD SWAP1 PUSH2 0x100 EXP SWAP1 DIV PUSH1 0xFF AND JUMPDEST DUP1 ISZERO PUSH2 0x57A1 JUMPI POP TIMESTAMP PUSH1 0xE PUSH1 0x0 DUP5 DUP2 MSTORE PUSH1 0x20 ADD SWAP1 DUP2 MSTORE PUSH1 0x20 ADD PUSH1 0x0 KECCAK256 PUSH1 0x2 ADD SLOAD GT ISZERO JUMPDEST SWAP1 POP SWAP2 SWAP1 POP JUMP JUMPDEST PUSH1 0x0 PUSH1 0xD PUSH1 0x0 DUP4 DUP2 MSTORE PUSH1 0x20 ADD SWAP1 DUP2 MSTORE PUSH1 0x20 ADD PUSH1 0x0 KECCAK256 PUSH1 0x5 ADD PUSH1 0x1 SWAP1 SLOAD SWAP1 PUSH2 0x100 EXP SWAP1 DIV PUSH1 0xFF AND ISZERO DUP1 ISZERO PUSH2 0x57FB JUMPI POP PUSH1 0xD PUSH1 0x0 DUP4 DUP2 MSTORE PUSH1 0x20 ADD SWAP1 DUP2 MSTORE PUSH1 0x20 ADD PUSH1 0x0 KECCAK256 PUSH1 0x5 ADD PUSH1 0x0 SWAP1 SLOAD SWAP1 PUSH2 0x100 EXP SWAP1 DIV PUSH1 0xFF AND JUMPDEST DUP1 ISZERO PUSH2 0x581D JUMPI POP TIMESTAMP PUSH1 0xD PUSH1 0x0 DUP5 DUP2 MSTORE PUSH1 0x20 ADD SWAP1 DUP2 MSTORE PUSH1 0x20 ADD PUSH1 0x0 KECCAK256 PUSH1 0x2 ADD SLOAD GT ISZERO JUMPDEST SWAP1 POP SWAP2 SWAP1 POP JUMP JUMPDEST PUSH1 0x0 DUP1 PUSH1 0x10 DUP1 SLOAD SWAP1 POP SUB PUSH2 0x583B JUMPI PUSH1 0x0 SWAP1 POP PUSH2 0x5A9B JUMP JUMPDEST PUSH1 0x0 DUP1 DUP4 DUP1 MLOAD SWAP1 PUSH1 0x20 ADD KECCAK256 PUSH1 0x0 SHR SWAP1 POP PUSH1 0x8 PUSH1 0x0 SWAP1 SLOAD SWAP1 PUSH2 0x100 EXP SWAP1 DIV PUSH20 0xFFFFFFFFFFFFFFFFFFFFFFFFFFFFFFFFFFFFFFFF AND PUSH20 0xFFFFFFFFFFFFFFFFFFFFFFFFFFFFFFFFFFFFFFFF AND PUSH4 0x33CB2E33 DUP3 PUSH1 0x40 MLOAD DUP3 PUSH4 0xFFFFFFFF AND PUSH1 0xE0 SHL DUP2 MSTORE PUSH1 0x4 ADD PUSH2 0x58A6 SWAP2 SWAP1 PUSH2 0x7870 JUMP JUMPDEST PUSH1 0x20 PUSH1 0x40 MLOAD DUP1 DUP4 SUB DUP2 PUSH1 0x0 DUP8 GAS CALL ISZERO DUP1 ISZERO PUSH2 0x58C5 JUMPI RETURNDATASIZE PUSH1 0x0 DUP1 RETURNDATACOPY RETURNDATASIZE PUSH1 0x0 REVERT JUMPDEST POP POP POP POP PUSH1 0x40 MLOAD RETURNDATASIZE PUSH1 0x1F NOT PUSH1 0x1F DUP3 ADD AND DUP3 ADD DUP1 PUSH1 0x40 MSTORE POP DUP2 ADD SWAP1 PUSH2 0x58E9 SWAP2 SWAP1 PUSH2 0x8766 JUMP JUMPDEST PUSH2 0x58F8 JUMPI PUSH1 0x0 SWAP3 POP POP POP PUSH2 0x5A9B JUMP JUMPDEST PUSH1 0x0 PUSH1 0x8 PUSH1 0x0 SWAP1 SLOAD SWAP1 PUSH2 0x100 EXP SWAP1 DIV PUSH20 0xFFFFFFFFFFFFFFFFFFFFFFFFFFFFFFFFFFFFFFFF AND PUSH20 0xFFFFFFFFFFFFFFFFFFFFFFFFFFFFFFFFFFFFFFFF AND PUSH4 0xE378ADD6 DUP4 PUSH1 0x40 MLOAD DUP3 PUSH4 0xFFFFFFFF AND PUSH1 0xE0 SHL DUP2 MSTORE PUSH1 0x4 ADD PUSH2 0x5955 SWAP2 SWAP1 PUSH2 0x7870 JUMP JUMPDEST PUSH1 0x0 PUSH1 0x40 MLOAD DUP1 DUP4 SUB DUP2 PUSH1 0x0 DUP8 GAS CALL ISZERO DUP1 ISZERO PUSH2 0x5974 JUMPI RETURNDATASIZE PUSH1 0x0 DUP1 RETURNDATACOPY RETURNDATASIZE PUSH1 0x0 REVERT JUMPDEST POP POP POP POP PUSH1 0x40 MLOAD RETURNDATASIZE PUSH1 0x0 DUP3 RETURNDATACOPY RETURNDATASIZE PUSH1 0x1F NOT PUSH1 0x1F DUP3 ADD AND DUP3 ADD DUP1 PUSH1 0x40 MSTORE POP DUP2 ADD SWAP1 PUSH2 0x599D SWAP2 SWAP1 PUSH2 0x8662 JUMP JUMPDEST SWAP1 POP PUSH1 0x0 JUMPDEST DUP2 MLOAD DUP2 LT ISZERO PUSH2 0x5A93 JUMPI PUSH1 0xF PUSH1 0x0 DUP4 DUP4 DUP2 MLOAD DUP2 LT PUSH2 0x59C2 JUMPI PUSH2 0x59C1 PUSH2 0x86AB JUMP JUMPDEST JUMPDEST PUSH1 0x20 MUL PUSH1 0x20 ADD ADD MLOAD DUP2 MSTORE PUSH1 0x20 ADD SWAP1 DUP2 MSTORE PUSH1 0x20 ADD PUSH1 0x0 KECCAK256 PUSH1 0x5 ADD PUSH1 0x1 SWAP1 SLOAD SWAP1 PUSH2 0x100 EXP SWAP1 DIV PUSH1 0xFF AND DUP1 PUSH2 0x5A6A JUMPI POP PUSH1 0xF PUSH1 0x0 DUP4 DUP4 DUP2 MLOAD DUP2 LT PUSH2 0x5A06 JUMPI PUSH2 0x5A05 PUSH2 0x86AB JUMP JUMPDEST JUMPDEST PUSH1 0x20 MUL PUSH1 0x20 ADD ADD MLOAD DUP2 MSTORE PUSH1 0x20 ADD SWAP1 DUP2 MSTORE PUSH1 0x20 ADD PUSH1 0x0 KECCAK256 PUSH1 0x5 ADD PUSH1 0x0 SWAP1 SLOAD SWAP1 PUSH2 0x100 EXP SWAP1 DIV PUSH1 0xFF AND ISZERO DUP1 ISZERO PUSH2 0x5A69 JUMPI POP TIMESTAMP PUSH1 0xF PUSH1 0x0 DUP5 DUP5 DUP2 MLOAD DUP2 LT PUSH2 0x5A4D JUMPI PUSH2 0x5A4C PUSH2 0x86AB JUMP JUMPDEST JUMPDEST PUSH1 0x20 MUL PUSH1 0x20 ADD ADD MLOAD DUP2 MSTORE PUSH1 0x20 ADD SWAP1 DUP2 MSTORE PUSH1 0x20 ADD PUSH1 0x0 KECCAK256 PUSH1 0x2 ADD SLOAD GT JUMPDEST JUMPDEST ISZERO PUSH2 0x5A7C JUMPI PUSH1 0x0 SWAP5 POP POP POP POP POP PUSH2 0x5A9B JUMP JUMPDEST PUSH1 0x1 SWAP4 POP DUP1 DUP1 PUSH2 0x5A8B SWAP1 PUSH2 0x8709 JUMP JUMPDEST SWAP2 POP POP PUSH2 0x59A2 JUMP JUMPDEST POP DUP3 SWAP4 POP POP POP POP JUMPDEST SWAP2 SWAP1 POP JUMP JUMPDEST DUP2 PUSH20 0xFFFFFFFFFFFFFFFFFFFFFFFFFFFFFFFFFFFFFFFF AND DUP4 PUSH20 0xFFFFFFFFFFFFFFFFFFFFFFFFFFFFFFFFFFFFFFFF AND SUB PUSH2 0x5B0E JUMPI PUSH1 0x40 MLOAD PUSH32 0x8C379A000000000000000000000000000000000000000000000000000000000 DUP2 MSTORE PUSH1 0x4 ADD PUSH2 0x5B05 SWAP1 PUSH2 0x9B54 JUMP JUMPDEST PUSH1 0x40 MLOAD DUP1 SWAP2 SUB SWAP1 REVERT JUMPDEST DUP1 PUSH1 0x5 PUSH1 0x0 DUP6 PUSH20 0xFFFFFFFFFFFFFFFFFFFFFFFFFFFFFFFFFFFFFFFF AND PUSH20 0xFFFFFFFFFFFFFFFFFFFFFFFFFFFFFFFFFFFFFFFF AND DUP2 MSTORE PUSH1 0x20 ADD SWAP1 DUP2 MSTORE PUSH1 0x20 ADD PUSH1 0x0 KECCAK256 PUSH1 0x0 DUP5 PUSH20 0xFFFFFFFFFFFFFFFFFFFFFFFFFFFFFFFFFFFFFFFF AND PUSH20 0xFFFFFFFFFFFFFFFFFFFFFFFFFFFFFFFFFFFFFFFF AND DUP2 MSTORE PUSH1 0x20 ADD SWAP1 DUP2 MSTORE PUSH1 0x20 ADD PUSH1 0x0 KECCAK256 PUSH1 0x0 PUSH2 0x100 EXP DUP2 SLOAD DUP2 PUSH1 0xFF MUL NOT AND SWAP1 DUP4 ISZERO ISZERO MUL OR SWAP1 SSTORE POP DUP2 PUSH20 0xFFFFFFFFFFFFFFFFFFFFFFFFFFFFFFFFFFFFFFFF AND DUP4 PUSH20 0xFFFFFFFFFFFFFFFFFFFFFFFFFFFFFFFFFFFFFFFF AND PUSH32 0x17307EAB39AB6107E8899845AD3D59BD9653F200F220920489CA2B5937696C31 DUP4 PUSH1 0x40 MLOAD PUSH2 0x5BFF SWAP2 SWAP1 PUSH2 0x7277 JUMP JUMPDEST PUSH1 0x40 MLOAD DUP1 SWAP2 SUB SWAP1 LOG3 POP POP POP JUMP JUMPDEST PUSH1 0x0 PUSH1 0xE PUSH1 0x0 DUP4 DUP2 MSTORE PUSH1 0x20 ADD SWAP1 DUP2 MSTORE PUSH1 0x20 ADD PUSH1 0x0 KECCAK256 PUSH1 0x5 ADD PUSH1 0x0 SWAP1 SLOAD SWAP1 PUSH2 0x100 EXP SWAP1 DIV PUSH1 0xFF AND DUP1 ISZERO PUSH2 0x5C54 JUMPI POP TIMESTAMP PUSH1 0xE PUSH1 0x0 DUP5 DUP2 MSTORE PUSH1 0x20 ADD SWAP1 DUP2 MSTORE PUSH1 0x20 ADD PUSH1 0x0 KECCAK256 PUSH1 0x2 ADD SLOAD GT ISZERO JUMPDEST SWAP1 POP SWAP2 SWAP1 POP JUMP JUMPDEST PUSH1 0x0 PUSH1 0xD PUSH1 0x0 DUP4 DUP2 MSTORE PUSH1 0x20 ADD SWAP1 DUP2 MSTORE PUSH1 0x20 ADD PUSH1 0x0 KECCAK256 PUSH1 0x5 ADD PUSH1 0x0 SWAP1 SLOAD SWAP1 PUSH2 0x100 EXP SWAP1 DIV PUSH1 0xFF AND DUP1 ISZERO PUSH2 0x5CA3 JUMPI POP TIMESTAMP PUSH1 0xD PUSH1 0x0 DUP5 DUP2 MSTORE PUSH1 0x20 ADD SWAP1 DUP2 MSTORE PUSH1 0x20 ADD PUSH1 0x0 KECCAK256 PUSH1 0x2 ADD SLOAD GT ISZERO JUMPDEST SWAP1 POP SWAP2 SWAP1 POP JUMP JUMPDEST PUSH1 0x0 DUP1 PUSH1 0x10 DUP1 SLOAD SWAP1 POP SUB PUSH2 0x5CC1 JUMPI PUSH1 0x0 SWAP1 POP PUSH2 0x5EDC JUMP JUMPDEST PUSH1 0x0 DUP1 DUP4 DUP1 MLOAD SWAP1 PUSH1 0x20 ADD KECCAK256 PUSH1 0x0 SHR SWAP1 POP PUSH1 0x8 PUSH1 0x0 SWAP1 SLOAD SWAP1 PUSH2 0x100 EXP SWAP1 DIV PUSH20 0xFFFFFFFFFFFFFFFFFFFFFFFFFFFFFFFFFFFFFFFF AND PUSH20 0xFFFFFFFFFFFFFFFFFFFFFFFFFFFFFFFFFFFFFFFF AND PUSH4 0x33CB2E33 DUP3 PUSH1 0x40 MLOAD DUP3 PUSH4 0xFFFFFFFF AND PUSH1 0xE0 SHL DUP2 MSTORE PUSH1 0x4 ADD PUSH2 0x5D2C SWAP2 SWAP1 PUSH2 0x7870 JUMP JUMPDEST PUSH1 0x20 PUSH1 0x40 MLOAD DUP1 DUP4 SUB DUP2 PUSH1 0x0 DUP8 GAS CALL ISZERO DUP1 ISZERO PUSH2 0x5D4B JUMPI RETURNDATASIZE PUSH1 0x0 DUP1 RETURNDATACOPY RETURNDATASIZE PUSH1 0x0 REVERT JUMPDEST POP POP POP POP PUSH1 0x40 MLOAD RETURNDATASIZE PUSH1 0x1F NOT PUSH1 0x1F DUP3 ADD AND DUP3 ADD DUP1 PUSH1 0x40 MSTORE POP DUP2 ADD SWAP1 PUSH2 0x5D6F SWAP2 SWAP1 PUSH2 0x8766 JUMP JUMPDEST PUSH2 0x5D7E JUMPI PUSH1 0x0 SWAP3 POP POP POP PUSH2 0x5EDC JUMP JUMPDEST PUSH1 0x0 PUSH1 0x8 PUSH1 0x0 SWAP1 SLOAD SWAP1 PUSH2 0x100 EXP SWAP1 DIV PUSH20 0xFFFFFFFFFFFFFFFFFFFFFFFFFFFFFFFFFFFFFFFF AND PUSH20 0xFFFFFFFFFFFFFFFFFFFFFFFFFFFFFFFFFFFFFFFF AND PUSH4 0xE378ADD6 DUP4 PUSH1 0x40 MLOAD DUP3 PUSH4 0xFFFFFFFF AND PUSH1 0xE0 SHL DUP2 MSTORE PUSH1 0x4 ADD PUSH2 0x5DDB SWAP2 SWAP1 PUSH2 0x7870 JUMP JUMPDEST PUSH1 0x0 PUSH1 0x40 MLOAD DUP1 DUP4 SUB DUP2 PUSH1 0x0 DUP8 GAS CALL ISZERO DUP1 ISZERO PUSH2 0x5DFA JUMPI RETURNDATASIZE PUSH1 0x0 DUP1 RETURNDATACOPY RETURNDATASIZE PUSH1 0x0 REVERT JUMPDEST POP POP POP POP PUSH1 0x40 MLOAD RETURNDATASIZE PUSH1 0x0 DUP3 RETURNDATACOPY RETURNDATASIZE PUSH1 0x1F NOT PUSH1 0x1F DUP3 ADD AND DUP3 ADD DUP1 PUSH1 0x40 MSTORE POP DUP2 ADD SWAP1 PUSH2 0x5E23 SWAP2 SWAP1 PUSH2 0x8662 JUMP JUMPDEST SWAP1 POP PUSH1 0x0 JUMPDEST DUP2 MLOAD DUP2 LT ISZERO PUSH2 0x5ED4 JUMPI PUSH1 0xF PUSH1 0x0 DUP4 DUP4 DUP2 MLOAD DUP2 LT PUSH2 0x5E48 JUMPI PUSH2 0x5E47 PUSH2 0x86AB JUMP JUMPDEST JUMPDEST PUSH1 0x20 MUL PUSH1 0x20 ADD ADD MLOAD DUP2 MSTORE PUSH1 0x20 ADD SWAP1 DUP2 MSTORE PUSH1 0x20 ADD PUSH1 0x0 KECCAK256 PUSH1 0x5 ADD PUSH1 0x0 SWAP1 SLOAD SWAP1 PUSH2 0x100 EXP SWAP1 DIV PUSH1 0xFF AND ISZERO DUP1 ISZERO PUSH2 0x5EAB JUMPI POP TIMESTAMP PUSH1 0xF PUSH1 0x0 DUP5 DUP5 DUP2 MLOAD DUP2 LT PUSH2 0x5E8F JUMPI PUSH2 0x5E8E PUSH2 0x86AB JUMP JUMPDEST JUMPDEST PUSH1 0x20 MUL PUSH1 0x20 ADD ADD MLOAD DUP2 MSTORE PUSH1 0x20 ADD SWAP1 DUP2 MSTORE PUSH1 0x20 ADD PUSH1 0x0 KECCAK256 PUSH1 0x2 ADD SLOAD GT JUMPDEST ISZERO PUSH2 0x5EBD JUMPI PUSH1 0x0 SWAP5 POP POP POP POP POP PUSH2 0x5EDC JUMP JUMPDEST PUSH1 0x1 SWAP4 POP DUP1 DUP1 PUSH2 0x5ECC SWAP1 PUSH2 0x8709 JUMP JUMPDEST SWAP2 POP POP PUSH2 0x5E28 JUMP JUMPDEST POP DUP3 SWAP4 POP POP POP POP JUMPDEST SWAP2 SWAP1 POP JUMP JUMPDEST PUSH1 0x0 DUP4 DUP1 MLOAD SWAP1 PUSH1 0x20 ADD KECCAK256 PUSH1 0x0 SHR SWAP1 POP PUSH4 0x1E13380 DUP3 LT ISZERO PUSH2 0x5F37 JUMPI PUSH1 0x40 MLOAD PUSH32 0x8C379A000000000000000000000000000000000000000000000000000000000 DUP2 MSTORE PUSH1 0x4 ADD PUSH2 0x5F2E SWAP1 PUSH2 0x9BC0 JUMP JUMPDEST PUSH1 0x40 MLOAD DUP1 SWAP2 SUB SWAP1 REVERT JUMPDEST PUSH1 0x0 DUP1 PUSH1 0x0 DUP1 PUSH1 0x0 DUP1 PUSH1 0x0 PUSH2 0x5F4B DUP9 PUSH2 0x5C0C JUMP JUMPDEST ISZERO PUSH2 0x5F7A JUMPI PUSH1 0x1 SWAP1 POP PUSH1 0xE PUSH1 0x0 DUP10 DUP2 MSTORE PUSH1 0x20 ADD SWAP1 DUP2 MSTORE PUSH1 0x20 ADD PUSH1 0x0 KECCAK256 PUSH1 0x4 ADD SLOAD SWAP2 POP PUSH2 0x5F77 DUP3 DUP7 PUSH2 0x195B JUMP JUMPDEST SWAP5 POP JUMPDEST PUSH2 0x5F84 DUP12 MLOAD PUSH2 0x5C5B JUMP JUMPDEST ISZERO PUSH2 0x5FBA JUMPI PUSH1 0x1 SWAP1 POP PUSH1 0x0 DUP12 MLOAD SWAP1 POP PUSH1 0xD PUSH1 0x0 DUP3 DUP2 MSTORE PUSH1 0x20 ADD SWAP1 DUP2 MSTORE PUSH1 0x20 ADD PUSH1 0x0 KECCAK256 PUSH1 0x4 ADD SLOAD SWAP3 POP PUSH2 0x5FB6 DUP4 DUP8 PUSH2 0x195B JUMP JUMPDEST SWAP6 POP POP JUMPDEST PUSH2 0x5FC3 DUP12 PUSH2 0x5CAA JUMP JUMPDEST ISZERO PUSH2 0x5FEE JUMPI PUSH1 0x1 SWAP1 POP PUSH2 0x5FD5 DUP12 PUSH2 0x3ECC JUMP JUMPDEST DUP1 SWAP5 POP DUP2 SWAP6 POP DUP3 SWAP7 POP POP POP POP PUSH2 0x5FEB DUP3 DUP7 PUSH2 0x195B JUMP JUMPDEST SWAP5 POP JUMPDEST DUP1 PUSH2 0x602E JUMPI PUSH1 0x40 MLOAD PUSH32 0x8C379A000000000000000000000000000000000000000000000000000000000 DUP2 MSTORE PUSH1 0x4 ADD PUSH2 0x6025 SWAP1 PUSH2 0x9C2C JUMP JUMPDEST PUSH1 0x40 MLOAD DUP1 SWAP2 SUB SWAP1 REVERT JUMPDEST PUSH1 0x0 DUP6 GT PUSH2 0x6071 JUMPI PUSH1 0x40 MLOAD PUSH32 0x8C379A000000000000000000000000000000000000000000000000000000000 DUP2 MSTORE PUSH1 0x4 ADD PUSH2 0x6068 SWAP1 PUSH2 0x9C98 JUMP JUMPDEST PUSH1 0x40 MLOAD DUP1 SWAP2 SUB SWAP1 REVERT JUMPDEST PUSH1 0x0 DUP6 PUSH4 0x1E13380 DUP12 PUSH2 0x6084 SWAP2 SWAP1 PUSH2 0x8A73 JUMP JUMPDEST PUSH2 0x608E SWAP2 SWAP1 PUSH2 0x8AA4 JUMP JUMPDEST SWAP1 POP DUP1 DUP12 LT ISZERO PUSH2 0x60D3 JUMPI PUSH1 0x40 MLOAD PUSH32 0x8C379A000000000000000000000000000000000000000000000000000000000 DUP2 MSTORE PUSH1 0x4 ADD PUSH2 0x60CA SWAP1 PUSH2 0x9D04 JUMP JUMPDEST PUSH1 0x40 MLOAD DUP1 SWAP2 SUB SWAP1 REVERT JUMPDEST POP POP POP POP POP POP POP POP POP POP POP POP JUMP JUMPDEST PUSH2 0x60EC DUP5 DUP5 DUP5 PUSH2 0x4F01 JUMP JUMPDEST PUSH2 0x60F8 DUP5 DUP5 DUP5 DUP5 PUSH2 0x662A JUMP JUMPDEST PUSH2 0x6137 JUMPI PUSH1 0x40 MLOAD PUSH32 0x8C379A000000000000000000000000000000000000000000000000000000000 DUP2 MSTORE PUSH1 0x4 ADD PUSH2 0x612E SWAP1 PUSH2 0x9D96 JUMP JUMPDEST PUSH1 0x40 MLOAD DUP1 SWAP2 SUB SWAP1 REVERT JUMPDEST POP POP POP POP JUMP JUMPDEST PUSH1 0x60 PUSH1 0x40 MLOAD DUP1 PUSH1 0x20 ADD PUSH1 0x40 MSTORE DUP1 PUSH1 0x0 DUP2 MSTORE POP SWAP1 POP SWAP1 JUMP JUMPDEST PUSH1 0x60 PUSH1 0x0 PUSH1 0x1 PUSH2 0x6163 DUP5 PUSH2 0x67B1 JUMP JUMPDEST ADD SWAP1 POP PUSH1 0x0 DUP2 PUSH8 0xFFFFFFFFFFFFFFFF DUP2 GT ISZERO PUSH2 0x6182 JUMPI PUSH2 0x6181 PUSH2 0x74F4 JUMP JUMPDEST JUMPDEST PUSH1 0x40 MLOAD SWAP1 DUP1 DUP3 MSTORE DUP1 PUSH1 0x1F ADD PUSH1 0x1F NOT AND PUSH1 0x20 ADD DUP3 ADD PUSH1 0x40 MSTORE DUP1 ISZERO PUSH2 0x61B4 JUMPI DUP2 PUSH1 0x20 ADD PUSH1 0x1 DUP3 MUL DUP1 CALLDATASIZE DUP4 CALLDATACOPY DUP1 DUP3 ADD SWAP2 POP POP SWAP1 POP JUMPDEST POP SWAP1 POP PUSH1 0x0 DUP3 PUSH1 0x20 ADD DUP3 ADD SWAP1 POP JUMPDEST PUSH1 0x1 ISZERO PUSH2 0x6217 JUMPI DUP1 DUP1 PUSH1 0x1 SWAP1 SUB SWAP2 POP POP PUSH32 0x3031323334353637383961626364656600000000000000000000000000000000 PUSH1 0xA DUP7 MOD BYTE DUP2 MSTORE8 PUSH1 0xA DUP6 DUP2 PUSH2 0x620B JUMPI PUSH2 0x620A PUSH2 0x8A44 JUMP JUMPDEST JUMPDEST DIV SWAP5 POP PUSH1 0x0 DUP6 SUB PUSH2 0x61C2 JUMPI JUMPDEST DUP2 SWAP4 POP POP POP POP SWAP2 SWAP1 POP JUMP JUMPDEST PUSH1 0x0 DUP1 DUP6 DUP1 MLOAD SWAP1 PUSH1 0x20 ADD KECCAK256 PUSH1 0x0 SHR SWAP1 POP PUSH2 0x623B DUP2 PUSH2 0x572C JUMP JUMPDEST DUP1 PUSH2 0x624C JUMPI POP PUSH2 0x624B DUP7 MLOAD PUSH2 0x57A8 JUMP JUMPDEST JUMPDEST DUP1 PUSH2 0x625C JUMPI POP PUSH2 0x625B DUP7 PUSH2 0x5824 JUMP JUMPDEST JUMPDEST PUSH2 0x629B JUMPI PUSH1 0x40 MLOAD PUSH32 0x8C379A000000000000000000000000000000000000000000000000000000000 DUP2 MSTORE PUSH1 0x4 ADD PUSH2 0x6292 SWAP1 PUSH2 0x96AE JUMP JUMPDEST PUSH1 0x40 MLOAD DUP1 SWAP2 SUB SWAP1 REVERT JUMPDEST PUSH2 0x62A4 DUP7 PUSH2 0x56F7 JUMP JUMPDEST ISZERO PUSH2 0x62E4 JUMPI PUSH1 0x40 MLOAD PUSH32 0x8C379A000000000000000000000000000000000000000000000000000000000 DUP2 MSTORE PUSH1 0x4 ADD PUSH2 0x62DB SWAP1 PUSH2 0x9E02 JUMP JUMPDEST PUSH1 0x40 MLOAD DUP1 SWAP2 SUB SWAP1 REVERT JUMPDEST PUSH2 0x62ED DUP7 PUSH2 0x6904 JUMP JUMPDEST ISZERO PUSH2 0x632D JUMPI PUSH1 0x40 MLOAD PUSH32 0x8C379A000000000000000000000000000000000000000000000000000000000 DUP2 MSTORE PUSH1 0x4 ADD PUSH2 0x6324 SWAP1 PUSH2 0x9E6E JUMP JUMPDEST PUSH1 0x40 MLOAD DUP1 SWAP2 SUB SWAP1 REVERT JUMPDEST PUSH2 0x6338 DUP7 CALLVALUE DUP7 PUSH2 0x6ADE JUMP JUMPDEST CALLVALUE PUSH1 0x14 PUSH1 0x0 DUP3 DUP3 SLOAD PUSH2 0x634A SWAP2 SWAP1 PUSH2 0x8AE6 JUMP JUMPDEST SWAP3 POP POP DUP2 SWAP1 SSTORE POP PUSH2 0x635A DUP2 PUSH2 0x369C JUMP JUMPDEST PUSH2 0x6399 JUMPI PUSH1 0x40 MLOAD PUSH32 0x8C379A000000000000000000000000000000000000000000000000000000000 DUP2 MSTORE PUSH1 0x4 ADD PUSH2 0x6390 SWAP1 PUSH2 0x9EDA JUMP JUMPDEST PUSH1 0x40 MLOAD DUP1 SWAP2 SUB SWAP1 REVERT JUMPDEST PUSH1 0x0 TIMESTAMP PUSH2 0x63A6 SWAP2 SWAP1 PUSH2 0x8AE6 JUMP JUMPDEST PUSH1 0x0 DUP6 TIMESTAMP PUSH2 0x63B4 SWAP2 SWAP1 PUSH2 0x8AE6 JUMP JUMPDEST PUSH2 0x63BE SWAP2 SWAP1 PUSH2 0x8AE6 JUMP JUMPDEST GT PUSH2 0x63C8 JUMPI PUSH1 0x0 DUP1 REVERT JUMPDEST DUP4 TIMESTAMP PUSH2 0x63D4 SWAP2 SWAP1 PUSH2 0x8AE6 JUMP JUMPDEST PUSH1 0x16 PUSH1 0x0 DUP4 DUP2 MSTORE PUSH1 0x20 ADD SWAP1 DUP2 MSTORE PUSH1 0x20 ADD PUSH1 0x0 KECCAK256 DUP2 SWAP1 SSTORE POP PUSH2 0x63F4 DUP2 PUSH2 0x65A0 JUMP JUMPDEST ISZERO PUSH2 0x6403 JUMPI PUSH2 0x6402 DUP2 PUSH2 0x6D97 JUMP JUMPDEST JUMPDEST PUSH2 0x640D DUP6 DUP3 PUSH2 0x6EE5 JUMP JUMPDEST DUP3 ISZERO PUSH2 0x652E JUMPI PUSH1 0x0 PUSH4 0x8C379A0 PUSH1 0xE0 SHL SWAP1 POP PUSH1 0x0 PUSH1 0x7 PUSH1 0x0 SWAP1 SLOAD SWAP1 PUSH2 0x100 EXP SWAP1 DIV PUSH20 0xFFFFFFFFFFFFFFFFFFFFFFFFFFFFFFFFFFFFFFFF AND PUSH20 0xFFFFFFFFFFFFFFFFFFFFFFFFFFFFFFFFFFFFFFFF AND PUSH4 0x6AB5923 PUSH1 0x9 SLOAD DUP6 PUSH1 0x0 SHL DUP11 PUSH1 0x40 MLOAD DUP5 PUSH4 0xFFFFFFFF AND PUSH1 0xE0 SHL DUP2 MSTORE PUSH1 0x4 ADD PUSH2 0x6485 SWAP4 SWAP3 SWAP2 SWAP1 PUSH2 0x95D2 JUMP JUMPDEST PUSH1 0x20 PUSH1 0x40 MLOAD DUP1 DUP4 SUB DUP2 PUSH1 0x0 DUP8 GAS CALL ISZERO DUP1 ISZERO PUSH2 0x64A4 JUMPI RETURNDATASIZE PUSH1 0x0 DUP1 RETURNDATACOPY RETURNDATASIZE PUSH1 0x0 REVERT JUMPDEST POP POP POP POP PUSH1 0x40 MLOAD RETURNDATASIZE PUSH1 0x1F NOT PUSH1 0x1F DUP3 ADD AND DUP3 ADD DUP1 PUSH1 0x40 MSTORE POP DUP2 ADD SWAP1 PUSH2 0x64C8 SWAP2 SWAP1 PUSH2 0x9635 JUMP JUMPDEST SWAP1 POP DUP2 PUSH28 0xFFFFFFFFFFFFFFFFFFFFFFFFFFFFFFFFFFFFFFFFFFFFFFFFFFFFFFFF NOT AND DUP2 SUB PUSH2 0x652B JUMPI PUSH1 0x40 MLOAD PUSH32 0x8C379A000000000000000000000000000000000000000000000000000000000 DUP2 MSTORE PUSH1 0x4 ADD PUSH2 0x6522 SWAP1 PUSH2 0x9F46 JUMP JUMPDEST PUSH1 0x40 MLOAD DUP1 SWAP2 SUB SWAP1 REVERT JUMPDEST POP POP JUMPDEST DUP5 PUSH20 0xFFFFFFFFFFFFFFFFFFFFFFFFFFFFFFFFFFFFFFFF AND PUSH32 0x8A168EF997AE6A1723EF504E6A0205ACFE336CCB522561E95ACCEBADDE414B87 DUP8 DUP7 TIMESTAMP PUSH2 0x6573 SWAP2 SWAP1 PUSH2 0x8AE6 JUMP JUMPDEST PUSH1 0x40 MLOAD PUSH2 0x6581 SWAP3 SWAP2 SWAP1 PUSH2 0x9F66 JUMP JUMPDEST PUSH1 0x40 MLOAD DUP1 SWAP2 SUB SWAP1 LOG2 DUP4 TIMESTAMP PUSH2 0x6595 SWAP2 SWAP1 PUSH2 0x8AE6 JUMP JUMPDEST SWAP2 POP POP SWAP5 SWAP4 POP POP POP POP JUMP JUMPDEST PUSH1 0x0 DUP1 PUSH20 0xFFFFFFFFFFFFFFFFFFFFFFFFFFFFFFFFFFFFFFFF AND PUSH2 0x65C2 DUP4 PUSH2 0x65E1 JUMP JUMPDEST PUSH20 0xFFFFFFFFFFFFFFFFFFFFFFFFFFFFFFFFFFFFFFFF AND EQ ISZERO SWAP1 POP SWAP2 SWAP1 POP JUMP JUMPDEST PUSH1 0x0 PUSH1 0x2 PUSH1 0x0 DUP4 DUP2 MSTORE PUSH1 0x20 ADD SWAP1 DUP2 MSTORE PUSH1 0x20 ADD PUSH1 0x0 KECCAK256 PUSH1 0x0 SWAP1 SLOAD SWAP1 PUSH2 0x100 EXP SWAP1 DIV PUSH20 0xFFFFFFFFFFFFFFFFFFFFFFFFFFFFFFFFFFFFFFFF AND SWAP1 POP SWAP2 SWAP1 POP JUMP JUMPDEST POP POP POP POP JUMP JUMPDEST POP POP POP POP JUMP JUMPDEST PUSH1 0x0 PUSH2 0x664B DUP5 PUSH20 0xFFFFFFFFFFFFFFFFFFFFFFFFFFFFFFFFFFFFFFFF AND PUSH2 0x7102 JUMP JUMPDEST ISZERO PUSH2 0x67A4 JUMPI DUP4 PUSH20 0xFFFFFFFFFFFFFFFFFFFFFFFFFFFFFFFFFFFFFFFF AND PUSH4 0x150B7A02 PUSH2 0x6674 PUSH2 0x4DAB JUMP JUMPDEST DUP8 DUP7 DUP7 PUSH1 0x40 MLOAD DUP6 PUSH4 0xFFFFFFFF AND PUSH1 0xE0 SHL DUP2 MSTORE PUSH1 0x4 ADD PUSH2 0x6696 SWAP5 SWAP4 SWAP3 SWAP2 SWAP1 PUSH2 0x9FEB JUMP JUMPDEST PUSH1 0x20 PUSH1 0x40 MLOAD DUP1 DUP4 SUB DUP2 PUSH1 0x0 DUP8 GAS CALL SWAP3 POP POP POP DUP1 ISZERO PUSH2 0x66D2 JUMPI POP PUSH1 0x40 MLOAD RETURNDATASIZE PUSH1 0x1F NOT PUSH1 0x1F DUP3 ADD AND DUP3 ADD DUP1 PUSH1 0x40 MSTORE POP DUP2 ADD SWAP1 PUSH2 0x66CF SWAP2 SWAP1 PUSH2 0xA04C JUMP JUMPDEST PUSH1 0x1 JUMPDEST PUSH2 0x6754 JUMPI RETURNDATASIZE DUP1 PUSH1 0x0 DUP2 EQ PUSH2 0x6702 JUMPI PUSH1 0x40 MLOAD SWAP2 POP PUSH1 0x1F NOT PUSH1 0x3F RETURNDATASIZE ADD AND DUP3 ADD PUSH1 0x40 MSTORE RETURNDATASIZE DUP3 MSTORE RETURNDATASIZE PUSH1 0x0 PUSH1 0x20 DUP5 ADD RETURNDATACOPY PUSH2 0x6707 JUMP JUMPDEST PUSH1 0x60 SWAP2 POP JUMPDEST POP PUSH1 0x0 DUP2 MLOAD SUB PUSH2 0x674C JUMPI PUSH1 0x40 MLOAD PUSH32 0x8C379A000000000000000000000000000000000000000000000000000000000 DUP2 MSTORE PUSH1 0x4 ADD PUSH2 0x6743 SWAP1 PUSH2 0x9D96 JUMP JUMPDEST PUSH1 0x40 MLOAD DUP1 SWAP2 SUB SWAP1 REVERT JUMPDEST DUP1 MLOAD DUP2 PUSH1 0x20 ADD REVERT JUMPDEST PUSH4 0x150B7A02 PUSH1 0xE0 SHL PUSH28 0xFFFFFFFFFFFFFFFFFFFFFFFFFFFFFFFFFFFFFFFFFFFFFFFFFFFFFFFF NOT AND DUP2 PUSH28 0xFFFFFFFFFFFFFFFFFFFFFFFFFFFFFFFFFFFFFFFFFFFFFFFFFFFFFFFF NOT AND EQ SWAP2 POP POP PUSH2 0x67A9 JUMP JUMPDEST PUSH1 0x1 SWAP1 POP JUMPDEST SWAP5 SWAP4 POP POP POP POP JUMP JUMPDEST PUSH1 0x0 DUP1 PUSH1 0x0 SWAP1 POP PUSH27 0x184F03E93FF9F4DAA797ED6E38ED64BF6A1F010000000000000000 DUP4 LT PUSH2 0x680F JUMPI PUSH27 0x184F03E93FF9F4DAA797ED6E38ED64BF6A1F010000000000000000 DUP4 DUP2 PUSH2 0x6805 JUMPI PUSH2 0x6804 PUSH2 0x8A44 JUMP JUMPDEST JUMPDEST DIV SWAP3 POP PUSH1 0x40 DUP2 ADD SWAP1 POP JUMPDEST PUSH14 0x4EE2D6D415B85ACEF8100000000 DUP4 LT PUSH2 0x684C JUMPI PUSH14 0x4EE2D6D415B85ACEF8100000000 DUP4 DUP2 PUSH2 0x6842 JUMPI PUSH2 0x6841 PUSH2 0x8A44 JUMP JUMPDEST JUMPDEST DIV SWAP3 POP PUSH1 0x20 DUP2 ADD SWAP1 POP JUMPDEST PUSH7 0x2386F26FC10000 DUP4 LT PUSH2 0x687B JUMPI PUSH7 0x2386F26FC10000 DUP4 DUP2 PUSH2 0x6871 JUMPI PUSH2 0x6870 PUSH2 0x8A44 JUMP JUMPDEST JUMPDEST DIV SWAP3 POP PUSH1 0x10 DUP2 ADD SWAP1 POP JUMPDEST PUSH4 0x5F5E100 DUP4 LT PUSH2 0x68A4 JUMPI PUSH4 0x5F5E100 DUP4 DUP2 PUSH2 0x689A JUMPI PUSH2 0x6899 PUSH2 0x8A44 JUMP JUMPDEST JUMPDEST DIV SWAP3 POP PUSH1 0x8 DUP2 ADD SWAP1 POP JUMPDEST PUSH2 0x2710 DUP4 LT PUSH2 0x68C9 JUMPI PUSH2 0x2710 DUP4 DUP2 PUSH2 0x68BF JUMPI PUSH2 0x68BE PUSH2 0x8A44 JUMP JUMPDEST JUMPDEST DIV SWAP3 POP PUSH1 0x4 DUP2 ADD SWAP1 POP JUMPDEST PUSH1 0x64 DUP4 LT PUSH2 0x68EC JUMPI PUSH1 0x64 DUP4 DUP2 PUSH2 0x68E2 JUMPI PUSH2 0x68E1 PUSH2 0x8A44 JUMP JUMPDEST JUMPDEST DIV SWAP3 POP PUSH1 0x2 DUP2 ADD SWAP1 POP JUMPDEST PUSH1 0xA DUP4 LT PUSH2 0x68FB JUMPI PUSH1 0x1 DUP2 ADD SWAP1 POP JUMPDEST DUP1 SWAP2 POP POP SWAP2 SWAP1 POP JUMP JUMPDEST PUSH1 0x0 DUP1 DUP3 DUP1 MLOAD SWAP1 PUSH1 0x20 ADD KECCAK256 PUSH1 0x0 SHR SWAP1 POP PUSH1 0x8 PUSH1 0x0 SWAP1 SLOAD SWAP1 PUSH2 0x100 EXP SWAP1 DIV PUSH20 0xFFFFFFFFFFFFFFFFFFFFFFFFFFFFFFFFFFFFFFFF AND PUSH20 0xFFFFFFFFFFFFFFFFFFFFFFFFFFFFFFFFFFFFFFFF AND PUSH4 0x2EFCA7D9 DUP3 PUSH1 0x40 MLOAD DUP3 PUSH4 0xFFFFFFFF AND PUSH1 0xE0 SHL DUP2 MSTORE PUSH1 0x4 ADD PUSH2 0x696F SWAP2 SWAP1 PUSH2 0x7870 JUMP JUMPDEST PUSH1 0x20 PUSH1 0x40 MLOAD DUP1 DUP4 SUB DUP2 PUSH1 0x0 DUP8 GAS CALL ISZERO DUP1 ISZERO PUSH2 0x698E JUMPI RETURNDATASIZE PUSH1 0x0 DUP1 RETURNDATACOPY RETURNDATASIZE PUSH1 0x0 REVERT JUMPDEST POP POP POP POP PUSH1 0x40 MLOAD RETURNDATASIZE PUSH1 0x1F NOT PUSH1 0x1F DUP3 ADD AND DUP3 ADD DUP1 PUSH1 0x40 MSTORE POP DUP2 ADD SWAP1 PUSH2 0x69B2 SWAP2 SWAP1 PUSH2 0x8766 JUMP JUMPDEST PUSH2 0x69C0 JUMPI PUSH1 0x0 SWAP2 POP POP PUSH2 0x6AD9 JUMP JUMPDEST PUSH1 0x0 PUSH1 0x8 PUSH1 0x0 SWAP1 SLOAD SWAP1 PUSH2 0x100 EXP SWAP1 DIV PUSH20 0xFFFFFFFFFFFFFFFFFFFFFFFFFFFFFFFFFFFFFFFF AND PUSH20 0xFFFFFFFFFFFFFFFFFFFFFFFFFFFFFFFFFFFFFFFF AND PUSH4 0x33D9AD8E DUP4 PUSH1 0x40 MLOAD DUP3 PUSH4 0xFFFFFFFF AND PUSH1 0xE0 SHL DUP2 MSTORE PUSH1 0x4 ADD PUSH2 0x6A1D SWAP2 SWAP1 PUSH2 0x7870 JUMP JUMPDEST PUSH1 0x0 PUSH1 0x40 MLOAD DUP1 DUP4 SUB DUP2 PUSH1 0x0 DUP8 GAS CALL ISZERO DUP1 ISZERO PUSH2 0x6A3C JUMPI RETURNDATASIZE PUSH1 0x0 DUP1 RETURNDATACOPY RETURNDATASIZE PUSH1 0x0 REVERT JUMPDEST POP POP POP POP PUSH1 0x40 MLOAD RETURNDATASIZE PUSH1 0x0 DUP3 RETURNDATACOPY RETURNDATASIZE PUSH1 0x1F NOT PUSH1 0x1F DUP3 ADD AND DUP3 ADD DUP1 PUSH1 0x40 MSTORE POP DUP2 ADD SWAP1 PUSH2 0x6A65 SWAP2 SWAP1 PUSH2 0x8662 JUMP JUMPDEST SWAP1 POP PUSH1 0x0 JUMPDEST DUP2 MLOAD DUP2 LT ISZERO PUSH2 0x6AD1 JUMPI PUSH1 0xC PUSH1 0x0 DUP4 DUP4 DUP2 MLOAD DUP2 LT PUSH2 0x6A8A JUMPI PUSH2 0x6A89 PUSH2 0x86AB JUMP JUMPDEST JUMPDEST PUSH1 0x20 MUL PUSH1 0x20 ADD ADD MLOAD DUP2 MSTORE PUSH1 0x20 ADD SWAP1 DUP2 MSTORE PUSH1 0x20 ADD PUSH1 0x0 KECCAK256 PUSH1 0x0 SWAP1 SLOAD SWAP1 PUSH2 0x100 EXP SWAP1 DIV PUSH1 0xFF AND PUSH2 0x6ABE JUMPI PUSH1 0x1 SWAP4 POP POP POP POP PUSH2 0x6AD9 JUMP JUMPDEST DUP1 DUP1 PUSH2 0x6AC9 SWAP1 PUSH2 0x8709 JUMP JUMPDEST SWAP2 POP POP PUSH2 0x6A6A JUMP JUMPDEST POP PUSH1 0x0 SWAP3 POP POP POP JUMPDEST SWAP2 SWAP1 POP JUMP JUMPDEST PUSH1 0x0 DUP4 DUP1 MLOAD SWAP1 PUSH1 0x20 ADD KECCAK256 PUSH1 0x0 SHR SWAP1 POP PUSH4 0x1E13380 DUP3 LT ISZERO PUSH2 0x6B34 JUMPI PUSH1 0x40 MLOAD PUSH32 0x8C379A000000000000000000000000000000000000000000000000000000000 DUP2 MSTORE PUSH1 0x4 ADD PUSH2 0x6B2B SWAP1 PUSH2 0x9BC0 JUMP JUMPDEST PUSH1 0x40 MLOAD DUP1 SWAP2 SUB SWAP1 REVERT JUMPDEST PUSH1 0x0 DUP1 PUSH1 0x0 DUP1 PUSH1 0x0 DUP1 PUSH1 0x0 PUSH2 0x6B48 DUP9 PUSH2 0x572C JUMP JUMPDEST ISZERO PUSH2 0x6B9C JUMPI PUSH1 0x1 SWAP1 POP PUSH1 0xE PUSH1 0x0 DUP10 DUP2 MSTORE PUSH1 0x20 ADD SWAP1 DUP2 MSTORE PUSH1 0x20 ADD PUSH1 0x0 KECCAK256 PUSH1 0x1 ADD SLOAD SWAP4 POP PUSH2 0x6B74 DUP8 DUP6 PUSH2 0x195B JUMP JUMPDEST SWAP7 POP PUSH1 0xE PUSH1 0x0 DUP10 DUP2 MSTORE PUSH1 0x20 ADD SWAP1 DUP2 MSTORE PUSH1 0x20 ADD PUSH1 0x0 KECCAK256 PUSH1 0x3 ADD SLOAD SWAP3 POP PUSH2 0x6B99 DUP4 DUP8 PUSH2 0x195B JUMP JUMPDEST SWAP6 POP JUMPDEST PUSH2 0x6BA6 DUP12 MLOAD PUSH2 0x57A8 JUMP JUMPDEST ISZERO PUSH2 0x6C01 JUMPI PUSH1 0x1 SWAP1 POP PUSH1 0x0 DUP12 MLOAD SWAP1 POP PUSH1 0xD PUSH1 0x0 DUP3 DUP2 MSTORE PUSH1 0x20 ADD SWAP1 DUP2 MSTORE PUSH1 0x20 ADD PUSH1 0x0 KECCAK256 PUSH1 0x1 ADD SLOAD SWAP5 POP PUSH2 0x6BD8 DUP9 DUP7 PUSH2 0x195B JUMP JUMPDEST SWAP8 POP PUSH1 0xD PUSH1 0x0 DUP3 DUP2 MSTORE PUSH1 0x20 ADD SWAP1 DUP2 MSTORE PUSH1 0x20 ADD PUSH1 0x0 KECCAK256 PUSH1 0x3 ADD SLOAD SWAP4 POP PUSH2 0x6BFD DUP5 DUP9 PUSH2 0x195B JUMP JUMPDEST SWAP7 POP POP JUMPDEST PUSH2 0x6C0A DUP12 PUSH2 0x5824 JUMP JUMPDEST ISZERO PUSH2 0x6C41 JUMPI PUSH1 0x1 SWAP1 POP PUSH2 0x6C1C DUP12 PUSH2 0x14F3 JUMP JUMPDEST DUP1 SWAP5 POP DUP2 SWAP6 POP DUP3 SWAP7 POP POP POP POP PUSH2 0x6C32 DUP8 DUP6 PUSH2 0x195B JUMP JUMPDEST SWAP7 POP PUSH2 0x6C3E DUP4 DUP8 PUSH2 0x195B JUMP JUMPDEST SWAP6 POP JUMPDEST DUP1 PUSH2 0x6C81 JUMPI PUSH1 0x40 MLOAD PUSH32 0x8C379A000000000000000000000000000000000000000000000000000000000 DUP2 MSTORE PUSH1 0x4 ADD PUSH2 0x6C78 SWAP1 PUSH2 0x9C2C JUMP JUMPDEST PUSH1 0x40 MLOAD DUP1 SWAP2 SUB SWAP1 REVERT JUMPDEST PUSH5 0x496CEBB800 DUP10 LT ISZERO DUP1 ISZERO PUSH2 0x6C96 JUMPI POP PUSH1 0x0 DUP7 GT JUMPDEST ISZERO PUSH2 0x6CE3 JUMPI DUP6 DUP11 LT ISZERO PUSH2 0x6CDE JUMPI PUSH1 0x40 MLOAD PUSH32 0x8C379A000000000000000000000000000000000000000000000000000000000 DUP2 MSTORE PUSH1 0x4 ADD PUSH2 0x6CD5 SWAP1 PUSH2 0xA0C5 JUMP JUMPDEST PUSH1 0x40 MLOAD DUP1 SWAP2 SUB SWAP1 REVERT JUMPDEST PUSH2 0x6D8A JUMP JUMPDEST PUSH1 0x0 DUP8 GT PUSH2 0x6D26 JUMPI PUSH1 0x40 MLOAD PUSH32 0x8C379A000000000000000000000000000000000000000000000000000000000 DUP2 MSTORE PUSH1 0x4 ADD PUSH2 0x6D1D SWAP1 PUSH2 0x9C98 JUMP JUMPDEST PUSH1 0x40 MLOAD DUP1 SWAP2 SUB SWAP1 REVERT JUMPDEST PUSH1 0x0 DUP8 PUSH4 0x1E13380 DUP12 PUSH2 0x6D39 SWAP2 SWAP1 PUSH2 0x8A73 JUMP JUMPDEST PUSH2 0x6D43 SWAP2 SWAP1 PUSH2 0x8AA4 JUMP JUMPDEST SWAP1 POP DUP1 DUP12 LT ISZERO PUSH2 0x6D88 JUMPI PUSH1 0x40 MLOAD PUSH32 0x8C379A000000000000000000000000000000000000000000000000000000000 DUP2 MSTORE PUSH1 0x4 ADD PUSH2 0x6D7F SWAP1 PUSH2 0x9D04 JUMP JUMPDEST PUSH1 0x40 MLOAD DUP1 SWAP2 SUB SWAP1 REVERT JUMPDEST POP JUMPDEST POP POP POP POP POP POP POP POP POP POP POP JUMP JUMPDEST PUSH1 0x0 PUSH2 0x6DA2 DUP3 PUSH2 0x4D25 JUMP JUMPDEST SWAP1 POP PUSH2 0x6DB2 DUP2 PUSH1 0x0 DUP5 PUSH1 0x1 PUSH2 0x661E JUMP JUMPDEST PUSH2 0x6DBB DUP3 PUSH2 0x4D25 JUMP JUMPDEST SWAP1 POP PUSH1 0x4 PUSH1 0x0 DUP4 DUP2 MSTORE PUSH1 0x20 ADD SWAP1 DUP2 MSTORE PUSH1 0x20 ADD PUSH1 0x0 KECCAK256 PUSH1 0x0 PUSH2 0x100 EXP DUP2 SLOAD SWAP1 PUSH20 0xFFFFFFFFFFFFFFFFFFFFFFFFFFFFFFFFFFFFFFFF MUL NOT AND SWAP1 SSTORE PUSH1 0x1 PUSH1 0x3 PUSH1 0x0 DUP4 PUSH20 0xFFFFFFFFFFFFFFFFFFFFFFFFFFFFFFFFFFFFFFFF AND PUSH20 0xFFFFFFFFFFFFFFFFFFFFFFFFFFFFFFFFFFFFFFFF AND DUP2 MSTORE PUSH1 0x20 ADD SWAP1 DUP2 MSTORE PUSH1 0x20 ADD PUSH1 0x0 KECCAK256 PUSH1 0x0 DUP3 DUP3 SLOAD SUB SWAP3 POP POP DUP2 SWAP1 SSTORE POP PUSH1 0x2 PUSH1 0x0 DUP4 DUP2 MSTORE PUSH1 0x20 ADD SWAP1 DUP2 MSTORE PUSH1 0x20 ADD PUSH1 0x0 KECCAK256 PUSH1 0x0 PUSH2 0x100 EXP DUP2 SLOAD SWAP1 PUSH20 0xFFFFFFFFFFFFFFFFFFFFFFFFFFFFFFFFFFFFFFFF MUL NOT AND SWAP1 SSTORE DUP2 PUSH1 0x0 PUSH20 0xFFFFFFFFFFFFFFFFFFFFFFFFFFFFFFFFFFFFFFFF AND DUP3 PUSH20 0xFFFFFFFFFFFFFFFFFFFFFFFFFFFFFFFFFFFFFFFF AND PUSH32 0xDDF252AD1BE2C89B69C2B068FC378DAA952BA7F163C4A11628F55A4DF523B3EF PUSH1 0x40 MLOAD PUSH1 0x40 MLOAD DUP1 SWAP2 SUB SWAP1 LOG4 PUSH2 0x6EE1 DUP2 PUSH1 0x0 DUP5 PUSH1 0x1 PUSH2 0x6624 JUMP JUMPDEST POP POP JUMP JUMPDEST PUSH1 0x0 PUSH20 0xFFFFFFFFFFFFFFFFFFFFFFFFFFFFFFFFFFFFFFFF AND DUP3 PUSH20 0xFFFFFFFFFFFFFFFFFFFFFFFFFFFFFFFFFFFFFFFF AND SUB PUSH2 0x6F54 JUMPI PUSH1 0x40 MLOAD PUSH32 0x8C379A000000000000000000000000000000000000000000000000000000000 DUP2 MSTORE PUSH1 0x4 ADD PUSH2 0x6F4B SWAP1 PUSH2 0xA131 JUMP JUMPDEST PUSH1 0x40 MLOAD DUP1 SWAP2 SUB SWAP1 REVERT JUMPDEST PUSH2 0x6F5D DUP2 PUSH2 0x65A0 JUMP JUMPDEST ISZERO PUSH2 0x6F9D JUMPI PUSH1 0x40 MLOAD PUSH32 0x8C379A000000000000000000000000000000000000000000000000000000000 DUP2 MSTORE PUSH1 0x4 ADD PUSH2 0x6F94 SWAP1 PUSH2 0xA19D JUMP JUMPDEST PUSH1 0x40 MLOAD DUP1 SWAP2 SUB SWAP1 REVERT JUMPDEST PUSH2 0x6FAB PUSH1 0x0 DUP4 DUP4 PUSH1 0x1 PUSH2 0x661E JUMP JUMPDEST PUSH2 0x6FB4 DUP2 PUSH2 0x65A0 JUMP JUMPDEST ISZERO PUSH2 0x6FF4 JUMPI PUSH1 0x40 MLOAD PUSH32 0x8C379A000000000000000000000000000000000000000000000000000000000 DUP2 MSTORE PUSH1 0x4 ADD PUSH2 0x6FEB SWAP1 PUSH2 0xA19D JUMP JUMPDEST PUSH1 0x40 MLOAD DUP1 SWAP2 SUB SWAP1 REVERT JUMPDEST PUSH1 0x1 PUSH1 0x3 PUSH1 0x0 DUP5 PUSH20 0xFFFFFFFFFFFFFFFFFFFFFFFFFFFFFFFFFFFFFFFF AND PUSH20 0xFFFFFFFFFFFFFFFFFFFFFFFFFFFFFFFFFFFFFFFF AND DUP2 MSTORE PUSH1 0x20 ADD SWAP1 DUP2 MSTORE PUSH1 0x20 ADD PUSH1 0x0 KECCAK256 PUSH1 0x0 DUP3 DUP3 SLOAD ADD SWAP3 POP POP DUP2 SWAP1 SSTORE POP DUP2 PUSH1 0x2 PUSH1 0x0 DUP4 DUP2 MSTORE PUSH1 0x20 ADD SWAP1 DUP2 MSTORE PUSH1 0x20 ADD PUSH1 0x0 KECCAK256 PUSH1 0x0 PUSH2 0x100 EXP DUP2 SLOAD DUP2 PUSH20 0xFFFFFFFFFFFFFFFFFFFFFFFFFFFFFFFFFFFFFFFF MUL NOT AND SWAP1 DUP4 PUSH20 0xFFFFFFFFFFFFFFFFFFFFFFFFFFFFFFFFFFFFFFFF AND MUL OR SWAP1 SSTORE POP DUP1 DUP3 PUSH20 0xFFFFFFFFFFFFFFFFFFFFFFFFFFFFFFFFFFFFFFFF AND PUSH1 0x0 PUSH20 0xFFFFFFFFFFFFFFFFFFFFFFFFFFFFFFFFFFFFFFFF AND PUSH32 0xDDF252AD1BE2C89B69C2B068FC378DAA952BA7F163C4A11628F55A4DF523B3EF PUSH1 0x40 MLOAD PUSH1 0x40 MLOAD DUP1 SWAP2 SUB SWAP1 LOG4 PUSH2 0x70FE PUSH1 0x0 DUP4 DUP4 PUSH1 0x1 PUSH2 0x6624 JUMP JUMPDEST POP POP JUMP JUMPDEST PUSH1 0x0 DUP1 DUP3 PUSH20 0xFFFFFFFFFFFFFFFFFFFFFFFFFFFFFFFFFFFFFFFF AND EXTCODESIZE GT SWAP1 POP SWAP2 SWAP1 POP JUMP JUMPDEST POP DUP1 SLOAD PUSH2 0x7131 SWAP1 PUSH2 0x8435 JUMP JUMPDEST PUSH1 0x0 DUP3 SSTORE DUP1 PUSH1 0x1F LT PUSH2 0x7143 JUMPI POP PUSH2 0x7162 JUMP JUMPDEST PUSH1 0x1F ADD PUSH1 0x20 SWAP1 DIV SWAP1 PUSH1 0x0 MSTORE PUSH1 0x20 PUSH1 0x0 KECCAK256 SWAP1 DUP2 ADD SWAP1 PUSH2 0x7161 SWAP2 SWAP1 PUSH2 0x71A6 JUMP JUMPDEST JUMPDEST POP JUMP JUMPDEST PUSH1 0x40 MLOAD DUP1 PUSH1 0xE0 ADD PUSH1 0x40 MSTORE DUP1 PUSH1 0x60 DUP2 MSTORE PUSH1 0x20 ADD PUSH1 0x0 DUP2 MSTORE PUSH1 0x20 ADD PUSH1 0x0 DUP2 MSTORE PUSH1 0x20 ADD PUSH1 0x0 DUP2 MSTORE PUSH1 0x20 ADD PUSH1 0x0 DUP2 MSTORE PUSH1 0x20 ADD PUSH1 0x0 ISZERO ISZERO DUP2 MSTORE PUSH1 0x20 ADD PUSH1 0x0 ISZERO ISZERO DUP2 MSTORE POP SWAP1 JUMP JUMPDEST JUMPDEST DUP1 DUP3 GT ISZERO PUSH2 0x71BF JUMPI PUSH1 0x0 DUP2 PUSH1 0x0 SWAP1 SSTORE POP PUSH1 0x1 ADD PUSH2 0x71A7 JUMP JUMPDEST POP SWAP1 JUMP JUMPDEST PUSH1 0x0 PUSH1 0x40 MLOAD SWAP1 POP SWAP1 JUMP JUMPDEST PUSH1 0x0 DUP1 REVERT JUMPDEST PUSH1 0x0 DUP1 REVERT JUMPDEST PUSH1 0x0 PUSH32 0xFFFFFFFF00000000000000000000000000000000000000000000000000000000 DUP3 AND SWAP1 POP SWAP2 SWAP1 POP JUMP JUMPDEST PUSH2 0x720C DUP2 PUSH2 0x71D7 JUMP JUMPDEST DUP2 EQ PUSH2 0x7217 JUMPI PUSH1 0x0 DUP1 REVERT JUMPDEST POP JUMP JUMPDEST PUSH1 0x0 DUP2 CALLDATALOAD SWAP1 POP PUSH2 0x7229 DUP2 PUSH2 0x7203 JUMP JUMPDEST SWAP3 SWAP2 POP POP JUMP JUMPDEST PUSH1 0x0 PUSH1 0x20 DUP3 DUP5 SUB SLT ISZERO PUSH2 0x7245 JUMPI PUSH2 0x7244 PUSH2 0x71CD JUMP JUMPDEST JUMPDEST PUSH1 0x0 PUSH2 0x7253 DUP5 DUP3 DUP6 ADD PUSH2 0x721A JUMP JUMPDEST SWAP2 POP POP SWAP3 SWAP2 POP POP JUMP JUMPDEST PUSH1 0x0 DUP2 ISZERO ISZERO SWAP1 POP SWAP2 SWAP1 POP JUMP JUMPDEST PUSH2 0x7271 DUP2 PUSH2 0x725C JUMP JUMPDEST DUP3 MSTORE POP POP JUMP JUMPDEST PUSH1 0x0 PUSH1 0x20 DUP3 ADD SWAP1 POP PUSH2 0x728C PUSH1 0x0 DUP4 ADD DUP5 PUSH2 0x7268 JUMP JUMPDEST SWAP3 SWAP2 POP POP JUMP JUMPDEST PUSH1 0x0 DUP2 SWAP1 POP SWAP2 SWAP1 POP JUMP JUMPDEST PUSH2 0x72A5 DUP2 PUSH2 0x7292 JUMP JUMPDEST DUP2 EQ PUSH2 0x72B0 JUMPI PUSH1 0x0 DUP1 REVERT JUMPDEST POP JUMP JUMPDEST PUSH1 0x0 DUP2 CALLDATALOAD SWAP1 POP PUSH2 0x72C2 DUP2 PUSH2 0x729C JUMP JUMPDEST SWAP3 SWAP2 POP POP JUMP JUMPDEST PUSH1 0x0 DUP1 PUSH1 0x0 DUP1 PUSH1 0x0 PUSH1 0xA0 DUP7 DUP9 SUB SLT ISZERO PUSH2 0x72E4 JUMPI PUSH2 0x72E3 PUSH2 0x71CD JUMP JUMPDEST JUMPDEST PUSH1 0x0 PUSH2 0x72F2 DUP9 DUP3 DUP10 ADD PUSH2 0x72B3 JUMP JUMPDEST SWAP6 POP POP PUSH1 0x20 PUSH2 0x7303 DUP9 DUP3 DUP10 ADD PUSH2 0x72B3 JUMP JUMPDEST SWAP5 POP POP PUSH1 0x40 PUSH2 0x7314 DUP9 DUP3 DUP10 ADD PUSH2 0x72B3 JUMP JUMPDEST SWAP4 POP POP PUSH1 0x60 PUSH2 0x7325 DUP9 DUP3 DUP10 ADD PUSH2 0x72B3 JUMP JUMPDEST SWAP3 POP POP PUSH1 0x80 PUSH2 0x7336 DUP9 DUP3 DUP10 ADD PUSH2 0x72B3 JUMP JUMPDEST SWAP2 POP POP SWAP3 SWAP6 POP SWAP3 SWAP6 SWAP1 SWAP4 POP JUMP JUMPDEST PUSH1 0x0 DUP2 MLOAD SWAP1 POP SWAP2 SWAP1 POP JUMP JUMPDEST PUSH1 0x0 DUP3 DUP3 MSTORE PUSH1 0x20 DUP3 ADD SWAP1 POP SWAP3 SWAP2 POP POP JUMP JUMPDEST PUSH1 0x0 JUMPDEST DUP4 DUP2 LT ISZERO PUSH2 0x737D JUMPI DUP1 DUP3 ADD MLOAD DUP2 DUP5 ADD MSTORE PUSH1 0x20 DUP2 ADD SWAP1 POP PUSH2 0x7362 JUMP JUMPDEST PUSH1 0x0 DUP5 DUP5 ADD MSTORE POP POP POP POP JUMP JUMPDEST PUSH1 0x0 PUSH1 0x1F NOT PUSH1 0x1F DUP4 ADD AND SWAP1 POP SWAP2 SWAP1 POP JUMP JUMPDEST PUSH1 0x0 PUSH2 0x73A5 DUP3 PUSH2 0x7343 JUMP JUMPDEST PUSH2 0x73AF DUP2 DUP6 PUSH2 0x734E JUMP JUMPDEST SWAP4 POP PUSH2 0x73BF DUP2 DUP6 PUSH1 0x20 DUP7 ADD PUSH2 0x735F JUMP JUMPDEST PUSH2 0x73C8 DUP2 PUSH2 0x7389 JUMP JUMPDEST DUP5 ADD SWAP2 POP POP SWAP3 SWAP2 POP POP JUMP JUMPDEST PUSH1 0x0 PUSH1 0x20 DUP3 ADD SWAP1 POP DUP2 DUP2 SUB PUSH1 0x0 DUP4 ADD MSTORE PUSH2 0x73ED DUP2 DUP5 PUSH2 0x739A JUMP JUMPDEST SWAP1 POP SWAP3 SWAP2 POP POP JUMP JUMPDEST PUSH1 0x0 PUSH1 0x20 DUP3 DUP5 SUB SLT ISZERO PUSH2 0x740B JUMPI PUSH2 0x740A PUSH2 0x71CD JUMP JUMPDEST JUMPDEST PUSH1 0x0 PUSH2 0x7419 DUP5 DUP3 DUP6 ADD PUSH2 0x72B3 JUMP JUMPDEST SWAP2 POP POP SWAP3 SWAP2 POP POP JUMP JUMPDEST PUSH1 0x0 PUSH20 0xFFFFFFFFFFFFFFFFFFFFFFFFFFFFFFFFFFFFFFFF DUP3 AND SWAP1 POP SWAP2 SWAP1 POP JUMP JUMPDEST PUSH1 0x0 PUSH2 0x744D DUP3 PUSH2 0x7422 JUMP JUMPDEST SWAP1 POP SWAP2 SWAP1 POP JUMP JUMPDEST PUSH2 0x745D DUP2 PUSH2 0x7442 JUMP JUMPDEST DUP3 MSTORE POP POP JUMP JUMPDEST PUSH1 0x0 PUSH1 0x20 DUP3 ADD SWAP1 POP PUSH2 0x7478 PUSH1 0x0 DUP4 ADD DUP5 PUSH2 0x7454 JUMP JUMPDEST SWAP3 SWAP2 POP POP JUMP JUMPDEST PUSH2 0x7487 DUP2 PUSH2 0x7442 JUMP JUMPDEST DUP2 EQ PUSH2 0x7492 JUMPI PUSH1 0x0 DUP1 REVERT JUMPDEST POP JUMP JUMPDEST PUSH1 0x0 DUP2 CALLDATALOAD SWAP1 POP PUSH2 0x74A4 DUP2 PUSH2 0x747E JUMP JUMPDEST SWAP3 SWAP2 POP POP JUMP JUMPDEST PUSH1 0x0 DUP1 PUSH1 0x40 DUP4 DUP6 SUB SLT ISZERO PUSH2 0x74C1 JUMPI PUSH2 0x74C0 PUSH2 0x71CD JUMP JUMPDEST JUMPDEST PUSH1 0x0 PUSH2 0x74CF DUP6 DUP3 DUP7 ADD PUSH2 0x7495 JUMP JUMPDEST SWAP3 POP POP PUSH1 0x20 PUSH2 0x74E0 DUP6 DUP3 DUP7 ADD PUSH2 0x72B3 JUMP JUMPDEST SWAP2 POP POP SWAP3 POP SWAP3 SWAP1 POP JUMP JUMPDEST PUSH1 0x0 DUP1 REVERT JUMPDEST PUSH1 0x0 DUP1 REVERT JUMPDEST PUSH32 0x4E487B7100000000000000000000000000000000000000000000000000000000 PUSH1 0x0 MSTORE PUSH1 0x41 PUSH1 0x4 MSTORE PUSH1 0x24 PUSH1 0x0 REVERT JUMPDEST PUSH2 0x752C DUP3 PUSH2 0x7389 JUMP JUMPDEST DUP2 ADD DUP2 DUP2 LT PUSH8 0xFFFFFFFFFFFFFFFF DUP3 GT OR ISZERO PUSH2 0x754B JUMPI PUSH2 0x754A PUSH2 0x74F4 JUMP JUMPDEST JUMPDEST DUP1 PUSH1 0x40 MSTORE POP POP POP JUMP JUMPDEST PUSH1 0x0 PUSH2 0x755E PUSH2 0x71C3 JUMP JUMPDEST SWAP1 POP PUSH2 0x756A DUP3 DUP3 PUSH2 0x7523 JUMP JUMPDEST SWAP2 SWAP1 POP JUMP JUMPDEST PUSH1 0x0 PUSH8 0xFFFFFFFFFFFFFFFF DUP3 GT ISZERO PUSH2 0x758A JUMPI PUSH2 0x7589 PUSH2 0x74F4 JUMP JUMPDEST JUMPDEST PUSH2 0x7593 DUP3 PUSH2 0x7389 JUMP JUMPDEST SWAP1 POP PUSH1 0x20 DUP2 ADD SWAP1 POP SWAP2 SWAP1 POP JUMP JUMPDEST DUP3 DUP2 DUP4 CALLDATACOPY PUSH1 0x0 DUP4 DUP4 ADD MSTORE POP POP POP JUMP JUMPDEST PUSH1 0x0 PUSH2 0x75C2 PUSH2 0x75BD DUP5 PUSH2 0x756F JUMP JUMPDEST PUSH2 0x7554 JUMP JUMPDEST SWAP1 POP DUP3 DUP2 MSTORE PUSH1 0x20 DUP2 ADD DUP5 DUP5 DUP5 ADD GT ISZERO PUSH2 0x75DE JUMPI PUSH2 0x75DD PUSH2 0x74EF JUMP JUMPDEST JUMPDEST PUSH2 0x75E9 DUP5 DUP3 DUP6 PUSH2 0x75A0 JUMP JUMPDEST POP SWAP4 SWAP3 POP POP POP JUMP JUMPDEST PUSH1 0x0 DUP3 PUSH1 0x1F DUP4 ADD SLT PUSH2 0x7606 JUMPI PUSH2 0x7605 PUSH2 0x74EA JUMP JUMPDEST JUMPDEST DUP2 CALLDATALOAD PUSH2 0x7616 DUP5 DUP3 PUSH1 0x20 DUP7 ADD PUSH2 0x75AF JUMP JUMPDEST SWAP2 POP POP SWAP3 SWAP2 POP POP JUMP JUMPDEST PUSH1 0x0 PUSH1 0x20 DUP3 DUP5 SUB SLT ISZERO PUSH2 0x7635 JUMPI PUSH2 0x7634 PUSH2 0x71CD JUMP JUMPDEST JUMPDEST PUSH1 0x0 DUP3 ADD CALLDATALOAD PUSH8 0xFFFFFFFFFFFFFFFF DUP2 GT ISZERO PUSH2 0x7653 JUMPI PUSH2 0x7652 PUSH2 0x71D2 JUMP JUMPDEST JUMPDEST PUSH2 0x765F DUP5 DUP3 DUP6 ADD PUSH2 0x75F1 JUMP JUMPDEST SWAP2 POP POP SWAP3 SWAP2 POP POP JUMP JUMPDEST PUSH2 0x7671 DUP2 PUSH2 0x7292 JUMP JUMPDEST DUP3 MSTORE POP POP JUMP JUMPDEST PUSH1 0x0 PUSH1 0x60 DUP3 ADD SWAP1 POP PUSH2 0x768C PUSH1 0x0 DUP4 ADD DUP7 PUSH2 0x7668 JUMP JUMPDEST PUSH2 0x7699 PUSH1 0x20 DUP4 ADD DUP6 PUSH2 0x7668 JUMP JUMPDEST PUSH2 0x76A6 PUSH1 0x40 DUP4 ADD DUP5 PUSH2 0x7668 JUMP JUMPDEST SWAP5 SWAP4 POP POP POP POP JUMP JUMPDEST PUSH1 0x0 PUSH8 0xFFFFFFFFFFFFFFFF DUP3 GT ISZERO PUSH2 0x76C9 JUMPI PUSH2 0x76C8 PUSH2 0x74F4 JUMP JUMPDEST JUMPDEST PUSH1 0x20 DUP3 MUL SWAP1 POP PUSH1 0x20 DUP2 ADD SWAP1 POP SWAP2 SWAP1 POP JUMP JUMPDEST PUSH1 0x0 DUP1 REVERT JUMPDEST PUSH1 0x0 PUSH2 0x76F2 PUSH2 0x76ED DUP5 PUSH2 0x76AE JUMP JUMPDEST PUSH2 0x7554 JUMP JUMPDEST SWAP1 POP DUP1 DUP4 DUP3 MSTORE PUSH1 0x20 DUP3 ADD SWAP1 POP PUSH1 0x20 DUP5 MUL DUP4 ADD DUP6 DUP2 GT ISZERO PUSH2 0x7715 JUMPI PUSH2 0x7714 PUSH2 0x76DA JUMP JUMPDEST JUMPDEST DUP4 JUMPDEST DUP2 DUP2 LT ISZERO PUSH2 0x775C JUMPI DUP1 CALLDATALOAD PUSH8 0xFFFFFFFFFFFFFFFF DUP2 GT ISZERO PUSH2 0x773A JUMPI PUSH2 0x7739 PUSH2 0x74EA JUMP JUMPDEST JUMPDEST DUP1 DUP7 ADD PUSH2 0x7747 DUP10 DUP3 PUSH2 0x75F1 JUMP JUMPDEST DUP6 MSTORE PUSH1 0x20 DUP6 ADD SWAP5 POP POP POP PUSH1 0x20 DUP2 ADD SWAP1 POP PUSH2 0x7717 JUMP JUMPDEST POP POP POP SWAP4 SWAP3 POP POP POP JUMP JUMPDEST PUSH1 0x0 DUP3 PUSH1 0x1F DUP4 ADD SLT PUSH2 0x777B JUMPI PUSH2 0x777A PUSH2 0x74EA JUMP JUMPDEST JUMPDEST DUP2 CALLDATALOAD PUSH2 0x778B DUP5 DUP3 PUSH1 0x20 DUP7 ADD PUSH2 0x76DF JUMP JUMPDEST SWAP2 POP POP SWAP3 SWAP2 POP POP JUMP JUMPDEST PUSH1 0x0 PUSH1 0x20 DUP3 DUP5 SUB SLT ISZERO PUSH2 0x77AA JUMPI PUSH2 0x77A9 PUSH2 0x71CD JUMP JUMPDEST JUMPDEST PUSH1 0x0 DUP3 ADD CALLDATALOAD PUSH8 0xFFFFFFFFFFFFFFFF DUP2 GT ISZERO PUSH2 0x77C8 JUMPI PUSH2 0x77C7 PUSH2 0x71D2 JUMP JUMPDEST JUMPDEST PUSH2 0x77D4 DUP5 DUP3 DUP6 ADD PUSH2 0x7766 JUMP JUMPDEST SWAP2 POP POP SWAP3 SWAP2 POP POP JUMP JUMPDEST PUSH1 0x0 DUP1 PUSH1 0x0 PUSH1 0x60 DUP5 DUP7 SUB SLT ISZERO PUSH2 0x77F6 JUMPI PUSH2 0x77F5 PUSH2 0x71CD JUMP JUMPDEST JUMPDEST PUSH1 0x0 PUSH2 0x7804 DUP7 DUP3 DUP8 ADD PUSH2 0x7495 JUMP JUMPDEST SWAP4 POP POP PUSH1 0x20 PUSH2 0x7815 DUP7 DUP3 DUP8 ADD PUSH2 0x7495 JUMP JUMPDEST SWAP3 POP POP PUSH1 0x40 PUSH2 0x7826 DUP7 DUP3 DUP8 ADD PUSH2 0x72B3 JUMP JUMPDEST SWAP2 POP POP SWAP3 POP SWAP3 POP SWAP3 JUMP JUMPDEST PUSH1 0x0 DUP1 PUSH1 0x40 DUP4 DUP6 SUB SLT ISZERO PUSH2 0x7847 JUMPI PUSH2 0x7846 PUSH2 0x71CD JUMP JUMPDEST JUMPDEST PUSH1 0x0 PUSH2 0x7855 DUP6 DUP3 DUP7 ADD PUSH2 0x72B3 JUMP JUMPDEST SWAP3 POP POP PUSH1 0x20 PUSH2 0x7866 DUP6 DUP3 DUP7 ADD PUSH2 0x72B3 JUMP JUMPDEST SWAP2 POP POP SWAP3 POP SWAP3 SWAP1 POP JUMP JUMPDEST PUSH1 0x0 PUSH1 0x20 DUP3 ADD SWAP1 POP PUSH2 0x7885 PUSH1 0x0 DUP4 ADD DUP5 PUSH2 0x7668 JUMP JUMPDEST SWAP3 SWAP2 POP POP JUMP JUMPDEST PUSH1 0x0 DUP1 PUSH1 0x40 DUP4 DUP6 SUB SLT ISZERO PUSH2 0x78A2 JUMPI PUSH2 0x78A1 PUSH2 0x71CD JUMP JUMPDEST JUMPDEST PUSH1 0x0 PUSH2 0x78B0 DUP6 DUP3 DUP7 ADD PUSH2 0x72B3 JUMP JUMPDEST SWAP3 POP POP PUSH1 0x20 PUSH2 0x78C1 DUP6 DUP3 DUP7 ADD PUSH2 0x7495 JUMP JUMPDEST SWAP2 POP POP SWAP3 POP SWAP3 SWAP1 POP JUMP JUMPDEST PUSH1 0x0 DUP2 SWAP1 POP SWAP2 SWAP1 POP JUMP JUMPDEST PUSH1 0x0 PUSH2 0x78F0 PUSH2 0x78EB PUSH2 0x78E6 DUP5 PUSH2 0x7422 JUMP JUMPDEST PUSH2 0x78CB JUMP JUMPDEST PUSH2 0x7422 JUMP JUMPDEST SWAP1 POP SWAP2 SWAP1 POP JUMP JUMPDEST PUSH1 0x0 PUSH2 0x7902 DUP3 PUSH2 0x78D5 JUMP JUMPDEST SWAP1 POP SWAP2 SWAP1 POP JUMP JUMPDEST PUSH1 0x0 PUSH2 0x7914 DUP3 PUSH2 0x78F7 JUMP JUMPDEST SWAP1 POP SWAP2 SWAP1 POP JUMP JUMPDEST PUSH2 0x7924 DUP2 PUSH2 0x7909 JUMP JUMPDEST DUP3 MSTORE POP POP JUMP JUMPDEST PUSH1 0x0 PUSH1 0x20 DUP3 ADD SWAP1 POP PUSH2 0x793F PUSH1 0x0 DUP4 ADD DUP5 PUSH2 0x791B JUMP JUMPDEST SWAP3 SWAP2 POP POP JUMP JUMPDEST PUSH1 0x0 PUSH1 0x20 DUP3 DUP5 SUB SLT ISZERO PUSH2 0x795B JUMPI PUSH2 0x795A PUSH2 0x71CD JUMP JUMPDEST JUMPDEST PUSH1 0x0 PUSH2 0x7969 DUP5 DUP3 DUP6 ADD PUSH2 0x7495 JUMP JUMPDEST SWAP2 POP POP SWAP3 SWAP2 POP POP JUMP JUMPDEST PUSH1 0x0 PUSH8 0xFFFFFFFFFFFFFFFF DUP3 GT ISZERO PUSH2 0x798D JUMPI PUSH2 0x798C PUSH2 0x74F4 JUMP JUMPDEST JUMPDEST PUSH1 0x20 DUP3 MUL SWAP1 POP PUSH1 0x20 DUP2 ADD SWAP1 POP SWAP2 SWAP1 POP JUMP JUMPDEST PUSH1 0x0 DUP1 REVERT JUMPDEST PUSH1 0x0 DUP1 REVERT JUMPDEST PUSH1 0x0 PUSH2 0xFFFF DUP3 AND SWAP1 POP SWAP2 SWAP1 POP JUMP JUMPDEST PUSH2 0x79BF DUP2 PUSH2 0x79A8 JUMP JUMPDEST DUP2 EQ PUSH2 0x79CA JUMPI PUSH1 0x0 DUP1 REVERT JUMPDEST POP JUMP JUMPDEST PUSH1 0x0 DUP2 CALLDATALOAD SWAP1 POP PUSH2 0x79DC DUP2 PUSH2 0x79B6 JUMP JUMPDEST SWAP3 SWAP2 POP POP JUMP JUMPDEST PUSH1 0x0 PUSH1 0x40 DUP3 DUP5 SUB SLT ISZERO PUSH2 0x79F8 JUMPI PUSH2 0x79F7 PUSH2 0x799E JUMP JUMPDEST JUMPDEST PUSH2 0x7A02 PUSH1 0x40 PUSH2 0x7554 JUMP JUMPDEST SWAP1 POP PUSH1 0x0 PUSH2 0x7A12 DUP5 DUP3 DUP6 ADD PUSH2 0x7495 JUMP JUMPDEST PUSH1 0x0 DUP4 ADD MSTORE POP PUSH1 0x20 PUSH2 0x7A26 DUP5 DUP3 DUP6 ADD PUSH2 0x79CD JUMP JUMPDEST PUSH1 0x20 DUP4 ADD MSTORE POP SWAP3 SWAP2 POP POP JUMP JUMPDEST PUSH1 0x0 PUSH2 0x7A45 PUSH2 0x7A40 DUP5 PUSH2 0x7972 JUMP JUMPDEST PUSH2 0x7554 JUMP JUMPDEST SWAP1 POP DUP1 DUP4 DUP3 MSTORE PUSH1 0x20 DUP3 ADD SWAP1 POP PUSH1 0x40 DUP5 MUL DUP4 ADD DUP6 DUP2 GT ISZERO PUSH2 0x7A68 JUMPI PUSH2 0x7A67 PUSH2 0x76DA JUMP JUMPDEST JUMPDEST DUP4 JUMPDEST DUP2 DUP2 LT ISZERO PUSH2 0x7A91 JUMPI DUP1 PUSH2 0x7A7D DUP9 DUP3 PUSH2 0x79E2 JUMP JUMPDEST DUP5 MSTORE PUSH1 0x20 DUP5 ADD SWAP4 POP POP PUSH1 0x40 DUP2 ADD SWAP1 POP PUSH2 0x7A6A JUMP JUMPDEST POP POP POP SWAP4 SWAP3 POP POP POP JUMP JUMPDEST PUSH1 0x0 DUP3 PUSH1 0x1F DUP4 ADD SLT PUSH2 0x7AB0 JUMPI PUSH2 0x7AAF PUSH2 0x74EA JUMP JUMPDEST JUMPDEST DUP2 CALLDATALOAD PUSH2 0x7AC0 DUP5 DUP3 PUSH1 0x20 DUP7 ADD PUSH2 0x7A32 JUMP JUMPDEST SWAP2 POP POP SWAP3 SWAP2 POP POP JUMP JUMPDEST PUSH1 0x0 PUSH1 0x20 DUP3 DUP5 SUB SLT ISZERO PUSH2 0x7ADF JUMPI PUSH2 0x7ADE PUSH2 0x71CD JUMP JUMPDEST JUMPDEST PUSH1 0x0 DUP3 ADD CALLDATALOAD PUSH8 0xFFFFFFFFFFFFFFFF DUP2 GT ISZERO PUSH2 0x7AFD JUMPI PUSH2 0x7AFC PUSH2 0x71D2 JUMP JUMPDEST JUMPDEST PUSH2 0x7B09 DUP5 DUP3 DUP6 ADD PUSH2 0x7A9B JUMP JUMPDEST SWAP2 POP POP SWAP3 SWAP2 POP POP JUMP JUMPDEST PUSH1 0x0 DUP1 PUSH1 0x0 DUP1 PUSH1 0x0 PUSH1 0xA0 DUP7 DUP9 SUB SLT ISZERO PUSH2 0x7B2E JUMPI PUSH2 0x7B2D PUSH2 0x71CD JUMP JUMPDEST JUMPDEST PUSH1 0x0 DUP7 ADD CALLDATALOAD PUSH8 0xFFFFFFFFFFFFFFFF DUP2 GT ISZERO PUSH2 0x7B4C JUMPI PUSH2 0x7B4B PUSH2 0x71D2 JUMP JUMPDEST JUMPDEST PUSH2 0x7B58 DUP9 DUP3 DUP10 ADD PUSH2 0x75F1 JUMP JUMPDEST SWAP6 POP POP PUSH1 0x20 PUSH2 0x7B69 DUP9 DUP3 DUP10 ADD PUSH2 0x72B3 JUMP JUMPDEST SWAP5 POP POP PUSH1 0x40 PUSH2 0x7B7A DUP9 DUP3 DUP10 ADD PUSH2 0x72B3 JUMP JUMPDEST SWAP4 POP POP PUSH1 0x60 PUSH2 0x7B8B DUP9 DUP3 DUP10 ADD PUSH2 0x72B3 JUMP JUMPDEST SWAP3 POP POP PUSH1 0x80 PUSH2 0x7B9C DUP9 DUP3 DUP10 ADD PUSH2 0x72B3 JUMP JUMPDEST SWAP2 POP POP SWAP3 SWAP6 POP SWAP3 SWAP6 SWAP1 SWAP4 POP JUMP JUMPDEST PUSH2 0x7BB2 DUP2 PUSH2 0x79A8 JUMP JUMPDEST DUP3 MSTORE POP POP JUMP JUMPDEST PUSH1 0x0 PUSH1 0x20 DUP3 ADD SWAP1 POP PUSH2 0x7BCD PUSH1 0x0 DUP4 ADD DUP5 PUSH2 0x7BA9 JUMP JUMPDEST SWAP3 SWAP2 POP POP JUMP JUMPDEST PUSH1 0x0 DUP1 PUSH1 0x40 DUP4 DUP6 SUB SLT ISZERO PUSH2 0x7BEA JUMPI PUSH2 0x7BE9 PUSH2 0x71CD JUMP JUMPDEST JUMPDEST PUSH1 0x0 DUP4 ADD CALLDATALOAD PUSH8 0xFFFFFFFFFFFFFFFF DUP2 GT ISZERO PUSH2 0x7C08 JUMPI PUSH2 0x7C07 PUSH2 0x71D2 JUMP JUMPDEST JUMPDEST PUSH2 0x7C14 DUP6 DUP3 DUP7 ADD PUSH2 0x75F1 JUMP JUMPDEST SWAP3 POP POP PUSH1 0x20 DUP4 ADD CALLDATALOAD PUSH8 0xFFFFFFFFFFFFFFFF DUP2 GT ISZERO PUSH2 0x7C35 JUMPI PUSH2 0x7C34 PUSH2 0x71D2 JUMP JUMPDEST JUMPDEST PUSH2 0x7C41 DUP6 DUP3 DUP7 ADD PUSH2 0x75F1 JUMP JUMPDEST SWAP2 POP POP SWAP3 POP SWAP3 SWAP1 POP JUMP JUMPDEST PUSH2 0x7C54 DUP2 PUSH2 0x725C JUMP JUMPDEST DUP2 EQ PUSH2 0x7C5F JUMPI PUSH1 0x0 DUP1 REVERT JUMPDEST POP JUMP JUMPDEST PUSH1 0x0 DUP2 CALLDATALOAD SWAP1 POP PUSH2 0x7C71 DUP2 PUSH2 0x7C4B JUMP JUMPDEST SWAP3 SWAP2 POP POP JUMP JUMPDEST PUSH1 0x0 DUP1 PUSH1 0x40 DUP4 DUP6 SUB SLT ISZERO PUSH2 0x7C8E JUMPI PUSH2 0x7C8D PUSH2 0x71CD JUMP JUMPDEST JUMPDEST PUSH1 0x0 PUSH2 0x7C9C DUP6 DUP3 DUP7 ADD PUSH2 0x7495 JUMP JUMPDEST SWAP3 POP POP PUSH1 0x20 PUSH2 0x7CAD DUP6 DUP3 DUP7 ADD PUSH2 0x7C62 JUMP JUMPDEST SWAP2 POP POP SWAP3 POP SWAP3 SWAP1 POP JUMP JUMPDEST PUSH1 0x0 PUSH8 0xFFFFFFFFFFFFFFFF DUP3 GT ISZERO PUSH2 0x7CD2 JUMPI PUSH2 0x7CD1 PUSH2 0x74F4 JUMP JUMPDEST JUMPDEST PUSH1 0x20 DUP3 MUL SWAP1 POP PUSH1 0x20 DUP2 ADD SWAP1 POP SWAP2 SWAP1 POP JUMP JUMPDEST PUSH1 0x0 PUSH1 0x40 DUP3 DUP5 SUB SLT ISZERO PUSH2 0x7CF9 JUMPI PUSH2 0x7CF8 PUSH2 0x799E JUMP JUMPDEST JUMPDEST PUSH2 0x7D03 PUSH1 0x40 PUSH2 0x7554 JUMP JUMPDEST SWAP1 POP PUSH1 0x0 DUP3 ADD CALLDATALOAD PUSH8 0xFFFFFFFFFFFFFFFF DUP2 GT ISZERO PUSH2 0x7D23 JUMPI PUSH2 0x7D22 PUSH2 0x79A3 JUMP JUMPDEST JUMPDEST PUSH2 0x7D2F DUP5 DUP3 DUP6 ADD PUSH2 0x75F1 JUMP JUMPDEST PUSH1 0x0 DUP4 ADD MSTORE POP PUSH1 0x20 DUP3 ADD CALLDATALOAD PUSH8 0xFFFFFFFFFFFFFFFF DUP2 GT ISZERO PUSH2 0x7D53 JUMPI PUSH2 0x7D52 PUSH2 0x79A3 JUMP JUMPDEST JUMPDEST PUSH2 0x7D5F DUP5 DUP3 DUP6 ADD PUSH2 0x75F1 JUMP JUMPDEST PUSH1 0x20 DUP4 ADD MSTORE POP SWAP3 SWAP2 POP POP JUMP JUMPDEST PUSH1 0x0 PUSH2 0x7D7E PUSH2 0x7D79 DUP5 PUSH2 0x7CB7 JUMP JUMPDEST PUSH2 0x7554 JUMP JUMPDEST SWAP1 POP DUP1 DUP4 DUP3 MSTORE PUSH1 0x20 DUP3 ADD SWAP1 POP PUSH1 0x20 DUP5 MUL DUP4 ADD DUP6 DUP2 GT ISZERO PUSH2 0x7DA1 JUMPI PUSH2 0x7DA0 PUSH2 0x76DA JUMP JUMPDEST JUMPDEST DUP4 JUMPDEST DUP2 DUP2 LT ISZERO PUSH2 0x7DE8 JUMPI DUP1 CALLDATALOAD PUSH8 0xFFFFFFFFFFFFFFFF DUP2 GT ISZERO PUSH2 0x7DC6 JUMPI PUSH2 0x7DC5 PUSH2 0x74EA JUMP JUMPDEST JUMPDEST DUP1 DUP7 ADD PUSH2 0x7DD3 DUP10 DUP3 PUSH2 0x7CE3 JUMP JUMPDEST DUP6 MSTORE PUSH1 0x20 DUP6 ADD SWAP5 POP POP POP PUSH1 0x20 DUP2 ADD SWAP1 POP PUSH2 0x7DA3 JUMP JUMPDEST POP POP POP SWAP4 SWAP3 POP POP POP JUMP JUMPDEST PUSH1 0x0 DUP3 PUSH1 0x1F DUP4 ADD SLT PUSH2 0x7E07 JUMPI PUSH2 0x7E06 PUSH2 0x74EA JUMP JUMPDEST JUMPDEST DUP2 CALLDATALOAD PUSH2 0x7E17 DUP5 DUP3 PUSH1 0x20 DUP7 ADD PUSH2 0x7D6B JUMP JUMPDEST SWAP2 POP POP SWAP3 SWAP2 POP POP JUMP JUMPDEST PUSH1 0x0 PUSH1 0x20 DUP3 DUP5 SUB SLT ISZERO PUSH2 0x7E36 JUMPI PUSH2 0x7E35 PUSH2 0x71CD JUMP JUMPDEST JUMPDEST PUSH1 0x0 DUP3 ADD CALLDATALOAD PUSH8 0xFFFFFFFFFFFFFFFF DUP2 GT ISZERO PUSH2 0x7E54 JUMPI PUSH2 0x7E53 PUSH2 0x71D2 JUMP JUMPDEST JUMPDEST PUSH2 0x7E60 DUP5 DUP3 DUP6 ADD PUSH2 0x7DF2 JUMP JUMPDEST SWAP2 POP POP SWAP3 SWAP2 POP POP JUMP JUMPDEST PUSH1 0x0 DUP1 PUSH1 0x40 DUP4 DUP6 SUB SLT ISZERO PUSH2 0x7E80 JUMPI PUSH2 0x7E7F PUSH2 0x71CD JUMP JUMPDEST JUMPDEST PUSH1 0x0 PUSH2 0x7E8E DUP6 DUP3 DUP7 ADD PUSH2 0x7495 JUMP JUMPDEST SWAP3 POP POP PUSH1 0x20 DUP4 ADD CALLDATALOAD PUSH8 0xFFFFFFFFFFFFFFFF DUP2 GT ISZERO PUSH2 0x7EAF JUMPI PUSH2 0x7EAE PUSH2 0x71D2 JUMP JUMPDEST JUMPDEST PUSH2 0x7EBB DUP6 DUP3 DUP7 ADD PUSH2 0x75F1 JUMP JUMPDEST SWAP2 POP POP SWAP3 POP SWAP3 SWAP1 POP JUMP JUMPDEST PUSH1 0x0 DUP1 PUSH1 0x40 DUP4 DUP6 SUB SLT ISZERO PUSH2 0x7EDC JUMPI PUSH2 0x7EDB PUSH2 0x71CD JUMP JUMPDEST JUMPDEST PUSH1 0x0 DUP4 ADD CALLDATALOAD PUSH8 0xFFFFFFFFFFFFFFFF DUP2 GT ISZERO PUSH2 0x7EFA JUMPI PUSH2 0x7EF9 PUSH2 0x71D2 JUMP JUMPDEST JUMPDEST PUSH2 0x7F06 DUP6 DUP3 DUP7 ADD PUSH2 0x75F1 JUMP JUMPDEST SWAP3 POP POP PUSH1 0x20 PUSH2 0x7F17 DUP6 DUP3 DUP7 ADD PUSH2 0x72B3 JUMP JUMPDEST SWAP2 POP POP SWAP3 POP SWAP3 SWAP1 POP JUMP JUMPDEST PUSH1 0x0 PUSH8 0xFFFFFFFFFFFFFFFF DUP3 GT ISZERO PUSH2 0x7F3C JUMPI PUSH2 0x7F3B PUSH2 0x74F4 JUMP JUMPDEST JUMPDEST PUSH2 0x7F45 DUP3 PUSH2 0x7389 JUMP JUMPDEST SWAP1 POP PUSH1 0x20 DUP2 ADD SWAP1 POP SWAP2 SWAP1 POP JUMP JUMPDEST PUSH1 0x0 PUSH2 0x7F65 PUSH2 0x7F60 DUP5 PUSH2 0x7F21 JUMP JUMPDEST PUSH2 0x7554 JUMP JUMPDEST SWAP1 POP DUP3 DUP2 MSTORE PUSH1 0x20 DUP2 ADD DUP5 DUP5 DUP5 ADD GT ISZERO PUSH2 0x7F81 JUMPI PUSH2 0x7F80 PUSH2 0x74EF JUMP JUMPDEST JUMPDEST PUSH2 0x7F8C DUP5 DUP3 DUP6 PUSH2 0x75A0 JUMP JUMPDEST POP SWAP4 SWAP3 POP POP POP JUMP JUMPDEST PUSH1 0x0 DUP3 PUSH1 0x1F DUP4 ADD SLT PUSH2 0x7FA9 JUMPI PUSH2 0x7FA8 PUSH2 0x74EA JUMP JUMPDEST JUMPDEST DUP2 CALLDATALOAD PUSH2 0x7FB9 DUP5 DUP3 PUSH1 0x20 DUP7 ADD PUSH2 0x7F52 JUMP JUMPDEST SWAP2 POP POP SWAP3 SWAP2 POP POP JUMP JUMPDEST PUSH1 0x0 DUP1 PUSH1 0x0 DUP1 PUSH1 0x80 DUP6 DUP8 SUB SLT ISZERO PUSH2 0x7FDC JUMPI PUSH2 0x7FDB PUSH2 0x71CD JUMP JUMPDEST JUMPDEST PUSH1 0x0 PUSH2 0x7FEA DUP8 DUP3 DUP9 ADD PUSH2 0x7495 JUMP JUMPDEST SWAP5 POP POP PUSH1 0x20 PUSH2 0x7FFB DUP8 DUP3 DUP9 ADD PUSH2 0x7495 JUMP JUMPDEST SWAP4 POP POP PUSH1 0x40 PUSH2 0x800C DUP8 DUP3 DUP9 ADD PUSH2 0x72B3 JUMP JUMPDEST SWAP3 POP POP PUSH1 0x60 DUP6 ADD CALLDATALOAD PUSH8 0xFFFFFFFFFFFFFFFF DUP2 GT ISZERO PUSH2 0x802D JUMPI PUSH2 0x802C PUSH2 0x71D2 JUMP JUMPDEST JUMPDEST PUSH2 0x8039 DUP8 DUP3 DUP9 ADD PUSH2 0x7F94 JUMP JUMPDEST SWAP2 POP POP SWAP3 SWAP6 SWAP2 SWAP5 POP SWAP3 POP JUMP JUMPDEST PUSH1 0x0 DUP3 DUP3 MSTORE PUSH1 0x20 DUP3 ADD SWAP1 POP SWAP3 SWAP2 POP POP JUMP JUMPDEST PUSH1 0x0 PUSH2 0x8061 DUP3 PUSH2 0x7343 JUMP JUMPDEST PUSH2 0x806B DUP2 DUP6 PUSH2 0x8045 JUMP JUMPDEST SWAP4 POP PUSH2 0x807B DUP2 DUP6 PUSH1 0x20 DUP7 ADD PUSH2 0x735F JUMP JUMPDEST PUSH2 0x8084 DUP2 PUSH2 0x7389 JUMP JUMPDEST DUP5 ADD SWAP2 POP POP SWAP3 SWAP2 POP POP JUMP JUMPDEST PUSH2 0x8098 DUP2 PUSH2 0x7292 JUMP JUMPDEST DUP3 MSTORE POP POP JUMP JUMPDEST PUSH2 0x80A7 DUP2 PUSH2 0x725C JUMP JUMPDEST DUP3 MSTORE POP POP JUMP JUMPDEST PUSH1 0x0 PUSH1 0xE0 DUP4 ADD PUSH1 0x0 DUP4 ADD MLOAD DUP5 DUP3 SUB PUSH1 0x0 DUP7 ADD MSTORE PUSH2 0x80CA DUP3 DUP3 PUSH2 0x8056 JUMP JUMPDEST SWAP2 POP POP PUSH1 0x20 DUP4 ADD MLOAD PUSH2 0x80DF PUSH1 0x20 DUP7 ADD DUP3 PUSH2 0x808F JUMP JUMPDEST POP PUSH1 0x40 DUP4 ADD MLOAD PUSH2 0x80F2 PUSH1 0x40 DUP7 ADD DUP3 PUSH2 0x808F JUMP JUMPDEST POP PUSH1 0x60 DUP4 ADD MLOAD PUSH2 0x8105 PUSH1 0x60 DUP7 ADD DUP3 PUSH2 0x808F JUMP JUMPDEST POP PUSH1 0x80 DUP4 ADD MLOAD PUSH2 0x8118 PUSH1 0x80 DUP7 ADD DUP3 PUSH2 0x808F JUMP JUMPDEST POP PUSH1 0xA0 DUP4 ADD MLOAD PUSH2 0x812B PUSH1 0xA0 DUP7 ADD DUP3 PUSH2 0x809E JUMP JUMPDEST POP PUSH1 0xC0 DUP4 ADD MLOAD PUSH2 0x813E PUSH1 0xC0 DUP7 ADD DUP3 PUSH2 0x809E JUMP JUMPDEST POP DUP1 SWAP2 POP POP SWAP3 SWAP2 POP POP JUMP JUMPDEST PUSH1 0x0 PUSH1 0x20 DUP3 ADD SWAP1 POP DUP2 DUP2 SUB PUSH1 0x0 DUP4 ADD MSTORE PUSH2 0x8163 DUP2 DUP5 PUSH2 0x80AD JUMP JUMPDEST SWAP1 POP SWAP3 SWAP2 POP POP JUMP JUMPDEST PUSH1 0x0 DUP1 PUSH1 0x0 PUSH1 0x60 DUP5 DUP7 SUB SLT ISZERO PUSH2 0x8184 JUMPI PUSH2 0x8183 PUSH2 0x71CD JUMP JUMPDEST JUMPDEST PUSH1 0x0 DUP5 ADD CALLDATALOAD PUSH8 0xFFFFFFFFFFFFFFFF DUP2 GT ISZERO PUSH2 0x81A2 JUMPI PUSH2 0x81A1 PUSH2 0x71D2 JUMP JUMPDEST JUMPDEST PUSH2 0x81AE DUP7 DUP3 DUP8 ADD PUSH2 0x75F1 JUMP JUMPDEST SWAP4 POP POP PUSH1 0x20 PUSH2 0x81BF DUP7 DUP3 DUP8 ADD PUSH2 0x7495 JUMP JUMPDEST SWAP3 POP POP PUSH1 0x40 PUSH2 0x81D0 DUP7 DUP3 DUP8 ADD PUSH2 0x72B3 JUMP JUMPDEST SWAP2 POP POP SWAP3 POP SWAP3 POP SWAP3 JUMP JUMPDEST PUSH1 0x0 PUSH2 0x81E5 DUP3 PUSH2 0x78F7 JUMP JUMPDEST SWAP1 POP SWAP2 SWAP1 POP JUMP JUMPDEST PUSH2 0x81F5 DUP2 PUSH2 0x81DA JUMP JUMPDEST DUP3 MSTORE POP POP JUMP JUMPDEST PUSH1 0x0 PUSH1 0x20 DUP3 ADD SWAP1 POP PUSH2 0x8210 PUSH1 0x0 DUP4 ADD DUP5 PUSH2 0x81EC JUMP JUMPDEST SWAP3 SWAP2 POP POP JUMP JUMPDEST PUSH1 0x0 DUP2 SWAP1 POP SWAP2 SWAP1 POP JUMP JUMPDEST PUSH2 0x8229 DUP2 PUSH2 0x8216 JUMP JUMPDEST DUP3 MSTORE POP POP JUMP JUMPDEST PUSH1 0x0 PUSH1 0x20 DUP3 ADD SWAP1 POP PUSH2 0x8244 PUSH1 0x0 DUP4 ADD DUP5 PUSH2 0x8220 JUMP JUMPDEST SWAP3 SWAP2 POP POP JUMP JUMPDEST PUSH1 0x0 DUP1 PUSH1 0x40 DUP4 DUP6 SUB SLT ISZERO PUSH2 0x8261 JUMPI PUSH2 0x8260 PUSH2 0x71CD JUMP JUMPDEST JUMPDEST PUSH1 0x0 PUSH2 0x826F DUP6 DUP3 DUP7 ADD PUSH2 0x7495 JUMP JUMPDEST SWAP3 POP POP PUSH1 0x20 PUSH2 0x8280 DUP6 DUP3 DUP7 ADD PUSH2 0x7495 JUMP JUMPDEST SWAP2 POP POP SWAP3 POP SWAP3 SWAP1 POP JUMP JUMPDEST PUSH32 0x646F6D61696E20707269636520697320696E76616C6964000000000000000000 PUSH1 0x0 DUP3 ADD MSTORE POP JUMP JUMPDEST PUSH1 0x0 PUSH2 0x82C0 PUSH1 0x17 DUP4 PUSH2 0x734E JUMP JUMPDEST SWAP2 POP PUSH2 0x82CB DUP3 PUSH2 0x828A JUMP JUMPDEST PUSH1 0x20 DUP3 ADD SWAP1 POP SWAP2 SWAP1 POP JUMP JUMPDEST PUSH1 0x0 PUSH1 0x20 DUP3 ADD SWAP1 POP DUP2 DUP2 SUB PUSH1 0x0 DUP4 ADD MSTORE PUSH2 0x82EF DUP2 PUSH2 0x82B3 JUMP JUMPDEST SWAP1 POP SWAP2 SWAP1 POP JUMP JUMPDEST PUSH32 0x746865206C656E20646F6D61696E206E6F7420686173206265656E2061646400 PUSH1 0x0 DUP3 ADD MSTORE POP JUMP JUMPDEST PUSH1 0x0 PUSH2 0x832C PUSH1 0x1F DUP4 PUSH2 0x734E JUMP JUMPDEST SWAP2 POP PUSH2 0x8337 DUP3 PUSH2 0x82F6 JUMP JUMPDEST PUSH1 0x20 DUP3 ADD SWAP1 POP SWAP2 SWAP1 POP JUMP JUMPDEST PUSH1 0x0 PUSH1 0x20 DUP3 ADD SWAP1 POP DUP2 DUP2 SUB PUSH1 0x0 DUP4 ADD MSTORE PUSH2 0x835B DUP2 PUSH2 0x831F JUMP JUMPDEST SWAP1 POP SWAP2 SWAP1 POP JUMP JUMPDEST PUSH32 0x6D6F646966790000000000000000000000000000000000000000000000000000 PUSH1 0x0 DUP3 ADD MSTORE POP JUMP JUMPDEST PUSH1 0x0 PUSH2 0x8398 PUSH1 0x6 DUP4 PUSH2 0x734E JUMP JUMPDEST SWAP2 POP PUSH2 0x83A3 DUP3 PUSH2 0x8362 JUMP JUMPDEST PUSH1 0x20 DUP3 ADD SWAP1 POP SWAP2 SWAP1 POP JUMP JUMPDEST PUSH1 0x0 PUSH1 0xA0 DUP3 ADD SWAP1 POP PUSH2 0x83C3 PUSH1 0x0 DUP4 ADD DUP8 PUSH2 0x7668 JUMP JUMPDEST PUSH2 0x83D0 PUSH1 0x20 DUP4 ADD DUP7 PUSH2 0x7668 JUMP JUMPDEST PUSH2 0x83DD PUSH1 0x40 DUP4 ADD DUP6 PUSH2 0x7668 JUMP JUMPDEST PUSH2 0x83EA PUSH1 0x60 DUP4 ADD DUP5 PUSH2 0x7668 JUMP JUMPDEST DUP2 DUP2 SUB PUSH1 0x80 DUP4 ADD MSTORE PUSH2 0x83FB DUP2 PUSH2 0x838B JUMP JUMPDEST SWAP1 POP SWAP6 SWAP5 POP POP POP POP POP JUMP JUMPDEST PUSH32 0x4E487B7100000000000000000000000000000000000000000000000000000000 PUSH1 0x0 MSTORE PUSH1 0x22 PUSH1 0x4 MSTORE PUSH1 0x24 PUSH1 0x0 REVERT JUMPDEST PUSH1 0x0 PUSH1 0x2 DUP3 DIV SWAP1 POP PUSH1 0x1 DUP3 AND DUP1 PUSH2 0x844D JUMPI PUSH1 0x7F DUP3 AND SWAP2 POP JUMPDEST PUSH1 0x20 DUP3 LT DUP2 SUB PUSH2 0x8460 JUMPI PUSH2 0x845F PUSH2 0x8406 JUMP JUMPDEST JUMPDEST POP SWAP2 SWAP1 POP JUMP JUMPDEST PUSH32 0x4552433732313A20617070726F76616C20746F2063757272656E74206F776E65 PUSH1 0x0 DUP3 ADD MSTORE PUSH32 0x7200000000000000000000000000000000000000000000000000000000000000 PUSH1 0x20 DUP3 ADD MSTORE POP JUMP JUMPDEST PUSH1 0x0 PUSH2 0x84C2 PUSH1 0x21 DUP4 PUSH2 0x734E JUMP JUMPDEST SWAP2 POP PUSH2 0x84CD DUP3 PUSH2 0x8466 JUMP JUMPDEST PUSH1 0x40 DUP3 ADD SWAP1 POP SWAP2 SWAP1 POP JUMP JUMPDEST PUSH1 0x0 PUSH1 0x20 DUP3 ADD SWAP1 POP DUP2 DUP2 SUB PUSH1 0x0 DUP4 ADD MSTORE PUSH2 0x84F1 DUP2 PUSH2 0x84B5 JUMP JUMPDEST SWAP1 POP SWAP2 SWAP1 POP JUMP JUMPDEST PUSH32 0x4552433732313A20617070726F76652063616C6C6572206973206E6F7420746F PUSH1 0x0 DUP3 ADD MSTORE PUSH32 0x6B656E206F776E6572206F7220617070726F76656420666F7220616C6C000000 PUSH1 0x20 DUP3 ADD MSTORE POP JUMP JUMPDEST PUSH1 0x0 PUSH2 0x8554 PUSH1 0x3D DUP4 PUSH2 0x734E JUMP JUMPDEST SWAP2 POP PUSH2 0x855F DUP3 PUSH2 0x84F8 JUMP JUMPDEST PUSH1 0x40 DUP3 ADD SWAP1 POP SWAP2 SWAP1 POP JUMP JUMPDEST PUSH1 0x0 PUSH1 0x20 DUP3 ADD SWAP1 POP DUP2 DUP2 SUB PUSH1 0x0 DUP4 ADD MSTORE PUSH2 0x8583 DUP2 PUSH2 0x8547 JUMP JUMPDEST SWAP1 POP SWAP2 SWAP1 POP JUMP JUMPDEST PUSH1 0x0 PUSH8 0xFFFFFFFFFFFFFFFF DUP3 GT ISZERO PUSH2 0x85A5 JUMPI PUSH2 0x85A4 PUSH2 0x74F4 JUMP JUMPDEST JUMPDEST PUSH1 0x20 DUP3 MUL SWAP1 POP PUSH1 0x20 DUP2 ADD SWAP1 POP SWAP2 SWAP1 POP JUMP JUMPDEST PUSH1 0x0 DUP2 MLOAD SWAP1 POP PUSH2 0x85C5 DUP2 PUSH2 0x729C JUMP JUMPDEST SWAP3 SWAP2 POP POP JUMP JUMPDEST PUSH1 0x0 PUSH2 0x85DE PUSH2 0x85D9 DUP5 PUSH2 0x858A JUMP JUMPDEST PUSH2 0x7554 JUMP JUMPDEST SWAP1 POP DUP1 DUP4 DUP3 MSTORE PUSH1 0x20 DUP3 ADD SWAP1 POP PUSH1 0x20 DUP5 MUL DUP4 ADD DUP6 DUP2 GT ISZERO PUSH2 0x8601 JUMPI PUSH2 0x8600 PUSH2 0x76DA JUMP JUMPDEST JUMPDEST DUP4 JUMPDEST DUP2 DUP2 LT ISZERO PUSH2 0x862A JUMPI DUP1 PUSH2 0x8616 DUP9 DUP3 PUSH2 0x85B6 JUMP JUMPDEST DUP5 MSTORE PUSH1 0x20 DUP5 ADD SWAP4 POP POP PUSH1 0x20 DUP2 ADD SWAP1 POP PUSH2 0x8603 JUMP JUMPDEST POP POP POP SWAP4 SWAP3 POP POP POP JUMP JUMPDEST PUSH1 0x0 DUP3 PUSH1 0x1F DUP4 ADD SLT PUSH2 0x8649 JUMPI PUSH2 0x8648 PUSH2 0x74EA JUMP JUMPDEST JUMPDEST DUP2 MLOAD PUSH2 0x8659 DUP5 DUP3 PUSH1 0x20 DUP7 ADD PUSH2 0x85CB JUMP JUMPDEST SWAP2 POP POP SWAP3 SWAP2 POP POP JUMP JUMPDEST PUSH1 0x0 PUSH1 0x20 DUP3 DUP5 SUB SLT ISZERO PUSH2 0x8678 JUMPI PUSH2 0x8677 PUSH2 0x71CD JUMP JUMPDEST JUMPDEST PUSH1 0x0 DUP3 ADD MLOAD PUSH8 0xFFFFFFFFFFFFFFFF DUP2 GT ISZERO PUSH2 0x8696 JUMPI PUSH2 0x8695 PUSH2 0x71D2 JUMP JUMPDEST JUMPDEST PUSH2 0x86A2 DUP5 DUP3 DUP6 ADD PUSH2 0x8634 JUMP JUMPDEST SWAP2 POP POP SWAP3 SWAP2 POP POP JUMP JUMPDEST PUSH32 0x4E487B7100000000000000000000000000000000000000000000000000000000 PUSH1 0x0 MSTORE PUSH1 0x32 PUSH1 0x4 MSTORE PUSH1 0x24 PUSH1 0x0 REVERT JUMPDEST PUSH32 0x4E487B7100000000000000000000000000000000000000000000000000000000 PUSH1 0x0 MSTORE PUSH1 0x11 PUSH1 0x4 MSTORE PUSH1 0x24 PUSH1 0x0 REVERT JUMPDEST PUSH1 0x0 PUSH2 0x8714 DUP3 PUSH2 0x7292 JUMP JUMPDEST SWAP2 POP PUSH32 0xFFFFFFFFFFFFFFFFFFFFFFFFFFFFFFFFFFFFFFFFFFFFFFFFFFFFFFFFFFFFFFFF DUP3 SUB PUSH2 0x8746 JUMPI PUSH2 0x8745 PUSH2 0x86DA JUMP JUMPDEST JUMPDEST PUSH1 0x1 DUP3 ADD SWAP1 POP SWAP2 SWAP1 POP JUMP JUMPDEST PUSH1 0x0 DUP2 MLOAD SWAP1 POP PUSH2 0x8760 DUP2 PUSH2 0x7C4B JUMP JUMPDEST SWAP3 SWAP2 POP POP JUMP JUMPDEST PUSH1 0x0 PUSH1 0x20 DUP3 DUP5 SUB SLT ISZERO PUSH2 0x877C JUMPI PUSH2 0x877B PUSH2 0x71CD JUMP JUMPDEST JUMPDEST PUSH1 0x0 PUSH2 0x878A DUP5 DUP3 DUP6 ADD PUSH2 0x8751 JUMP JUMPDEST SWAP2 POP POP SWAP3 SWAP2 POP POP JUMP JUMPDEST PUSH1 0x0 DUP2 SWAP1 POP SWAP2 SWAP1 POP JUMP JUMPDEST PUSH1 0x0 PUSH2 0x87B8 PUSH2 0x87B3 PUSH2 0x87AE DUP5 PUSH2 0x8793 JUMP JUMPDEST PUSH2 0x78CB JUMP JUMPDEST PUSH2 0x7292 JUMP JUMPDEST SWAP1 POP SWAP2 SWAP1 POP JUMP JUMPDEST PUSH2 0x87C8 DUP2 PUSH2 0x879D JUMP JUMPDEST DUP3 MSTORE POP POP JUMP JUMPDEST PUSH32 0x61626F7274000000000000000000000000000000000000000000000000000000 PUSH1 0x0 DUP3 ADD MSTORE POP JUMP JUMPDEST PUSH1 0x0 PUSH2 0x8804 PUSH1 0x5 DUP4 PUSH2 0x734E JUMP JUMPDEST SWAP2 POP PUSH2 0x880F DUP3 PUSH2 0x87CE JUMP JUMPDEST PUSH1 0x20 DUP3 ADD SWAP1 POP SWAP2 SWAP1 POP JUMP JUMPDEST PUSH1 0x0 PUSH1 0xA0 DUP3 ADD SWAP1 POP PUSH2 0x882F PUSH1 0x0 DUP4 ADD DUP8 PUSH2 0x87BF JUMP JUMPDEST PUSH2 0x883C PUSH1 0x20 DUP4 ADD DUP7 PUSH2 0x87BF JUMP JUMPDEST PUSH2 0x8849 PUSH1 0x40 DUP4 ADD DUP6 PUSH2 0x87BF JUMP JUMPDEST PUSH2 0x8856 PUSH1 0x60 DUP4 ADD DUP5 PUSH2 0x87BF JUMP JUMPDEST DUP2 DUP2 SUB PUSH1 0x80 DUP4 ADD MSTORE PUSH2 0x8867 DUP2 PUSH2 0x87F7 JUMP JUMPDEST SWAP1 POP SWAP6 SWAP5 POP POP POP POP POP JUMP JUMPDEST PUSH32 0x4552433732313A2063616C6C6572206973206E6F7420746F6B656E206F776E65 PUSH1 0x0 DUP3 ADD MSTORE PUSH32 0x72206F7220617070726F76656400000000000000000000000000000000000000 PUSH1 0x20 DUP3 ADD MSTORE POP JUMP JUMPDEST PUSH1 0x0 PUSH2 0x88CE PUSH1 0x2D DUP4 PUSH2 0x734E JUMP JUMPDEST SWAP2 POP PUSH2 0x88D9 DUP3 PUSH2 0x8872 JUMP JUMPDEST PUSH1 0x40 DUP3 ADD SWAP1 POP SWAP2 SWAP1 POP JUMP JUMPDEST PUSH1 0x0 PUSH1 0x20 DUP3 ADD SWAP1 POP DUP2 DUP2 SUB PUSH1 0x0 DUP4 ADD MSTORE PUSH2 0x88FD DUP2 PUSH2 0x88C1 JUMP JUMPDEST SWAP1 POP SWAP2 SWAP1 POP JUMP JUMPDEST PUSH1 0x0 DUP2 MLOAD SWAP1 POP PUSH2 0x8913 DUP2 PUSH2 0x747E JUMP JUMPDEST SWAP3 SWAP2 POP POP JUMP JUMPDEST PUSH1 0x0 PUSH1 0x20 DUP3 DUP5 SUB SLT ISZERO PUSH2 0x892F JUMPI PUSH2 0x892E PUSH2 0x71CD JUMP JUMPDEST JUMPDEST PUSH1 0x0 PUSH2 0x893D DUP5 DUP3 DUP6 ADD PUSH2 0x8904 JUMP JUMPDEST SWAP2 POP POP SWAP3 SWAP2 POP POP JUMP JUMPDEST PUSH32 0x6E6F7420737570706F72746564207265636C61696D0000000000000000000000 PUSH1 0x0 DUP3 ADD MSTORE POP JUMP JUMPDEST PUSH1 0x0 PUSH2 0x897C PUSH1 0x15 DUP4 PUSH2 0x734E JUMP JUMPDEST SWAP2 POP PUSH2 0x8987 DUP3 PUSH2 0x8946 JUMP JUMPDEST PUSH1 0x20 DUP3 ADD SWAP1 POP SWAP2 SWAP1 POP JUMP JUMPDEST PUSH1 0x0 PUSH1 0x20 DUP3 ADD SWAP1 POP DUP2 DUP2 SUB PUSH1 0x0 DUP4 ADD MSTORE PUSH2 0x89AB DUP2 PUSH2 0x896F JUMP JUMPDEST SWAP1 POP SWAP2 SWAP1 POP JUMP JUMPDEST PUSH32 0x4F776E61626C653A2063616C6C6572206973206E6F7420746865206D616E6167 PUSH1 0x0 DUP3 ADD MSTORE PUSH32 0x6572000000000000000000000000000000000000000000000000000000000000 PUSH1 0x20 DUP3 ADD MSTORE POP JUMP JUMPDEST PUSH1 0x0 PUSH2 0x8A0E PUSH1 0x22 DUP4 PUSH2 0x734E JUMP JUMPDEST SWAP2 POP PUSH2 0x8A19 DUP3 PUSH2 0x89B2 JUMP JUMPDEST PUSH1 0x40 DUP3 ADD SWAP1 POP SWAP2 SWAP1 POP JUMP JUMPDEST PUSH1 0x0 PUSH1 0x20 DUP3 ADD SWAP1 POP DUP2 DUP2 SUB PUSH1 0x0 DUP4 ADD MSTORE PUSH2 0x8A3D DUP2 PUSH2 0x8A01 JUMP JUMPDEST SWAP1 POP SWAP2 SWAP1 POP JUMP JUMPDEST PUSH32 0x4E487B7100000000000000000000000000000000000000000000000000000000 PUSH1 0x0 MSTORE PUSH1 0x12 PUSH1 0x4 MSTORE PUSH1 0x24 PUSH1 0x0 REVERT JUMPDEST PUSH1 0x0 PUSH2 0x8A7E DUP3 PUSH2 0x7292 JUMP JUMPDEST SWAP2 POP PUSH2 0x8A89 DUP4 PUSH2 0x7292 JUMP JUMPDEST SWAP3 POP DUP3 PUSH2 0x8A99 JUMPI PUSH2 0x8A98 PUSH2 0x8A44 JUMP JUMPDEST JUMPDEST DUP3 DUP3 DIV SWAP1 POP SWAP3 SWAP2 POP POP JUMP JUMPDEST PUSH1 0x0 PUSH2 0x8AAF DUP3 PUSH2 0x7292 JUMP JUMPDEST SWAP2 POP PUSH2 0x8ABA DUP4 PUSH2 0x7292 JUMP JUMPDEST SWAP3 POP DUP3 DUP3 MUL PUSH2 0x8AC8 DUP2 PUSH2 0x7292 JUMP JUMPDEST SWAP2 POP DUP3 DUP3 DIV DUP5 EQ DUP4 ISZERO OR PUSH2 0x8ADF JUMPI PUSH2 0x8ADE PUSH2 0x86DA JUMP JUMPDEST JUMPDEST POP SWAP3 SWAP2 POP POP JUMP JUMPDEST PUSH1 0x0 PUSH2 0x8AF1 DUP3 PUSH2 0x7292 JUMP JUMPDEST SWAP2 POP PUSH2 0x8AFC DUP4 PUSH2 0x7292 JUMP JUMPDEST SWAP3 POP DUP3 DUP3 ADD SWAP1 POP DUP1 DUP3 GT ISZERO PUSH2 0x8B14 JUMPI PUSH2 0x8B13 PUSH2 0x86DA JUMP JUMPDEST JUMPDEST SWAP3 SWAP2 POP POP JUMP JUMPDEST PUSH32 0x746865207479706520646F6D61696E206E6F7420616464000000000000000000 PUSH1 0x0 DUP3 ADD MSTORE POP JUMP JUMPDEST PUSH1 0x0 PUSH2 0x8B50 PUSH1 0x17 DUP4 PUSH2 0x734E JUMP JUMPDEST SWAP2 POP PUSH2 0x8B5B DUP3 PUSH2 0x8B1A JUMP JUMPDEST PUSH1 0x20 DUP3 ADD SWAP1 POP SWAP2 SWAP1 POP JUMP JUMPDEST PUSH1 0x0 PUSH1 0x20 DUP3 ADD SWAP1 POP DUP2 DUP2 SUB PUSH1 0x0 DUP4 ADD MSTORE PUSH2 0x8B7F DUP2 PUSH2 0x8B43 JUMP JUMPDEST SWAP1 POP SWAP2 SWAP1 POP JUMP JUMPDEST PUSH32 0x746865207479706520646F6D61696E20686173206265656E2061626F72740000 PUSH1 0x0 DUP3 ADD MSTORE POP JUMP JUMPDEST PUSH1 0x0 PUSH2 0x8BBC PUSH1 0x1E DUP4 PUSH2 0x734E JUMP JUMPDEST SWAP2 POP PUSH2 0x8BC7 DUP3 PUSH2 0x8B86 JUMP JUMPDEST PUSH1 0x20 DUP3 ADD SWAP1 POP SWAP2 SWAP1 POP JUMP JUMPDEST PUSH1 0x0 PUSH1 0x20 DUP3 ADD SWAP1 POP DUP2 DUP2 SUB PUSH1 0x0 DUP4 ADD MSTORE PUSH2 0x8BEB DUP2 PUSH2 0x8BAF JUMP JUMPDEST SWAP1 POP SWAP2 SWAP1 POP JUMP JUMPDEST PUSH32 0x6C61756E6368446F6D61696E5479706541626F72740000000000000000000000 PUSH1 0x0 DUP3 ADD MSTORE POP JUMP JUMPDEST PUSH1 0x0 PUSH2 0x8C28 PUSH1 0x15 DUP4 PUSH2 0x734E JUMP JUMPDEST SWAP2 POP PUSH2 0x8C33 DUP3 PUSH2 0x8BF2 JUMP JUMPDEST PUSH1 0x20 DUP3 ADD SWAP1 POP SWAP2 SWAP1 POP JUMP JUMPDEST PUSH1 0x0 PUSH1 0x40 DUP3 ADD SWAP1 POP DUP2 DUP2 SUB PUSH1 0x0 DUP4 ADD MSTORE PUSH2 0x8C58 DUP2 DUP5 PUSH2 0x739A JUMP JUMPDEST SWAP1 POP DUP2 DUP2 SUB PUSH1 0x20 DUP4 ADD MSTORE PUSH2 0x8C6B DUP2 PUSH2 0x8C1B JUMP JUMPDEST SWAP1 POP SWAP3 SWAP2 POP POP JUMP JUMPDEST PUSH1 0x0 PUSH1 0x40 DUP3 ADD SWAP1 POP PUSH2 0x8C88 PUSH1 0x0 DUP4 ADD DUP6 PUSH2 0x8220 JUMP JUMPDEST PUSH2 0x8C95 PUSH1 0x20 DUP4 ADD DUP5 PUSH2 0x7454 JUMP JUMPDEST SWAP4 SWAP3 POP POP POP JUMP JUMPDEST PUSH32 0x62616C616E6365206D7573742062652075736564207570000000000000000000 PUSH1 0x0 DUP3 ADD MSTORE POP JUMP JUMPDEST PUSH1 0x0 PUSH2 0x8CD2 PUSH1 0x17 DUP4 PUSH2 0x734E JUMP JUMPDEST SWAP2 POP PUSH2 0x8CDD DUP3 PUSH2 0x8C9C JUMP JUMPDEST PUSH1 0x20 DUP3 ADD SWAP1 POP SWAP2 SWAP1 POP JUMP JUMPDEST PUSH1 0x0 PUSH1 0x20 DUP3 ADD SWAP1 POP DUP2 DUP2 SUB PUSH1 0x0 DUP4 ADD MSTORE PUSH2 0x8D01 DUP2 PUSH2 0x8CC5 JUMP JUMPDEST SWAP1 POP SWAP2 SWAP1 POP JUMP JUMPDEST PUSH32 0x726174696F20697320746F6F206C6F7700000000000000000000000000000000 PUSH1 0x0 DUP3 ADD MSTORE POP JUMP JUMPDEST PUSH1 0x0 PUSH2 0x8D3E PUSH1 0x10 DUP4 PUSH2 0x734E JUMP JUMPDEST SWAP2 POP PUSH2 0x8D49 DUP3 PUSH2 0x8D08 JUMP JUMPDEST PUSH1 0x20 DUP3 ADD SWAP1 POP SWAP2 SWAP1 POP JUMP JUMPDEST PUSH1 0x0 PUSH1 0x20 DUP3 ADD SWAP1 POP DUP2 DUP2 SUB PUSH1 0x0 DUP4 ADD MSTORE PUSH2 0x8D6D DUP2 PUSH2 0x8D31 JUMP JUMPDEST SWAP1 POP SWAP2 SWAP1 POP JUMP JUMPDEST PUSH1 0x0 PUSH2 0x8D7F DUP3 PUSH2 0x79A8 JUMP JUMPDEST SWAP2 POP PUSH2 0x8D8A DUP4 PUSH2 0x79A8 JUMP JUMPDEST SWAP3 POP DUP3 DUP3 SUB SWAP1 POP PUSH2 0xFFFF DUP2 GT ISZERO PUSH2 0x8DA4 JUMPI PUSH2 0x8DA3 PUSH2 0x86DA JUMP JUMPDEST JUMPDEST SWAP3 SWAP2 POP POP JUMP JUMPDEST PUSH1 0x0 PUSH2 0x8DB5 DUP3 PUSH2 0x79A8 JUMP JUMPDEST SWAP2 POP PUSH2 0x8DC0 DUP4 PUSH2 0x79A8 JUMP JUMPDEST SWAP3 POP DUP3 DUP3 ADD SWAP1 POP PUSH2 0xFFFF DUP2 GT ISZERO PUSH2 0x8DDA JUMPI PUSH2 0x8DD9 PUSH2 0x86DA JUMP JUMPDEST JUMPDEST SWAP3 SWAP2 POP POP JUMP JUMPDEST PUSH32 0x737572706C757320726174696F20697320746F6F206C6F770000000000000000 PUSH1 0x0 DUP3 ADD MSTORE POP JUMP JUMPDEST PUSH1 0x0 PUSH2 0x8E16 PUSH1 0x18 DUP4 PUSH2 0x734E JUMP JUMPDEST SWAP2 POP PUSH2 0x8E21 DUP3 PUSH2 0x8DE0 JUMP JUMPDEST PUSH1 0x20 DUP3 ADD SWAP1 POP SWAP2 SWAP1 POP JUMP JUMPDEST PUSH1 0x0 PUSH1 0x20 DUP3 ADD SWAP1 POP DUP2 DUP2 SUB PUSH1 0x0 DUP4 ADD MSTORE PUSH2 0x8E45 DUP2 PUSH2 0x8E09 JUMP JUMPDEST SWAP1 POP SWAP2 SWAP1 POP JUMP JUMPDEST PUSH32 0x657863656564696E67206D6178206C696D697400000000000000000000000000 PUSH1 0x0 DUP3 ADD MSTORE POP JUMP JUMPDEST PUSH1 0x0 PUSH2 0x8E82 PUSH1 0x13 DUP4 PUSH2 0x734E JUMP JUMPDEST SWAP2 POP PUSH2 0x8E8D DUP3 PUSH2 0x8E4C JUMP JUMPDEST PUSH1 0x20 DUP3 ADD SWAP1 POP SWAP2 SWAP1 POP JUMP JUMPDEST PUSH1 0x0 PUSH1 0x20 DUP3 ADD SWAP1 POP DUP2 DUP2 SUB PUSH1 0x0 DUP4 ADD MSTORE PUSH2 0x8EB1 DUP2 PUSH2 0x8E75 JUMP JUMPDEST SWAP1 POP SWAP2 SWAP1 POP JUMP JUMPDEST PUSH1 0x0 DUP2 MLOAD SWAP1 POP SWAP2 SWAP1 POP JUMP JUMPDEST PUSH1 0x0 DUP3 DUP3 MSTORE PUSH1 0x20 DUP3 ADD SWAP1 POP SWAP3 SWAP2 POP POP JUMP JUMPDEST PUSH1 0x0 DUP2 SWAP1 POP PUSH1 0x20 DUP3 ADD SWAP1 POP SWAP2 SWAP1 POP JUMP JUMPDEST PUSH2 0x8EED DUP2 PUSH2 0x7442 JUMP JUMPDEST DUP3 MSTORE POP POP JUMP JUMPDEST PUSH2 0x8EFC DUP2 PUSH2 0x79A8 JUMP JUMPDEST DUP3 MSTORE POP POP JUMP JUMPDEST PUSH1 0x40 DUP3 ADD PUSH1 0x0 DUP3 ADD MLOAD PUSH2 0x8F18 PUSH1 0x0 DUP6 ADD DUP3 PUSH2 0x8EE4 JUMP JUMPDEST POP PUSH1 0x20 DUP3 ADD MLOAD PUSH2 0x8F2B PUSH1 0x20 DUP6 ADD DUP3 PUSH2 0x8EF3 JUMP JUMPDEST POP POP POP POP JUMP JUMPDEST PUSH1 0x0 PUSH2 0x8F3D DUP4 DUP4 PUSH2 0x8F02 JUMP JUMPDEST PUSH1 0x40 DUP4 ADD SWAP1 POP SWAP3 SWAP2 POP POP JUMP JUMPDEST PUSH1 0x0 PUSH1 0x20 DUP3 ADD SWAP1 POP SWAP2 SWAP1 POP JUMP JUMPDEST PUSH1 0x0 PUSH2 0x8F61 DUP3 PUSH2 0x8EB8 JUMP JUMPDEST PUSH2 0x8F6B DUP2 DUP6 PUSH2 0x8EC3 JUMP JUMPDEST SWAP4 POP PUSH2 0x8F76 DUP4 PUSH2 0x8ED4 JUMP JUMPDEST DUP1 PUSH1 0x0 JUMPDEST DUP4 DUP2 LT ISZERO PUSH2 0x8FA7 JUMPI DUP2 MLOAD PUSH2 0x8F8E DUP9 DUP3 PUSH2 0x8F31 JUMP JUMPDEST SWAP8 POP PUSH2 0x8F99 DUP4 PUSH2 0x8F49 JUMP JUMPDEST SWAP3 POP POP PUSH1 0x1 DUP2 ADD SWAP1 POP PUSH2 0x8F7A JUMP JUMPDEST POP DUP6 SWAP4 POP POP POP POP SWAP3 SWAP2 POP POP JUMP JUMPDEST PUSH1 0x0 PUSH1 0x20 DUP3 ADD SWAP1 POP DUP2 DUP2 SUB PUSH1 0x0 DUP4 ADD MSTORE PUSH2 0x8FCE DUP2 DUP5 PUSH2 0x8F56 JUMP JUMPDEST SWAP1 POP SWAP3 SWAP2 POP POP JUMP JUMPDEST PUSH32 0x6C61756E6368446F6D61696E547970654D6F6469667900000000000000000000 PUSH1 0x0 DUP3 ADD MSTORE POP JUMP JUMPDEST PUSH1 0x0 PUSH2 0x900C PUSH1 0x16 DUP4 PUSH2 0x734E JUMP JUMPDEST SWAP2 POP PUSH2 0x9017 DUP3 PUSH2 0x8FD6 JUMP JUMPDEST PUSH1 0x20 DUP3 ADD SWAP1 POP SWAP2 SWAP1 POP JUMP JUMPDEST PUSH1 0x0 PUSH1 0xC0 DUP3 ADD SWAP1 POP DUP2 DUP2 SUB PUSH1 0x0 DUP4 ADD MSTORE PUSH2 0x903C DUP2 DUP9 PUSH2 0x739A JUMP JUMPDEST SWAP1 POP PUSH2 0x904B PUSH1 0x20 DUP4 ADD DUP8 PUSH2 0x7668 JUMP JUMPDEST PUSH2 0x9058 PUSH1 0x40 DUP4 ADD DUP7 PUSH2 0x7668 JUMP JUMPDEST PUSH2 0x9065 PUSH1 0x60 DUP4 ADD DUP6 PUSH2 0x7668 JUMP JUMPDEST PUSH2 0x9072 PUSH1 0x80 DUP4 ADD DUP5 PUSH2 0x7668 JUMP JUMPDEST DUP2 DUP2 SUB PUSH1 0xA0 DUP4 ADD MSTORE PUSH2 0x9083 DUP2 PUSH2 0x8FFF JUMP JUMPDEST SWAP1 POP SWAP7 SWAP6 POP POP POP POP POP POP JUMP JUMPDEST PUSH32 0x4552433732313A2061646472657373207A65726F206973206E6F742061207661 PUSH1 0x0 DUP3 ADD MSTORE PUSH32 0x6C6964206F776E65720000000000000000000000000000000000000000000000 PUSH1 0x20 DUP3 ADD MSTORE POP JUMP JUMPDEST PUSH1 0x0 PUSH2 0x90EB PUSH1 0x29 DUP4 PUSH2 0x734E JUMP JUMPDEST SWAP2 POP PUSH2 0x90F6 DUP3 PUSH2 0x908F JUMP JUMPDEST PUSH1 0x40 DUP3 ADD SWAP1 POP SWAP2 SWAP1 POP JUMP JUMPDEST PUSH1 0x0 PUSH1 0x20 DUP3 ADD SWAP1 POP DUP2 DUP2 SUB PUSH1 0x0 DUP4 ADD MSTORE PUSH2 0x911A DUP2 PUSH2 0x90DE JUMP JUMPDEST SWAP1 POP SWAP2 SWAP1 POP JUMP JUMPDEST PUSH32 0x74686520646F6D61696E20686173206265656E206C6F636B0000000000000000 PUSH1 0x0 DUP3 ADD MSTORE POP JUMP JUMPDEST PUSH1 0x0 PUSH2 0x9157 PUSH1 0x18 DUP4 PUSH2 0x734E JUMP JUMPDEST SWAP2 POP PUSH2 0x9162 DUP3 PUSH2 0x9121 JUMP JUMPDEST PUSH1 0x20 DUP3 ADD SWAP1 POP SWAP2 SWAP1 POP JUMP JUMPDEST PUSH1 0x0 PUSH1 0x20 DUP3 ADD SWAP1 POP DUP2 DUP2 SUB PUSH1 0x0 DUP4 ADD MSTORE PUSH2 0x9186 DUP2 PUSH2 0x914A JUMP JUMPDEST SWAP1 POP SWAP2 SWAP1 POP JUMP JUMPDEST PUSH1 0x0 DUP2 SWAP1 POP DUP2 PUSH1 0x0 MSTORE PUSH1 0x20 PUSH1 0x0 KECCAK256 SWAP1 POP SWAP2 SWAP1 POP JUMP JUMPDEST PUSH1 0x0 PUSH1 0x20 PUSH1 0x1F DUP4 ADD DIV SWAP1 POP SWAP2 SWAP1 POP JUMP JUMPDEST PUSH1 0x0 DUP3 DUP3 SHL SWAP1 POP SWAP3 SWAP2 POP POP JUMP JUMPDEST PUSH1 0x0 PUSH1 0x8 DUP4 MUL PUSH2 0x91EF PUSH32 0xFFFFFFFFFFFFFFFFFFFFFFFFFFFFFFFFFFFFFFFFFFFFFFFFFFFFFFFFFFFFFFFF DUP3 PUSH2 0x91B2 JUMP JUMPDEST PUSH2 0x91F9 DUP7 DUP4 PUSH2 0x91B2 JUMP JUMPDEST SWAP6 POP DUP1 NOT DUP5 AND SWAP4 POP DUP1 DUP7 AND DUP5 OR SWAP3 POP POP POP SWAP4 SWAP3 POP POP POP JUMP JUMPDEST PUSH1 0x0 PUSH2 0x922C PUSH2 0x9227 PUSH2 0x9222 DUP5 PUSH2 0x7292 JUMP JUMPDEST PUSH2 0x78CB JUMP JUMPDEST PUSH2 0x7292 JUMP JUMPDEST SWAP1 POP SWAP2 SWAP1 POP JUMP JUMPDEST PUSH1 0x0 DUP2 SWAP1 POP SWAP2 SWAP1 POP JUMP JUMPDEST PUSH2 0x9246 DUP4 PUSH2 0x9211 JUMP JUMPDEST PUSH2 0x925A PUSH2 0x9252 DUP3 PUSH2 0x9233 JUMP JUMPDEST DUP5 DUP5 SLOAD PUSH2 0x91BF JUMP JUMPDEST DUP3 SSTORE POP POP POP POP JUMP JUMPDEST PUSH1 0x0 SWAP1 JUMP JUMPDEST PUSH2 0x926F PUSH2 0x9262 JUMP JUMPDEST PUSH2 0x927A DUP2 DUP5 DUP5 PUSH2 0x923D JUMP JUMPDEST POP POP POP JUMP JUMPDEST JUMPDEST DUP2 DUP2 LT ISZERO PUSH2 0x929E JUMPI PUSH2 0x9293 PUSH1 0x0 DUP3 PUSH2 0x9267 JUMP JUMPDEST PUSH1 0x1 DUP2 ADD SWAP1 POP PUSH2 0x9280 JUMP JUMPDEST POP POP JUMP JUMPDEST PUSH1 0x1F DUP3 GT ISZERO PUSH2 0x92E3 JUMPI PUSH2 0x92B4 DUP2 PUSH2 0x918D JUMP JUMPDEST PUSH2 0x92BD DUP5 PUSH2 0x91A2 JUMP JUMPDEST DUP2 ADD PUSH1 0x20 DUP6 LT ISZERO PUSH2 0x92CC JUMPI DUP2 SWAP1 POP JUMPDEST PUSH2 0x92E0 PUSH2 0x92D8 DUP6 PUSH2 0x91A2 JUMP JUMPDEST DUP4 ADD DUP3 PUSH2 0x927F JUMP JUMPDEST POP POP JUMPDEST POP POP POP JUMP JUMPDEST PUSH1 0x0 DUP3 DUP3 SHR SWAP1 POP SWAP3 SWAP2 POP POP JUMP JUMPDEST PUSH1 0x0 PUSH2 0x9306 PUSH1 0x0 NOT DUP5 PUSH1 0x8 MUL PUSH2 0x92E8 JUMP JUMPDEST NOT DUP1 DUP4 AND SWAP2 POP POP SWAP3 SWAP2 POP POP JUMP JUMPDEST PUSH1 0x0 PUSH2 0x931F DUP4 DUP4 PUSH2 0x92F5 JUMP JUMPDEST SWAP2 POP DUP3 PUSH1 0x2 MUL DUP3 OR SWAP1 POP SWAP3 SWAP2 POP POP JUMP JUMPDEST PUSH2 0x9338 DUP3 PUSH2 0x7343 JUMP JUMPDEST PUSH8 0xFFFFFFFFFFFFFFFF DUP2 GT ISZERO PUSH2 0x9351 JUMPI PUSH2 0x9350 PUSH2 0x74F4 JUMP JUMPDEST JUMPDEST PUSH2 0x935B DUP3 SLOAD PUSH2 0x8435 JUMP JUMPDEST PUSH2 0x9366 DUP3 DUP3 DUP6 PUSH2 0x92A2 JUMP JUMPDEST PUSH1 0x0 PUSH1 0x20 SWAP1 POP PUSH1 0x1F DUP4 GT PUSH1 0x1 DUP2 EQ PUSH2 0x9399 JUMPI PUSH1 0x0 DUP5 ISZERO PUSH2 0x9387 JUMPI DUP3 DUP8 ADD MLOAD SWAP1 POP JUMPDEST PUSH2 0x9391 DUP6 DUP3 PUSH2 0x9313 JUMP JUMPDEST DUP7 SSTORE POP PUSH2 0x93F9 JUMP JUMPDEST PUSH1 0x1F NOT DUP5 AND PUSH2 0x93A7 DUP7 PUSH2 0x918D JUMP JUMPDEST PUSH1 0x0 JUMPDEST DUP3 DUP2 LT ISZERO PUSH2 0x93CF JUMPI DUP5 DUP10 ADD MLOAD DUP3 SSTORE PUSH1 0x1 DUP3 ADD SWAP2 POP PUSH1 0x20 DUP6 ADD SWAP5 POP PUSH1 0x20 DUP2 ADD SWAP1 POP PUSH2 0x93AA JUMP JUMPDEST DUP7 DUP4 LT ISZERO PUSH2 0x93EC JUMPI DUP5 DUP10 ADD MLOAD PUSH2 0x93E8 PUSH1 0x1F DUP10 AND DUP3 PUSH2 0x92F5 JUMP JUMPDEST DUP4 SSTORE POP JUMPDEST PUSH1 0x1 PUSH1 0x2 DUP9 MUL ADD DUP9 SSTORE POP POP POP JUMPDEST POP POP POP POP POP POP JUMP JUMPDEST PUSH1 0x0 DUP2 SWAP1 POP SWAP3 SWAP2 POP POP JUMP JUMPDEST PUSH1 0x0 PUSH2 0x9417 DUP3 PUSH2 0x7343 JUMP JUMPDEST PUSH2 0x9421 DUP2 DUP6 PUSH2 0x9401 JUMP JUMPDEST SWAP4 POP PUSH2 0x9431 DUP2 DUP6 PUSH1 0x20 DUP7 ADD PUSH2 0x735F JUMP JUMPDEST DUP1 DUP5 ADD SWAP2 POP POP SWAP3 SWAP2 POP POP JUMP JUMPDEST PUSH1 0x0 PUSH2 0x9449 DUP3 DUP5 PUSH2 0x940C JUMP JUMPDEST SWAP2 POP DUP2 SWAP1 POP SWAP3 SWAP2 POP POP JUMP JUMPDEST PUSH32 0x6C61756E63680000000000000000000000000000000000000000000000000000 PUSH1 0x0 DUP3 ADD MSTORE POP JUMP JUMPDEST PUSH1 0x0 PUSH2 0x948A PUSH1 0x6 DUP4 PUSH2 0x734E JUMP JUMPDEST SWAP2 POP PUSH2 0x9495 DUP3 PUSH2 0x9454 JUMP JUMPDEST PUSH1 0x20 DUP3 ADD SWAP1 POP SWAP2 SWAP1 POP JUMP JUMPDEST PUSH1 0x0 PUSH1 0xA0 DUP3 ADD SWAP1 POP PUSH2 0x94B5 PUSH1 0x0 DUP4 ADD DUP8 PUSH2 0x7668 JUMP JUMPDEST PUSH2 0x94C2 PUSH1 0x20 DUP4 ADD DUP7 PUSH2 0x7668 JUMP JUMPDEST PUSH2 0x94CF PUSH1 0x40 DUP4 ADD DUP6 PUSH2 0x7668 JUMP JUMPDEST PUSH2 0x94DC PUSH1 0x60 DUP4 ADD DUP5 PUSH2 0x7668 JUMP JUMPDEST DUP2 DUP2 SUB PUSH1 0x80 DUP4 ADD MSTORE PUSH2 0x94ED DUP2 PUSH2 0x947D JUMP JUMPDEST SWAP1 POP SWAP6 SWAP5 POP POP POP POP POP JUMP JUMPDEST PUSH1 0x0 DUP2 SWAP1 POP SWAP2 SWAP1 POP JUMP JUMPDEST PUSH2 0x9513 PUSH2 0x950E DUP3 PUSH2 0x8216 JUMP JUMPDEST PUSH2 0x94F8 JUMP JUMPDEST DUP3 MSTORE POP POP JUMP JUMPDEST PUSH1 0x0 DUP2 SWAP1 POP SWAP2 SWAP1 POP JUMP JUMPDEST PUSH2 0x9534 PUSH2 0x952F DUP3 PUSH2 0x7292 JUMP JUMPDEST PUSH2 0x9519 JUMP JUMPDEST DUP3 MSTORE POP POP JUMP JUMPDEST PUSH1 0x0 PUSH2 0x9546 DUP3 DUP6 PUSH2 0x9502 JUMP JUMPDEST PUSH1 0x20 DUP3 ADD SWAP2 POP PUSH2 0x9556 DUP3 DUP5 PUSH2 0x9523 JUMP JUMPDEST PUSH1 0x20 DUP3 ADD SWAP2 POP DUP2 SWAP1 POP SWAP4 SWAP3 POP POP POP JUMP JUMPDEST PUSH32 0x4F776E61626C653A2063616C6C6572206973206E6F7420746865206F776E6572 PUSH1 0x0 DUP3 ADD MSTORE POP JUMP JUMPDEST PUSH1 0x0 PUSH2 0x959C PUSH1 0x20 DUP4 PUSH2 0x734E JUMP JUMPDEST SWAP2 POP PUSH2 0x95A7 DUP3 PUSH2 0x9566 JUMP JUMPDEST PUSH1 0x20 DUP3 ADD SWAP1 POP SWAP2 SWAP1 POP JUMP JUMPDEST PUSH1 0x0 PUSH1 0x20 DUP3 ADD SWAP1 POP DUP2 DUP2 SUB PUSH1 0x0 DUP4 ADD MSTORE PUSH2 0x95CB DUP2 PUSH2 0x958F JUMP JUMPDEST SWAP1 POP SWAP2 SWAP1 POP JUMP JUMPDEST PUSH1 0x0 PUSH1 0x60 DUP3 ADD SWAP1 POP PUSH2 0x95E7 PUSH1 0x0 DUP4 ADD DUP7 PUSH2 0x8220 JUMP JUMPDEST PUSH2 0x95F4 PUSH1 0x20 DUP4 ADD DUP6 PUSH2 0x8220 JUMP JUMPDEST PUSH2 0x9601 PUSH1 0x40 DUP4 ADD DUP5 PUSH2 0x7454 JUMP JUMPDEST SWAP5 SWAP4 POP POP POP POP JUMP JUMPDEST PUSH2 0x9612 DUP2 PUSH2 0x8216 JUMP JUMPDEST DUP2 EQ PUSH2 0x961D JUMPI PUSH1 0x0 DUP1 REVERT JUMPDEST POP JUMP JUMPDEST PUSH1 0x0 DUP2 MLOAD SWAP1 POP PUSH2 0x962F DUP2 PUSH2 0x9609 JUMP JUMPDEST SWAP3 SWAP2 POP POP JUMP JUMPDEST PUSH1 0x0 PUSH1 0x20 DUP3 DUP5 SUB SLT ISZERO PUSH2 0x964B JUMPI PUSH2 0x964A PUSH2 0x71CD JUMP JUMPDEST JUMPDEST PUSH1 0x0 PUSH2 0x9659 DUP5 DUP3 DUP6 ADD PUSH2 0x9620 JUMP JUMPDEST SWAP2 POP POP SWAP3 SWAP2 POP POP JUMP JUMPDEST PUSH32 0x646F6D61696E20737461747573206973206E6F74206F70656E00000000000000 PUSH1 0x0 DUP3 ADD MSTORE POP JUMP JUMPDEST PUSH1 0x0 PUSH2 0x9698 PUSH1 0x19 DUP4 PUSH2 0x734E JUMP JUMPDEST SWAP2 POP PUSH2 0x96A3 DUP3 PUSH2 0x9662 JUMP JUMPDEST PUSH1 0x20 DUP3 ADD SWAP1 POP SWAP2 SWAP1 POP JUMP JUMPDEST PUSH1 0x0 PUSH1 0x20 DUP3 ADD SWAP1 POP DUP2 DUP2 SUB PUSH1 0x0 DUP4 ADD MSTORE PUSH2 0x96C7 DUP2 PUSH2 0x968B JUMP JUMPDEST SWAP1 POP SWAP2 SWAP1 POP JUMP JUMPDEST PUSH1 0x0 PUSH2 0x96DA DUP3 DUP6 PUSH2 0x940C JUMP JUMPDEST SWAP2 POP PUSH2 0x96E6 DUP3 DUP5 PUSH2 0x940C JUMP JUMPDEST SWAP2 POP DUP2 SWAP1 POP SWAP4 SWAP3 POP POP POP JUMP JUMPDEST PUSH32 0x74686520646F6D61696E206E6F7420686173206265656E206164640000000000 PUSH1 0x0 DUP3 ADD MSTORE POP JUMP JUMPDEST PUSH1 0x0 PUSH2 0x9728 PUSH1 0x1B DUP4 PUSH2 0x734E JUMP JUMPDEST SWAP2 POP PUSH2 0x9733 DUP3 PUSH2 0x96F2 JUMP JUMPDEST PUSH1 0x20 DUP3 ADD SWAP1 POP SWAP2 SWAP1 POP JUMP JUMPDEST PUSH1 0x0 PUSH1 0x20 DUP3 ADD SWAP1 POP DUP2 DUP2 SUB PUSH1 0x0 DUP4 ADD MSTORE PUSH2 0x9757 DUP2 PUSH2 0x971B JUMP JUMPDEST SWAP1 POP SWAP2 SWAP1 POP JUMP JUMPDEST PUSH32 0x4F776E61626C653A206E6577206F776E657220697320746865207A65726F2061 PUSH1 0x0 DUP3 ADD MSTORE PUSH32 0x6464726573730000000000000000000000000000000000000000000000000000 PUSH1 0x20 DUP3 ADD MSTORE POP JUMP JUMPDEST PUSH1 0x0 PUSH2 0x97BA PUSH1 0x26 DUP4 PUSH2 0x734E JUMP JUMPDEST SWAP2 POP PUSH2 0x97C5 DUP3 PUSH2 0x975E JUMP JUMPDEST PUSH1 0x40 DUP3 ADD SWAP1 POP SWAP2 SWAP1 POP JUMP JUMPDEST PUSH1 0x0 PUSH1 0x20 DUP3 ADD SWAP1 POP DUP2 DUP2 SUB PUSH1 0x0 DUP4 ADD MSTORE PUSH2 0x97E9 DUP2 PUSH2 0x97AD JUMP JUMPDEST SWAP1 POP SWAP2 SWAP1 POP JUMP JUMPDEST PUSH32 0x7468652074797065206E616D65206E6F74206164640000000000000000000000 PUSH1 0x0 DUP3 ADD MSTORE POP JUMP JUMPDEST PUSH1 0x0 PUSH2 0x9826 PUSH1 0x15 DUP4 PUSH2 0x734E JUMP JUMPDEST SWAP2 POP PUSH2 0x9831 DUP3 PUSH2 0x97F0 JUMP JUMPDEST PUSH1 0x20 DUP3 ADD SWAP1 POP SWAP2 SWAP1 POP JUMP JUMPDEST PUSH1 0x0 PUSH1 0x20 DUP3 ADD SWAP1 POP DUP2 DUP2 SUB PUSH1 0x0 DUP4 ADD MSTORE PUSH2 0x9855 DUP2 PUSH2 0x9819 JUMP JUMPDEST SWAP1 POP SWAP2 SWAP1 POP JUMP JUMPDEST PUSH32 0x6C61756E6368446F6D61696E5479706500000000000000000000000000000000 PUSH1 0x0 DUP3 ADD MSTORE POP JUMP JUMPDEST PUSH1 0x0 PUSH2 0x9892 PUSH1 0x10 DUP4 PUSH2 0x734E JUMP JUMPDEST SWAP2 POP PUSH2 0x989D DUP3 PUSH2 0x985C JUMP JUMPDEST PUSH1 0x20 DUP3 ADD SWAP1 POP SWAP2 SWAP1 POP JUMP JUMPDEST PUSH1 0x0 PUSH1 0xC0 DUP3 ADD SWAP1 POP DUP2 DUP2 SUB PUSH1 0x0 DUP4 ADD MSTORE PUSH2 0x98C2 DUP2 DUP9 PUSH2 0x739A JUMP JUMPDEST SWAP1 POP PUSH2 0x98D1 PUSH1 0x20 DUP4 ADD DUP8 PUSH2 0x7668 JUMP JUMPDEST PUSH2 0x98DE PUSH1 0x40 DUP4 ADD DUP7 PUSH2 0x7668 JUMP JUMPDEST PUSH2 0x98EB PUSH1 0x60 DUP4 ADD DUP6 PUSH2 0x7668 JUMP JUMPDEST PUSH2 0x98F8 PUSH1 0x80 DUP4 ADD DUP5 PUSH2 0x7668 JUMP JUMPDEST DUP2 DUP2 SUB PUSH1 0xA0 DUP4 ADD MSTORE PUSH2 0x9909 DUP2 PUSH2 0x9885 JUMP JUMPDEST SWAP1 POP SWAP7 SWAP6 POP POP POP POP POP POP JUMP JUMPDEST PUSH32 0x4552433732313A20696E76616C696420746F6B656E2049440000000000000000 PUSH1 0x0 DUP3 ADD MSTORE POP JUMP JUMPDEST PUSH1 0x0 PUSH2 0x994B PUSH1 0x18 DUP4 PUSH2 0x734E JUMP JUMPDEST SWAP2 POP PUSH2 0x9956 DUP3 PUSH2 0x9915 JUMP JUMPDEST PUSH1 0x20 DUP3 ADD SWAP1 POP SWAP2 SWAP1 POP JUMP JUMPDEST PUSH1 0x0 PUSH1 0x20 DUP3 ADD SWAP1 POP DUP2 DUP2 SUB PUSH1 0x0 DUP4 ADD MSTORE PUSH2 0x997A DUP2 PUSH2 0x993E JUMP JUMPDEST SWAP1 POP SWAP2 SWAP1 POP JUMP JUMPDEST PUSH32 0x4552433732313A207472616E736665722066726F6D20696E636F727265637420 PUSH1 0x0 DUP3 ADD MSTORE PUSH32 0x6F776E6572000000000000000000000000000000000000000000000000000000 PUSH1 0x20 DUP3 ADD MSTORE POP JUMP JUMPDEST PUSH1 0x0 PUSH2 0x99DD PUSH1 0x25 DUP4 PUSH2 0x734E JUMP JUMPDEST SWAP2 POP PUSH2 0x99E8 DUP3 PUSH2 0x9981 JUMP JUMPDEST PUSH1 0x40 DUP3 ADD SWAP1 POP SWAP2 SWAP1 POP JUMP JUMPDEST PUSH1 0x0 PUSH1 0x20 DUP3 ADD SWAP1 POP DUP2 DUP2 SUB PUSH1 0x0 DUP4 ADD MSTORE PUSH2 0x9A0C DUP2 PUSH2 0x99D0 JUMP JUMPDEST SWAP1 POP SWAP2 SWAP1 POP JUMP JUMPDEST PUSH32 0x4552433732313A207472616E7366657220746F20746865207A65726F20616464 PUSH1 0x0 DUP3 ADD MSTORE PUSH32 0x7265737300000000000000000000000000000000000000000000000000000000 PUSH1 0x20 DUP3 ADD MSTORE POP JUMP JUMPDEST PUSH1 0x0 PUSH2 0x9A6F PUSH1 0x24 DUP4 PUSH2 0x734E JUMP JUMPDEST SWAP2 POP PUSH2 0x9A7A DUP3 PUSH2 0x9A13 JUMP JUMPDEST PUSH1 0x40 DUP3 ADD SWAP1 POP SWAP2 SWAP1 POP JUMP JUMPDEST PUSH1 0x0 PUSH1 0x20 DUP3 ADD SWAP1 POP DUP2 DUP2 SUB PUSH1 0x0 DUP4 ADD MSTORE PUSH2 0x9A9E DUP2 PUSH2 0x9A62 JUMP JUMPDEST SWAP1 POP SWAP2 SWAP1 POP JUMP JUMPDEST PUSH1 0x0 PUSH2 0x9AB0 DUP3 PUSH2 0x7292 JUMP JUMPDEST SWAP2 POP PUSH2 0x9ABB DUP4 PUSH2 0x7292 JUMP JUMPDEST SWAP3 POP DUP3 DUP3 SUB SWAP1 POP DUP2 DUP2 GT ISZERO PUSH2 0x9AD3 JUMPI PUSH2 0x9AD2 PUSH2 0x86DA JUMP JUMPDEST JUMPDEST SWAP3 SWAP2 POP POP JUMP JUMPDEST PUSH32 0x4E487B7100000000000000000000000000000000000000000000000000000000 PUSH1 0x0 MSTORE PUSH1 0x31 PUSH1 0x4 MSTORE PUSH1 0x24 PUSH1 0x0 REVERT JUMPDEST PUSH32 0x4552433732313A20617070726F766520746F2063616C6C657200000000000000 PUSH1 0x0 DUP3 ADD MSTORE POP JUMP JUMPDEST PUSH1 0x0 PUSH2 0x9B3E PUSH1 0x19 DUP4 PUSH2 0x734E JUMP JUMPDEST SWAP2 POP PUSH2 0x9B49 DUP3 PUSH2 0x9B08 JUMP JUMPDEST PUSH1 0x20 DUP3 ADD SWAP1 POP SWAP2 SWAP1 POP JUMP JUMPDEST PUSH1 0x0 PUSH1 0x20 DUP3 ADD SWAP1 POP DUP2 DUP2 SUB PUSH1 0x0 DUP4 ADD MSTORE PUSH2 0x9B6D DUP2 PUSH2 0x9B31 JUMP JUMPDEST SWAP1 POP SWAP2 SWAP1 POP JUMP JUMPDEST PUSH32 0x6475726174696F6E20697320696E76616C696400000000000000000000000000 PUSH1 0x0 DUP3 ADD MSTORE POP JUMP JUMPDEST PUSH1 0x0 PUSH2 0x9BAA PUSH1 0x13 DUP4 PUSH2 0x734E JUMP JUMPDEST SWAP2 POP PUSH2 0x9BB5 DUP3 PUSH2 0x9B74 JUMP JUMPDEST PUSH1 0x20 DUP3 ADD SWAP1 POP SWAP2 SWAP1 POP JUMP JUMPDEST PUSH1 0x0 PUSH1 0x20 DUP3 ADD SWAP1 POP DUP2 DUP2 SUB PUSH1 0x0 DUP4 ADD MSTORE PUSH2 0x9BD9 DUP2 PUSH2 0x9B9D JUMP JUMPDEST SWAP1 POP SWAP2 SWAP1 POP JUMP JUMPDEST PUSH32 0x646F6D61696E206E6F74206C61756E6368000000000000000000000000000000 PUSH1 0x0 DUP3 ADD MSTORE POP JUMP JUMPDEST PUSH1 0x0 PUSH2 0x9C16 PUSH1 0x11 DUP4 PUSH2 0x734E JUMP JUMPDEST SWAP2 POP PUSH2 0x9C21 DUP3 PUSH2 0x9BE0 JUMP JUMPDEST PUSH1 0x20 DUP3 ADD SWAP1 POP SWAP2 SWAP1 POP JUMP JUMPDEST PUSH1 0x0 PUSH1 0x20 DUP3 ADD SWAP1 POP DUP2 DUP2 SUB PUSH1 0x0 DUP4 ADD MSTORE PUSH2 0x9C45 DUP2 PUSH2 0x9C09 JUMP JUMPDEST SWAP1 POP SWAP2 SWAP1 POP JUMP JUMPDEST PUSH32 0x646F6D61696E207072696365206E6F74206C61756E6368000000000000000000 PUSH1 0x0 DUP3 ADD MSTORE POP JUMP JUMPDEST PUSH1 0x0 PUSH2 0x9C82 PUSH1 0x17 DUP4 PUSH2 0x734E JUMP JUMPDEST SWAP2 POP PUSH2 0x9C8D DUP3 PUSH2 0x9C4C JUMP JUMPDEST PUSH1 0x20 DUP3 ADD SWAP1 POP SWAP2 SWAP1 POP JUMP JUMPDEST PUSH1 0x0 PUSH1 0x20 DUP3 ADD SWAP1 POP DUP2 DUP2 SUB PUSH1 0x0 DUP4 ADD MSTORE PUSH2 0x9CB1 DUP2 PUSH2 0x9C75 JUMP JUMPDEST SWAP1 POP SWAP2 SWAP1 POP JUMP JUMPDEST PUSH32 0x706179206D6F6E6579206E6F7420656E6F756768000000000000000000000000 PUSH1 0x0 DUP3 ADD MSTORE POP JUMP JUMPDEST PUSH1 0x0 PUSH2 0x9CEE PUSH1 0x14 DUP4 PUSH2 0x734E JUMP JUMPDEST SWAP2 POP PUSH2 0x9CF9 DUP3 PUSH2 0x9CB8 JUMP JUMPDEST PUSH1 0x20 DUP3 ADD SWAP1 POP SWAP2 SWAP1 POP JUMP JUMPDEST PUSH1 0x0 PUSH1 0x20 DUP3 ADD SWAP1 POP DUP2 DUP2 SUB PUSH1 0x0 DUP4 ADD MSTORE PUSH2 0x9D1D DUP2 PUSH2 0x9CE1 JUMP JUMPDEST SWAP1 POP SWAP2 SWAP1 POP JUMP JUMPDEST PUSH32 0x4552433732313A207472616E7366657220746F206E6F6E204552433732315265 PUSH1 0x0 DUP3 ADD MSTORE PUSH32 0x63656976657220696D706C656D656E7465720000000000000000000000000000 PUSH1 0x20 DUP3 ADD MSTORE POP JUMP JUMPDEST PUSH1 0x0 PUSH2 0x9D80 PUSH1 0x32 DUP4 PUSH2 0x734E JUMP JUMPDEST SWAP2 POP PUSH2 0x9D8B DUP3 PUSH2 0x9D24 JUMP JUMPDEST PUSH1 0x40 DUP3 ADD SWAP1 POP SWAP2 SWAP1 POP JUMP JUMPDEST PUSH1 0x0 PUSH1 0x20 DUP3 ADD SWAP1 POP DUP2 DUP2 SUB PUSH1 0x0 DUP4 ADD MSTORE PUSH2 0x9DAF DUP2 PUSH2 0x9D73 JUMP JUMPDEST SWAP1 POP SWAP2 SWAP1 POP JUMP JUMPDEST PUSH32 0x646F6D61696E20737461747573206973206C6F636B6564000000000000000000 PUSH1 0x0 DUP3 ADD MSTORE POP JUMP JUMPDEST PUSH1 0x0 PUSH2 0x9DEC PUSH1 0x17 DUP4 PUSH2 0x734E JUMP JUMPDEST SWAP2 POP PUSH2 0x9DF7 DUP3 PUSH2 0x9DB6 JUMP JUMPDEST PUSH1 0x20 DUP3 ADD SWAP1 POP SWAP2 SWAP1 POP JUMP JUMPDEST PUSH1 0x0 PUSH1 0x20 DUP3 ADD SWAP1 POP DUP2 DUP2 SUB PUSH1 0x0 DUP4 ADD MSTORE PUSH2 0x9E1B DUP2 PUSH2 0x9DDF JUMP JUMPDEST SWAP1 POP SWAP2 SWAP1 POP JUMP JUMPDEST PUSH32 0x6D617374657220646F6D61696E20737461747573206973206C6F636B65640000 PUSH1 0x0 DUP3 ADD MSTORE POP JUMP JUMPDEST PUSH1 0x0 PUSH2 0x9E58 PUSH1 0x1E DUP4 PUSH2 0x734E JUMP JUMPDEST SWAP2 POP PUSH2 0x9E63 DUP3 PUSH2 0x9E22 JUMP JUMPDEST PUSH1 0x20 DUP3 ADD SWAP1 POP SWAP2 SWAP1 POP JUMP JUMPDEST PUSH1 0x0 PUSH1 0x20 DUP3 ADD SWAP1 POP DUP2 DUP2 SUB PUSH1 0x0 DUP4 ADD MSTORE PUSH2 0x9E87 DUP2 PUSH2 0x9E4B JUMP JUMPDEST SWAP1 POP SWAP2 SWAP1 POP JUMP JUMPDEST PUSH32 0x6964206E6F7420617661696C61626C6500000000000000000000000000000000 PUSH1 0x0 DUP3 ADD MSTORE POP JUMP JUMPDEST PUSH1 0x0 PUSH2 0x9EC4 PUSH1 0x10 DUP4 PUSH2 0x734E JUMP JUMPDEST SWAP2 POP PUSH2 0x9ECF DUP3 PUSH2 0x9E8E JUMP JUMPDEST PUSH1 0x20 DUP3 ADD SWAP1 POP SWAP2 SWAP1 POP JUMP JUMPDEST PUSH1 0x0 PUSH1 0x20 DUP3 ADD SWAP1 POP DUP2 DUP2 SUB PUSH1 0x0 DUP4 ADD MSTORE PUSH2 0x9EF3 DUP2 PUSH2 0x9EB7 JUMP JUMPDEST SWAP1 POP SWAP2 SWAP1 POP JUMP JUMPDEST PUSH32 0x617574686F7269736564206661696C6564210000000000000000000000000000 PUSH1 0x0 DUP3 ADD MSTORE POP JUMP JUMPDEST PUSH1 0x0 PUSH2 0x9F30 PUSH1 0x12 DUP4 PUSH2 0x734E JUMP JUMPDEST SWAP2 POP PUSH2 0x9F3B DUP3 PUSH2 0x9EFA JUMP JUMPDEST PUSH1 0x20 DUP3 ADD SWAP1 POP SWAP2 SWAP1 POP JUMP JUMPDEST PUSH1 0x0 PUSH1 0x20 DUP3 ADD SWAP1 POP DUP2 DUP2 SUB PUSH1 0x0 DUP4 ADD MSTORE PUSH2 0x9F5F DUP2 PUSH2 0x9F23 JUMP JUMPDEST SWAP1 POP SWAP2 SWAP1 POP JUMP JUMPDEST PUSH1 0x0 PUSH1 0x40 DUP3 ADD SWAP1 POP DUP2 DUP2 SUB PUSH1 0x0 DUP4 ADD MSTORE PUSH2 0x9F80 DUP2 DUP6 PUSH2 0x739A JUMP JUMPDEST SWAP1 POP PUSH2 0x9F8F PUSH1 0x20 DUP4 ADD DUP5 PUSH2 0x7668 JUMP JUMPDEST SWAP4 SWAP3 POP POP POP JUMP JUMPDEST PUSH1 0x0 DUP2 MLOAD SWAP1 POP SWAP2 SWAP1 POP JUMP JUMPDEST PUSH1 0x0 DUP3 DUP3 MSTORE PUSH1 0x20 DUP3 ADD SWAP1 POP SWAP3 SWAP2 POP POP JUMP JUMPDEST PUSH1 0x0 PUSH2 0x9FBD DUP3 PUSH2 0x9F96 JUMP JUMPDEST PUSH2 0x9FC7 DUP2 DUP6 PUSH2 0x9FA1 JUMP JUMPDEST SWAP4 POP PUSH2 0x9FD7 DUP2 DUP6 PUSH1 0x20 DUP7 ADD PUSH2 0x735F JUMP JUMPDEST PUSH2 0x9FE0 DUP2 PUSH2 0x7389 JUMP JUMPDEST DUP5 ADD SWAP2 POP POP SWAP3 SWAP2 POP POP JUMP JUMPDEST PUSH1 0x0 PUSH1 0x80 DUP3 ADD SWAP1 POP PUSH2 0xA000 PUSH1 0x0 DUP4 ADD DUP8 PUSH2 0x7454 JUMP JUMPDEST PUSH2 0xA00D PUSH1 0x20 DUP4 ADD DUP7 PUSH2 0x7454 JUMP JUMPDEST PUSH2 0xA01A PUSH1 0x40 DUP4 ADD DUP6 PUSH2 0x7668 JUMP JUMPDEST DUP2 DUP2 SUB PUSH1 0x60 DUP4 ADD MSTORE PUSH2 0xA02C DUP2 DUP5 PUSH2 0x9FB2 JUMP JUMPDEST SWAP1 POP SWAP6 SWAP5 POP POP POP POP POP JUMP JUMPDEST PUSH1 0x0 DUP2 MLOAD SWAP1 POP PUSH2 0xA046 DUP2 PUSH2 0x7203 JUMP JUMPDEST SWAP3 SWAP2 POP POP JUMP JUMPDEST PUSH1 0x0 PUSH1 0x20 DUP3 DUP5 SUB SLT ISZERO PUSH2 0xA062 JUMPI PUSH2 0xA061 PUSH2 0x71CD JUMP JUMPDEST JUMPDEST PUSH1 0x0 PUSH2 0xA070 DUP5 DUP3 DUP6 ADD PUSH2 0xA037 JUMP JUMPDEST SWAP2 POP POP SWAP3 SWAP2 POP POP JUMP JUMPDEST PUSH32 0x70617920666F7265766572206D6F6E6579206E6F7420656E6F75676800000000 PUSH1 0x0 DUP3 ADD MSTORE POP JUMP JUMPDEST PUSH1 0x0 PUSH2 0xA0AF PUSH1 0x1C DUP4 PUSH2 0x734E JUMP JUMPDEST SWAP2 POP PUSH2 0xA0BA DUP3 PUSH2 0xA079 JUMP JUMPDEST PUSH1 0x20 DUP3 ADD SWAP1 POP SWAP2 SWAP1 POP JUMP JUMPDEST PUSH1 0x0 PUSH1 0x20 DUP3 ADD SWAP1 POP DUP2 DUP2 SUB PUSH1 0x0 DUP4 ADD MSTORE PUSH2 0xA0DE DUP2 PUSH2 0xA0A2 JUMP JUMPDEST SWAP1 POP SWAP2 SWAP1 POP JUMP JUMPDEST PUSH32 0x4552433732313A206D696E7420746F20746865207A65726F2061646472657373 PUSH1 0x0 DUP3 ADD MSTORE POP JUMP JUMPDEST PUSH1 0x0 PUSH2 0xA11B PUSH1 0x20 DUP4 PUSH2 0x734E JUMP JUMPDEST SWAP2 POP PUSH2 0xA126 DUP3 PUSH2 0xA0E5 JUMP JUMPDEST PUSH1 0x20 DUP3 ADD SWAP1 POP SWAP2 SWAP1 POP JUMP JUMPDEST PUSH1 0x0 PUSH1 0x20 DUP3 ADD SWAP1 POP DUP2 DUP2 SUB PUSH1 0x0 DUP4 ADD MSTORE PUSH2 0xA14A DUP2 PUSH2 0xA10E JUMP JUMPDEST SWAP1 POP SWAP2 SWAP1 POP JUMP JUMPDEST PUSH32 0x4552433732313A20746F6B656E20616C7265616479206D696E74656400000000 PUSH1 0x0 DUP3 ADD MSTORE POP JUMP JUMPDEST PUSH1 0x0 PUSH2 0xA187 PUSH1 0x1C DUP4 PUSH2 0x734E JUMP JUMPDEST SWAP2 POP PUSH2 0xA192 DUP3 PUSH2 0xA151 JUMP JUMPDEST PUSH1 0x20 DUP3 ADD SWAP1 POP SWAP2 SWAP1 POP JUMP JUMPDEST PUSH1 0x0 PUSH1 0x20 DUP3 ADD SWAP1 POP DUP2 DUP2 SUB PUSH1 0x0 DUP4 ADD MSTORE PUSH2 0xA1B6 DUP2 PUSH2 0xA17A JUMP JUMPDEST SWAP1 POP SWAP2 SWAP1 POP JUMP INVALID LOG2 PUSH5 0x6970667358 0x22 SLT KECCAK256 STATICCALL 0xC0 SWAP2 GT SHR 0xE2 SWAP16 BLOCKHASH 0x4D MUL SSTORE LOG0 SWAP13 0x5E 0x24 0xBA 0x2E 0xF9 0x49 0xC7 PUSH29 0x8D3E246F390715B764A36B64736F6C6343000813003300000000000000 "
		},
		"gasEstimates": {
			"creation": {
				"codeDepositCost": "8291800",
				"executionCost": "infinite",
				"totalCost": "infinite"
			},
			"external": {
				"GRACE_PERIOD()": "397",
				"addController(address)": "28371",
				"addLockNamesV1((string,string)[])": "infinite",
				"approve(address,uint256)": "infinite",
				"available(uint256)": "infinite",
				"balanceOf(address)": "2966",
				"baseNode()": "2562",
				"checkDomainTypeOpen(string)": "infinite",
				"compareString(string,string)": "infinite",
				"compareUin256(uint256,uint256)": "infinite",
				"containMasterLockName(string)": "infinite",
				"controllers(address)": "2934",
				"delLockNames(string[])": "infinite",
				"ens()": "infinite",
				"getApproved(uint256)": "5301",
				"getDomainTypeMaxPrice(string)": "infinite",
				"getDomainTypeMaxReNewPrice(string)": "infinite",
				"getRatio(address)": "infinite",
				"getSubTypeNameV2(string)": "infinite",
				"getTypeName(string)": "infinite",
				"iEnsPool()": "infinite",
				"isApprovedForAll(address,address)": "infinite",
				"launchDomainLen(uint256,uint256,uint256,uint256,uint256)": "infinite",
				"launchDomainLenAbort(uint256)": "infinite",
				"launchDomainLenModify(uint256,uint256,uint256,uint256,uint256)": "infinite",
				"launchDomainName(string,uint256,uint256,uint256,uint256)": "infinite",
				"launchDomainNameAbort(string)": "infinite",
				"launchDomainNameModify(string,uint256,uint256,uint256,uint256)": "infinite",
				"launchDomainType(string,uint256,uint256,uint256,uint256)": "infinite",
				"launchDomainTypeAbort(string)": "infinite",
				"launchDomainTypeModify(string,uint256,uint256,uint256,uint256)": "infinite",
				"lockMaster(string[])": "infinite",
				"masterLockStatus(uint256)": "2887",
				"name()": "infinite",
				"nameExpires(uint256)": "infinite",
				"owner()": "2635",
				"ownerOf(uint256)": "5332",
				"reclaim(uint256,address)": "infinite",
				"register(string,address,uint256)": "infinite",
				"removeController(address)": "28369",
				"renew(string,uint256)": "infinite",
				"renounceOwnership()": "30510",
				"safeTransferFrom(address,address,uint256)": "infinite",
				"safeTransferFrom(address,address,uint256,bytes)": "infinite",
				"setApprovalForAll(address,bool)": "infinite",
				"setResolver(address)": "infinite",
				"sleepTwoSe()": "infinite",
				"sleepTwoSe1()": "infinite",
				"supportsInterface(bytes4)": "848",
				"symbol()": "infinite",
				"test1()": "2422",
				"tokenURI(uint256)": "3483",
				"total()": "2497",
				"transferDomainOwn(address,string)": "infinite",
				"transferFrom(address,address,uint256)": "infinite",
				"transferOwnership(address)": "30832",
				"transferStock((address,uint16)[])": "infinite",
				"unLockMaster(string[])": "infinite",
				"utilCompareInternal(string,string)": "infinite",
				"withdraw()": "infinite",
				"withdrawRecord(address)": "2905"
			},
			"internal": {
				"_isApprovedOrOwner(address,uint256)": "infinite",
				"_register(string memory,address,uint256,bool)": "infinite",
				"checkMoney(string memory,uint256,uint256)": "infinite",
				"checkReNewMoney(string memory,uint256,uint256)": "infinite"
			}
		},
		"methodIdentifiers": {
			"GRACE_PERIOD()": "c1a287e2",
			"addController(address)": "a7fc7a07",
			"addLockNamesV1((string,string)[])": "a4a9bb3a",
			"approve(address,uint256)": "095ea7b3",
			"available(uint256)": "96e494e8",
			"balanceOf(address)": "70a08231",
			"baseNode()": "ddf7fcb0",
			"checkDomainTypeOpen(string)": "7274c559",
			"compareString(string,string)": "75b83187",
			"compareUin256(uint256,uint256)": "25e8660a",
			"containMasterLockName(string)": "969e93da",
			"controllers(address)": "da8c229e",
			"delLockNames(string[])": "78f97d90",
			"ens()": "3f15457f",
			"getApproved(uint256)": "081812fc",
			"getDomainTypeMaxPrice(string)": "0a7d4f1e",
			"getDomainTypeMaxReNewPrice(string)": "b86cffbb",
			"getRatio(address)": "754b2707",
			"getSubTypeNameV2(string)": "9bf32bf5",
			"getTypeName(string)": "d26f74f8",
			"iEnsPool()": "d99942cf",
			"isApprovedForAll(address,address)": "e985e9c5",
			"launchDomainLen(uint256,uint256,uint256,uint256,uint256)": "d58a8117",
			"launchDomainLenAbort(uint256)": "12abbb6c",
			"launchDomainLenModify(uint256,uint256,uint256,uint256,uint256)": "05ef9e52",
			"launchDomainName(string,uint256,uint256,uint256,uint256)": "772a3afa",
			"launchDomainNameAbort(string)": "d85267f1",
			"launchDomainNameModify(string,uint256,uint256,uint256,uint256)": "ca7eacd7",
			"launchDomainType(string,uint256,uint256,uint256,uint256)": "f4624aff",
			"launchDomainTypeAbort(string)": "4d3fb0cb",
			"launchDomainTypeModify(string,uint256,uint256,uint256,uint256)": "6dc8fcee",
			"lockMaster(string[])": "72ae6034",
			"masterLockStatus(uint256)": "8d8785d7",
			"name()": "06fdde03",
			"nameExpires(uint256)": "d6e4fa86",
			"owner()": "8da5cb5b",
			"ownerOf(uint256)": "6352211e",
			"reclaim(uint256,address)": "28ed4f6c",
			"register(string,address,uint256)": "d393c871",
			"removeController(address)": "f6a74ed7",
			"renew(string,uint256)": "acf1a841",
			"renounceOwnership()": "715018a6",
			"safeTransferFrom(address,address,uint256)": "42842e0e",
			"safeTransferFrom(address,address,uint256,bytes)": "b88d4fde",
			"setApprovalForAll(address,bool)": "a22cb465",
			"setResolver(address)": "4e543b26",
			"sleepTwoSe()": "56c7ae41",
			"sleepTwoSe1()": "dd6627c3",
			"supportsInterface(bytes4)": "01ffc9a7",
			"symbol()": "95d89b41",
			"test1()": "6b59084d",
			"tokenURI(uint256)": "c87b56dd",
			"total()": "2ddbd13a",
			"transferDomainOwn(address,string)": "a8b4a67b",
			"transferFrom(address,address,uint256)": "23b872dd",
			"transferOwnership(address)": "f2fde38b",
			"transferStock((address,uint16)[])": "59e5ff2a",
			"unLockMaster(string[])": "10152b66",
			"utilCompareInternal(string,string)": "8ddbeb07",
			"withdraw()": "3ccfd60b",
			"withdrawRecord(address)": "4e14eb28"
		}
	},
	"abi": [
		{
			"inputs": [
				{
					"internalType": "contract ENS",
					"name": "_ens",
					"type": "address"
				},
				{
					"internalType": "contract IEnsPool",
					"name": "_iEnsPool",
					"type": "address"
				},
				{
					"internalType": "bytes32",
					"name": "_baseNode",
					"type": "bytes32"
				},
				{
					"internalType": "string",
					"name": "_baseName",
					"type": "string"
				},
				{
					"components": [
						{
							"internalType": "address",
							"name": "to",
							"type": "address"
						},
						{
							"internalType": "uint16",
							"name": "ratio",
							"type": "uint16"
						}
					],
					"internalType": "struct StockManager.Stock[]",
					"name": "stocks",
					"type": "tuple[]"
				}
			],
			"stateMutability": "nonpayable",
			"type": "constructor"
		},
		{
			"anonymous": false,
			"inputs": [
				{
					"indexed": false,
					"internalType": "string[]",
					"name": "names",
					"type": "string[]"
				}
			],
			"name": "AddLockNames",
			"type": "event"
		},
		{
			"anonymous": false,
			"inputs": [
				{
					"components": [
						{
							"internalType": "string",
							"name": "name",
							"type": "string"
						},
						{
							"internalType": "string",
							"name": "tag",
							"type": "string"
						}
					],
					"indexed": false,
					"internalType": "struct LockName.Lock[]",
					"name": "names",
					"type": "tuple[]"
				}
			],
			"name": "AddLockNamesV1",
			"type": "event"
		},
		{
			"anonymous": false,
			"inputs": [
				{
					"indexed": true,
					"internalType": "address",
					"name": "owner",
					"type": "address"
				},
				{
					"indexed": true,
					"internalType": "address",
					"name": "approved",
					"type": "address"
				},
				{
					"indexed": true,
					"internalType": "uint256",
					"name": "tokenId",
					"type": "uint256"
				}
			],
			"name": "Approval",
			"type": "event"
		},
		{
			"anonymous": false,
			"inputs": [
				{
					"indexed": true,
					"internalType": "address",
					"name": "owner",
					"type": "address"
				},
				{
					"indexed": true,
					"internalType": "address",
					"name": "operator",
					"type": "address"
				},
				{
					"indexed": false,
					"internalType": "bool",
					"name": "approved",
					"type": "bool"
				}
			],
			"name": "ApprovalForAll",
			"type": "event"
		},
		{
			"anonymous": false,
			"inputs": [
				{
					"indexed": true,
					"internalType": "address",
					"name": "controller",
					"type": "address"
				}
			],
			"name": "ControllerAdded",
			"type": "event"
		},
		{
			"anonymous": false,
			"inputs": [
				{
					"indexed": true,
					"internalType": "address",
					"name": "controller",
					"type": "address"
				}
			],
			"name": "ControllerRemoved",
			"type": "event"
		},
		{
			"anonymous": false,
			"inputs": [
				{
					"indexed": false,
					"internalType": "string[]",
					"name": "names",
					"type": "string[]"
				}
			],
			"name": "DelLockNames",
			"type": "event"
		},
		{
			"anonymous": false,
			"inputs": [
				{
					"indexed": true,
					"internalType": "string",
					"name": "name",
					"type": "string"
				},
				{
					"indexed": false,
					"internalType": "address",
					"name": "owner",
					"type": "address"
				},
				{
					"indexed": false,
					"internalType": "address",
					"name": "registerAddr",
					"type": "address"
				}
			],
			"name": "DeployRegister",
			"type": "event"
		},
		{
			"anonymous": false,
			"inputs": [
				{
					"indexed": true,
					"internalType": "uint256",
					"name": "len",
					"type": "uint256"
				},
				{
					"indexed": false,
					"internalType": "uint256",
					"name": "price",
					"type": "uint256"
				},
				{
					"indexed": false,
					"internalType": "uint256",
					"name": "openTime",
					"type": "uint256"
				},
				{
					"indexed": false,
					"internalType": "uint256",
					"name": "foreverPrice",
					"type": "uint256"
				},
				{
					"indexed": false,
					"internalType": "uint256",
					"name": "reNewPrice",
					"type": "uint256"
				},
				{
					"indexed": false,
					"internalType": "string",
					"name": "op",
					"type": "string"
				}
			],
			"name": "LaunchDomainLen",
			"type": "event"
		},
		{
			"anonymous": false,
			"inputs": [
				{
					"indexed": true,
					"internalType": "string",
					"name": "name",
					"type": "string"
				},
				{
					"indexed": false,
					"internalType": "uint256",
					"name": "price",
					"type": "uint256"
				},
				{
					"indexed": false,
					"internalType": "uint256",
					"name": "openTime",
					"type": "uint256"
				},
				{
					"indexed": false,
					"internalType": "uint256",
					"name": "foreverPrice",
					"type": "uint256"
				},
				{
					"indexed": false,
					"internalType": "uint256",
					"name": "reNewPrice",
					"type": "uint256"
				},
				{
					"indexed": false,
					"internalType": "string",
					"name": "op",
					"type": "string"
				}
			],
			"name": "LaunchDomainName",
			"type": "event"
		},
		{
			"anonymous": false,
			"inputs": [
				{
					"indexed": false,
					"internalType": "string",
					"name": "typeName",
					"type": "string"
				},
				{
					"indexed": false,
					"internalType": "uint256",
					"name": "price",
					"type": "uint256"
				},
				{
					"indexed": false,
					"internalType": "uint256",
					"name": "openTime",
					"type": "uint256"
				},
				{
					"indexed": false,
					"internalType": "uint256",
					"name": "foreverPrice",
					"type": "uint256"
				},
				{
					"indexed": false,
					"internalType": "uint256",
					"name": "reNewPrice",
					"type": "uint256"
				},
				{
					"indexed": false,
					"internalType": "string",
					"name": "op",
					"type": "string"
				}
			],
			"name": "LaunchDomainType",
			"type": "event"
		},
		{
			"anonymous": false,
			"inputs": [
				{
					"indexed": false,
					"internalType": "string",
					"name": "typeName",
					"type": "string"
				},
				{
					"indexed": false,
					"internalType": "string",
					"name": "op",
					"type": "string"
				}
			],
			"name": "LaunchDomainTypeAbort",
			"type": "event"
		},
		{
			"anonymous": false,
			"inputs": [
				{
					"indexed": false,
					"internalType": "string",
					"name": "typeName",
					"type": "string"
				},
				{
					"indexed": false,
					"internalType": "uint256",
					"name": "price",
					"type": "uint256"
				},
				{
					"indexed": false,
					"internalType": "uint256",
					"name": "openTime",
					"type": "uint256"
				},
				{
					"indexed": false,
					"internalType": "uint256",
					"name": "foreverPrice",
					"type": "uint256"
				},
				{
					"indexed": false,
					"internalType": "uint256",
					"name": "reNewPrice",
					"type": "uint256"
				},
				{
					"indexed": false,
					"internalType": "string",
					"name": "op",
					"type": "string"
				}
			],
			"name": "LaunchDomainTypeModify",
			"type": "event"
		},
		{
			"anonymous": false,
			"inputs": [
				{
					"indexed": true,
					"internalType": "uint256",
					"name": "id",
					"type": "uint256"
				},
				{
					"indexed": true,
					"internalType": "address",
					"name": "owner",
					"type": "address"
				},
				{
					"indexed": false,
					"internalType": "uint256",
					"name": "expires",
					"type": "uint256"
				}
			],
			"name": "NameMigrated",
			"type": "event"
		},
		{
			"anonymous": false,
			"inputs": [
				{
					"indexed": false,
					"internalType": "string",
					"name": "name",
					"type": "string"
				},
				{
					"indexed": true,
					"internalType": "address",
					"name": "owner",
					"type": "address"
				},
				{
					"indexed": false,
					"internalType": "uint256",
					"name": "expires",
					"type": "uint256"
				}
			],
			"name": "NameRegistered",
			"type": "event"
		},
		{
			"anonymous": false,
			"inputs": [
				{
					"indexed": true,
					"internalType": "string",
					"name": "name",
					"type": "string"
				},
				{
					"indexed": false,
					"internalType": "uint256",
					"name": "expires",
					"type": "uint256"
				}
			],
			"name": "NameRenewed",
			"type": "event"
		},
		{
			"anonymous": false,
			"inputs": [
				{
					"indexed": true,
					"internalType": "address",
					"name": "previousOwner",
					"type": "address"
				},
				{
					"indexed": true,
					"internalType": "address",
					"name": "newOwner",
					"type": "address"
				}
			],
			"name": "OwnershipTransferred",
			"type": "event"
		},
		{
			"anonymous": false,
			"inputs": [
				{
					"indexed": true,
					"internalType": "address",
					"name": "from",
					"type": "address"
				},
				{
					"indexed": true,
					"internalType": "address",
					"name": "to",
					"type": "address"
				},
				{
					"indexed": true,
					"internalType": "uint256",
					"name": "tokenId",
					"type": "uint256"
				}
			],
			"name": "Transfer",
			"type": "event"
		},
		{
			"anonymous": false,
			"inputs": [
				{
					"indexed": true,
					"internalType": "address",
					"name": "from",
					"type": "address"
				},
				{
					"indexed": true,
					"internalType": "address",
					"name": "to",
					"type": "address"
				},
				{
					"indexed": false,
					"internalType": "string",
					"name": "name",
					"type": "string"
				}
			],
			"name": "TransferName",
			"type": "event"
		},
		{
			"anonymous": false,
			"inputs": [
				{
					"indexed": true,
					"internalType": "address",
					"name": "from",
					"type": "address"
				},
				{
					"indexed": true,
					"internalType": "address",
					"name": "to",
					"type": "address"
				},
				{
					"indexed": false,
					"internalType": "uint256",
					"name": "amount",
					"type": "uint256"
				}
			],
			"name": "Withdraw",
			"type": "event"
		},
		{
			"anonymous": false,
			"inputs": [
				{
					"components": [
						{
							"internalType": "address",
							"name": "to",
							"type": "address"
						},
						{
							"internalType": "uint16",
							"name": "ratio",
							"type": "uint16"
						}
					],
					"indexed": false,
					"internalType": "struct StockManager.Stock[]",
					"name": "stocks",
					"type": "tuple[]"
				}
			],
			"name": "stockManagerChanged",
			"type": "event"
		},
		{
			"anonymous": false,
			"inputs": [
				{
					"indexed": true,
					"internalType": "address",
					"name": "ma",
					"type": "address"
				}
			],
			"name": "stockManagerDel",
			"type": "event"
		},
		{
			"inputs": [],
			"name": "GRACE_PERIOD",
			"outputs": [
				{
					"internalType": "uint256",
					"name": "",
					"type": "uint256"
				}
			],
			"stateMutability": "view",
			"type": "function"
		},
		{
			"inputs": [
				{
					"internalType": "address",
					"name": "controller",
					"type": "address"
				}
			],
			"name": "addController",
			"outputs": [],
			"stateMutability": "nonpayable",
			"type": "function"
		},
		{
			"inputs": [
				{
					"components": [
						{
							"internalType": "string",
							"name": "name",
							"type": "string"
						},
						{
							"internalType": "string",
							"name": "tag",
							"type": "string"
						}
					],
					"internalType": "struct LockName.Lock[]",
					"name": "names",
					"type": "tuple[]"
				}
			],
			"name": "addLockNamesV1",
			"outputs": [],
			"stateMutability": "nonpayable",
			"type": "function"
		},
		{
			"inputs": [
				{
					"internalType": "address",
					"name": "to",
					"type": "address"
				},
				{
					"internalType": "uint256",
					"name": "tokenId",
					"type": "uint256"
				}
			],
			"name": "approve",
			"outputs": [],
			"stateMutability": "nonpayable",
			"type": "function"
		},
		{
			"inputs": [
				{
					"internalType": "uint256",
					"name": "id",
					"type": "uint256"
				}
			],
			"name": "available",
			"outputs": [
				{
					"internalType": "bool",
					"name": "",
					"type": "bool"
				}
			],
			"stateMutability": "view",
			"type": "function"
		},
		{
			"inputs": [
				{
					"internalType": "address",
					"name": "owner",
					"type": "address"
				}
			],
			"name": "balanceOf",
			"outputs": [
				{
					"internalType": "uint256",
					"name": "",
					"type": "uint256"
				}
			],
			"stateMutability": "view",
			"type": "function"
		},
		{
			"inputs": [],
			"name": "baseNode",
			"outputs": [
				{
					"internalType": "bytes32",
					"name": "",
					"type": "bytes32"
				}
			],
			"stateMutability": "view",
			"type": "function"
		},
		{
			"inputs": [
				{
					"internalType": "string",
					"name": "name",
					"type": "string"
				}
			],
			"name": "checkDomainTypeOpen",
			"outputs": [
				{
					"internalType": "bool",
					"name": "",
					"type": "bool"
				}
			],
			"stateMutability": "nonpayable",
			"type": "function"
		},
		{
			"inputs": [
				{
					"internalType": "string",
					"name": "a",
					"type": "string"
				},
				{
					"internalType": "string",
					"name": "b",
					"type": "string"
				}
			],
			"name": "compareString",
			"outputs": [
				{
					"internalType": "bool",
					"name": "",
					"type": "bool"
				}
			],
			"stateMutability": "pure",
			"type": "function"
		},
		{
			"inputs": [
				{
					"internalType": "uint256",
					"name": "aNum",
					"type": "uint256"
				},
				{
					"internalType": "uint256",
					"name": "bNum",
					"type": "uint256"
				}
			],
			"name": "compareUin256",
			"outputs": [
				{
					"internalType": "uint256",
					"name": "",
					"type": "uint256"
				}
			],
			"stateMutability": "pure",
			"type": "function"
		},
		{
			"inputs": [
				{
					"internalType": "string",
					"name": "name",
					"type": "string"
				}
			],
			"name": "containMasterLockName",
			"outputs": [
				{
					"internalType": "bool",
					"name": "",
					"type": "bool"
				}
			],
			"stateMutability": "nonpayable",
			"type": "function"
		},
		{
			"inputs": [
				{
					"internalType": "address",
					"name": "",
					"type": "address"
				}
			],
			"name": "controllers",
			"outputs": [
				{
					"internalType": "bool",
					"name": "",
					"type": "bool"
				}
			],
			"stateMutability": "view",
			"type": "function"
		},
		{
			"inputs": [
				{
					"internalType": "string[]",
					"name": "names",
					"type": "string[]"
				}
			],
			"name": "delLockNames",
			"outputs": [],
			"stateMutability": "nonpayable",
			"type": "function"
		},
		{
			"inputs": [],
			"name": "ens",
			"outputs": [
				{
					"internalType": "contract ENS",
					"name": "",
					"type": "address"
				}
			],
			"stateMutability": "view",
			"type": "function"
		},
		{
			"inputs": [
				{
					"internalType": "uint256",
					"name": "tokenId",
					"type": "uint256"
				}
			],
			"name": "getApproved",
			"outputs": [
				{
					"internalType": "address",
					"name": "",
					"type": "address"
				}
			],
			"stateMutability": "view",
			"type": "function"
		},
		{
			"inputs": [
				{
					"internalType": "string",
					"name": "name",
					"type": "string"
				}
			],
			"name": "getDomainTypeMaxPrice",
			"outputs": [
				{
					"internalType": "uint256",
					"name": "",
					"type": "uint256"
				},
				{
					"internalType": "uint256",
					"name": "",
					"type": "uint256"
				},
				{
					"internalType": "uint256",
					"name": "",
					"type": "uint256"
				}
			],
			"stateMutability": "nonpayable",
			"type": "function"
		},
		{
			"inputs": [
				{
					"internalType": "string",
					"name": "name",
					"type": "string"
				}
			],
			"name": "getDomainTypeMaxReNewPrice",
			"outputs": [
				{
					"internalType": "uint256",
					"name": "",
					"type": "uint256"
				},
				{
					"internalType": "uint256",
					"name": "",
					"type": "uint256"
				},
				{
					"internalType": "uint256",
					"name": "",
					"type": "uint256"
				}
			],
			"stateMutability": "nonpayable",
			"type": "function"
		},
		{
			"inputs": [
				{
					"internalType": "address",
					"name": "addr",
					"type": "address"
				}
			],
			"name": "getRatio",
			"outputs": [
				{
					"internalType": "uint16",
					"name": "",
					"type": "uint16"
				}
			],
			"stateMutability": "view",
			"type": "function"
		},
		{
			"inputs": [
				{
					"internalType": "string",
					"name": "name",
					"type": "string"
				}
			],
			"name": "getSubTypeNameV2",
			"outputs": [
				{
					"internalType": "uint256",
					"name": "",
					"type": "uint256"
				},
				{
					"internalType": "uint256",
					"name": "",
					"type": "uint256"
				},
				{
					"internalType": "uint256",
					"name": "",
					"type": "uint256"
				}
			],
			"stateMutability": "nonpayable",
			"type": "function"
		},
		{
			"inputs": [
				{
					"internalType": "string",
					"name": "typeName",
					"type": "string"
				}
			],
			"name": "getTypeName",
			"outputs": [
				{
					"components": [
						{
							"internalType": "string",
							"name": "typeName",
							"type": "string"
						},
						{
							"internalType": "uint256",
							"name": "price",
							"type": "uint256"
						},
						{
							"internalType": "uint256",
							"name": "openTime",
							"type": "uint256"
						},
						{
							"internalType": "uint256",
							"name": "foreverPrice",
							"type": "uint256"
						},
						{
							"internalType": "uint256",
							"name": "reNewPrice",
							"type": "uint256"
						},
						{
							"internalType": "bool",
							"name": "status",
							"type": "bool"
						},
						{
							"internalType": "bool",
							"name": "abort",
							"type": "bool"
						}
					],
					"internalType": "struct LaunchDomain.DomainType",
					"name": "",
					"type": "tuple"
				}
			],
			"stateMutability": "view",
			"type": "function"
		},
		{
			"inputs": [],
			"name": "iEnsPool",
			"outputs": [
				{
					"internalType": "contract IEnsPool",
					"name": "",
					"type": "address"
				}
			],
			"stateMutability": "view",
			"type": "function"
		},
		{
			"inputs": [
				{
					"internalType": "address",
					"name": "owner",
					"type": "address"
				},
				{
					"internalType": "address",
					"name": "operator",
					"type": "address"
				}
			],
			"name": "isApprovedForAll",
			"outputs": [
				{
					"internalType": "bool",
					"name": "",
					"type": "bool"
				}
			],
			"stateMutability": "view",
			"type": "function"
		},
		{
			"inputs": [
				{
					"internalType": "uint256",
					"name": "len",
					"type": "uint256"
				},
				{
					"internalType": "uint256",
					"name": "price",
					"type": "uint256"
				},
				{
					"internalType": "uint256",
					"name": "openTime",
					"type": "uint256"
				},
				{
					"internalType": "uint256",
					"name": "foreverPrice",
					"type": "uint256"
				},
				{
					"internalType": "uint256",
					"name": "reNewPrice",
					"type": "uint256"
				}
			],
			"name": "launchDomainLen",
			"outputs": [],
			"stateMutability": "nonpayable",
			"type": "function"
		},
		{
			"inputs": [
				{
					"internalType": "uint256",
					"name": "len",
					"type": "uint256"
				}
			],
			"name": "launchDomainLenAbort",
			"outputs": [],
			"stateMutability": "nonpayable",
			"type": "function"
		},
		{
			"inputs": [
				{
					"internalType": "uint256",
					"name": "len",
					"type": "uint256"
				},
				{
					"internalType": "uint256",
					"name": "price",
					"type": "uint256"
				},
				{
					"internalType": "uint256",
					"name": "openTime",
					"type": "uint256"
				},
				{
					"internalType": "uint256",
					"name": "foreverPrice",
					"type": "uint256"
				},
				{
					"internalType": "uint256",
					"name": "reNewPrice",
					"type": "uint256"
				}
			],
			"name": "launchDomainLenModify",
			"outputs": [],
			"stateMutability": "nonpayable",
			"type": "function"
		},
		{
			"inputs": [
				{
					"internalType": "string",
					"name": "name",
					"type": "string"
				},
				{
					"internalType": "uint256",
					"name": "price",
					"type": "uint256"
				},
				{
					"internalType": "uint256",
					"name": "openTime",
					"type": "uint256"
				},
				{
					"internalType": "uint256",
					"name": "foreverPrice",
					"type": "uint256"
				},
				{
					"internalType": "uint256",
					"name": "reNewPrice",
					"type": "uint256"
				}
			],
			"name": "launchDomainName",
			"outputs": [],
			"stateMutability": "nonpayable",
			"type": "function"
		},
		{
			"inputs": [
				{
					"internalType": "string",
					"name": "name",
					"type": "string"
				}
			],
			"name": "launchDomainNameAbort",
			"outputs": [],
			"stateMutability": "nonpayable",
			"type": "function"
		},
		{
			"inputs": [
				{
					"internalType": "string",
					"name": "name",
					"type": "string"
				},
				{
					"internalType": "uint256",
					"name": "price",
					"type": "uint256"
				},
				{
					"internalType": "uint256",
					"name": "openTime",
					"type": "uint256"
				},
				{
					"internalType": "uint256",
					"name": "foreverPrice",
					"type": "uint256"
				},
				{
					"internalType": "uint256",
					"name": "reNewPrice",
					"type": "uint256"
				}
			],
			"name": "launchDomainNameModify",
			"outputs": [],
			"stateMutability": "nonpayable",
			"type": "function"
		},
		{
			"inputs": [
				{
					"internalType": "string",
					"name": "typeName",
					"type": "string"
				},
				{
					"internalType": "uint256",
					"name": "price",
					"type": "uint256"
				},
				{
					"internalType": "uint256",
					"name": "openTime",
					"type": "uint256"
				},
				{
					"internalType": "uint256",
					"name": "foreverPrice",
					"type": "uint256"
				},
				{
					"internalType": "uint256",
					"name": "reNewPrice",
					"type": "uint256"
				}
			],
			"name": "launchDomainType",
			"outputs": [],
			"stateMutability": "nonpayable",
			"type": "function"
		},
		{
			"inputs": [
				{
					"internalType": "string",
					"name": "typeName",
					"type": "string"
				}
			],
			"name": "launchDomainTypeAbort",
			"outputs": [],
			"stateMutability": "nonpayable",
			"type": "function"
		},
		{
			"inputs": [
				{
					"internalType": "string",
					"name": "typeName",
					"type": "string"
				},
				{
					"internalType": "uint256",
					"name": "price",
					"type": "uint256"
				},
				{
					"internalType": "uint256",
					"name": "openTime",
					"type": "uint256"
				},
				{
					"internalType": "uint256",
					"name": "foreverPrice",
					"type": "uint256"
				},
				{
					"internalType": "uint256",
					"name": "reNewPrice",
					"type": "uint256"
				}
			],
			"name": "launchDomainTypeModify",
			"outputs": [],
			"stateMutability": "nonpayable",
			"type": "function"
		},
		{
			"inputs": [
				{
					"internalType": "string[]",
					"name": "tags",
					"type": "string[]"
				}
			],
			"name": "lockMaster",
			"outputs": [],
			"stateMutability": "nonpayable",
			"type": "function"
		},
		{
			"inputs": [
				{
					"internalType": "uint256",
					"name": "",
					"type": "uint256"
				}
			],
			"name": "masterLockStatus",
			"outputs": [
				{
					"internalType": "bool",
					"name": "",
					"type": "bool"
				}
			],
			"stateMutability": "view",
			"type": "function"
		},
		{
			"inputs": [],
			"name": "name",
			"outputs": [
				{
					"internalType": "string",
					"name": "",
					"type": "string"
				}
			],
			"stateMutability": "view",
			"type": "function"
		},
		{
			"inputs": [
				{
					"internalType": "uint256",
					"name": "id",
					"type": "uint256"
				}
			],
			"name": "nameExpires",
			"outputs": [
				{
					"internalType": "uint256",
					"name": "",
					"type": "uint256"
				}
			],
			"stateMutability": "view",
			"type": "function"
		},
		{
			"inputs": [],
			"name": "owner",
			"outputs": [
				{
					"internalType": "address",
					"name": "",
					"type": "address"
				}
			],
			"stateMutability": "view",
			"type": "function"
		},
		{
			"inputs": [
				{
					"internalType": "uint256",
					"name": "tokenId",
					"type": "uint256"
				}
			],
			"name": "ownerOf",
			"outputs": [
				{
					"internalType": "address",
					"name": "",
					"type": "address"
				}
			],
			"stateMutability": "view",
			"type": "function"
		},
		{
			"inputs": [
				{
					"internalType": "uint256",
					"name": "id",
					"type": "uint256"
				},
				{
					"internalType": "address",
					"name": "owner",
					"type": "address"
				}
			],
			"name": "reclaim",
			"outputs": [],
			"stateMutability": "nonpayable",
			"type": "function"
		},
		{
			"inputs": [
				{
					"internalType": "string",
					"name": "name",
					"type": "string"
				},
				{
					"internalType": "address",
					"name": "owner",
					"type": "address"
				},
				{
					"internalType": "uint256",
					"name": "duration",
					"type": "uint256"
				}
			],
			"name": "register",
			"outputs": [
				{
					"internalType": "uint256",
					"name": "",
					"type": "uint256"
				}
			],
			"stateMutability": "payable",
			"type": "function"
		},
		{
			"inputs": [
				{
					"internalType": "address",
					"name": "controller",
					"type": "address"
				}
			],
			"name": "removeController",
			"outputs": [],
			"stateMutability": "nonpayable",
			"type": "function"
		},
		{
			"inputs": [
				{
					"internalType": "string",
					"name": "name",
					"type": "string"
				},
				{
					"internalType": "uint256",
					"name": "duration",
					"type": "uint256"
				}
			],
			"name": "renew",
			"outputs": [
				{
					"internalType": "uint256",
					"name": "",
					"type": "uint256"
				}
			],
			"stateMutability": "payable",
			"type": "function"
		},
		{
			"inputs": [],
			"name": "renounceOwnership",
			"outputs": [],
			"stateMutability": "nonpayable",
			"type": "function"
		},
		{
			"inputs": [
				{
					"internalType": "address",
					"name": "from",
					"type": "address"
				},
				{
					"internalType": "address",
					"name": "to",
					"type": "address"
				},
				{
					"internalType": "uint256",
					"name": "tokenId",
					"type": "uint256"
				}
			],
			"name": "safeTransferFrom",
			"outputs": [],
			"stateMutability": "nonpayable",
			"type": "function"
		},
		{
			"inputs": [
				{
					"internalType": "address",
					"name": "from",
					"type": "address"
				},
				{
					"internalType": "address",
					"name": "to",
					"type": "address"
				},
				{
					"internalType": "uint256",
					"name": "tokenId",
					"type": "uint256"
				},
				{
					"internalType": "bytes",
					"name": "data",
					"type": "bytes"
				}
			],
			"name": "safeTransferFrom",
			"outputs": [],
			"stateMutability": "nonpayable",
			"type": "function"
		},
		{
			"inputs": [
				{
					"internalType": "address",
					"name": "operator",
					"type": "address"
				},
				{
					"internalType": "bool",
					"name": "approved",
					"type": "bool"
				}
			],
			"name": "setApprovalForAll",
			"outputs": [],
			"stateMutability": "nonpayable",
			"type": "function"
		},
		{
			"inputs": [
				{
					"internalType": "address",
					"name": "resolver",
					"type": "address"
				}
			],
			"name": "setResolver",
			"outputs": [],
			"stateMutability": "nonpayable",
			"type": "function"
		},
		{
			"inputs": [],
			"name": "sleepTwoSe",
			"outputs": [
				{
					"internalType": "uint256",
					"name": "",
					"type": "uint256"
				}
			],
			"stateMutability": "nonpayable",
			"type": "function"
		},
		{
			"inputs": [],
			"name": "sleepTwoSe1",
			"outputs": [
				{
					"internalType": "uint256",
					"name": "",
					"type": "uint256"
				}
			],
			"stateMutability": "nonpayable",
			"type": "function"
		},
		{
			"inputs": [
				{
					"internalType": "bytes4",
					"name": "interfaceID",
					"type": "bytes4"
				}
			],
			"name": "supportsInterface",
			"outputs": [
				{
					"internalType": "bool",
					"name": "",
					"type": "bool"
				}
			],
			"stateMutability": "view",
			"type": "function"
		},
		{
			"inputs": [],
			"name": "symbol",
			"outputs": [
				{
					"internalType": "string",
					"name": "",
					"type": "string"
				}
			],
			"stateMutability": "view",
			"type": "function"
		},
		{
			"inputs": [],
			"name": "test1",
			"outputs": [],
			"stateMutability": "view",
			"type": "function"
		},
		{
			"inputs": [
				{
					"internalType": "uint256",
					"name": "tokenId",
					"type": "uint256"
				}
			],
			"name": "tokenURI",
			"outputs": [
				{
					"internalType": "string",
					"name": "",
					"type": "string"
				}
			],
			"stateMutability": "view",
			"type": "function"
		},
		{
			"inputs": [],
			"name": "total",
			"outputs": [
				{
					"internalType": "uint256",
					"name": "",
					"type": "uint256"
				}
			],
			"stateMutability": "view",
			"type": "function"
		},
		{
			"inputs": [
				{
					"internalType": "address",
					"name": "to",
					"type": "address"
				},
				{
					"internalType": "string",
					"name": "name",
					"type": "string"
				}
			],
			"name": "transferDomainOwn",
			"outputs": [],
			"stateMutability": "nonpayable",
			"type": "function"
		},
		{
			"inputs": [
				{
					"internalType": "address",
					"name": "from",
					"type": "address"
				},
				{
					"internalType": "address",
					"name": "to",
					"type": "address"
				},
				{
					"internalType": "uint256",
					"name": "tokenId",
					"type": "uint256"
				}
			],
			"name": "transferFrom",
			"outputs": [],
			"stateMutability": "nonpayable",
			"type": "function"
		},
		{
			"inputs": [
				{
					"internalType": "address",
					"name": "newOwner",
					"type": "address"
				}
			],
			"name": "transferOwnership",
			"outputs": [],
			"stateMutability": "nonpayable",
			"type": "function"
		},
		{
			"inputs": [
				{
					"components": [
						{
							"internalType": "address",
							"name": "to",
							"type": "address"
						},
						{
							"internalType": "uint16",
							"name": "ratio",
							"type": "uint16"
						}
					],
					"internalType": "struct StockManager.Stock[]",
					"name": "stocks",
					"type": "tuple[]"
				}
			],
			"name": "transferStock",
			"outputs": [],
			"stateMutability": "nonpayable",
			"type": "function"
		},
		{
			"inputs": [
				{
					"internalType": "string[]",
					"name": "tags",
					"type": "string[]"
				}
			],
			"name": "unLockMaster",
			"outputs": [],
			"stateMutability": "nonpayable",
			"type": "function"
		},
		{
			"inputs": [
				{
					"internalType": "string",
					"name": "a",
					"type": "string"
				},
				{
					"internalType": "string",
					"name": "b",
					"type": "string"
				}
			],
			"name": "utilCompareInternal",
			"outputs": [
				{
					"internalType": "bool",
					"name": "",
					"type": "bool"
				}
			],
			"stateMutability": "pure",
			"type": "function"
		},
		{
			"inputs": [],
			"name": "withdraw",
			"outputs": [],
			"stateMutability": "nonpayable",
			"type": "function"
		},
		{
			"inputs": [
				{
					"internalType": "address",
					"name": "",
					"type": "address"
				}
			],
			"name": "withdrawRecord",
			"outputs": [
				{
					"internalType": "uint256",
					"name": "",
					"type": "uint256"
				}
			],
			"stateMutability": "view",
			"type": "function"
		}
	]
}